{
	"contracts/purchaseContract.sol": {
		"purchaseContract": {
			"abi": [
				{
					"inputs": [
						{
							"internalType": "uint256",
							"name": "",
							"type": "uint256"
						}
					],
					"name": "clients",
					"outputs": [
						{
							"internalType": "uint256",
							"name": "idclient",
							"type": "uint256"
						},
						{
							"internalType": "string",
							"name": "name",
							"type": "string"
						}
					],
					"stateMutability": "view",
					"type": "function"
				},
				{
					"inputs": [
						{
							"internalType": "uint256",
							"name": "",
							"type": "uint256"
						}
					],
					"name": "comics",
					"outputs": [
						{
							"internalType": "uint256",
							"name": "idcomic",
							"type": "uint256"
						},
						{
							"internalType": "int256",
							"name": "price",
							"type": "int256"
						},
						{
							"internalType": "string",
							"name": "name_comic",
							"type": "string"
						},
						{
							"internalType": "string",
							"name": "author",
							"type": "string"
						},
						{
							"internalType": "uint256",
							"name": "publish_date",
							"type": "uint256"
						},
						{
							"internalType": "int256",
							"name": "ISBN",
							"type": "int256"
						},
						{
							"components": [
								{
									"internalType": "uint256",
									"name": "idclient",
									"type": "uint256"
								},
								{
									"internalType": "string",
									"name": "name",
									"type": "string"
								}
							],
							"internalType": "struct purchaseContract.Client",
							"name": "owner",
							"type": "tuple"
						}
					],
					"stateMutability": "view",
					"type": "function"
				},
				{
					"inputs": [
						{
							"internalType": "string",
							"name": "_name",
							"type": "string"
						}
					],
					"name": "createClient",
					"outputs": [],
					"stateMutability": "nonpayable",
					"type": "function"
				},
				{
					"inputs": [
						{
							"internalType": "int256",
							"name": "_price",
							"type": "int256"
						},
						{
							"internalType": "string",
							"name": "_name_comic",
							"type": "string"
						},
						{
							"internalType": "string",
							"name": "_author",
							"type": "string"
						},
						{
							"internalType": "uint256",
							"name": "_publish_date",
							"type": "uint256"
						},
						{
							"internalType": "int256",
							"name": "_isbn",
							"type": "int256"
						},
						{
							"components": [
								{
									"internalType": "uint256",
									"name": "idclient",
									"type": "uint256"
								},
								{
									"internalType": "string",
									"name": "name",
									"type": "string"
								}
							],
							"internalType": "struct purchaseContract.Client",
							"name": "_owner",
							"type": "tuple"
						}
					],
					"name": "createComic",
					"outputs": [],
					"stateMutability": "nonpayable",
					"type": "function"
				},
				{
					"inputs": [
						{
							"internalType": "uint256",
							"name": "_purchase_date",
							"type": "uint256"
						},
						{
							"internalType": "uint256",
							"name": "_item_id",
							"type": "uint256"
						},
						{
							"internalType": "uint256",
							"name": "_owner_id",
							"type": "uint256"
						},
						{
							"internalType": "uint256",
							"name": "_buyer_id",
							"type": "uint256"
						}
					],
					"name": "createPurchase",
					"outputs": [],
					"stateMutability": "nonpayable",
					"type": "function"
				},
				{
					"inputs": [
						{
							"internalType": "uint256",
							"name": "_purchase_date",
							"type": "uint256"
						},
						{
							"components": [
								{
									"internalType": "uint256",
									"name": "idcomic",
									"type": "uint256"
								},
								{
									"internalType": "int256",
									"name": "price",
									"type": "int256"
								},
								{
									"internalType": "string",
									"name": "name_comic",
									"type": "string"
								},
								{
									"internalType": "string",
									"name": "author",
									"type": "string"
								},
								{
									"internalType": "uint256",
									"name": "publish_date",
									"type": "uint256"
								},
								{
									"internalType": "int256",
									"name": "ISBN",
									"type": "int256"
								},
								{
									"components": [
										{
											"internalType": "uint256",
											"name": "idclient",
											"type": "uint256"
										},
										{
											"internalType": "string",
											"name": "name",
											"type": "string"
										}
									],
									"internalType": "struct purchaseContract.Client",
									"name": "owner",
									"type": "tuple"
								}
							],
							"internalType": "struct purchaseContract.Comic",
							"name": "_item",
							"type": "tuple"
						},
						{
							"components": [
								{
									"internalType": "uint256",
									"name": "idclient",
									"type": "uint256"
								},
								{
									"internalType": "string",
									"name": "name",
									"type": "string"
								}
							],
							"internalType": "struct purchaseContract.Client",
							"name": "_owner",
							"type": "tuple"
						},
						{
							"components": [
								{
									"internalType": "uint256",
									"name": "idclient",
									"type": "uint256"
								},
								{
									"internalType": "string",
									"name": "name",
									"type": "string"
								}
							],
							"internalType": "struct purchaseContract.Client",
							"name": "_buyer",
							"type": "tuple"
						}
					],
					"name": "createPurchase",
					"outputs": [],
					"stateMutability": "nonpayable",
					"type": "function"
				},
				{
					"inputs": [
						{
							"internalType": "uint256",
							"name": "id",
							"type": "uint256"
						}
					],
					"name": "getClient",
					"outputs": [
						{
							"components": [
								{
									"internalType": "uint256",
									"name": "idclient",
									"type": "uint256"
								},
								{
									"internalType": "string",
									"name": "name",
									"type": "string"
								}
							],
							"internalType": "struct purchaseContract.Client",
							"name": "",
							"type": "tuple"
						}
					],
					"stateMutability": "view",
					"type": "function"
				},
				{
					"inputs": [
						{
							"internalType": "uint256",
							"name": "id",
							"type": "uint256"
						}
					],
					"name": "getComic",
					"outputs": [
						{
							"components": [
								{
									"internalType": "uint256",
									"name": "idcomic",
									"type": "uint256"
								},
								{
									"internalType": "int256",
									"name": "price",
									"type": "int256"
								},
								{
									"internalType": "string",
									"name": "name_comic",
									"type": "string"
								},
								{
									"internalType": "string",
									"name": "author",
									"type": "string"
								},
								{
									"internalType": "uint256",
									"name": "publish_date",
									"type": "uint256"
								},
								{
									"internalType": "int256",
									"name": "ISBN",
									"type": "int256"
								},
								{
									"components": [
										{
											"internalType": "uint256",
											"name": "idclient",
											"type": "uint256"
										},
										{
											"internalType": "string",
											"name": "name",
											"type": "string"
										}
									],
									"internalType": "struct purchaseContract.Client",
									"name": "owner",
									"type": "tuple"
								}
							],
							"internalType": "struct purchaseContract.Comic",
							"name": "",
							"type": "tuple"
						}
					],
					"stateMutability": "view",
					"type": "function"
				},
				{
					"inputs": [
						{
							"internalType": "uint256",
							"name": "id",
							"type": "uint256"
						}
					],
					"name": "getPurchase",
					"outputs": [
						{
							"components": [
								{
									"internalType": "uint256",
									"name": "idpurchase",
									"type": "uint256"
								},
								{
									"internalType": "uint256",
									"name": "purchase_date",
									"type": "uint256"
								},
								{
									"components": [
										{
											"internalType": "uint256",
											"name": "idcomic",
											"type": "uint256"
										},
										{
											"internalType": "int256",
											"name": "price",
											"type": "int256"
										},
										{
											"internalType": "string",
											"name": "name_comic",
											"type": "string"
										},
										{
											"internalType": "string",
											"name": "author",
											"type": "string"
										},
										{
											"internalType": "uint256",
											"name": "publish_date",
											"type": "uint256"
										},
										{
											"internalType": "int256",
											"name": "ISBN",
											"type": "int256"
										},
										{
											"components": [
												{
													"internalType": "uint256",
													"name": "idclient",
													"type": "uint256"
												},
												{
													"internalType": "string",
													"name": "name",
													"type": "string"
												}
											],
											"internalType": "struct purchaseContract.Client",
											"name": "owner",
											"type": "tuple"
										}
									],
									"internalType": "struct purchaseContract.Comic",
									"name": "item",
									"type": "tuple"
								},
								{
									"components": [
										{
											"internalType": "uint256",
											"name": "idclient",
											"type": "uint256"
										},
										{
											"internalType": "string",
											"name": "name",
											"type": "string"
										}
									],
									"internalType": "struct purchaseContract.Client",
									"name": "owner",
									"type": "tuple"
								},
								{
									"components": [
										{
											"internalType": "uint256",
											"name": "idclient",
											"type": "uint256"
										},
										{
											"internalType": "string",
											"name": "name",
											"type": "string"
										}
									],
									"internalType": "struct purchaseContract.Client",
									"name": "buyer",
									"type": "tuple"
								}
							],
							"internalType": "struct purchaseContract.Purchase",
							"name": "",
							"type": "tuple"
						}
					],
					"stateMutability": "view",
					"type": "function"
				},
				{
					"inputs": [],
					"name": "nextIdClients",
					"outputs": [
						{
							"internalType": "uint256",
							"name": "",
							"type": "uint256"
						}
					],
					"stateMutability": "view",
					"type": "function"
				},
				{
					"inputs": [],
					"name": "nextIdPurchase",
					"outputs": [
						{
							"internalType": "uint256",
							"name": "",
							"type": "uint256"
						}
					],
					"stateMutability": "view",
					"type": "function"
				},
				{
					"inputs": [],
					"name": "nextidComic",
					"outputs": [
						{
							"internalType": "uint256",
							"name": "",
							"type": "uint256"
						}
					],
					"stateMutability": "view",
					"type": "function"
				},
				{
					"inputs": [
						{
							"internalType": "uint256",
							"name": "",
							"type": "uint256"
						}
					],
					"name": "purchases",
					"outputs": [
						{
							"internalType": "uint256",
							"name": "idpurchase",
							"type": "uint256"
						},
						{
							"internalType": "uint256",
							"name": "purchase_date",
							"type": "uint256"
						},
						{
							"components": [
								{
									"internalType": "uint256",
									"name": "idcomic",
									"type": "uint256"
								},
								{
									"internalType": "int256",
									"name": "price",
									"type": "int256"
								},
								{
									"internalType": "string",
									"name": "name_comic",
									"type": "string"
								},
								{
									"internalType": "string",
									"name": "author",
									"type": "string"
								},
								{
									"internalType": "uint256",
									"name": "publish_date",
									"type": "uint256"
								},
								{
									"internalType": "int256",
									"name": "ISBN",
									"type": "int256"
								},
								{
									"components": [
										{
											"internalType": "uint256",
											"name": "idclient",
											"type": "uint256"
										},
										{
											"internalType": "string",
											"name": "name",
											"type": "string"
										}
									],
									"internalType": "struct purchaseContract.Client",
									"name": "owner",
									"type": "tuple"
								}
							],
							"internalType": "struct purchaseContract.Comic",
							"name": "item",
							"type": "tuple"
						},
						{
							"components": [
								{
									"internalType": "uint256",
									"name": "idclient",
									"type": "uint256"
								},
								{
									"internalType": "string",
									"name": "name",
									"type": "string"
								}
							],
							"internalType": "struct purchaseContract.Client",
							"name": "owner",
							"type": "tuple"
						},
						{
							"components": [
								{
									"internalType": "uint256",
									"name": "idclient",
									"type": "uint256"
								},
								{
									"internalType": "string",
									"name": "name",
									"type": "string"
								}
							],
							"internalType": "struct purchaseContract.Client",
							"name": "buyer",
							"type": "tuple"
						}
					],
					"stateMutability": "view",
					"type": "function"
				}
			],
			"devdoc": {
				"kind": "dev",
				"methods": {},
				"version": 1
			},
			"evm": {
				"assembly": "    /* \"contracts/purchaseContract.sol\":27:1892  contract purchaseContract {\r... */\n  mstore(0x40, 0x80)\n  callvalue\n  dup1\n  iszero\n  tag_1\n  jumpi\n  0x00\n  dup1\n  revert\ntag_1:\n  pop\n  dataSize(sub_0)\n  dup1\n  dataOffset(sub_0)\n  0x00\n  codecopy\n  0x00\n  return\nstop\n\nsub_0: assembly {\n        /* \"contracts/purchaseContract.sol\":27:1892  contract purchaseContract {\r... */\n      mstore(0x40, 0x80)\n      callvalue\n      dup1\n      iszero\n      tag_1\n      jumpi\n      0x00\n      dup1\n      revert\n    tag_1:\n      pop\n      jumpi(tag_2, lt(calldatasize, 0x04))\n      shr(0xe0, calldataload(0x00))\n      dup1\n      0x7a80dc1d\n      gt\n      tag_16\n      jumpi\n      dup1\n      0xe32bf8e4\n      gt\n      tag_17\n      jumpi\n      dup1\n      0xe32bf8e4\n      eq\n      tag_12\n      jumpi\n      dup1\n      0xe88e9f0f\n      eq\n      tag_13\n      jumpi\n      dup1\n      0xf88af21d\n      eq\n      tag_14\n      jumpi\n      dup1\n      0xfccd0046\n      eq\n      tag_15\n      jumpi\n      jump(tag_2)\n    tag_17:\n      dup1\n      0x7a80dc1d\n      eq\n      tag_9\n      jumpi\n      dup1\n      0x8392fe31\n      eq\n      tag_10\n      jumpi\n      dup1\n      0xd0068f80\n      eq\n      tag_11\n      jumpi\n      jump(tag_2)\n    tag_16:\n      dup1\n      0x1d78c52c\n      eq\n      tag_3\n      jumpi\n      dup1\n      0x2cb9d0e8\n      eq\n      tag_4\n      jumpi\n      dup1\n      0x3742a9f7\n      eq\n      tag_5\n      jumpi\n      dup1\n      0x47ac33ee\n      eq\n      tag_6\n      jumpi\n      dup1\n      0x5b02c922\n      eq\n      tag_7\n      jumpi\n      dup1\n      0x6f3ffbb9\n      eq\n      tag_8\n      jumpi\n    tag_2:\n      0x00\n      dup1\n      revert\n        /* \"contracts/purchaseContract.sol\":675:931  function createComic (int _price, string memory _name_comic, string memory _author, uint  _publish_date, int  _isbn, Client memory _owner) public{\r... */\n    tag_3:\n      tag_18\n      0x04\n      dup1\n      calldatasize\n      sub\n      dup2\n      add\n      swap1\n      tag_19\n      swap2\n      swap1\n      tag_20\n      jump\t// in\n    tag_19:\n      tag_21\n      jump\t// in\n    tag_18:\n      stop\n        /* \"contracts/purchaseContract.sol\":574:600  uint public nextIdPurchase */\n    tag_4:\n      tag_22\n      tag_23\n      jump\t// in\n    tag_22:\n      mload(0x40)\n      tag_24\n      swap2\n      swap1\n      tag_25\n      jump\t// in\n    tag_24:\n      mload(0x40)\n      dup1\n      swap2\n      sub\n      swap1\n      return\n        /* \"contracts/purchaseContract.sol\":1643:1749  function getPurchase(uint id) public view returns (Purchase memory){\r... */\n    tag_5:\n      tag_26\n      0x04\n      dup1\n      calldatasize\n      sub\n      dup2\n      add\n      swap1\n      tag_27\n      swap2\n      swap1\n      tag_28\n      jump\t// in\n    tag_27:\n      tag_29\n      jump\t// in\n    tag_26:\n      mload(0x40)\n      tag_30\n      swap2\n      swap1\n      tag_31\n      jump\t// in\n    tag_30:\n      mload(0x40)\n      dup1\n      swap2\n      sub\n      swap1\n      return\n        /* \"contracts/purchaseContract.sol\":939:1037  function getComic(uint id) public view returns (Comic memory) {\r... */\n    tag_6:\n      tag_32\n      0x04\n      dup1\n      calldatasize\n      sub\n      dup2\n      add\n      swap1\n      tag_33\n      swap2\n      swap1\n      tag_28\n      jump\t// in\n    tag_33:\n      tag_34\n      jump\t// in\n    tag_32:\n      mload(0x40)\n      tag_35\n      swap2\n      swap1\n      tag_36\n      jump\t// in\n    tag_35:\n      mload(0x40)\n      dup1\n      swap2\n      sub\n      swap1\n      return\n        /* \"contracts/purchaseContract.sol\":637:662  uint public nextIdClients */\n    tag_7:\n      tag_37\n      tag_38\n      jump\t// in\n    tag_37:\n      mload(0x40)\n      tag_39\n      swap2\n      swap1\n      tag_25\n      jump\t// in\n    tag_39:\n      mload(0x40)\n      dup1\n      swap2\n      sub\n      swap1\n      return\n        /* \"contracts/purchaseContract.sol\":510:533  uint public nextidComic */\n    tag_8:\n      tag_40\n      tag_41\n      jump\t// in\n    tag_40:\n      mload(0x40)\n      tag_42\n      swap2\n      swap1\n      tag_25\n      jump\t// in\n    tag_42:\n      mload(0x40)\n      dup1\n      swap2\n      sub\n      swap1\n      return\n        /* \"contracts/purchaseContract.sol\":481:502  Comic[] public comics */\n    tag_9:\n      tag_43\n      0x04\n      dup1\n      calldatasize\n      sub\n      dup2\n      add\n      swap1\n      tag_44\n      swap2\n      swap1\n      tag_28\n      jump\t// in\n    tag_44:\n      tag_45\n      jump\t// in\n    tag_43:\n      mload(0x40)\n      tag_46\n      swap8\n      swap7\n      swap6\n      swap5\n      swap4\n      swap3\n      swap2\n      swap1\n      tag_47\n      jump\t// in\n    tag_46:\n      mload(0x40)\n      dup1\n      swap2\n      sub\n      swap1\n      return\n        /* \"contracts/purchaseContract.sol\":540:567  Purchase[] public purchases */\n    tag_10:\n      tag_48\n      0x04\n      dup1\n      calldatasize\n      sub\n      dup2\n      add\n      swap1\n      tag_49\n      swap2\n      swap1\n      tag_28\n      jump\t// in\n    tag_49:\n      tag_50\n      jump\t// in\n    tag_48:\n      mload(0x40)\n      tag_51\n      swap6\n      swap5\n      swap4\n      swap3\n      swap2\n      swap1\n      tag_52\n      jump\t// in\n    tag_51:\n      mload(0x40)\n      dup1\n      swap2\n      sub\n      swap1\n      return\n        /* \"contracts/purchaseContract.sol\":1757:1857  function getClient(uint id) public view returns (Client memory){\r... */\n    tag_11:\n      tag_53\n      0x04\n      dup1\n      calldatasize\n      sub\n      dup2\n      add\n      swap1\n      tag_54\n      swap2\n      swap1\n      tag_28\n      jump\t// in\n    tag_54:\n      tag_55\n      jump\t// in\n    tag_53:\n      mload(0x40)\n      tag_56\n      swap2\n      swap1\n      tag_57\n      jump\t// in\n    tag_56:\n      mload(0x40)\n      dup1\n      swap2\n      sub\n      swap1\n      return\n        /* \"contracts/purchaseContract.sol\":1273:1510  function createPurchase(uint _purchase_date, uint  _item_id, uint  _owner_id, uint  _buyer_id) public {\r... */\n    tag_12:\n      tag_58\n      0x04\n      dup1\n      calldatasize\n      sub\n      dup2\n      add\n      swap1\n      tag_59\n      swap2\n      swap1\n      tag_60\n      jump\t// in\n    tag_59:\n      tag_61\n      jump\t// in\n    tag_58:\n      stop\n        /* \"contracts/purchaseContract.sol\":1522:1635  function createClient (string memory _name) public{\r... */\n    tag_13:\n      tag_62\n      0x04\n      dup1\n      calldatasize\n      sub\n      dup2\n      add\n      swap1\n      tag_63\n      swap2\n      swap1\n      tag_64\n      jump\t// in\n    tag_63:\n      tag_65\n      jump\t// in\n    tag_62:\n      stop\n        /* \"contracts/purchaseContract.sol\":607:630  Client[] public clients */\n    tag_14:\n      tag_66\n      0x04\n      dup1\n      calldatasize\n      sub\n      dup2\n      add\n      swap1\n      tag_67\n      swap2\n      swap1\n      tag_28\n      jump\t// in\n    tag_67:\n      tag_68\n      jump\t// in\n    tag_66:\n      mload(0x40)\n      tag_69\n      swap3\n      swap2\n      swap1\n      tag_70\n      jump\t// in\n    tag_69:\n      mload(0x40)\n      dup1\n      swap2\n      sub\n      swap1\n      return\n        /* \"contracts/purchaseContract.sol\":1045:1261  function createPurchase(uint _purchase_date, Comic memory _item, Client memory _owner, Client memory _buyer) public {\r... */\n    tag_15:\n      tag_71\n      0x04\n      dup1\n      calldatasize\n      sub\n      dup2\n      add\n      swap1\n      tag_72\n      swap2\n      swap1\n      tag_73\n      jump\t// in\n    tag_72:\n      tag_74\n      jump\t// in\n    tag_71:\n      stop\n        /* \"contracts/purchaseContract.sol\":675:931  function createComic (int _price, string memory _name_comic, string memory _author, uint  _publish_date, int  _isbn, Client memory _owner) public{\r... */\n    tag_21:\n        /* \"contracts/purchaseContract.sol\":831:837  comics */\n      0x00\n        /* \"contracts/purchaseContract.sol\":843:922  Comic(nextidComic++, _price,_name_comic, _author, _publish_date, _isbn, _owner) */\n      mload(0x40)\n      dup1\n      0xe0\n      add\n      0x40\n      mstore\n      dup1\n        /* \"contracts/purchaseContract.sol\":849:860  nextidComic */\n      0x01\n      0x00\n        /* \"contracts/purchaseContract.sol\":849:862  nextidComic++ */\n      dup2\n      sload\n      dup1\n      swap3\n      swap2\n      swap1\n      tag_76\n      swap1\n      tag_77\n      jump\t// in\n    tag_76:\n      swap2\n      swap1\n      pop\n      sstore\n        /* \"contracts/purchaseContract.sol\":843:922  Comic(nextidComic++, _price,_name_comic, _author, _publish_date, _isbn, _owner) */\n      dup2\n      mstore\n      0x20\n      add\n        /* \"contracts/purchaseContract.sol\":864:870  _price */\n      dup9\n        /* \"contracts/purchaseContract.sol\":843:922  Comic(nextidComic++, _price,_name_comic, _author, _publish_date, _isbn, _owner) */\n      dup2\n      mstore\n      0x20\n      add\n        /* \"contracts/purchaseContract.sol\":871:882  _name_comic */\n      dup8\n        /* \"contracts/purchaseContract.sol\":843:922  Comic(nextidComic++, _price,_name_comic, _author, _publish_date, _isbn, _owner) */\n      dup2\n      mstore\n      0x20\n      add\n        /* \"contracts/purchaseContract.sol\":884:891  _author */\n      dup7\n        /* \"contracts/purchaseContract.sol\":843:922  Comic(nextidComic++, _price,_name_comic, _author, _publish_date, _isbn, _owner) */\n      dup2\n      mstore\n      0x20\n      add\n        /* \"contracts/purchaseContract.sol\":893:906  _publish_date */\n      dup6\n        /* \"contracts/purchaseContract.sol\":843:922  Comic(nextidComic++, _price,_name_comic, _author, _publish_date, _isbn, _owner) */\n      dup2\n      mstore\n      0x20\n      add\n        /* \"contracts/purchaseContract.sol\":908:913  _isbn */\n      dup5\n        /* \"contracts/purchaseContract.sol\":843:922  Comic(nextidComic++, _price,_name_comic, _author, _publish_date, _isbn, _owner) */\n      dup2\n      mstore\n      0x20\n      add\n        /* \"contracts/purchaseContract.sol\":915:921  _owner */\n      dup4\n        /* \"contracts/purchaseContract.sol\":843:922  Comic(nextidComic++, _price,_name_comic, _author, _publish_date, _isbn, _owner) */\n      dup2\n      mstore\n      pop\n        /* \"contracts/purchaseContract.sol\":831:923  comics.push(Comic(nextidComic++, _price,_name_comic, _author, _publish_date, _isbn, _owner)) */\n      swap1\n      dup1\n      0x01\n      dup2\n      sload\n      add\n      dup1\n      dup3\n      sstore\n      dup1\n      swap2\n      pop\n      pop\n      0x01\n      swap1\n      sub\n      swap1\n      0x00\n      mstore\n      keccak256(0x00, 0x20)\n      swap1\n      0x08\n      mul\n      add\n      0x00\n      swap1\n      swap2\n      swap1\n      swap2\n      swap1\n      swap2\n      pop\n      0x00\n      dup3\n      add\n      mload\n      dup2\n      0x00\n      add\n      sstore\n      0x20\n      dup3\n      add\n      mload\n      dup2\n      0x01\n      add\n      sstore\n      0x40\n      dup3\n      add\n      mload\n      dup2\n      0x02\n      add\n      swap1\n      dup1\n      mload\n      swap1\n      0x20\n      add\n      swap1\n      tag_79\n      swap3\n      swap2\n      swap1\n      tag_80\n      jump\t// in\n    tag_79:\n      pop\n      0x60\n      dup3\n      add\n      mload\n      dup2\n      0x03\n      add\n      swap1\n      dup1\n      mload\n      swap1\n      0x20\n      add\n      swap1\n      tag_81\n      swap3\n      swap2\n      swap1\n      tag_80\n      jump\t// in\n    tag_81:\n      pop\n      0x80\n      dup3\n      add\n      mload\n      dup2\n      0x04\n      add\n      sstore\n      0xa0\n      dup3\n      add\n      mload\n      dup2\n      0x05\n      add\n      sstore\n      0xc0\n      dup3\n      add\n      mload\n      dup2\n      0x06\n      add\n      0x00\n      dup3\n      add\n      mload\n      dup2\n      0x00\n      add\n      sstore\n      0x20\n      dup3\n      add\n      mload\n      dup2\n      0x01\n      add\n      swap1\n      dup1\n      mload\n      swap1\n      0x20\n      add\n      swap1\n      tag_82\n      swap3\n      swap2\n      swap1\n      tag_80\n      jump\t// in\n    tag_82:\n      pop\n      pop\n      pop\n      pop\n      pop\n        /* \"contracts/purchaseContract.sol\":675:931  function createComic (int _price, string memory _name_comic, string memory _author, uint  _publish_date, int  _isbn, Client memory _owner) public{\r... */\n      pop\n      pop\n      pop\n      pop\n      pop\n      pop\n      jump\t// out\n        /* \"contracts/purchaseContract.sol\":574:600  uint public nextIdPurchase */\n    tag_23:\n      sload(0x03)\n      dup2\n      jump\t// out\n        /* \"contracts/purchaseContract.sol\":1643:1749  function getPurchase(uint id) public view returns (Purchase memory){\r... */\n    tag_29:\n        /* \"contracts/purchaseContract.sol\":1694:1709  Purchase memory */\n      tag_83\n      tag_84\n      jump\t// in\n    tag_83:\n        /* \"contracts/purchaseContract.sol\":1728:1737  purchases */\n      0x02\n        /* \"contracts/purchaseContract.sol\":1738:1740  id */\n      dup3\n        /* \"contracts/purchaseContract.sol\":1728:1741  purchases[id] */\n      dup2\n      sload\n      dup2\n      lt\n      tag_86\n      jumpi\n      tag_87\n      tag_88\n      jump\t// in\n    tag_87:\n    tag_86:\n      swap1\n      0x00\n      mstore\n      keccak256(0x00, 0x20)\n      swap1\n      0x0e\n      mul\n      add\n        /* \"contracts/purchaseContract.sol\":1721:1741  return purchases[id] */\n      mload(0x40)\n      dup1\n      0xa0\n      add\n      0x40\n      mstore\n      swap1\n      dup2\n      0x00\n      dup3\n      add\n      sload\n      dup2\n      mstore\n      0x20\n      add\n      0x01\n      dup3\n      add\n      sload\n      dup2\n      mstore\n      0x20\n      add\n      0x02\n      dup3\n      add\n      mload(0x40)\n      dup1\n      0xe0\n      add\n      0x40\n      mstore\n      swap1\n      dup2\n      0x00\n      dup3\n      add\n      sload\n      dup2\n      mstore\n      0x20\n      add\n      0x01\n      dup3\n      add\n      sload\n      dup2\n      mstore\n      0x20\n      add\n      0x02\n      dup3\n      add\n      dup1\n      sload\n      tag_90\n      swap1\n      tag_91\n      jump\t// in\n    tag_90:\n      dup1\n      0x1f\n      add\n      0x20\n      dup1\n      swap2\n      div\n      mul\n      0x20\n      add\n      mload(0x40)\n      swap1\n      dup2\n      add\n      0x40\n      mstore\n      dup1\n      swap3\n      swap2\n      swap1\n      dup2\n      dup2\n      mstore\n      0x20\n      add\n      dup3\n      dup1\n      sload\n      tag_92\n      swap1\n      tag_91\n      jump\t// in\n    tag_92:\n      dup1\n      iszero\n      tag_93\n      jumpi\n      dup1\n      0x1f\n      lt\n      tag_94\n      jumpi\n      0x0100\n      dup1\n      dup4\n      sload\n      div\n      mul\n      dup4\n      mstore\n      swap2\n      0x20\n      add\n      swap2\n      jump(tag_93)\n    tag_94:\n      dup3\n      add\n      swap2\n      swap1\n      0x00\n      mstore\n      keccak256(0x00, 0x20)\n      swap1\n    tag_95:\n      dup2\n      sload\n      dup2\n      mstore\n      swap1\n      0x01\n      add\n      swap1\n      0x20\n      add\n      dup1\n      dup4\n      gt\n      tag_95\n      jumpi\n      dup3\n      swap1\n      sub\n      0x1f\n      and\n      dup3\n      add\n      swap2\n    tag_93:\n      pop\n      pop\n      pop\n      pop\n      pop\n      dup2\n      mstore\n      0x20\n      add\n      0x03\n      dup3\n      add\n      dup1\n      sload\n      tag_96\n      swap1\n      tag_91\n      jump\t// in\n    tag_96:\n      dup1\n      0x1f\n      add\n      0x20\n      dup1\n      swap2\n      div\n      mul\n      0x20\n      add\n      mload(0x40)\n      swap1\n      dup2\n      add\n      0x40\n      mstore\n      dup1\n      swap3\n      swap2\n      swap1\n      dup2\n      dup2\n      mstore\n      0x20\n      add\n      dup3\n      dup1\n      sload\n      tag_97\n      swap1\n      tag_91\n      jump\t// in\n    tag_97:\n      dup1\n      iszero\n      tag_98\n      jumpi\n      dup1\n      0x1f\n      lt\n      tag_99\n      jumpi\n      0x0100\n      dup1\n      dup4\n      sload\n      div\n      mul\n      dup4\n      mstore\n      swap2\n      0x20\n      add\n      swap2\n      jump(tag_98)\n    tag_99:\n      dup3\n      add\n      swap2\n      swap1\n      0x00\n      mstore\n      keccak256(0x00, 0x20)\n      swap1\n    tag_100:\n      dup2\n      sload\n      dup2\n      mstore\n      swap1\n      0x01\n      add\n      swap1\n      0x20\n      add\n      dup1\n      dup4\n      gt\n      tag_100\n      jumpi\n      dup3\n      swap1\n      sub\n      0x1f\n      and\n      dup3\n      add\n      swap2\n    tag_98:\n      pop\n      pop\n      pop\n      pop\n      pop\n      dup2\n      mstore\n      0x20\n      add\n      0x04\n      dup3\n      add\n      sload\n      dup2\n      mstore\n      0x20\n      add\n      0x05\n      dup3\n      add\n      sload\n      dup2\n      mstore\n      0x20\n      add\n      0x06\n      dup3\n      add\n      mload(0x40)\n      dup1\n      0x40\n      add\n      0x40\n      mstore\n      swap1\n      dup2\n      0x00\n      dup3\n      add\n      sload\n      dup2\n      mstore\n      0x20\n      add\n      0x01\n      dup3\n      add\n      dup1\n      sload\n      tag_101\n      swap1\n      tag_91\n      jump\t// in\n    tag_101:\n      dup1\n      0x1f\n      add\n      0x20\n      dup1\n      swap2\n      div\n      mul\n      0x20\n      add\n      mload(0x40)\n      swap1\n      dup2\n      add\n      0x40\n      mstore\n      dup1\n      swap3\n      swap2\n      swap1\n      dup2\n      dup2\n      mstore\n      0x20\n      add\n      dup3\n      dup1\n      sload\n      tag_102\n      swap1\n      tag_91\n      jump\t// in\n    tag_102:\n      dup1\n      iszero\n      tag_103\n      jumpi\n      dup1\n      0x1f\n      lt\n      tag_104\n      jumpi\n      0x0100\n      dup1\n      dup4\n      sload\n      div\n      mul\n      dup4\n      mstore\n      swap2\n      0x20\n      add\n      swap2\n      jump(tag_103)\n    tag_104:\n      dup3\n      add\n      swap2\n      swap1\n      0x00\n      mstore\n      keccak256(0x00, 0x20)\n      swap1\n    tag_105:\n      dup2\n      sload\n      dup2\n      mstore\n      swap1\n      0x01\n      add\n      swap1\n      0x20\n      add\n      dup1\n      dup4\n      gt\n      tag_105\n      jumpi\n      dup3\n      swap1\n      sub\n      0x1f\n      and\n      dup3\n      add\n      swap2\n    tag_103:\n      pop\n      pop\n      pop\n      pop\n      pop\n      dup2\n      mstore\n      pop\n      pop\n      dup2\n      mstore\n      pop\n      pop\n      dup2\n      mstore\n      0x20\n      add\n      0x0a\n      dup3\n      add\n      mload(0x40)\n      dup1\n      0x40\n      add\n      0x40\n      mstore\n      swap1\n      dup2\n      0x00\n      dup3\n      add\n      sload\n      dup2\n      mstore\n      0x20\n      add\n      0x01\n      dup3\n      add\n      dup1\n      sload\n      tag_106\n      swap1\n      tag_91\n      jump\t// in\n    tag_106:\n      dup1\n      0x1f\n      add\n      0x20\n      dup1\n      swap2\n      div\n      mul\n      0x20\n      add\n      mload(0x40)\n      swap1\n      dup2\n      add\n      0x40\n      mstore\n      dup1\n      swap3\n      swap2\n      swap1\n      dup2\n      dup2\n      mstore\n      0x20\n      add\n      dup3\n      dup1\n      sload\n      tag_107\n      swap1\n      tag_91\n      jump\t// in\n    tag_107:\n      dup1\n      iszero\n      tag_108\n      jumpi\n      dup1\n      0x1f\n      lt\n      tag_109\n      jumpi\n      0x0100\n      dup1\n      dup4\n      sload\n      div\n      mul\n      dup4\n      mstore\n      swap2\n      0x20\n      add\n      swap2\n      jump(tag_108)\n    tag_109:\n      dup3\n      add\n      swap2\n      swap1\n      0x00\n      mstore\n      keccak256(0x00, 0x20)\n      swap1\n    tag_110:\n      dup2\n      sload\n      dup2\n      mstore\n      swap1\n      0x01\n      add\n      swap1\n      0x20\n      add\n      dup1\n      dup4\n      gt\n      tag_110\n      jumpi\n      dup3\n      swap1\n      sub\n      0x1f\n      and\n      dup3\n      add\n      swap2\n    tag_108:\n      pop\n      pop\n      pop\n      pop\n      pop\n      dup2\n      mstore\n      pop\n      pop\n      dup2\n      mstore\n      0x20\n      add\n      0x0c\n      dup3\n      add\n      mload(0x40)\n      dup1\n      0x40\n      add\n      0x40\n      mstore\n      swap1\n      dup2\n      0x00\n      dup3\n      add\n      sload\n      dup2\n      mstore\n      0x20\n      add\n      0x01\n      dup3\n      add\n      dup1\n      sload\n      tag_111\n      swap1\n      tag_91\n      jump\t// in\n    tag_111:\n      dup1\n      0x1f\n      add\n      0x20\n      dup1\n      swap2\n      div\n      mul\n      0x20\n      add\n      mload(0x40)\n      swap1\n      dup2\n      add\n      0x40\n      mstore\n      dup1\n      swap3\n      swap2\n      swap1\n      dup2\n      dup2\n      mstore\n      0x20\n      add\n      dup3\n      dup1\n      sload\n      tag_112\n      swap1\n      tag_91\n      jump\t// in\n    tag_112:\n      dup1\n      iszero\n      tag_113\n      jumpi\n      dup1\n      0x1f\n      lt\n      tag_114\n      jumpi\n      0x0100\n      dup1\n      dup4\n      sload\n      div\n      mul\n      dup4\n      mstore\n      swap2\n      0x20\n      add\n      swap2\n      jump(tag_113)\n    tag_114:\n      dup3\n      add\n      swap2\n      swap1\n      0x00\n      mstore\n      keccak256(0x00, 0x20)\n      swap1\n    tag_115:\n      dup2\n      sload\n      dup2\n      mstore\n      swap1\n      0x01\n      add\n      swap1\n      0x20\n      add\n      dup1\n      dup4\n      gt\n      tag_115\n      jumpi\n      dup3\n      swap1\n      sub\n      0x1f\n      and\n      dup3\n      add\n      swap2\n    tag_113:\n      pop\n      pop\n      pop\n      pop\n      pop\n      dup2\n      mstore\n      pop\n      pop\n      dup2\n      mstore\n      pop\n      pop\n      swap1\n      pop\n        /* \"contracts/purchaseContract.sol\":1643:1749  function getPurchase(uint id) public view returns (Purchase memory){\r... */\n      swap2\n      swap1\n      pop\n      jump\t// out\n        /* \"contracts/purchaseContract.sol\":939:1037  function getComic(uint id) public view returns (Comic memory) {\r... */\n    tag_34:\n        /* \"contracts/purchaseContract.sol\":987:999  Comic memory */\n      tag_116\n      tag_117\n      jump\t// in\n    tag_116:\n        /* \"contracts/purchaseContract.sol\":1019:1025  comics */\n      0x00\n        /* \"contracts/purchaseContract.sol\":1026:1028  id */\n      dup3\n        /* \"contracts/purchaseContract.sol\":1019:1029  comics[id] */\n      dup2\n      sload\n      dup2\n      lt\n      tag_119\n      jumpi\n      tag_120\n      tag_88\n      jump\t// in\n    tag_120:\n    tag_119:\n      swap1\n      0x00\n      mstore\n      keccak256(0x00, 0x20)\n      swap1\n      0x08\n      mul\n      add\n        /* \"contracts/purchaseContract.sol\":1012:1029  return comics[id] */\n      mload(0x40)\n      dup1\n      0xe0\n      add\n      0x40\n      mstore\n      swap1\n      dup2\n      0x00\n      dup3\n      add\n      sload\n      dup2\n      mstore\n      0x20\n      add\n      0x01\n      dup3\n      add\n      sload\n      dup2\n      mstore\n      0x20\n      add\n      0x02\n      dup3\n      add\n      dup1\n      sload\n      tag_122\n      swap1\n      tag_91\n      jump\t// in\n    tag_122:\n      dup1\n      0x1f\n      add\n      0x20\n      dup1\n      swap2\n      div\n      mul\n      0x20\n      add\n      mload(0x40)\n      swap1\n      dup2\n      add\n      0x40\n      mstore\n      dup1\n      swap3\n      swap2\n      swap1\n      dup2\n      dup2\n      mstore\n      0x20\n      add\n      dup3\n      dup1\n      sload\n      tag_123\n      swap1\n      tag_91\n      jump\t// in\n    tag_123:\n      dup1\n      iszero\n      tag_124\n      jumpi\n      dup1\n      0x1f\n      lt\n      tag_125\n      jumpi\n      0x0100\n      dup1\n      dup4\n      sload\n      div\n      mul\n      dup4\n      mstore\n      swap2\n      0x20\n      add\n      swap2\n      jump(tag_124)\n    tag_125:\n      dup3\n      add\n      swap2\n      swap1\n      0x00\n      mstore\n      keccak256(0x00, 0x20)\n      swap1\n    tag_126:\n      dup2\n      sload\n      dup2\n      mstore\n      swap1\n      0x01\n      add\n      swap1\n      0x20\n      add\n      dup1\n      dup4\n      gt\n      tag_126\n      jumpi\n      dup3\n      swap1\n      sub\n      0x1f\n      and\n      dup3\n      add\n      swap2\n    tag_124:\n      pop\n      pop\n      pop\n      pop\n      pop\n      dup2\n      mstore\n      0x20\n      add\n      0x03\n      dup3\n      add\n      dup1\n      sload\n      tag_127\n      swap1\n      tag_91\n      jump\t// in\n    tag_127:\n      dup1\n      0x1f\n      add\n      0x20\n      dup1\n      swap2\n      div\n      mul\n      0x20\n      add\n      mload(0x40)\n      swap1\n      dup2\n      add\n      0x40\n      mstore\n      dup1\n      swap3\n      swap2\n      swap1\n      dup2\n      dup2\n      mstore\n      0x20\n      add\n      dup3\n      dup1\n      sload\n      tag_128\n      swap1\n      tag_91\n      jump\t// in\n    tag_128:\n      dup1\n      iszero\n      tag_129\n      jumpi\n      dup1\n      0x1f\n      lt\n      tag_130\n      jumpi\n      0x0100\n      dup1\n      dup4\n      sload\n      div\n      mul\n      dup4\n      mstore\n      swap2\n      0x20\n      add\n      swap2\n      jump(tag_129)\n    tag_130:\n      dup3\n      add\n      swap2\n      swap1\n      0x00\n      mstore\n      keccak256(0x00, 0x20)\n      swap1\n    tag_131:\n      dup2\n      sload\n      dup2\n      mstore\n      swap1\n      0x01\n      add\n      swap1\n      0x20\n      add\n      dup1\n      dup4\n      gt\n      tag_131\n      jumpi\n      dup3\n      swap1\n      sub\n      0x1f\n      and\n      dup3\n      add\n      swap2\n    tag_129:\n      pop\n      pop\n      pop\n      pop\n      pop\n      dup2\n      mstore\n      0x20\n      add\n      0x04\n      dup3\n      add\n      sload\n      dup2\n      mstore\n      0x20\n      add\n      0x05\n      dup3\n      add\n      sload\n      dup2\n      mstore\n      0x20\n      add\n      0x06\n      dup3\n      add\n      mload(0x40)\n      dup1\n      0x40\n      add\n      0x40\n      mstore\n      swap1\n      dup2\n      0x00\n      dup3\n      add\n      sload\n      dup2\n      mstore\n      0x20\n      add\n      0x01\n      dup3\n      add\n      dup1\n      sload\n      tag_132\n      swap1\n      tag_91\n      jump\t// in\n    tag_132:\n      dup1\n      0x1f\n      add\n      0x20\n      dup1\n      swap2\n      div\n      mul\n      0x20\n      add\n      mload(0x40)\n      swap1\n      dup2\n      add\n      0x40\n      mstore\n      dup1\n      swap3\n      swap2\n      swap1\n      dup2\n      dup2\n      mstore\n      0x20\n      add\n      dup3\n      dup1\n      sload\n      tag_133\n      swap1\n      tag_91\n      jump\t// in\n    tag_133:\n      dup1\n      iszero\n      tag_134\n      jumpi\n      dup1\n      0x1f\n      lt\n      tag_135\n      jumpi\n      0x0100\n      dup1\n      dup4\n      sload\n      div\n      mul\n      dup4\n      mstore\n      swap2\n      0x20\n      add\n      swap2\n      jump(tag_134)\n    tag_135:\n      dup3\n      add\n      swap2\n      swap1\n      0x00\n      mstore\n      keccak256(0x00, 0x20)\n      swap1\n    tag_136:\n      dup2\n      sload\n      dup2\n      mstore\n      swap1\n      0x01\n      add\n      swap1\n      0x20\n      add\n      dup1\n      dup4\n      gt\n      tag_136\n      jumpi\n      dup3\n      swap1\n      sub\n      0x1f\n      and\n      dup3\n      add\n      swap2\n    tag_134:\n      pop\n      pop\n      pop\n      pop\n      pop\n      dup2\n      mstore\n      pop\n      pop\n      dup2\n      mstore\n      pop\n      pop\n      swap1\n      pop\n        /* \"contracts/purchaseContract.sol\":939:1037  function getComic(uint id) public view returns (Comic memory) {\r... */\n      swap2\n      swap1\n      pop\n      jump\t// out\n        /* \"contracts/purchaseContract.sol\":637:662  uint public nextIdClients */\n    tag_38:\n      sload(0x05)\n      dup2\n      jump\t// out\n        /* \"contracts/purchaseContract.sol\":510:533  uint public nextidComic */\n    tag_41:\n      sload(0x01)\n      dup2\n      jump\t// out\n        /* \"contracts/purchaseContract.sol\":481:502  Comic[] public comics */\n    tag_45:\n      0x00\n      dup2\n      dup2\n      sload\n      dup2\n      lt\n      tag_137\n      jumpi\n      0x00\n      dup1\n      revert\n    tag_137:\n      swap1\n      0x00\n      mstore\n      keccak256(0x00, 0x20)\n      swap1\n      0x08\n      mul\n      add\n      0x00\n      swap2\n      pop\n      swap1\n      pop\n      dup1\n      0x00\n      add\n      sload\n      swap1\n      dup1\n      0x01\n      add\n      sload\n      swap1\n      dup1\n      0x02\n      add\n      dup1\n      sload\n      tag_139\n      swap1\n      tag_91\n      jump\t// in\n    tag_139:\n      dup1\n      0x1f\n      add\n      0x20\n      dup1\n      swap2\n      div\n      mul\n      0x20\n      add\n      mload(0x40)\n      swap1\n      dup2\n      add\n      0x40\n      mstore\n      dup1\n      swap3\n      swap2\n      swap1\n      dup2\n      dup2\n      mstore\n      0x20\n      add\n      dup3\n      dup1\n      sload\n      tag_140\n      swap1\n      tag_91\n      jump\t// in\n    tag_140:\n      dup1\n      iszero\n      tag_141\n      jumpi\n      dup1\n      0x1f\n      lt\n      tag_142\n      jumpi\n      0x0100\n      dup1\n      dup4\n      sload\n      div\n      mul\n      dup4\n      mstore\n      swap2\n      0x20\n      add\n      swap2\n      jump(tag_141)\n    tag_142:\n      dup3\n      add\n      swap2\n      swap1\n      0x00\n      mstore\n      keccak256(0x00, 0x20)\n      swap1\n    tag_143:\n      dup2\n      sload\n      dup2\n      mstore\n      swap1\n      0x01\n      add\n      swap1\n      0x20\n      add\n      dup1\n      dup4\n      gt\n      tag_143\n      jumpi\n      dup3\n      swap1\n      sub\n      0x1f\n      and\n      dup3\n      add\n      swap2\n    tag_141:\n      pop\n      pop\n      pop\n      pop\n      pop\n      swap1\n      dup1\n      0x03\n      add\n      dup1\n      sload\n      tag_144\n      swap1\n      tag_91\n      jump\t// in\n    tag_144:\n      dup1\n      0x1f\n      add\n      0x20\n      dup1\n      swap2\n      div\n      mul\n      0x20\n      add\n      mload(0x40)\n      swap1\n      dup2\n      add\n      0x40\n      mstore\n      dup1\n      swap3\n      swap2\n      swap1\n      dup2\n      dup2\n      mstore\n      0x20\n      add\n      dup3\n      dup1\n      sload\n      tag_145\n      swap1\n      tag_91\n      jump\t// in\n    tag_145:\n      dup1\n      iszero\n      tag_146\n      jumpi\n      dup1\n      0x1f\n      lt\n      tag_147\n      jumpi\n      0x0100\n      dup1\n      dup4\n      sload\n      div\n      mul\n      dup4\n      mstore\n      swap2\n      0x20\n      add\n      swap2\n      jump(tag_146)\n    tag_147:\n      dup3\n      add\n      swap2\n      swap1\n      0x00\n      mstore\n      keccak256(0x00, 0x20)\n      swap1\n    tag_148:\n      dup2\n      sload\n      dup2\n      mstore\n      swap1\n      0x01\n      add\n      swap1\n      0x20\n      add\n      dup1\n      dup4\n      gt\n      tag_148\n      jumpi\n      dup3\n      swap1\n      sub\n      0x1f\n      and\n      dup3\n      add\n      swap2\n    tag_146:\n      pop\n      pop\n      pop\n      pop\n      pop\n      swap1\n      dup1\n      0x04\n      add\n      sload\n      swap1\n      dup1\n      0x05\n      add\n      sload\n      swap1\n      dup1\n      0x06\n      add\n      mload(0x40)\n      dup1\n      0x40\n      add\n      0x40\n      mstore\n      swap1\n      dup2\n      0x00\n      dup3\n      add\n      sload\n      dup2\n      mstore\n      0x20\n      add\n      0x01\n      dup3\n      add\n      dup1\n      sload\n      tag_149\n      swap1\n      tag_91\n      jump\t// in\n    tag_149:\n      dup1\n      0x1f\n      add\n      0x20\n      dup1\n      swap2\n      div\n      mul\n      0x20\n      add\n      mload(0x40)\n      swap1\n      dup2\n      add\n      0x40\n      mstore\n      dup1\n      swap3\n      swap2\n      swap1\n      dup2\n      dup2\n      mstore\n      0x20\n      add\n      dup3\n      dup1\n      sload\n      tag_150\n      swap1\n      tag_91\n      jump\t// in\n    tag_150:\n      dup1\n      iszero\n      tag_151\n      jumpi\n      dup1\n      0x1f\n      lt\n      tag_152\n      jumpi\n      0x0100\n      dup1\n      dup4\n      sload\n      div\n      mul\n      dup4\n      mstore\n      swap2\n      0x20\n      add\n      swap2\n      jump(tag_151)\n    tag_152:\n      dup3\n      add\n      swap2\n      swap1\n      0x00\n      mstore\n      keccak256(0x00, 0x20)\n      swap1\n    tag_153:\n      dup2\n      sload\n      dup2\n      mstore\n      swap1\n      0x01\n      add\n      swap1\n      0x20\n      add\n      dup1\n      dup4\n      gt\n      tag_153\n      jumpi\n      dup3\n      swap1\n      sub\n      0x1f\n      and\n      dup3\n      add\n      swap2\n    tag_151:\n      pop\n      pop\n      pop\n      pop\n      pop\n      dup2\n      mstore\n      pop\n      pop\n      swap1\n      pop\n      dup8\n      jump\t// out\n        /* \"contracts/purchaseContract.sol\":540:567  Purchase[] public purchases */\n    tag_50:\n      0x02\n      dup2\n      dup2\n      sload\n      dup2\n      lt\n      tag_154\n      jumpi\n      0x00\n      dup1\n      revert\n    tag_154:\n      swap1\n      0x00\n      mstore\n      keccak256(0x00, 0x20)\n      swap1\n      0x0e\n      mul\n      add\n      0x00\n      swap2\n      pop\n      swap1\n      pop\n      dup1\n      0x00\n      add\n      sload\n      swap1\n      dup1\n      0x01\n      add\n      sload\n      swap1\n      dup1\n      0x02\n      add\n      mload(0x40)\n      dup1\n      0xe0\n      add\n      0x40\n      mstore\n      swap1\n      dup2\n      0x00\n      dup3\n      add\n      sload\n      dup2\n      mstore\n      0x20\n      add\n      0x01\n      dup3\n      add\n      sload\n      dup2\n      mstore\n      0x20\n      add\n      0x02\n      dup3\n      add\n      dup1\n      sload\n      tag_156\n      swap1\n      tag_91\n      jump\t// in\n    tag_156:\n      dup1\n      0x1f\n      add\n      0x20\n      dup1\n      swap2\n      div\n      mul\n      0x20\n      add\n      mload(0x40)\n      swap1\n      dup2\n      add\n      0x40\n      mstore\n      dup1\n      swap3\n      swap2\n      swap1\n      dup2\n      dup2\n      mstore\n      0x20\n      add\n      dup3\n      dup1\n      sload\n      tag_157\n      swap1\n      tag_91\n      jump\t// in\n    tag_157:\n      dup1\n      iszero\n      tag_158\n      jumpi\n      dup1\n      0x1f\n      lt\n      tag_159\n      jumpi\n      0x0100\n      dup1\n      dup4\n      sload\n      div\n      mul\n      dup4\n      mstore\n      swap2\n      0x20\n      add\n      swap2\n      jump(tag_158)\n    tag_159:\n      dup3\n      add\n      swap2\n      swap1\n      0x00\n      mstore\n      keccak256(0x00, 0x20)\n      swap1\n    tag_160:\n      dup2\n      sload\n      dup2\n      mstore\n      swap1\n      0x01\n      add\n      swap1\n      0x20\n      add\n      dup1\n      dup4\n      gt\n      tag_160\n      jumpi\n      dup3\n      swap1\n      sub\n      0x1f\n      and\n      dup3\n      add\n      swap2\n    tag_158:\n      pop\n      pop\n      pop\n      pop\n      pop\n      dup2\n      mstore\n      0x20\n      add\n      0x03\n      dup3\n      add\n      dup1\n      sload\n      tag_161\n      swap1\n      tag_91\n      jump\t// in\n    tag_161:\n      dup1\n      0x1f\n      add\n      0x20\n      dup1\n      swap2\n      div\n      mul\n      0x20\n      add\n      mload(0x40)\n      swap1\n      dup2\n      add\n      0x40\n      mstore\n      dup1\n      swap3\n      swap2\n      swap1\n      dup2\n      dup2\n      mstore\n      0x20\n      add\n      dup3\n      dup1\n      sload\n      tag_162\n      swap1\n      tag_91\n      jump\t// in\n    tag_162:\n      dup1\n      iszero\n      tag_163\n      jumpi\n      dup1\n      0x1f\n      lt\n      tag_164\n      jumpi\n      0x0100\n      dup1\n      dup4\n      sload\n      div\n      mul\n      dup4\n      mstore\n      swap2\n      0x20\n      add\n      swap2\n      jump(tag_163)\n    tag_164:\n      dup3\n      add\n      swap2\n      swap1\n      0x00\n      mstore\n      keccak256(0x00, 0x20)\n      swap1\n    tag_165:\n      dup2\n      sload\n      dup2\n      mstore\n      swap1\n      0x01\n      add\n      swap1\n      0x20\n      add\n      dup1\n      dup4\n      gt\n      tag_165\n      jumpi\n      dup3\n      swap1\n      sub\n      0x1f\n      and\n      dup3\n      add\n      swap2\n    tag_163:\n      pop\n      pop\n      pop\n      pop\n      pop\n      dup2\n      mstore\n      0x20\n      add\n      0x04\n      dup3\n      add\n      sload\n      dup2\n      mstore\n      0x20\n      add\n      0x05\n      dup3\n      add\n      sload\n      dup2\n      mstore\n      0x20\n      add\n      0x06\n      dup3\n      add\n      mload(0x40)\n      dup1\n      0x40\n      add\n      0x40\n      mstore\n      swap1\n      dup2\n      0x00\n      dup3\n      add\n      sload\n      dup2\n      mstore\n      0x20\n      add\n      0x01\n      dup3\n      add\n      dup1\n      sload\n      tag_166\n      swap1\n      tag_91\n      jump\t// in\n    tag_166:\n      dup1\n      0x1f\n      add\n      0x20\n      dup1\n      swap2\n      div\n      mul\n      0x20\n      add\n      mload(0x40)\n      swap1\n      dup2\n      add\n      0x40\n      mstore\n      dup1\n      swap3\n      swap2\n      swap1\n      dup2\n      dup2\n      mstore\n      0x20\n      add\n      dup3\n      dup1\n      sload\n      tag_167\n      swap1\n      tag_91\n      jump\t// in\n    tag_167:\n      dup1\n      iszero\n      tag_168\n      jumpi\n      dup1\n      0x1f\n      lt\n      tag_169\n      jumpi\n      0x0100\n      dup1\n      dup4\n      sload\n      div\n      mul\n      dup4\n      mstore\n      swap2\n      0x20\n      add\n      swap2\n      jump(tag_168)\n    tag_169:\n      dup3\n      add\n      swap2\n      swap1\n      0x00\n      mstore\n      keccak256(0x00, 0x20)\n      swap1\n    tag_170:\n      dup2\n      sload\n      dup2\n      mstore\n      swap1\n      0x01\n      add\n      swap1\n      0x20\n      add\n      dup1\n      dup4\n      gt\n      tag_170\n      jumpi\n      dup3\n      swap1\n      sub\n      0x1f\n      and\n      dup3\n      add\n      swap2\n    tag_168:\n      pop\n      pop\n      pop\n      pop\n      pop\n      dup2\n      mstore\n      pop\n      pop\n      dup2\n      mstore\n      pop\n      pop\n      swap1\n      dup1\n      0x0a\n      add\n      mload(0x40)\n      dup1\n      0x40\n      add\n      0x40\n      mstore\n      swap1\n      dup2\n      0x00\n      dup3\n      add\n      sload\n      dup2\n      mstore\n      0x20\n      add\n      0x01\n      dup3\n      add\n      dup1\n      sload\n      tag_171\n      swap1\n      tag_91\n      jump\t// in\n    tag_171:\n      dup1\n      0x1f\n      add\n      0x20\n      dup1\n      swap2\n      div\n      mul\n      0x20\n      add\n      mload(0x40)\n      swap1\n      dup2\n      add\n      0x40\n      mstore\n      dup1\n      swap3\n      swap2\n      swap1\n      dup2\n      dup2\n      mstore\n      0x20\n      add\n      dup3\n      dup1\n      sload\n      tag_172\n      swap1\n      tag_91\n      jump\t// in\n    tag_172:\n      dup1\n      iszero\n      tag_173\n      jumpi\n      dup1\n      0x1f\n      lt\n      tag_174\n      jumpi\n      0x0100\n      dup1\n      dup4\n      sload\n      div\n      mul\n      dup4\n      mstore\n      swap2\n      0x20\n      add\n      swap2\n      jump(tag_173)\n    tag_174:\n      dup3\n      add\n      swap2\n      swap1\n      0x00\n      mstore\n      keccak256(0x00, 0x20)\n      swap1\n    tag_175:\n      dup2\n      sload\n      dup2\n      mstore\n      swap1\n      0x01\n      add\n      swap1\n      0x20\n      add\n      dup1\n      dup4\n      gt\n      tag_175\n      jumpi\n      dup3\n      swap1\n      sub\n      0x1f\n      and\n      dup3\n      add\n      swap2\n    tag_173:\n      pop\n      pop\n      pop\n      pop\n      pop\n      dup2\n      mstore\n      pop\n      pop\n      swap1\n      dup1\n      0x0c\n      add\n      mload(0x40)\n      dup1\n      0x40\n      add\n      0x40\n      mstore\n      swap1\n      dup2\n      0x00\n      dup3\n      add\n      sload\n      dup2\n      mstore\n      0x20\n      add\n      0x01\n      dup3\n      add\n      dup1\n      sload\n      tag_176\n      swap1\n      tag_91\n      jump\t// in\n    tag_176:\n      dup1\n      0x1f\n      add\n      0x20\n      dup1\n      swap2\n      div\n      mul\n      0x20\n      add\n      mload(0x40)\n      swap1\n      dup2\n      add\n      0x40\n      mstore\n      dup1\n      swap3\n      swap2\n      swap1\n      dup2\n      dup2\n      mstore\n      0x20\n      add\n      dup3\n      dup1\n      sload\n      tag_177\n      swap1\n      tag_91\n      jump\t// in\n    tag_177:\n      dup1\n      iszero\n      tag_178\n      jumpi\n      dup1\n      0x1f\n      lt\n      tag_179\n      jumpi\n      0x0100\n      dup1\n      dup4\n      sload\n      div\n      mul\n      dup4\n      mstore\n      swap2\n      0x20\n      add\n      swap2\n      jump(tag_178)\n    tag_179:\n      dup3\n      add\n      swap2\n      swap1\n      0x00\n      mstore\n      keccak256(0x00, 0x20)\n      swap1\n    tag_180:\n      dup2\n      sload\n      dup2\n      mstore\n      swap1\n      0x01\n      add\n      swap1\n      0x20\n      add\n      dup1\n      dup4\n      gt\n      tag_180\n      jumpi\n      dup3\n      swap1\n      sub\n      0x1f\n      and\n      dup3\n      add\n      swap2\n    tag_178:\n      pop\n      pop\n      pop\n      pop\n      pop\n      dup2\n      mstore\n      pop\n      pop\n      swap1\n      pop\n      dup6\n      jump\t// out\n        /* \"contracts/purchaseContract.sol\":1757:1857  function getClient(uint id) public view returns (Client memory){\r... */\n    tag_55:\n        /* \"contracts/purchaseContract.sol\":1806:1819  Client memory */\n      tag_181\n      tag_182\n      jump\t// in\n    tag_181:\n        /* \"contracts/purchaseContract.sol\":1838:1845  clients */\n      0x04\n        /* \"contracts/purchaseContract.sol\":1846:1848  id */\n      dup3\n        /* \"contracts/purchaseContract.sol\":1838:1849  clients[id] */\n      dup2\n      sload\n      dup2\n      lt\n      tag_184\n      jumpi\n      tag_185\n      tag_88\n      jump\t// in\n    tag_185:\n    tag_184:\n      swap1\n      0x00\n      mstore\n      keccak256(0x00, 0x20)\n      swap1\n      0x02\n      mul\n      add\n        /* \"contracts/purchaseContract.sol\":1831:1849  return clients[id] */\n      mload(0x40)\n      dup1\n      0x40\n      add\n      0x40\n      mstore\n      swap1\n      dup2\n      0x00\n      dup3\n      add\n      sload\n      dup2\n      mstore\n      0x20\n      add\n      0x01\n      dup3\n      add\n      dup1\n      sload\n      tag_187\n      swap1\n      tag_91\n      jump\t// in\n    tag_187:\n      dup1\n      0x1f\n      add\n      0x20\n      dup1\n      swap2\n      div\n      mul\n      0x20\n      add\n      mload(0x40)\n      swap1\n      dup2\n      add\n      0x40\n      mstore\n      dup1\n      swap3\n      swap2\n      swap1\n      dup2\n      dup2\n      mstore\n      0x20\n      add\n      dup3\n      dup1\n      sload\n      tag_188\n      swap1\n      tag_91\n      jump\t// in\n    tag_188:\n      dup1\n      iszero\n      tag_189\n      jumpi\n      dup1\n      0x1f\n      lt\n      tag_190\n      jumpi\n      0x0100\n      dup1\n      dup4\n      sload\n      div\n      mul\n      dup4\n      mstore\n      swap2\n      0x20\n      add\n      swap2\n      jump(tag_189)\n    tag_190:\n      dup3\n      add\n      swap2\n      swap1\n      0x00\n      mstore\n      keccak256(0x00, 0x20)\n      swap1\n    tag_191:\n      dup2\n      sload\n      dup2\n      mstore\n      swap1\n      0x01\n      add\n      swap1\n      0x20\n      add\n      dup1\n      dup4\n      gt\n      tag_191\n      jumpi\n      dup3\n      swap1\n      sub\n      0x1f\n      and\n      dup3\n      add\n      swap2\n    tag_189:\n      pop\n      pop\n      pop\n      pop\n      pop\n      dup2\n      mstore\n      pop\n      pop\n      swap1\n      pop\n        /* \"contracts/purchaseContract.sol\":1757:1857  function getClient(uint id) public view returns (Client memory){\r... */\n      swap2\n      swap1\n      pop\n      jump\t// out\n        /* \"contracts/purchaseContract.sol\":1273:1510  function createPurchase(uint _purchase_date, uint  _item_id, uint  _owner_id, uint  _buyer_id) public {\r... */\n    tag_61:\n        /* \"contracts/purchaseContract.sol\":1386:1395  purchases */\n      0x02\n        /* \"contracts/purchaseContract.sol\":1401:1501  Purchase(nextIdPurchase++, _purchase_date, comics[_item_id], clients[_owner_id], clients[_buyer_id]) */\n      mload(0x40)\n      dup1\n      0xa0\n      add\n      0x40\n      mstore\n      dup1\n        /* \"contracts/purchaseContract.sol\":1410:1424  nextIdPurchase */\n      0x03\n      0x00\n        /* \"contracts/purchaseContract.sol\":1410:1426  nextIdPurchase++ */\n      dup2\n      sload\n      dup1\n      swap3\n      swap2\n      swap1\n      tag_193\n      swap1\n      tag_77\n      jump\t// in\n    tag_193:\n      swap2\n      swap1\n      pop\n      sstore\n        /* \"contracts/purchaseContract.sol\":1401:1501  Purchase(nextIdPurchase++, _purchase_date, comics[_item_id], clients[_owner_id], clients[_buyer_id]) */\n      dup2\n      mstore\n      0x20\n      add\n        /* \"contracts/purchaseContract.sol\":1428:1442  _purchase_date */\n      dup7\n        /* \"contracts/purchaseContract.sol\":1401:1501  Purchase(nextIdPurchase++, _purchase_date, comics[_item_id], clients[_owner_id], clients[_buyer_id]) */\n      dup2\n      mstore\n      0x20\n      add\n        /* \"contracts/purchaseContract.sol\":1444:1450  comics */\n      0x00\n        /* \"contracts/purchaseContract.sol\":1451:1459  _item_id */\n      dup7\n        /* \"contracts/purchaseContract.sol\":1444:1460  comics[_item_id] */\n      dup2\n      sload\n      dup2\n      lt\n      tag_194\n      jumpi\n      tag_195\n      tag_88\n      jump\t// in\n    tag_195:\n    tag_194:\n      swap1\n      0x00\n      mstore\n      keccak256(0x00, 0x20)\n      swap1\n      0x08\n      mul\n      add\n        /* \"contracts/purchaseContract.sol\":1401:1501  Purchase(nextIdPurchase++, _purchase_date, comics[_item_id], clients[_owner_id], clients[_buyer_id]) */\n      mload(0x40)\n      dup1\n      0xe0\n      add\n      0x40\n      mstore\n      swap1\n      dup2\n      0x00\n      dup3\n      add\n      sload\n      dup2\n      mstore\n      0x20\n      add\n      0x01\n      dup3\n      add\n      sload\n      dup2\n      mstore\n      0x20\n      add\n      0x02\n      dup3\n      add\n      dup1\n      sload\n      tag_197\n      swap1\n      tag_91\n      jump\t// in\n    tag_197:\n      dup1\n      0x1f\n      add\n      0x20\n      dup1\n      swap2\n      div\n      mul\n      0x20\n      add\n      mload(0x40)\n      swap1\n      dup2\n      add\n      0x40\n      mstore\n      dup1\n      swap3\n      swap2\n      swap1\n      dup2\n      dup2\n      mstore\n      0x20\n      add\n      dup3\n      dup1\n      sload\n      tag_198\n      swap1\n      tag_91\n      jump\t// in\n    tag_198:\n      dup1\n      iszero\n      tag_199\n      jumpi\n      dup1\n      0x1f\n      lt\n      tag_200\n      jumpi\n      0x0100\n      dup1\n      dup4\n      sload\n      div\n      mul\n      dup4\n      mstore\n      swap2\n      0x20\n      add\n      swap2\n      jump(tag_199)\n    tag_200:\n      dup3\n      add\n      swap2\n      swap1\n      0x00\n      mstore\n      keccak256(0x00, 0x20)\n      swap1\n    tag_201:\n      dup2\n      sload\n      dup2\n      mstore\n      swap1\n      0x01\n      add\n      swap1\n      0x20\n      add\n      dup1\n      dup4\n      gt\n      tag_201\n      jumpi\n      dup3\n      swap1\n      sub\n      0x1f\n      and\n      dup3\n      add\n      swap2\n    tag_199:\n      pop\n      pop\n      pop\n      pop\n      pop\n      dup2\n      mstore\n      0x20\n      add\n      0x03\n      dup3\n      add\n      dup1\n      sload\n      tag_202\n      swap1\n      tag_91\n      jump\t// in\n    tag_202:\n      dup1\n      0x1f\n      add\n      0x20\n      dup1\n      swap2\n      div\n      mul\n      0x20\n      add\n      mload(0x40)\n      swap1\n      dup2\n      add\n      0x40\n      mstore\n      dup1\n      swap3\n      swap2\n      swap1\n      dup2\n      dup2\n      mstore\n      0x20\n      add\n      dup3\n      dup1\n      sload\n      tag_203\n      swap1\n      tag_91\n      jump\t// in\n    tag_203:\n      dup1\n      iszero\n      tag_204\n      jumpi\n      dup1\n      0x1f\n      lt\n      tag_205\n      jumpi\n      0x0100\n      dup1\n      dup4\n      sload\n      div\n      mul\n      dup4\n      mstore\n      swap2\n      0x20\n      add\n      swap2\n      jump(tag_204)\n    tag_205:\n      dup3\n      add\n      swap2\n      swap1\n      0x00\n      mstore\n      keccak256(0x00, 0x20)\n      swap1\n    tag_206:\n      dup2\n      sload\n      dup2\n      mstore\n      swap1\n      0x01\n      add\n      swap1\n      0x20\n      add\n      dup1\n      dup4\n      gt\n      tag_206\n      jumpi\n      dup3\n      swap1\n      sub\n      0x1f\n      and\n      dup3\n      add\n      swap2\n    tag_204:\n      pop\n      pop\n      pop\n      pop\n      pop\n      dup2\n      mstore\n      0x20\n      add\n      0x04\n      dup3\n      add\n      sload\n      dup2\n      mstore\n      0x20\n      add\n      0x05\n      dup3\n      add\n      sload\n      dup2\n      mstore\n      0x20\n      add\n      0x06\n      dup3\n      add\n      mload(0x40)\n      dup1\n      0x40\n      add\n      0x40\n      mstore\n      swap1\n      dup2\n      0x00\n      dup3\n      add\n      sload\n      dup2\n      mstore\n      0x20\n      add\n      0x01\n      dup3\n      add\n      dup1\n      sload\n      tag_207\n      swap1\n      tag_91\n      jump\t// in\n    tag_207:\n      dup1\n      0x1f\n      add\n      0x20\n      dup1\n      swap2\n      div\n      mul\n      0x20\n      add\n      mload(0x40)\n      swap1\n      dup2\n      add\n      0x40\n      mstore\n      dup1\n      swap3\n      swap2\n      swap1\n      dup2\n      dup2\n      mstore\n      0x20\n      add\n      dup3\n      dup1\n      sload\n      tag_208\n      swap1\n      tag_91\n      jump\t// in\n    tag_208:\n      dup1\n      iszero\n      tag_209\n      jumpi\n      dup1\n      0x1f\n      lt\n      tag_210\n      jumpi\n      0x0100\n      dup1\n      dup4\n      sload\n      div\n      mul\n      dup4\n      mstore\n      swap2\n      0x20\n      add\n      swap2\n      jump(tag_209)\n    tag_210:\n      dup3\n      add\n      swap2\n      swap1\n      0x00\n      mstore\n      keccak256(0x00, 0x20)\n      swap1\n    tag_211:\n      dup2\n      sload\n      dup2\n      mstore\n      swap1\n      0x01\n      add\n      swap1\n      0x20\n      add\n      dup1\n      dup4\n      gt\n      tag_211\n      jumpi\n      dup3\n      swap1\n      sub\n      0x1f\n      and\n      dup3\n      add\n      swap2\n    tag_209:\n      pop\n      pop\n      pop\n      pop\n      pop\n      dup2\n      mstore\n      pop\n      pop\n      dup2\n      mstore\n      pop\n      pop\n      dup2\n      mstore\n      0x20\n      add\n        /* \"contracts/purchaseContract.sol\":1462:1469  clients */\n      0x04\n        /* \"contracts/purchaseContract.sol\":1470:1479  _owner_id */\n      dup6\n        /* \"contracts/purchaseContract.sol\":1462:1480  clients[_owner_id] */\n      dup2\n      sload\n      dup2\n      lt\n      tag_212\n      jumpi\n      tag_213\n      tag_88\n      jump\t// in\n    tag_213:\n    tag_212:\n      swap1\n      0x00\n      mstore\n      keccak256(0x00, 0x20)\n      swap1\n      0x02\n      mul\n      add\n        /* \"contracts/purchaseContract.sol\":1401:1501  Purchase(nextIdPurchase++, _purchase_date, comics[_item_id], clients[_owner_id], clients[_buyer_id]) */\n      mload(0x40)\n      dup1\n      0x40\n      add\n      0x40\n      mstore\n      swap1\n      dup2\n      0x00\n      dup3\n      add\n      sload\n      dup2\n      mstore\n      0x20\n      add\n      0x01\n      dup3\n      add\n      dup1\n      sload\n      tag_215\n      swap1\n      tag_91\n      jump\t// in\n    tag_215:\n      dup1\n      0x1f\n      add\n      0x20\n      dup1\n      swap2\n      div\n      mul\n      0x20\n      add\n      mload(0x40)\n      swap1\n      dup2\n      add\n      0x40\n      mstore\n      dup1\n      swap3\n      swap2\n      swap1\n      dup2\n      dup2\n      mstore\n      0x20\n      add\n      dup3\n      dup1\n      sload\n      tag_216\n      swap1\n      tag_91\n      jump\t// in\n    tag_216:\n      dup1\n      iszero\n      tag_217\n      jumpi\n      dup1\n      0x1f\n      lt\n      tag_218\n      jumpi\n      0x0100\n      dup1\n      dup4\n      sload\n      div\n      mul\n      dup4\n      mstore\n      swap2\n      0x20\n      add\n      swap2\n      jump(tag_217)\n    tag_218:\n      dup3\n      add\n      swap2\n      swap1\n      0x00\n      mstore\n      keccak256(0x00, 0x20)\n      swap1\n    tag_219:\n      dup2\n      sload\n      dup2\n      mstore\n      swap1\n      0x01\n      add\n      swap1\n      0x20\n      add\n      dup1\n      dup4\n      gt\n      tag_219\n      jumpi\n      dup3\n      swap1\n      sub\n      0x1f\n      and\n      dup3\n      add\n      swap2\n    tag_217:\n      pop\n      pop\n      pop\n      pop\n      pop\n      dup2\n      mstore\n      pop\n      pop\n      dup2\n      mstore\n      0x20\n      add\n        /* \"contracts/purchaseContract.sol\":1482:1489  clients */\n      0x04\n        /* \"contracts/purchaseContract.sol\":1490:1499  _buyer_id */\n      dup5\n        /* \"contracts/purchaseContract.sol\":1482:1500  clients[_buyer_id] */\n      dup2\n      sload\n      dup2\n      lt\n      tag_220\n      jumpi\n      tag_221\n      tag_88\n      jump\t// in\n    tag_221:\n    tag_220:\n      swap1\n      0x00\n      mstore\n      keccak256(0x00, 0x20)\n      swap1\n      0x02\n      mul\n      add\n        /* \"contracts/purchaseContract.sol\":1401:1501  Purchase(nextIdPurchase++, _purchase_date, comics[_item_id], clients[_owner_id], clients[_buyer_id]) */\n      mload(0x40)\n      dup1\n      0x40\n      add\n      0x40\n      mstore\n      swap1\n      dup2\n      0x00\n      dup3\n      add\n      sload\n      dup2\n      mstore\n      0x20\n      add\n      0x01\n      dup3\n      add\n      dup1\n      sload\n      tag_223\n      swap1\n      tag_91\n      jump\t// in\n    tag_223:\n      dup1\n      0x1f\n      add\n      0x20\n      dup1\n      swap2\n      div\n      mul\n      0x20\n      add\n      mload(0x40)\n      swap1\n      dup2\n      add\n      0x40\n      mstore\n      dup1\n      swap3\n      swap2\n      swap1\n      dup2\n      dup2\n      mstore\n      0x20\n      add\n      dup3\n      dup1\n      sload\n      tag_224\n      swap1\n      tag_91\n      jump\t// in\n    tag_224:\n      dup1\n      iszero\n      tag_225\n      jumpi\n      dup1\n      0x1f\n      lt\n      tag_226\n      jumpi\n      0x0100\n      dup1\n      dup4\n      sload\n      div\n      mul\n      dup4\n      mstore\n      swap2\n      0x20\n      add\n      swap2\n      jump(tag_225)\n    tag_226:\n      dup3\n      add\n      swap2\n      swap1\n      0x00\n      mstore\n      keccak256(0x00, 0x20)\n      swap1\n    tag_227:\n      dup2\n      sload\n      dup2\n      mstore\n      swap1\n      0x01\n      add\n      swap1\n      0x20\n      add\n      dup1\n      dup4\n      gt\n      tag_227\n      jumpi\n      dup3\n      swap1\n      sub\n      0x1f\n      and\n      dup3\n      add\n      swap2\n    tag_225:\n      pop\n      pop\n      pop\n      pop\n      pop\n      dup2\n      mstore\n      pop\n      pop\n      dup2\n      mstore\n      pop\n        /* \"contracts/purchaseContract.sol\":1386:1502  purchases.push(Purchase(nextIdPurchase++, _purchase_date, comics[_item_id], clients[_owner_id], clients[_buyer_id])) */\n      swap1\n      dup1\n      0x01\n      dup2\n      sload\n      add\n      dup1\n      dup3\n      sstore\n      dup1\n      swap2\n      pop\n      pop\n      0x01\n      swap1\n      sub\n      swap1\n      0x00\n      mstore\n      keccak256(0x00, 0x20)\n      swap1\n      0x0e\n      mul\n      add\n      0x00\n      swap1\n      swap2\n      swap1\n      swap2\n      swap1\n      swap2\n      pop\n      0x00\n      dup3\n      add\n      mload\n      dup2\n      0x00\n      add\n      sstore\n      0x20\n      dup3\n      add\n      mload\n      dup2\n      0x01\n      add\n      sstore\n      0x40\n      dup3\n      add\n      mload\n      dup2\n      0x02\n      add\n      0x00\n      dup3\n      add\n      mload\n      dup2\n      0x00\n      add\n      sstore\n      0x20\n      dup3\n      add\n      mload\n      dup2\n      0x01\n      add\n      sstore\n      0x40\n      dup3\n      add\n      mload\n      dup2\n      0x02\n      add\n      swap1\n      dup1\n      mload\n      swap1\n      0x20\n      add\n      swap1\n      tag_229\n      swap3\n      swap2\n      swap1\n      tag_80\n      jump\t// in\n    tag_229:\n      pop\n      0x60\n      dup3\n      add\n      mload\n      dup2\n      0x03\n      add\n      swap1\n      dup1\n      mload\n      swap1\n      0x20\n      add\n      swap1\n      tag_230\n      swap3\n      swap2\n      swap1\n      tag_80\n      jump\t// in\n    tag_230:\n      pop\n      0x80\n      dup3\n      add\n      mload\n      dup2\n      0x04\n      add\n      sstore\n      0xa0\n      dup3\n      add\n      mload\n      dup2\n      0x05\n      add\n      sstore\n      0xc0\n      dup3\n      add\n      mload\n      dup2\n      0x06\n      add\n      0x00\n      dup3\n      add\n      mload\n      dup2\n      0x00\n      add\n      sstore\n      0x20\n      dup3\n      add\n      mload\n      dup2\n      0x01\n      add\n      swap1\n      dup1\n      mload\n      swap1\n      0x20\n      add\n      swap1\n      tag_231\n      swap3\n      swap2\n      swap1\n      tag_80\n      jump\t// in\n    tag_231:\n      pop\n      pop\n      pop\n      pop\n      pop\n      0x60\n      dup3\n      add\n      mload\n      dup2\n      0x0a\n      add\n      0x00\n      dup3\n      add\n      mload\n      dup2\n      0x00\n      add\n      sstore\n      0x20\n      dup3\n      add\n      mload\n      dup2\n      0x01\n      add\n      swap1\n      dup1\n      mload\n      swap1\n      0x20\n      add\n      swap1\n      tag_232\n      swap3\n      swap2\n      swap1\n      tag_80\n      jump\t// in\n    tag_232:\n      pop\n      pop\n      pop\n      0x80\n      dup3\n      add\n      mload\n      dup2\n      0x0c\n      add\n      0x00\n      dup3\n      add\n      mload\n      dup2\n      0x00\n      add\n      sstore\n      0x20\n      dup3\n      add\n      mload\n      dup2\n      0x01\n      add\n      swap1\n      dup1\n      mload\n      swap1\n      0x20\n      add\n      swap1\n      tag_233\n      swap3\n      swap2\n      swap1\n      tag_80\n      jump\t// in\n    tag_233:\n      pop\n      pop\n      pop\n      pop\n      pop\n        /* \"contracts/purchaseContract.sol\":1273:1510  function createPurchase(uint _purchase_date, uint  _item_id, uint  _owner_id, uint  _buyer_id) public {\r... */\n      pop\n      pop\n      pop\n      pop\n      jump\t// out\n        /* \"contracts/purchaseContract.sol\":1522:1635  function createClient (string memory _name) public{\r... */\n    tag_65:\n        /* \"contracts/purchaseContract.sol\":1583:1590  clients */\n      0x04\n        /* \"contracts/purchaseContract.sol\":1596:1626  Client(nextIdClients++, _name) */\n      mload(0x40)\n      dup1\n      0x40\n      add\n      0x40\n      mstore\n      dup1\n        /* \"contracts/purchaseContract.sol\":1603:1616  nextIdClients */\n      0x05\n      0x00\n        /* \"contracts/purchaseContract.sol\":1603:1618  nextIdClients++ */\n      dup2\n      sload\n      dup1\n      swap3\n      swap2\n      swap1\n      tag_235\n      swap1\n      tag_77\n      jump\t// in\n    tag_235:\n      swap2\n      swap1\n      pop\n      sstore\n        /* \"contracts/purchaseContract.sol\":1596:1626  Client(nextIdClients++, _name) */\n      dup2\n      mstore\n      0x20\n      add\n        /* \"contracts/purchaseContract.sol\":1620:1625  _name */\n      dup4\n        /* \"contracts/purchaseContract.sol\":1596:1626  Client(nextIdClients++, _name) */\n      dup2\n      mstore\n      pop\n        /* \"contracts/purchaseContract.sol\":1583:1627  clients.push(Client(nextIdClients++, _name)) */\n      swap1\n      dup1\n      0x01\n      dup2\n      sload\n      add\n      dup1\n      dup3\n      sstore\n      dup1\n      swap2\n      pop\n      pop\n      0x01\n      swap1\n      sub\n      swap1\n      0x00\n      mstore\n      keccak256(0x00, 0x20)\n      swap1\n      0x02\n      mul\n      add\n      0x00\n      swap1\n      swap2\n      swap1\n      swap2\n      swap1\n      swap2\n      pop\n      0x00\n      dup3\n      add\n      mload\n      dup2\n      0x00\n      add\n      sstore\n      0x20\n      dup3\n      add\n      mload\n      dup2\n      0x01\n      add\n      swap1\n      dup1\n      mload\n      swap1\n      0x20\n      add\n      swap1\n      tag_237\n      swap3\n      swap2\n      swap1\n      tag_80\n      jump\t// in\n    tag_237:\n      pop\n      pop\n      pop\n        /* \"contracts/purchaseContract.sol\":1522:1635  function createClient (string memory _name) public{\r... */\n      pop\n      jump\t// out\n        /* \"contracts/purchaseContract.sol\":607:630  Client[] public clients */\n    tag_68:\n      0x04\n      dup2\n      dup2\n      sload\n      dup2\n      lt\n      tag_238\n      jumpi\n      0x00\n      dup1\n      revert\n    tag_238:\n      swap1\n      0x00\n      mstore\n      keccak256(0x00, 0x20)\n      swap1\n      0x02\n      mul\n      add\n      0x00\n      swap2\n      pop\n      swap1\n      pop\n      dup1\n      0x00\n      add\n      sload\n      swap1\n      dup1\n      0x01\n      add\n      dup1\n      sload\n      tag_240\n      swap1\n      tag_91\n      jump\t// in\n    tag_240:\n      dup1\n      0x1f\n      add\n      0x20\n      dup1\n      swap2\n      div\n      mul\n      0x20\n      add\n      mload(0x40)\n      swap1\n      dup2\n      add\n      0x40\n      mstore\n      dup1\n      swap3\n      swap2\n      swap1\n      dup2\n      dup2\n      mstore\n      0x20\n      add\n      dup3\n      dup1\n      sload\n      tag_241\n      swap1\n      tag_91\n      jump\t// in\n    tag_241:\n      dup1\n      iszero\n      tag_242\n      jumpi\n      dup1\n      0x1f\n      lt\n      tag_243\n      jumpi\n      0x0100\n      dup1\n      dup4\n      sload\n      div\n      mul\n      dup4\n      mstore\n      swap2\n      0x20\n      add\n      swap2\n      jump(tag_242)\n    tag_243:\n      dup3\n      add\n      swap2\n      swap1\n      0x00\n      mstore\n      keccak256(0x00, 0x20)\n      swap1\n    tag_244:\n      dup2\n      sload\n      dup2\n      mstore\n      swap1\n      0x01\n      add\n      swap1\n      0x20\n      add\n      dup1\n      dup4\n      gt\n      tag_244\n      jumpi\n      dup3\n      swap1\n      sub\n      0x1f\n      and\n      dup3\n      add\n      swap2\n    tag_242:\n      pop\n      pop\n      pop\n      pop\n      pop\n      swap1\n      pop\n      dup3\n      jump\t// out\n        /* \"contracts/purchaseContract.sol\":1045:1261  function createPurchase(uint _purchase_date, Comic memory _item, Client memory _owner, Client memory _buyer) public {\r... */\n    tag_74:\n        /* \"contracts/purchaseContract.sol\":1172:1181  purchases */\n      0x02\n        /* \"contracts/purchaseContract.sol\":1187:1252  Purchase(nextIdPurchase++, _purchase_date, _item, _owner, _buyer) */\n      mload(0x40)\n      dup1\n      0xa0\n      add\n      0x40\n      mstore\n      dup1\n        /* \"contracts/purchaseContract.sol\":1196:1210  nextIdPurchase */\n      0x03\n      0x00\n        /* \"contracts/purchaseContract.sol\":1196:1212  nextIdPurchase++ */\n      dup2\n      sload\n      dup1\n      swap3\n      swap2\n      swap1\n      tag_246\n      swap1\n      tag_77\n      jump\t// in\n    tag_246:\n      swap2\n      swap1\n      pop\n      sstore\n        /* \"contracts/purchaseContract.sol\":1187:1252  Purchase(nextIdPurchase++, _purchase_date, _item, _owner, _buyer) */\n      dup2\n      mstore\n      0x20\n      add\n        /* \"contracts/purchaseContract.sol\":1214:1228  _purchase_date */\n      dup7\n        /* \"contracts/purchaseContract.sol\":1187:1252  Purchase(nextIdPurchase++, _purchase_date, _item, _owner, _buyer) */\n      dup2\n      mstore\n      0x20\n      add\n        /* \"contracts/purchaseContract.sol\":1230:1235  _item */\n      dup6\n        /* \"contracts/purchaseContract.sol\":1187:1252  Purchase(nextIdPurchase++, _purchase_date, _item, _owner, _buyer) */\n      dup2\n      mstore\n      0x20\n      add\n        /* \"contracts/purchaseContract.sol\":1237:1243  _owner */\n      dup5\n        /* \"contracts/purchaseContract.sol\":1187:1252  Purchase(nextIdPurchase++, _purchase_date, _item, _owner, _buyer) */\n      dup2\n      mstore\n      0x20\n      add\n        /* \"contracts/purchaseContract.sol\":1245:1251  _buyer */\n      dup4\n        /* \"contracts/purchaseContract.sol\":1187:1252  Purchase(nextIdPurchase++, _purchase_date, _item, _owner, _buyer) */\n      dup2\n      mstore\n      pop\n        /* \"contracts/purchaseContract.sol\":1172:1253  purchases.push(Purchase(nextIdPurchase++, _purchase_date, _item, _owner, _buyer)) */\n      swap1\n      dup1\n      0x01\n      dup2\n      sload\n      add\n      dup1\n      dup3\n      sstore\n      dup1\n      swap2\n      pop\n      pop\n      0x01\n      swap1\n      sub\n      swap1\n      0x00\n      mstore\n      keccak256(0x00, 0x20)\n      swap1\n      0x0e\n      mul\n      add\n      0x00\n      swap1\n      swap2\n      swap1\n      swap2\n      swap1\n      swap2\n      pop\n      0x00\n      dup3\n      add\n      mload\n      dup2\n      0x00\n      add\n      sstore\n      0x20\n      dup3\n      add\n      mload\n      dup2\n      0x01\n      add\n      sstore\n      0x40\n      dup3\n      add\n      mload\n      dup2\n      0x02\n      add\n      0x00\n      dup3\n      add\n      mload\n      dup2\n      0x00\n      add\n      sstore\n      0x20\n      dup3\n      add\n      mload\n      dup2\n      0x01\n      add\n      sstore\n      0x40\n      dup3\n      add\n      mload\n      dup2\n      0x02\n      add\n      swap1\n      dup1\n      mload\n      swap1\n      0x20\n      add\n      swap1\n      tag_248\n      swap3\n      swap2\n      swap1\n      tag_80\n      jump\t// in\n    tag_248:\n      pop\n      0x60\n      dup3\n      add\n      mload\n      dup2\n      0x03\n      add\n      swap1\n      dup1\n      mload\n      swap1\n      0x20\n      add\n      swap1\n      tag_249\n      swap3\n      swap2\n      swap1\n      tag_80\n      jump\t// in\n    tag_249:\n      pop\n      0x80\n      dup3\n      add\n      mload\n      dup2\n      0x04\n      add\n      sstore\n      0xa0\n      dup3\n      add\n      mload\n      dup2\n      0x05\n      add\n      sstore\n      0xc0\n      dup3\n      add\n      mload\n      dup2\n      0x06\n      add\n      0x00\n      dup3\n      add\n      mload\n      dup2\n      0x00\n      add\n      sstore\n      0x20\n      dup3\n      add\n      mload\n      dup2\n      0x01\n      add\n      swap1\n      dup1\n      mload\n      swap1\n      0x20\n      add\n      swap1\n      tag_250\n      swap3\n      swap2\n      swap1\n      tag_80\n      jump\t// in\n    tag_250:\n      pop\n      pop\n      pop\n      pop\n      pop\n      0x60\n      dup3\n      add\n      mload\n      dup2\n      0x0a\n      add\n      0x00\n      dup3\n      add\n      mload\n      dup2\n      0x00\n      add\n      sstore\n      0x20\n      dup3\n      add\n      mload\n      dup2\n      0x01\n      add\n      swap1\n      dup1\n      mload\n      swap1\n      0x20\n      add\n      swap1\n      tag_251\n      swap3\n      swap2\n      swap1\n      tag_80\n      jump\t// in\n    tag_251:\n      pop\n      pop\n      pop\n      0x80\n      dup3\n      add\n      mload\n      dup2\n      0x0c\n      add\n      0x00\n      dup3\n      add\n      mload\n      dup2\n      0x00\n      add\n      sstore\n      0x20\n      dup3\n      add\n      mload\n      dup2\n      0x01\n      add\n      swap1\n      dup1\n      mload\n      swap1\n      0x20\n      add\n      swap1\n      tag_252\n      swap3\n      swap2\n      swap1\n      tag_80\n      jump\t// in\n    tag_252:\n      pop\n      pop\n      pop\n      pop\n      pop\n        /* \"contracts/purchaseContract.sol\":1045:1261  function createPurchase(uint _purchase_date, Comic memory _item, Client memory _owner, Client memory _buyer) public {\r... */\n      pop\n      pop\n      pop\n      pop\n      jump\t// out\n    tag_80:\n      dup3\n      dup1\n      sload\n      tag_253\n      swap1\n      tag_91\n      jump\t// in\n    tag_253:\n      swap1\n      0x00\n      mstore\n      keccak256(0x00, 0x20)\n      swap1\n      0x1f\n      add\n      0x20\n      swap1\n      div\n      dup2\n      add\n      swap3\n      dup3\n      tag_255\n      jumpi\n      0x00\n      dup6\n      sstore\n      jump(tag_254)\n    tag_255:\n      dup3\n      0x1f\n      lt\n      tag_256\n      jumpi\n      dup1\n      mload\n      not(0xff)\n      and\n      dup4\n      dup1\n      add\n      or\n      dup6\n      sstore\n      jump(tag_254)\n    tag_256:\n      dup3\n      dup1\n      add\n      0x01\n      add\n      dup6\n      sstore\n      dup3\n      iszero\n      tag_254\n      jumpi\n      swap2\n      dup3\n      add\n    tag_257:\n      dup3\n      dup2\n      gt\n      iszero\n      tag_258\n      jumpi\n      dup3\n      mload\n      dup3\n      sstore\n      swap2\n      0x20\n      add\n      swap2\n      swap1\n      0x01\n      add\n      swap1\n      jump(tag_257)\n    tag_258:\n    tag_254:\n      pop\n      swap1\n      pop\n      tag_259\n      swap2\n      swap1\n      tag_260\n      jump\t// in\n    tag_259:\n      pop\n      swap1\n      jump\t// out\n    tag_84:\n      mload(0x40)\n      dup1\n      0xa0\n      add\n      0x40\n      mstore\n      dup1\n      0x00\n      dup2\n      mstore\n      0x20\n      add\n      0x00\n      dup2\n      mstore\n      0x20\n      add\n      tag_261\n      tag_117\n      jump\t// in\n    tag_261:\n      dup2\n      mstore\n      0x20\n      add\n      tag_262\n      tag_182\n      jump\t// in\n    tag_262:\n      dup2\n      mstore\n      0x20\n      add\n      tag_263\n      tag_182\n      jump\t// in\n    tag_263:\n      dup2\n      mstore\n      pop\n      swap1\n      jump\t// out\n    tag_117:\n      mload(0x40)\n      dup1\n      0xe0\n      add\n      0x40\n      mstore\n      dup1\n      0x00\n      dup2\n      mstore\n      0x20\n      add\n      0x00\n      dup2\n      mstore\n      0x20\n      add\n      0x60\n      dup2\n      mstore\n      0x20\n      add\n      0x60\n      dup2\n      mstore\n      0x20\n      add\n      0x00\n      dup2\n      mstore\n      0x20\n      add\n      0x00\n      dup2\n      mstore\n      0x20\n      add\n      tag_264\n      tag_182\n      jump\t// in\n    tag_264:\n      dup2\n      mstore\n      pop\n      swap1\n      jump\t// out\n    tag_182:\n      mload(0x40)\n      dup1\n      0x40\n      add\n      0x40\n      mstore\n      dup1\n      0x00\n      dup2\n      mstore\n      0x20\n      add\n      0x60\n      dup2\n      mstore\n      pop\n      swap1\n      jump\t// out\n    tag_260:\n    tag_265:\n      dup1\n      dup3\n      gt\n      iszero\n      tag_266\n      jumpi\n      0x00\n      dup2\n      0x00\n      swap1\n      sstore\n      pop\n      0x01\n      add\n      jump(tag_265)\n    tag_266:\n      pop\n      swap1\n      jump\t// out\n        /* \"#utility.yul\":7:419   */\n    tag_268:\n        /* \"#utility.yul\":85:90   */\n      0x00\n        /* \"#utility.yul\":110:176   */\n      tag_270\n        /* \"#utility.yul\":126:175   */\n      tag_271\n        /* \"#utility.yul\":168:174   */\n      dup5\n        /* \"#utility.yul\":126:175   */\n      tag_272\n      jump\t// in\n    tag_271:\n        /* \"#utility.yul\":110:176   */\n      tag_273\n      jump\t// in\n    tag_270:\n        /* \"#utility.yul\":101:176   */\n      swap1\n      pop\n        /* \"#utility.yul\":199:205   */\n      dup3\n        /* \"#utility.yul\":192:197   */\n      dup2\n        /* \"#utility.yul\":185:206   */\n      mstore\n        /* \"#utility.yul\":237:241   */\n      0x20\n        /* \"#utility.yul\":230:235   */\n      dup2\n        /* \"#utility.yul\":226:242   */\n      add\n        /* \"#utility.yul\":275:278   */\n      dup5\n        /* \"#utility.yul\":266:272   */\n      dup5\n        /* \"#utility.yul\":261:264   */\n      dup5\n        /* \"#utility.yul\":257:273   */\n      add\n        /* \"#utility.yul\":254:279   */\n      gt\n        /* \"#utility.yul\":251:363   */\n      iszero\n      tag_274\n      jumpi\n        /* \"#utility.yul\":282:361   */\n      tag_275\n      tag_276\n      jump\t// in\n    tag_275:\n        /* \"#utility.yul\":251:363   */\n    tag_274:\n        /* \"#utility.yul\":372:413   */\n      tag_277\n        /* \"#utility.yul\":406:412   */\n      dup5\n        /* \"#utility.yul\":401:404   */\n      dup3\n        /* \"#utility.yul\":396:399   */\n      dup6\n        /* \"#utility.yul\":372:413   */\n      tag_278\n      jump\t// in\n    tag_277:\n        /* \"#utility.yul\":91:419   */\n      pop\n        /* \"#utility.yul\":7:419   */\n      swap4\n      swap3\n      pop\n      pop\n      pop\n      jump\t// out\n        /* \"#utility.yul\":425:562   */\n    tag_279:\n        /* \"#utility.yul\":470:475   */\n      0x00\n        /* \"#utility.yul\":508:514   */\n      dup2\n        /* \"#utility.yul\":495:515   */\n      calldataload\n        /* \"#utility.yul\":486:515   */\n      swap1\n      pop\n        /* \"#utility.yul\":524:556   */\n      tag_281\n        /* \"#utility.yul\":550:555   */\n      dup2\n        /* \"#utility.yul\":524:556   */\n      tag_282\n      jump\t// in\n    tag_281:\n        /* \"#utility.yul\":425:562   */\n      swap3\n      swap2\n      pop\n      pop\n      jump\t// out\n        /* \"#utility.yul\":582:922   */\n    tag_283:\n        /* \"#utility.yul\":638:643   */\n      0x00\n        /* \"#utility.yul\":687:690   */\n      dup3\n        /* \"#utility.yul\":680:684   */\n      0x1f\n        /* \"#utility.yul\":672:678   */\n      dup4\n        /* \"#utility.yul\":668:685   */\n      add\n        /* \"#utility.yul\":664:691   */\n      slt\n        /* \"#utility.yul\":654:776   */\n      tag_285\n      jumpi\n        /* \"#utility.yul\":695:774   */\n      tag_286\n      tag_287\n      jump\t// in\n    tag_286:\n        /* \"#utility.yul\":654:776   */\n    tag_285:\n        /* \"#utility.yul\":812:818   */\n      dup2\n        /* \"#utility.yul\":799:819   */\n      calldataload\n        /* \"#utility.yul\":837:916   */\n      tag_288\n        /* \"#utility.yul\":912:915   */\n      dup5\n        /* \"#utility.yul\":904:910   */\n      dup3\n        /* \"#utility.yul\":897:901   */\n      0x20\n        /* \"#utility.yul\":889:895   */\n      dup7\n        /* \"#utility.yul\":885:902   */\n      add\n        /* \"#utility.yul\":837:916   */\n      tag_268\n      jump\t// in\n    tag_288:\n        /* \"#utility.yul\":828:916   */\n      swap2\n      pop\n        /* \"#utility.yul\":644:922   */\n      pop\n        /* \"#utility.yul\":582:922   */\n      swap3\n      swap2\n      pop\n      pop\n      jump\t// out\n        /* \"#utility.yul\":966:1711   */\n    tag_289:\n        /* \"#utility.yul\":1037:1042   */\n      0x00\n        /* \"#utility.yul\":1081:1085   */\n      0x40\n        /* \"#utility.yul\":1069:1078   */\n      dup3\n        /* \"#utility.yul\":1064:1067   */\n      dup5\n        /* \"#utility.yul\":1060:1079   */\n      sub\n        /* \"#utility.yul\":1056:1086   */\n      slt\n        /* \"#utility.yul\":1053:1170   */\n      iszero\n      tag_291\n      jumpi\n        /* \"#utility.yul\":1089:1168   */\n      tag_292\n      tag_293\n      jump\t// in\n    tag_292:\n        /* \"#utility.yul\":1053:1170   */\n    tag_291:\n        /* \"#utility.yul\":1188:1209   */\n      tag_294\n        /* \"#utility.yul\":1204:1208   */\n      0x40\n        /* \"#utility.yul\":1188:1209   */\n      tag_273\n      jump\t// in\n    tag_294:\n        /* \"#utility.yul\":1179:1209   */\n      swap1\n      pop\n        /* \"#utility.yul\":1272:1273   */\n      0x00\n        /* \"#utility.yul\":1312:1361   */\n      tag_295\n        /* \"#utility.yul\":1357:1360   */\n      dup5\n        /* \"#utility.yul\":1348:1354   */\n      dup3\n        /* \"#utility.yul\":1337:1346   */\n      dup6\n        /* \"#utility.yul\":1333:1355   */\n      add\n        /* \"#utility.yul\":1312:1361   */\n      tag_296\n      jump\t// in\n    tag_295:\n        /* \"#utility.yul\":1305:1309   */\n      0x00\n        /* \"#utility.yul\":1298:1303   */\n      dup4\n        /* \"#utility.yul\":1294:1310   */\n      add\n        /* \"#utility.yul\":1287:1362   */\n      mstore\n        /* \"#utility.yul\":1219:1373   */\n      pop\n        /* \"#utility.yul\":1460:1462   */\n      0x20\n        /* \"#utility.yul\":1449:1458   */\n      dup3\n        /* \"#utility.yul\":1445:1463   */\n      add\n        /* \"#utility.yul\":1432:1464   */\n      calldataload\n        /* \"#utility.yul\":1491:1509   */\n      0xffffffffffffffff\n        /* \"#utility.yul\":1483:1489   */\n      dup2\n        /* \"#utility.yul\":1480:1510   */\n      gt\n        /* \"#utility.yul\":1477:1594   */\n      iszero\n      tag_297\n      jumpi\n        /* \"#utility.yul\":1513:1592   */\n      tag_298\n      tag_299\n      jump\t// in\n    tag_298:\n        /* \"#utility.yul\":1477:1594   */\n    tag_297:\n        /* \"#utility.yul\":1633:1692   */\n      tag_300\n        /* \"#utility.yul\":1688:1691   */\n      dup5\n        /* \"#utility.yul\":1679:1685   */\n      dup3\n        /* \"#utility.yul\":1668:1677   */\n      dup6\n        /* \"#utility.yul\":1664:1686   */\n      add\n        /* \"#utility.yul\":1633:1692   */\n      tag_283\n      jump\t// in\n    tag_300:\n        /* \"#utility.yul\":1626:1630   */\n      0x20\n        /* \"#utility.yul\":1619:1624   */\n      dup4\n        /* \"#utility.yul\":1615:1631   */\n      add\n        /* \"#utility.yul\":1608:1693   */\n      mstore\n        /* \"#utility.yul\":1383:1704   */\n      pop\n        /* \"#utility.yul\":966:1711   */\n      swap3\n      swap2\n      pop\n      pop\n      jump\t// out\n        /* \"#utility.yul\":1754:3673   */\n    tag_301:\n        /* \"#utility.yul\":1824:1829   */\n      0x00\n        /* \"#utility.yul\":1868:1872   */\n      0xe0\n        /* \"#utility.yul\":1856:1865   */\n      dup3\n        /* \"#utility.yul\":1851:1854   */\n      dup5\n        /* \"#utility.yul\":1847:1866   */\n      sub\n        /* \"#utility.yul\":1843:1873   */\n      slt\n        /* \"#utility.yul\":1840:1957   */\n      iszero\n      tag_303\n      jumpi\n        /* \"#utility.yul\":1876:1955   */\n      tag_304\n      tag_293\n      jump\t// in\n    tag_304:\n        /* \"#utility.yul\":1840:1957   */\n    tag_303:\n        /* \"#utility.yul\":1975:1996   */\n      tag_305\n        /* \"#utility.yul\":1991:1995   */\n      0xe0\n        /* \"#utility.yul\":1975:1996   */\n      tag_273\n      jump\t// in\n    tag_305:\n        /* \"#utility.yul\":1966:1996   */\n      swap1\n      pop\n        /* \"#utility.yul\":2058:2059   */\n      0x00\n        /* \"#utility.yul\":2098:2147   */\n      tag_306\n        /* \"#utility.yul\":2143:2146   */\n      dup5\n        /* \"#utility.yul\":2134:2140   */\n      dup3\n        /* \"#utility.yul\":2123:2132   */\n      dup6\n        /* \"#utility.yul\":2119:2141   */\n      add\n        /* \"#utility.yul\":2098:2147   */\n      tag_296\n      jump\t// in\n    tag_306:\n        /* \"#utility.yul\":2091:2095   */\n      0x00\n        /* \"#utility.yul\":2084:2089   */\n      dup4\n        /* \"#utility.yul\":2080:2096   */\n      add\n        /* \"#utility.yul\":2073:2148   */\n      mstore\n        /* \"#utility.yul\":2006:2159   */\n      pop\n        /* \"#utility.yul\":2219:2221   */\n      0x20\n        /* \"#utility.yul\":2260:2308   */\n      tag_307\n        /* \"#utility.yul\":2304:2307   */\n      dup5\n        /* \"#utility.yul\":2295:2301   */\n      dup3\n        /* \"#utility.yul\":2284:2293   */\n      dup6\n        /* \"#utility.yul\":2280:2302   */\n      add\n        /* \"#utility.yul\":2260:2308   */\n      tag_279\n      jump\t// in\n    tag_307:\n        /* \"#utility.yul\":2253:2257   */\n      0x20\n        /* \"#utility.yul\":2246:2251   */\n      dup4\n        /* \"#utility.yul\":2242:2258   */\n      add\n        /* \"#utility.yul\":2235:2309   */\n      mstore\n        /* \"#utility.yul\":2169:2320   */\n      pop\n        /* \"#utility.yul\":2413:2415   */\n      0x40\n        /* \"#utility.yul\":2402:2411   */\n      dup3\n        /* \"#utility.yul\":2398:2416   */\n      add\n        /* \"#utility.yul\":2385:2417   */\n      calldataload\n        /* \"#utility.yul\":2444:2462   */\n      0xffffffffffffffff\n        /* \"#utility.yul\":2436:2442   */\n      dup2\n        /* \"#utility.yul\":2433:2463   */\n      gt\n        /* \"#utility.yul\":2430:2547   */\n      iszero\n      tag_308\n      jumpi\n        /* \"#utility.yul\":2466:2545   */\n      tag_309\n      tag_299\n      jump\t// in\n    tag_309:\n        /* \"#utility.yul\":2430:2547   */\n    tag_308:\n        /* \"#utility.yul\":2586:2645   */\n      tag_310\n        /* \"#utility.yul\":2641:2644   */\n      dup5\n        /* \"#utility.yul\":2632:2638   */\n      dup3\n        /* \"#utility.yul\":2621:2630   */\n      dup6\n        /* \"#utility.yul\":2617:2639   */\n      add\n        /* \"#utility.yul\":2586:2645   */\n      tag_283\n      jump\t// in\n    tag_310:\n        /* \"#utility.yul\":2579:2583   */\n      0x40\n        /* \"#utility.yul\":2572:2577   */\n      dup4\n        /* \"#utility.yul\":2568:2584   */\n      add\n        /* \"#utility.yul\":2561:2646   */\n      mstore\n        /* \"#utility.yul\":2330:2657   */\n      pop\n        /* \"#utility.yul\":2746:2748   */\n      0x60\n        /* \"#utility.yul\":2735:2744   */\n      dup3\n        /* \"#utility.yul\":2731:2749   */\n      add\n        /* \"#utility.yul\":2718:2750   */\n      calldataload\n        /* \"#utility.yul\":2777:2795   */\n      0xffffffffffffffff\n        /* \"#utility.yul\":2769:2775   */\n      dup2\n        /* \"#utility.yul\":2766:2796   */\n      gt\n        /* \"#utility.yul\":2763:2880   */\n      iszero\n      tag_311\n      jumpi\n        /* \"#utility.yul\":2799:2878   */\n      tag_312\n      tag_299\n      jump\t// in\n    tag_312:\n        /* \"#utility.yul\":2763:2880   */\n    tag_311:\n        /* \"#utility.yul\":2919:2978   */\n      tag_313\n        /* \"#utility.yul\":2974:2977   */\n      dup5\n        /* \"#utility.yul\":2965:2971   */\n      dup3\n        /* \"#utility.yul\":2954:2963   */\n      dup6\n        /* \"#utility.yul\":2950:2972   */\n      add\n        /* \"#utility.yul\":2919:2978   */\n      tag_283\n      jump\t// in\n    tag_313:\n        /* \"#utility.yul\":2912:2916   */\n      0x60\n        /* \"#utility.yul\":2905:2910   */\n      dup4\n        /* \"#utility.yul\":2901:2917   */\n      add\n        /* \"#utility.yul\":2894:2979   */\n      mstore\n        /* \"#utility.yul\":2667:2990   */\n      pop\n        /* \"#utility.yul\":3057:3060   */\n      0x80\n        /* \"#utility.yul\":3099:3148   */\n      tag_314\n        /* \"#utility.yul\":3144:3147   */\n      dup5\n        /* \"#utility.yul\":3135:3141   */\n      dup3\n        /* \"#utility.yul\":3124:3133   */\n      dup6\n        /* \"#utility.yul\":3120:3142   */\n      add\n        /* \"#utility.yul\":3099:3148   */\n      tag_296\n      jump\t// in\n    tag_314:\n        /* \"#utility.yul\":3092:3096   */\n      0x80\n        /* \"#utility.yul\":3085:3090   */\n      dup4\n        /* \"#utility.yul\":3081:3097   */\n      add\n        /* \"#utility.yul\":3074:3149   */\n      mstore\n        /* \"#utility.yul\":3000:3160   */\n      pop\n        /* \"#utility.yul\":3219:3222   */\n      0xa0\n        /* \"#utility.yul\":3261:3309   */\n      tag_315\n        /* \"#utility.yul\":3305:3308   */\n      dup5\n        /* \"#utility.yul\":3296:3302   */\n      dup3\n        /* \"#utility.yul\":3285:3294   */\n      dup6\n        /* \"#utility.yul\":3281:3303   */\n      add\n        /* \"#utility.yul\":3261:3309   */\n      tag_279\n      jump\t// in\n    tag_315:\n        /* \"#utility.yul\":3254:3258   */\n      0xa0\n        /* \"#utility.yul\":3247:3252   */\n      dup4\n        /* \"#utility.yul\":3243:3259   */\n      add\n        /* \"#utility.yul\":3236:3310   */\n      mstore\n        /* \"#utility.yul\":3170:3321   */\n      pop\n        /* \"#utility.yul\":3409:3412   */\n      0xc0\n        /* \"#utility.yul\":3398:3407   */\n      dup3\n        /* \"#utility.yul\":3394:3413   */\n      add\n        /* \"#utility.yul\":3381:3414   */\n      calldataload\n        /* \"#utility.yul\":3441:3459   */\n      0xffffffffffffffff\n        /* \"#utility.yul\":3433:3439   */\n      dup2\n        /* \"#utility.yul\":3430:3460   */\n      gt\n        /* \"#utility.yul\":3427:3544   */\n      iszero\n      tag_316\n      jumpi\n        /* \"#utility.yul\":3463:3542   */\n      tag_317\n      tag_299\n      jump\t// in\n    tag_317:\n        /* \"#utility.yul\":3427:3544   */\n    tag_316:\n        /* \"#utility.yul\":3583:3654   */\n      tag_318\n        /* \"#utility.yul\":3650:3653   */\n      dup5\n        /* \"#utility.yul\":3641:3647   */\n      dup3\n        /* \"#utility.yul\":3630:3639   */\n      dup6\n        /* \"#utility.yul\":3626:3648   */\n      add\n        /* \"#utility.yul\":3583:3654   */\n      tag_289\n      jump\t// in\n    tag_318:\n        /* \"#utility.yul\":3576:3580   */\n      0xc0\n        /* \"#utility.yul\":3569:3574   */\n      dup4\n        /* \"#utility.yul\":3565:3581   */\n      add\n        /* \"#utility.yul\":3558:3655   */\n      mstore\n        /* \"#utility.yul\":3331:3666   */\n      pop\n        /* \"#utility.yul\":1754:3673   */\n      swap3\n      swap2\n      pop\n      pop\n      jump\t// out\n        /* \"#utility.yul\":3679:3818   */\n    tag_296:\n        /* \"#utility.yul\":3725:3730   */\n      0x00\n        /* \"#utility.yul\":3763:3769   */\n      dup2\n        /* \"#utility.yul\":3750:3770   */\n      calldataload\n        /* \"#utility.yul\":3741:3770   */\n      swap1\n      pop\n        /* \"#utility.yul\":3779:3812   */\n      tag_320\n        /* \"#utility.yul\":3806:3811   */\n      dup2\n        /* \"#utility.yul\":3779:3812   */\n      tag_321\n      jump\t// in\n    tag_320:\n        /* \"#utility.yul\":3679:3818   */\n      swap3\n      swap2\n      pop\n      pop\n      jump\t// out\n        /* \"#utility.yul\":3824:5441   */\n    tag_20:\n        /* \"#utility.yul\":3968:3974   */\n      0x00\n        /* \"#utility.yul\":3976:3982   */\n      dup1\n        /* \"#utility.yul\":3984:3990   */\n      0x00\n        /* \"#utility.yul\":3992:3998   */\n      dup1\n        /* \"#utility.yul\":4000:4006   */\n      0x00\n        /* \"#utility.yul\":4008:4014   */\n      dup1\n        /* \"#utility.yul\":4057:4060   */\n      0xc0\n        /* \"#utility.yul\":4045:4054   */\n      dup8\n        /* \"#utility.yul\":4036:4043   */\n      dup10\n        /* \"#utility.yul\":4032:4055   */\n      sub\n        /* \"#utility.yul\":4028:4061   */\n      slt\n        /* \"#utility.yul\":4025:4145   */\n      iszero\n      tag_323\n      jumpi\n        /* \"#utility.yul\":4064:4143   */\n      tag_324\n      tag_325\n      jump\t// in\n    tag_324:\n        /* \"#utility.yul\":4025:4145   */\n    tag_323:\n        /* \"#utility.yul\":4184:4185   */\n      0x00\n        /* \"#utility.yul\":4209:4261   */\n      tag_326\n        /* \"#utility.yul\":4253:4260   */\n      dup10\n        /* \"#utility.yul\":4244:4250   */\n      dup3\n        /* \"#utility.yul\":4233:4242   */\n      dup11\n        /* \"#utility.yul\":4229:4251   */\n      add\n        /* \"#utility.yul\":4209:4261   */\n      tag_279\n      jump\t// in\n    tag_326:\n        /* \"#utility.yul\":4199:4261   */\n      swap7\n      pop\n        /* \"#utility.yul\":4155:4271   */\n      pop\n        /* \"#utility.yul\":4338:4340   */\n      0x20\n        /* \"#utility.yul\":4327:4336   */\n      dup8\n        /* \"#utility.yul\":4323:4341   */\n      add\n        /* \"#utility.yul\":4310:4342   */\n      calldataload\n        /* \"#utility.yul\":4369:4387   */\n      0xffffffffffffffff\n        /* \"#utility.yul\":4361:4367   */\n      dup2\n        /* \"#utility.yul\":4358:4388   */\n      gt\n        /* \"#utility.yul\":4355:4472   */\n      iszero\n      tag_327\n      jumpi\n        /* \"#utility.yul\":4391:4470   */\n      tag_328\n      tag_329\n      jump\t// in\n    tag_328:\n        /* \"#utility.yul\":4355:4472   */\n    tag_327:\n        /* \"#utility.yul\":4496:4559   */\n      tag_330\n        /* \"#utility.yul\":4551:4558   */\n      dup10\n        /* \"#utility.yul\":4542:4548   */\n      dup3\n        /* \"#utility.yul\":4531:4540   */\n      dup11\n        /* \"#utility.yul\":4527:4549   */\n      add\n        /* \"#utility.yul\":4496:4559   */\n      tag_283\n      jump\t// in\n    tag_330:\n        /* \"#utility.yul\":4486:4559   */\n      swap6\n      pop\n        /* \"#utility.yul\":4281:4569   */\n      pop\n        /* \"#utility.yul\":4636:4638   */\n      0x40\n        /* \"#utility.yul\":4625:4634   */\n      dup8\n        /* \"#utility.yul\":4621:4639   */\n      add\n        /* \"#utility.yul\":4608:4640   */\n      calldataload\n        /* \"#utility.yul\":4667:4685   */\n      0xffffffffffffffff\n        /* \"#utility.yul\":4659:4665   */\n      dup2\n        /* \"#utility.yul\":4656:4686   */\n      gt\n        /* \"#utility.yul\":4653:4770   */\n      iszero\n      tag_331\n      jumpi\n        /* \"#utility.yul\":4689:4768   */\n      tag_332\n      tag_329\n      jump\t// in\n    tag_332:\n        /* \"#utility.yul\":4653:4770   */\n    tag_331:\n        /* \"#utility.yul\":4794:4857   */\n      tag_333\n        /* \"#utility.yul\":4849:4856   */\n      dup10\n        /* \"#utility.yul\":4840:4846   */\n      dup3\n        /* \"#utility.yul\":4829:4838   */\n      dup11\n        /* \"#utility.yul\":4825:4847   */\n      add\n        /* \"#utility.yul\":4794:4857   */\n      tag_283\n      jump\t// in\n    tag_333:\n        /* \"#utility.yul\":4784:4857   */\n      swap5\n      pop\n        /* \"#utility.yul\":4579:4867   */\n      pop\n        /* \"#utility.yul\":4906:4908   */\n      0x60\n        /* \"#utility.yul\":4932:4985   */\n      tag_334\n        /* \"#utility.yul\":4977:4984   */\n      dup10\n        /* \"#utility.yul\":4968:4974   */\n      dup3\n        /* \"#utility.yul\":4957:4966   */\n      dup11\n        /* \"#utility.yul\":4953:4975   */\n      add\n        /* \"#utility.yul\":4932:4985   */\n      tag_296\n      jump\t// in\n    tag_334:\n        /* \"#utility.yul\":4922:4985   */\n      swap4\n      pop\n        /* \"#utility.yul\":4877:4995   */\n      pop\n        /* \"#utility.yul\":5034:5037   */\n      0x80\n        /* \"#utility.yul\":5061:5113   */\n      tag_335\n        /* \"#utility.yul\":5105:5112   */\n      dup10\n        /* \"#utility.yul\":5096:5102   */\n      dup3\n        /* \"#utility.yul\":5085:5094   */\n      dup11\n        /* \"#utility.yul\":5081:5103   */\n      add\n        /* \"#utility.yul\":5061:5113   */\n      tag_279\n      jump\t// in\n    tag_335:\n        /* \"#utility.yul\":5051:5113   */\n      swap3\n      pop\n        /* \"#utility.yul\":5005:5123   */\n      pop\n        /* \"#utility.yul\":5190:5193   */\n      0xa0\n        /* \"#utility.yul\":5179:5188   */\n      dup8\n        /* \"#utility.yul\":5175:5194   */\n      add\n        /* \"#utility.yul\":5162:5195   */\n      calldataload\n        /* \"#utility.yul\":5222:5240   */\n      0xffffffffffffffff\n        /* \"#utility.yul\":5214:5220   */\n      dup2\n        /* \"#utility.yul\":5211:5241   */\n      gt\n        /* \"#utility.yul\":5208:5325   */\n      iszero\n      tag_336\n      jumpi\n        /* \"#utility.yul\":5244:5323   */\n      tag_337\n      tag_329\n      jump\t// in\n    tag_337:\n        /* \"#utility.yul\":5208:5325   */\n    tag_336:\n        /* \"#utility.yul\":5349:5424   */\n      tag_338\n        /* \"#utility.yul\":5416:5423   */\n      dup10\n        /* \"#utility.yul\":5407:5413   */\n      dup3\n        /* \"#utility.yul\":5396:5405   */\n      dup11\n        /* \"#utility.yul\":5392:5414   */\n      add\n        /* \"#utility.yul\":5349:5424   */\n      tag_289\n      jump\t// in\n    tag_338:\n        /* \"#utility.yul\":5339:5424   */\n      swap2\n      pop\n        /* \"#utility.yul\":5133:5434   */\n      pop\n        /* \"#utility.yul\":3824:5441   */\n      swap3\n      swap6\n      pop\n      swap3\n      swap6\n      pop\n      swap3\n      swap6\n      jump\t// out\n        /* \"#utility.yul\":5447:5956   */\n    tag_64:\n        /* \"#utility.yul\":5516:5522   */\n      0x00\n        /* \"#utility.yul\":5565:5567   */\n      0x20\n        /* \"#utility.yul\":5553:5562   */\n      dup3\n        /* \"#utility.yul\":5544:5551   */\n      dup5\n        /* \"#utility.yul\":5540:5563   */\n      sub\n        /* \"#utility.yul\":5536:5568   */\n      slt\n        /* \"#utility.yul\":5533:5652   */\n      iszero\n      tag_340\n      jumpi\n        /* \"#utility.yul\":5571:5650   */\n      tag_341\n      tag_325\n      jump\t// in\n    tag_341:\n        /* \"#utility.yul\":5533:5652   */\n    tag_340:\n        /* \"#utility.yul\":5719:5720   */\n      0x00\n        /* \"#utility.yul\":5708:5717   */\n      dup3\n        /* \"#utility.yul\":5704:5721   */\n      add\n        /* \"#utility.yul\":5691:5722   */\n      calldataload\n        /* \"#utility.yul\":5749:5767   */\n      0xffffffffffffffff\n        /* \"#utility.yul\":5741:5747   */\n      dup2\n        /* \"#utility.yul\":5738:5768   */\n      gt\n        /* \"#utility.yul\":5735:5852   */\n      iszero\n      tag_342\n      jumpi\n        /* \"#utility.yul\":5771:5850   */\n      tag_343\n      tag_329\n      jump\t// in\n    tag_343:\n        /* \"#utility.yul\":5735:5852   */\n    tag_342:\n        /* \"#utility.yul\":5876:5939   */\n      tag_344\n        /* \"#utility.yul\":5931:5938   */\n      dup5\n        /* \"#utility.yul\":5922:5928   */\n      dup3\n        /* \"#utility.yul\":5911:5920   */\n      dup6\n        /* \"#utility.yul\":5907:5929   */\n      add\n        /* \"#utility.yul\":5876:5939   */\n      tag_283\n      jump\t// in\n    tag_344:\n        /* \"#utility.yul\":5866:5939   */\n      swap2\n      pop\n        /* \"#utility.yul\":5662:5949   */\n      pop\n        /* \"#utility.yul\":5447:5956   */\n      swap3\n      swap2\n      pop\n      pop\n      jump\t// out\n        /* \"#utility.yul\":5962:6291   */\n    tag_28:\n        /* \"#utility.yul\":6021:6027   */\n      0x00\n        /* \"#utility.yul\":6070:6072   */\n      0x20\n        /* \"#utility.yul\":6058:6067   */\n      dup3\n        /* \"#utility.yul\":6049:6056   */\n      dup5\n        /* \"#utility.yul\":6045:6068   */\n      sub\n        /* \"#utility.yul\":6041:6073   */\n      slt\n        /* \"#utility.yul\":6038:6157   */\n      iszero\n      tag_346\n      jumpi\n        /* \"#utility.yul\":6076:6155   */\n      tag_347\n      tag_325\n      jump\t// in\n    tag_347:\n        /* \"#utility.yul\":6038:6157   */\n    tag_346:\n        /* \"#utility.yul\":6196:6197   */\n      0x00\n        /* \"#utility.yul\":6221:6274   */\n      tag_348\n        /* \"#utility.yul\":6266:6273   */\n      dup5\n        /* \"#utility.yul\":6257:6263   */\n      dup3\n        /* \"#utility.yul\":6246:6255   */\n      dup6\n        /* \"#utility.yul\":6242:6264   */\n      add\n        /* \"#utility.yul\":6221:6274   */\n      tag_296\n      jump\t// in\n    tag_348:\n        /* \"#utility.yul\":6211:6274   */\n      swap2\n      pop\n        /* \"#utility.yul\":6167:6284   */\n      pop\n        /* \"#utility.yul\":5962:6291   */\n      swap3\n      swap2\n      pop\n      pop\n      jump\t// out\n        /* \"#utility.yul\":6297:7672   */\n    tag_73:\n        /* \"#utility.yul\":6448:6454   */\n      0x00\n        /* \"#utility.yul\":6456:6462   */\n      dup1\n        /* \"#utility.yul\":6464:6470   */\n      0x00\n        /* \"#utility.yul\":6472:6478   */\n      dup1\n        /* \"#utility.yul\":6521:6524   */\n      0x80\n        /* \"#utility.yul\":6509:6518   */\n      dup6\n        /* \"#utility.yul\":6500:6507   */\n      dup8\n        /* \"#utility.yul\":6496:6519   */\n      sub\n        /* \"#utility.yul\":6492:6525   */\n      slt\n        /* \"#utility.yul\":6489:6609   */\n      iszero\n      tag_350\n      jumpi\n        /* \"#utility.yul\":6528:6607   */\n      tag_351\n      tag_325\n      jump\t// in\n    tag_351:\n        /* \"#utility.yul\":6489:6609   */\n    tag_350:\n        /* \"#utility.yul\":6648:6649   */\n      0x00\n        /* \"#utility.yul\":6673:6726   */\n      tag_352\n        /* \"#utility.yul\":6718:6725   */\n      dup8\n        /* \"#utility.yul\":6709:6715   */\n      dup3\n        /* \"#utility.yul\":6698:6707   */\n      dup9\n        /* \"#utility.yul\":6694:6716   */\n      add\n        /* \"#utility.yul\":6673:6726   */\n      tag_296\n      jump\t// in\n    tag_352:\n        /* \"#utility.yul\":6663:6726   */\n      swap5\n      pop\n        /* \"#utility.yul\":6619:6736   */\n      pop\n        /* \"#utility.yul\":6803:6805   */\n      0x20\n        /* \"#utility.yul\":6792:6801   */\n      dup6\n        /* \"#utility.yul\":6788:6806   */\n      add\n        /* \"#utility.yul\":6775:6807   */\n      calldataload\n        /* \"#utility.yul\":6834:6852   */\n      0xffffffffffffffff\n        /* \"#utility.yul\":6826:6832   */\n      dup2\n        /* \"#utility.yul\":6823:6853   */\n      gt\n        /* \"#utility.yul\":6820:6937   */\n      iszero\n      tag_353\n      jumpi\n        /* \"#utility.yul\":6856:6935   */\n      tag_354\n      tag_329\n      jump\t// in\n    tag_354:\n        /* \"#utility.yul\":6820:6937   */\n    tag_353:\n        /* \"#utility.yul\":6961:7035   */\n      tag_355\n        /* \"#utility.yul\":7027:7034   */\n      dup8\n        /* \"#utility.yul\":7018:7024   */\n      dup3\n        /* \"#utility.yul\":7007:7016   */\n      dup9\n        /* \"#utility.yul\":7003:7025   */\n      add\n        /* \"#utility.yul\":6961:7035   */\n      tag_301\n      jump\t// in\n    tag_355:\n        /* \"#utility.yul\":6951:7035   */\n      swap4\n      pop\n        /* \"#utility.yul\":6746:7045   */\n      pop\n        /* \"#utility.yul\":7112:7114   */\n      0x40\n        /* \"#utility.yul\":7101:7110   */\n      dup6\n        /* \"#utility.yul\":7097:7115   */\n      add\n        /* \"#utility.yul\":7084:7116   */\n      calldataload\n        /* \"#utility.yul\":7143:7161   */\n      0xffffffffffffffff\n        /* \"#utility.yul\":7135:7141   */\n      dup2\n        /* \"#utility.yul\":7132:7162   */\n      gt\n        /* \"#utility.yul\":7129:7246   */\n      iszero\n      tag_356\n      jumpi\n        /* \"#utility.yul\":7165:7244   */\n      tag_357\n      tag_329\n      jump\t// in\n    tag_357:\n        /* \"#utility.yul\":7129:7246   */\n    tag_356:\n        /* \"#utility.yul\":7270:7345   */\n      tag_358\n        /* \"#utility.yul\":7337:7344   */\n      dup8\n        /* \"#utility.yul\":7328:7334   */\n      dup3\n        /* \"#utility.yul\":7317:7326   */\n      dup9\n        /* \"#utility.yul\":7313:7335   */\n      add\n        /* \"#utility.yul\":7270:7345   */\n      tag_289\n      jump\t// in\n    tag_358:\n        /* \"#utility.yul\":7260:7345   */\n      swap3\n      pop\n        /* \"#utility.yul\":7055:7355   */\n      pop\n        /* \"#utility.yul\":7422:7424   */\n      0x60\n        /* \"#utility.yul\":7411:7420   */\n      dup6\n        /* \"#utility.yul\":7407:7425   */\n      add\n        /* \"#utility.yul\":7394:7426   */\n      calldataload\n        /* \"#utility.yul\":7453:7471   */\n      0xffffffffffffffff\n        /* \"#utility.yul\":7445:7451   */\n      dup2\n        /* \"#utility.yul\":7442:7472   */\n      gt\n        /* \"#utility.yul\":7439:7556   */\n      iszero\n      tag_359\n      jumpi\n        /* \"#utility.yul\":7475:7554   */\n      tag_360\n      tag_329\n      jump\t// in\n    tag_360:\n        /* \"#utility.yul\":7439:7556   */\n    tag_359:\n        /* \"#utility.yul\":7580:7655   */\n      tag_361\n        /* \"#utility.yul\":7647:7654   */\n      dup8\n        /* \"#utility.yul\":7638:7644   */\n      dup3\n        /* \"#utility.yul\":7627:7636   */\n      dup9\n        /* \"#utility.yul\":7623:7645   */\n      add\n        /* \"#utility.yul\":7580:7655   */\n      tag_289\n      jump\t// in\n    tag_361:\n        /* \"#utility.yul\":7570:7655   */\n      swap2\n      pop\n        /* \"#utility.yul\":7365:7665   */\n      pop\n        /* \"#utility.yul\":6297:7672   */\n      swap3\n      swap6\n      swap2\n      swap5\n      pop\n      swap3\n      pop\n      jump\t// out\n        /* \"#utility.yul\":7678:8443   */\n    tag_60:\n        /* \"#utility.yul\":7764:7770   */\n      0x00\n        /* \"#utility.yul\":7772:7778   */\n      dup1\n        /* \"#utility.yul\":7780:7786   */\n      0x00\n        /* \"#utility.yul\":7788:7794   */\n      dup1\n        /* \"#utility.yul\":7837:7840   */\n      0x80\n        /* \"#utility.yul\":7825:7834   */\n      dup6\n        /* \"#utility.yul\":7816:7823   */\n      dup8\n        /* \"#utility.yul\":7812:7835   */\n      sub\n        /* \"#utility.yul\":7808:7841   */\n      slt\n        /* \"#utility.yul\":7805:7925   */\n      iszero\n      tag_363\n      jumpi\n        /* \"#utility.yul\":7844:7923   */\n      tag_364\n      tag_325\n      jump\t// in\n    tag_364:\n        /* \"#utility.yul\":7805:7925   */\n    tag_363:\n        /* \"#utility.yul\":7964:7965   */\n      0x00\n        /* \"#utility.yul\":7989:8042   */\n      tag_365\n        /* \"#utility.yul\":8034:8041   */\n      dup8\n        /* \"#utility.yul\":8025:8031   */\n      dup3\n        /* \"#utility.yul\":8014:8023   */\n      dup9\n        /* \"#utility.yul\":8010:8032   */\n      add\n        /* \"#utility.yul\":7989:8042   */\n      tag_296\n      jump\t// in\n    tag_365:\n        /* \"#utility.yul\":7979:8042   */\n      swap5\n      pop\n        /* \"#utility.yul\":7935:8052   */\n      pop\n        /* \"#utility.yul\":8091:8093   */\n      0x20\n        /* \"#utility.yul\":8117:8170   */\n      tag_366\n        /* \"#utility.yul\":8162:8169   */\n      dup8\n        /* \"#utility.yul\":8153:8159   */\n      dup3\n        /* \"#utility.yul\":8142:8151   */\n      dup9\n        /* \"#utility.yul\":8138:8160   */\n      add\n        /* \"#utility.yul\":8117:8170   */\n      tag_296\n      jump\t// in\n    tag_366:\n        /* \"#utility.yul\":8107:8170   */\n      swap4\n      pop\n        /* \"#utility.yul\":8062:8180   */\n      pop\n        /* \"#utility.yul\":8219:8221   */\n      0x40\n        /* \"#utility.yul\":8245:8298   */\n      tag_367\n        /* \"#utility.yul\":8290:8297   */\n      dup8\n        /* \"#utility.yul\":8281:8287   */\n      dup3\n        /* \"#utility.yul\":8270:8279   */\n      dup9\n        /* \"#utility.yul\":8266:8288   */\n      add\n        /* \"#utility.yul\":8245:8298   */\n      tag_296\n      jump\t// in\n    tag_367:\n        /* \"#utility.yul\":8235:8298   */\n      swap3\n      pop\n        /* \"#utility.yul\":8190:8308   */\n      pop\n        /* \"#utility.yul\":8347:8349   */\n      0x60\n        /* \"#utility.yul\":8373:8426   */\n      tag_368\n        /* \"#utility.yul\":8418:8425   */\n      dup8\n        /* \"#utility.yul\":8409:8415   */\n      dup3\n        /* \"#utility.yul\":8398:8407   */\n      dup9\n        /* \"#utility.yul\":8394:8416   */\n      add\n        /* \"#utility.yul\":8373:8426   */\n      tag_296\n      jump\t// in\n    tag_368:\n        /* \"#utility.yul\":8363:8426   */\n      swap2\n      pop\n        /* \"#utility.yul\":8318:8436   */\n      pop\n        /* \"#utility.yul\":7678:8443   */\n      swap3\n      swap6\n      swap2\n      swap5\n      pop\n      swap3\n      pop\n      jump\t// out\n        /* \"#utility.yul\":8449:8554   */\n    tag_369:\n        /* \"#utility.yul\":8524:8547   */\n      tag_371\n        /* \"#utility.yul\":8541:8546   */\n      dup2\n        /* \"#utility.yul\":8524:8547   */\n      tag_372\n      jump\t// in\n    tag_371:\n        /* \"#utility.yul\":8519:8522   */\n      dup3\n        /* \"#utility.yul\":8512:8548   */\n      mstore\n        /* \"#utility.yul\":8449:8554   */\n      pop\n      pop\n      jump\t// out\n        /* \"#utility.yul\":8560:8675   */\n    tag_373:\n        /* \"#utility.yul\":8645:8668   */\n      tag_375\n        /* \"#utility.yul\":8662:8667   */\n      dup2\n        /* \"#utility.yul\":8645:8668   */\n      tag_372\n      jump\t// in\n    tag_375:\n        /* \"#utility.yul\":8640:8643   */\n      dup3\n        /* \"#utility.yul\":8633:8669   */\n      mstore\n        /* \"#utility.yul\":8560:8675   */\n      pop\n      pop\n      jump\t// out\n        /* \"#utility.yul\":8681:9025   */\n    tag_376:\n        /* \"#utility.yul\":8759:8762   */\n      0x00\n        /* \"#utility.yul\":8787:8826   */\n      tag_378\n        /* \"#utility.yul\":8820:8825   */\n      dup3\n        /* \"#utility.yul\":8787:8826   */\n      tag_379\n      jump\t// in\n    tag_378:\n        /* \"#utility.yul\":8842:8903   */\n      tag_380\n        /* \"#utility.yul\":8896:8902   */\n      dup2\n        /* \"#utility.yul\":8891:8894   */\n      dup6\n        /* \"#utility.yul\":8842:8903   */\n      tag_381\n      jump\t// in\n    tag_380:\n        /* \"#utility.yul\":8835:8903   */\n      swap4\n      pop\n        /* \"#utility.yul\":8912:8964   */\n      tag_382\n        /* \"#utility.yul\":8957:8963   */\n      dup2\n        /* \"#utility.yul\":8952:8955   */\n      dup6\n        /* \"#utility.yul\":8945:8949   */\n      0x20\n        /* \"#utility.yul\":8938:8943   */\n      dup7\n        /* \"#utility.yul\":8934:8950   */\n      add\n        /* \"#utility.yul\":8912:8964   */\n      tag_383\n      jump\t// in\n    tag_382:\n        /* \"#utility.yul\":8989:9018   */\n      tag_384\n        /* \"#utility.yul\":9011:9017   */\n      dup2\n        /* \"#utility.yul\":8989:9018   */\n      tag_385\n      jump\t// in\n    tag_384:\n        /* \"#utility.yul\":8984:8987   */\n      dup5\n        /* \"#utility.yul\":8980:9019   */\n      add\n        /* \"#utility.yul\":8973:9019   */\n      swap2\n      pop\n        /* \"#utility.yul\":8763:9025   */\n      pop\n        /* \"#utility.yul\":8681:9025   */\n      swap3\n      swap2\n      pop\n      pop\n      jump\t// out\n        /* \"#utility.yul\":9031:9395   */\n    tag_386:\n        /* \"#utility.yul\":9119:9122   */\n      0x00\n        /* \"#utility.yul\":9147:9186   */\n      tag_388\n        /* \"#utility.yul\":9180:9185   */\n      dup3\n        /* \"#utility.yul\":9147:9186   */\n      tag_379\n      jump\t// in\n    tag_388:\n        /* \"#utility.yul\":9202:9273   */\n      tag_389\n        /* \"#utility.yul\":9266:9272   */\n      dup2\n        /* \"#utility.yul\":9261:9264   */\n      dup6\n        /* \"#utility.yul\":9202:9273   */\n      tag_390\n      jump\t// in\n    tag_389:\n        /* \"#utility.yul\":9195:9273   */\n      swap4\n      pop\n        /* \"#utility.yul\":9282:9334   */\n      tag_391\n        /* \"#utility.yul\":9327:9333   */\n      dup2\n        /* \"#utility.yul\":9322:9325   */\n      dup6\n        /* \"#utility.yul\":9315:9319   */\n      0x20\n        /* \"#utility.yul\":9308:9313   */\n      dup7\n        /* \"#utility.yul\":9304:9320   */\n      add\n        /* \"#utility.yul\":9282:9334   */\n      tag_383\n      jump\t// in\n    tag_391:\n        /* \"#utility.yul\":9359:9388   */\n      tag_392\n        /* \"#utility.yul\":9381:9387   */\n      dup2\n        /* \"#utility.yul\":9359:9388   */\n      tag_385\n      jump\t// in\n    tag_392:\n        /* \"#utility.yul\":9354:9357   */\n      dup5\n        /* \"#utility.yul\":9350:9389   */\n      add\n        /* \"#utility.yul\":9343:9389   */\n      swap2\n      pop\n        /* \"#utility.yul\":9123:9395   */\n      pop\n        /* \"#utility.yul\":9031:9395   */\n      swap3\n      swap2\n      pop\n      pop\n      jump\t// out\n        /* \"#utility.yul\":9473:10067   */\n    tag_393:\n        /* \"#utility.yul\":9576:9579   */\n      0x00\n        /* \"#utility.yul\":9612:9616   */\n      0x40\n        /* \"#utility.yul\":9607:9610   */\n      dup4\n        /* \"#utility.yul\":9603:9617   */\n      add\n        /* \"#utility.yul\":9703:9707   */\n      0x00\n        /* \"#utility.yul\":9696:9701   */\n      dup4\n        /* \"#utility.yul\":9692:9708   */\n      add\n        /* \"#utility.yul\":9686:9709   */\n      mload\n        /* \"#utility.yul\":9722:9785   */\n      tag_395\n        /* \"#utility.yul\":9779:9783   */\n      0x00\n        /* \"#utility.yul\":9774:9777   */\n      dup7\n        /* \"#utility.yul\":9770:9784   */\n      add\n        /* \"#utility.yul\":9756:9768   */\n      dup3\n        /* \"#utility.yul\":9722:9785   */\n      tag_396\n      jump\t// in\n    tag_395:\n        /* \"#utility.yul\":9627:9795   */\n      pop\n        /* \"#utility.yul\":9877:9881   */\n      0x20\n        /* \"#utility.yul\":9870:9875   */\n      dup4\n        /* \"#utility.yul\":9866:9882   */\n      add\n        /* \"#utility.yul\":9860:9883   */\n      mload\n        /* \"#utility.yul\":9930:9933   */\n      dup5\n        /* \"#utility.yul\":9924:9928   */\n      dup3\n        /* \"#utility.yul\":9920:9934   */\n      sub\n        /* \"#utility.yul\":9913:9917   */\n      0x20\n        /* \"#utility.yul\":9908:9911   */\n      dup7\n        /* \"#utility.yul\":9904:9918   */\n      add\n        /* \"#utility.yul\":9897:9935   */\n      mstore\n        /* \"#utility.yul\":9956:10029   */\n      tag_397\n        /* \"#utility.yul\":10024:10028   */\n      dup3\n        /* \"#utility.yul\":10010:10022   */\n      dup3\n        /* \"#utility.yul\":9956:10029   */\n      tag_376\n      jump\t// in\n    tag_397:\n        /* \"#utility.yul\":9948:10029   */\n      swap2\n      pop\n        /* \"#utility.yul\":9805:10040   */\n      pop\n        /* \"#utility.yul\":10057:10061   */\n      dup1\n        /* \"#utility.yul\":10050:10061   */\n      swap2\n      pop\n        /* \"#utility.yul\":9581:10067   */\n      pop\n        /* \"#utility.yul\":9473:10067   */\n      swap3\n      swap2\n      pop\n      pop\n      jump\t// out\n        /* \"#utility.yul\":10145:10749   */\n    tag_398:\n        /* \"#utility.yul\":10258:10261   */\n      0x00\n        /* \"#utility.yul\":10294:10298   */\n      0x40\n        /* \"#utility.yul\":10289:10292   */\n      dup4\n        /* \"#utility.yul\":10285:10299   */\n      add\n        /* \"#utility.yul\":10385:10389   */\n      0x00\n        /* \"#utility.yul\":10378:10383   */\n      dup4\n        /* \"#utility.yul\":10374:10390   */\n      add\n        /* \"#utility.yul\":10368:10391   */\n      mload\n        /* \"#utility.yul\":10404:10467   */\n      tag_400\n        /* \"#utility.yul\":10461:10465   */\n      0x00\n        /* \"#utility.yul\":10456:10459   */\n      dup7\n        /* \"#utility.yul\":10452:10466   */\n      add\n        /* \"#utility.yul\":10438:10450   */\n      dup3\n        /* \"#utility.yul\":10404:10467   */\n      tag_396\n      jump\t// in\n    tag_400:\n        /* \"#utility.yul\":10309:10477   */\n      pop\n        /* \"#utility.yul\":10559:10563   */\n      0x20\n        /* \"#utility.yul\":10552:10557   */\n      dup4\n        /* \"#utility.yul\":10548:10564   */\n      add\n        /* \"#utility.yul\":10542:10565   */\n      mload\n        /* \"#utility.yul\":10612:10615   */\n      dup5\n        /* \"#utility.yul\":10606:10610   */\n      dup3\n        /* \"#utility.yul\":10602:10616   */\n      sub\n        /* \"#utility.yul\":10595:10599   */\n      0x20\n        /* \"#utility.yul\":10590:10593   */\n      dup7\n        /* \"#utility.yul\":10586:10600   */\n      add\n        /* \"#utility.yul\":10579:10617   */\n      mstore\n        /* \"#utility.yul\":10638:10711   */\n      tag_401\n        /* \"#utility.yul\":10706:10710   */\n      dup3\n        /* \"#utility.yul\":10692:10704   */\n      dup3\n        /* \"#utility.yul\":10638:10711   */\n      tag_376\n      jump\t// in\n    tag_401:\n        /* \"#utility.yul\":10630:10711   */\n      swap2\n      pop\n        /* \"#utility.yul\":10487:10722   */\n      pop\n        /* \"#utility.yul\":10739:10743   */\n      dup1\n        /* \"#utility.yul\":10732:10743   */\n      swap2\n      pop\n        /* \"#utility.yul\":10263:10749   */\n      pop\n        /* \"#utility.yul\":10145:10749   */\n      swap3\n      swap2\n      pop\n      pop\n      jump\t// out\n        /* \"#utility.yul\":10825:12466   */\n    tag_402:\n        /* \"#utility.yul\":10926:10929   */\n      0x00\n        /* \"#utility.yul\":10962:10966   */\n      0xe0\n        /* \"#utility.yul\":10957:10960   */\n      dup4\n        /* \"#utility.yul\":10953:10967   */\n      add\n        /* \"#utility.yul\":11052:11056   */\n      0x00\n        /* \"#utility.yul\":11045:11050   */\n      dup4\n        /* \"#utility.yul\":11041:11057   */\n      add\n        /* \"#utility.yul\":11035:11058   */\n      mload\n        /* \"#utility.yul\":11071:11134   */\n      tag_404\n        /* \"#utility.yul\":11128:11132   */\n      0x00\n        /* \"#utility.yul\":11123:11126   */\n      dup7\n        /* \"#utility.yul\":11119:11133   */\n      add\n        /* \"#utility.yul\":11105:11117   */\n      dup3\n        /* \"#utility.yul\":11071:11134   */\n      tag_396\n      jump\t// in\n    tag_404:\n        /* \"#utility.yul\":10977:11144   */\n      pop\n        /* \"#utility.yul\":11227:11231   */\n      0x20\n        /* \"#utility.yul\":11220:11225   */\n      dup4\n        /* \"#utility.yul\":11216:11232   */\n      add\n        /* \"#utility.yul\":11210:11233   */\n      mload\n        /* \"#utility.yul\":11246:11307   */\n      tag_405\n        /* \"#utility.yul\":11301:11305   */\n      0x20\n        /* \"#utility.yul\":11296:11299   */\n      dup7\n        /* \"#utility.yul\":11292:11306   */\n      add\n        /* \"#utility.yul\":11278:11290   */\n      dup3\n        /* \"#utility.yul\":11246:11307   */\n      tag_369\n      jump\t// in\n    tag_405:\n        /* \"#utility.yul\":11154:11317   */\n      pop\n        /* \"#utility.yul\":11405:11409   */\n      0x40\n        /* \"#utility.yul\":11398:11403   */\n      dup4\n        /* \"#utility.yul\":11394:11410   */\n      add\n        /* \"#utility.yul\":11388:11411   */\n      mload\n        /* \"#utility.yul\":11458:11461   */\n      dup5\n        /* \"#utility.yul\":11452:11456   */\n      dup3\n        /* \"#utility.yul\":11448:11462   */\n      sub\n        /* \"#utility.yul\":11441:11445   */\n      0x40\n        /* \"#utility.yul\":11436:11439   */\n      dup7\n        /* \"#utility.yul\":11432:11446   */\n      add\n        /* \"#utility.yul\":11425:11463   */\n      mstore\n        /* \"#utility.yul\":11484:11557   */\n      tag_406\n        /* \"#utility.yul\":11552:11556   */\n      dup3\n        /* \"#utility.yul\":11538:11550   */\n      dup3\n        /* \"#utility.yul\":11484:11557   */\n      tag_376\n      jump\t// in\n    tag_406:\n        /* \"#utility.yul\":11476:11557   */\n      swap2\n      pop\n        /* \"#utility.yul\":11327:11568   */\n      pop\n        /* \"#utility.yul\":11652:11656   */\n      0x60\n        /* \"#utility.yul\":11645:11650   */\n      dup4\n        /* \"#utility.yul\":11641:11657   */\n      add\n        /* \"#utility.yul\":11635:11658   */\n      mload\n        /* \"#utility.yul\":11705:11708   */\n      dup5\n        /* \"#utility.yul\":11699:11703   */\n      dup3\n        /* \"#utility.yul\":11695:11709   */\n      sub\n        /* \"#utility.yul\":11688:11692   */\n      0x60\n        /* \"#utility.yul\":11683:11686   */\n      dup7\n        /* \"#utility.yul\":11679:11693   */\n      add\n        /* \"#utility.yul\":11672:11710   */\n      mstore\n        /* \"#utility.yul\":11731:11804   */\n      tag_407\n        /* \"#utility.yul\":11799:11803   */\n      dup3\n        /* \"#utility.yul\":11785:11797   */\n      dup3\n        /* \"#utility.yul\":11731:11804   */\n      tag_376\n      jump\t// in\n    tag_407:\n        /* \"#utility.yul\":11723:11804   */\n      swap2\n      pop\n        /* \"#utility.yul\":11578:11815   */\n      pop\n        /* \"#utility.yul\":11905:11909   */\n      0x80\n        /* \"#utility.yul\":11898:11903   */\n      dup4\n        /* \"#utility.yul\":11894:11910   */\n      add\n        /* \"#utility.yul\":11888:11911   */\n      mload\n        /* \"#utility.yul\":11924:11987   */\n      tag_408\n        /* \"#utility.yul\":11981:11985   */\n      0x80\n        /* \"#utility.yul\":11976:11979   */\n      dup7\n        /* \"#utility.yul\":11972:11986   */\n      add\n        /* \"#utility.yul\":11958:11970   */\n      dup3\n        /* \"#utility.yul\":11924:11987   */\n      tag_396\n      jump\t// in\n    tag_408:\n        /* \"#utility.yul\":11825:11997   */\n      pop\n        /* \"#utility.yul\":12079:12083   */\n      0xa0\n        /* \"#utility.yul\":12072:12077   */\n      dup4\n        /* \"#utility.yul\":12068:12084   */\n      add\n        /* \"#utility.yul\":12062:12085   */\n      mload\n        /* \"#utility.yul\":12098:12159   */\n      tag_409\n        /* \"#utility.yul\":12153:12157   */\n      0xa0\n        /* \"#utility.yul\":12148:12151   */\n      dup7\n        /* \"#utility.yul\":12144:12158   */\n      add\n        /* \"#utility.yul\":12130:12142   */\n      dup3\n        /* \"#utility.yul\":12098:12159   */\n      tag_369\n      jump\t// in\n    tag_409:\n        /* \"#utility.yul\":12007:12169   */\n      pop\n        /* \"#utility.yul\":12252:12256   */\n      0xc0\n        /* \"#utility.yul\":12245:12250   */\n      dup4\n        /* \"#utility.yul\":12241:12257   */\n      add\n        /* \"#utility.yul\":12235:12258   */\n      mload\n        /* \"#utility.yul\":12305:12308   */\n      dup5\n        /* \"#utility.yul\":12299:12303   */\n      dup3\n        /* \"#utility.yul\":12295:12309   */\n      sub\n        /* \"#utility.yul\":12288:12292   */\n      0xc0\n        /* \"#utility.yul\":12283:12286   */\n      dup7\n        /* \"#utility.yul\":12279:12293   */\n      add\n        /* \"#utility.yul\":12272:12310   */\n      mstore\n        /* \"#utility.yul\":12331:12428   */\n      tag_410\n        /* \"#utility.yul\":12423:12427   */\n      dup3\n        /* \"#utility.yul\":12409:12421   */\n      dup3\n        /* \"#utility.yul\":12331:12428   */\n      tag_393\n      jump\t// in\n    tag_410:\n        /* \"#utility.yul\":12323:12428   */\n      swap2\n      pop\n        /* \"#utility.yul\":12179:12439   */\n      pop\n        /* \"#utility.yul\":12456:12460   */\n      dup1\n        /* \"#utility.yul\":12449:12460   */\n      swap2\n      pop\n        /* \"#utility.yul\":10931:12466   */\n      pop\n        /* \"#utility.yul\":10825:12466   */\n      swap3\n      swap2\n      pop\n      pop\n      jump\t// out\n        /* \"#utility.yul\":12542:14193   */\n    tag_411:\n        /* \"#utility.yul\":12653:12656   */\n      0x00\n        /* \"#utility.yul\":12689:12693   */\n      0xe0\n        /* \"#utility.yul\":12684:12687   */\n      dup4\n        /* \"#utility.yul\":12680:12694   */\n      add\n        /* \"#utility.yul\":12779:12783   */\n      0x00\n        /* \"#utility.yul\":12772:12777   */\n      dup4\n        /* \"#utility.yul\":12768:12784   */\n      add\n        /* \"#utility.yul\":12762:12785   */\n      mload\n        /* \"#utility.yul\":12798:12861   */\n      tag_413\n        /* \"#utility.yul\":12855:12859   */\n      0x00\n        /* \"#utility.yul\":12850:12853   */\n      dup7\n        /* \"#utility.yul\":12846:12860   */\n      add\n        /* \"#utility.yul\":12832:12844   */\n      dup3\n        /* \"#utility.yul\":12798:12861   */\n      tag_396\n      jump\t// in\n    tag_413:\n        /* \"#utility.yul\":12704:12871   */\n      pop\n        /* \"#utility.yul\":12954:12958   */\n      0x20\n        /* \"#utility.yul\":12947:12952   */\n      dup4\n        /* \"#utility.yul\":12943:12959   */\n      add\n        /* \"#utility.yul\":12937:12960   */\n      mload\n        /* \"#utility.yul\":12973:13034   */\n      tag_414\n        /* \"#utility.yul\":13028:13032   */\n      0x20\n        /* \"#utility.yul\":13023:13026   */\n      dup7\n        /* \"#utility.yul\":13019:13033   */\n      add\n        /* \"#utility.yul\":13005:13017   */\n      dup3\n        /* \"#utility.yul\":12973:13034   */\n      tag_369\n      jump\t// in\n    tag_414:\n        /* \"#utility.yul\":12881:13044   */\n      pop\n        /* \"#utility.yul\":13132:13136   */\n      0x40\n        /* \"#utility.yul\":13125:13130   */\n      dup4\n        /* \"#utility.yul\":13121:13137   */\n      add\n        /* \"#utility.yul\":13115:13138   */\n      mload\n        /* \"#utility.yul\":13185:13188   */\n      dup5\n        /* \"#utility.yul\":13179:13183   */\n      dup3\n        /* \"#utility.yul\":13175:13189   */\n      sub\n        /* \"#utility.yul\":13168:13172   */\n      0x40\n        /* \"#utility.yul\":13163:13166   */\n      dup7\n        /* \"#utility.yul\":13159:13173   */\n      add\n        /* \"#utility.yul\":13152:13190   */\n      mstore\n        /* \"#utility.yul\":13211:13284   */\n      tag_415\n        /* \"#utility.yul\":13279:13283   */\n      dup3\n        /* \"#utility.yul\":13265:13277   */\n      dup3\n        /* \"#utility.yul\":13211:13284   */\n      tag_376\n      jump\t// in\n    tag_415:\n        /* \"#utility.yul\":13203:13284   */\n      swap2\n      pop\n        /* \"#utility.yul\":13054:13295   */\n      pop\n        /* \"#utility.yul\":13379:13383   */\n      0x60\n        /* \"#utility.yul\":13372:13377   */\n      dup4\n        /* \"#utility.yul\":13368:13384   */\n      add\n        /* \"#utility.yul\":13362:13385   */\n      mload\n        /* \"#utility.yul\":13432:13435   */\n      dup5\n        /* \"#utility.yul\":13426:13430   */\n      dup3\n        /* \"#utility.yul\":13422:13436   */\n      sub\n        /* \"#utility.yul\":13415:13419   */\n      0x60\n        /* \"#utility.yul\":13410:13413   */\n      dup7\n        /* \"#utility.yul\":13406:13420   */\n      add\n        /* \"#utility.yul\":13399:13437   */\n      mstore\n        /* \"#utility.yul\":13458:13531   */\n      tag_416\n        /* \"#utility.yul\":13526:13530   */\n      dup3\n        /* \"#utility.yul\":13512:13524   */\n      dup3\n        /* \"#utility.yul\":13458:13531   */\n      tag_376\n      jump\t// in\n    tag_416:\n        /* \"#utility.yul\":13450:13531   */\n      swap2\n      pop\n        /* \"#utility.yul\":13305:13542   */\n      pop\n        /* \"#utility.yul\":13632:13636   */\n      0x80\n        /* \"#utility.yul\":13625:13630   */\n      dup4\n        /* \"#utility.yul\":13621:13637   */\n      add\n        /* \"#utility.yul\":13615:13638   */\n      mload\n        /* \"#utility.yul\":13651:13714   */\n      tag_417\n        /* \"#utility.yul\":13708:13712   */\n      0x80\n        /* \"#utility.yul\":13703:13706   */\n      dup7\n        /* \"#utility.yul\":13699:13713   */\n      add\n        /* \"#utility.yul\":13685:13697   */\n      dup3\n        /* \"#utility.yul\":13651:13714   */\n      tag_396\n      jump\t// in\n    tag_417:\n        /* \"#utility.yul\":13552:13724   */\n      pop\n        /* \"#utility.yul\":13806:13810   */\n      0xa0\n        /* \"#utility.yul\":13799:13804   */\n      dup4\n        /* \"#utility.yul\":13795:13811   */\n      add\n        /* \"#utility.yul\":13789:13812   */\n      mload\n        /* \"#utility.yul\":13825:13886   */\n      tag_418\n        /* \"#utility.yul\":13880:13884   */\n      0xa0\n        /* \"#utility.yul\":13875:13878   */\n      dup7\n        /* \"#utility.yul\":13871:13885   */\n      add\n        /* \"#utility.yul\":13857:13869   */\n      dup3\n        /* \"#utility.yul\":13825:13886   */\n      tag_369\n      jump\t// in\n    tag_418:\n        /* \"#utility.yul\":13734:13896   */\n      pop\n        /* \"#utility.yul\":13979:13983   */\n      0xc0\n        /* \"#utility.yul\":13972:13977   */\n      dup4\n        /* \"#utility.yul\":13968:13984   */\n      add\n        /* \"#utility.yul\":13962:13985   */\n      mload\n        /* \"#utility.yul\":14032:14035   */\n      dup5\n        /* \"#utility.yul\":14026:14030   */\n      dup3\n        /* \"#utility.yul\":14022:14036   */\n      sub\n        /* \"#utility.yul\":14015:14019   */\n      0xc0\n        /* \"#utility.yul\":14010:14013   */\n      dup7\n        /* \"#utility.yul\":14006:14020   */\n      add\n        /* \"#utility.yul\":13999:14037   */\n      mstore\n        /* \"#utility.yul\":14058:14155   */\n      tag_419\n        /* \"#utility.yul\":14150:14154   */\n      dup3\n        /* \"#utility.yul\":14136:14148   */\n      dup3\n        /* \"#utility.yul\":14058:14155   */\n      tag_393\n      jump\t// in\n    tag_419:\n        /* \"#utility.yul\":14050:14155   */\n      swap2\n      pop\n        /* \"#utility.yul\":13906:14166   */\n      pop\n        /* \"#utility.yul\":14183:14187   */\n      dup1\n        /* \"#utility.yul\":14176:14187   */\n      swap2\n      pop\n        /* \"#utility.yul\":12658:14193   */\n      pop\n        /* \"#utility.yul\":12542:14193   */\n      swap3\n      swap2\n      pop\n      pop\n      jump\t// out\n        /* \"#utility.yul\":14275:15630   */\n    tag_420:\n        /* \"#utility.yul\":14392:14395   */\n      0x00\n        /* \"#utility.yul\":14428:14432   */\n      0xa0\n        /* \"#utility.yul\":14423:14426   */\n      dup4\n        /* \"#utility.yul\":14419:14433   */\n      add\n        /* \"#utility.yul\":14521:14525   */\n      0x00\n        /* \"#utility.yul\":14514:14519   */\n      dup4\n        /* \"#utility.yul\":14510:14526   */\n      add\n        /* \"#utility.yul\":14504:14527   */\n      mload\n        /* \"#utility.yul\":14540:14603   */\n      tag_422\n        /* \"#utility.yul\":14597:14601   */\n      0x00\n        /* \"#utility.yul\":14592:14595   */\n      dup7\n        /* \"#utility.yul\":14588:14602   */\n      add\n        /* \"#utility.yul\":14574:14586   */\n      dup3\n        /* \"#utility.yul\":14540:14603   */\n      tag_396\n      jump\t// in\n    tag_422:\n        /* \"#utility.yul\":14443:14613   */\n      pop\n        /* \"#utility.yul\":14704:14708   */\n      0x20\n        /* \"#utility.yul\":14697:14702   */\n      dup4\n        /* \"#utility.yul\":14693:14709   */\n      add\n        /* \"#utility.yul\":14687:14710   */\n      mload\n        /* \"#utility.yul\":14723:14786   */\n      tag_423\n        /* \"#utility.yul\":14780:14784   */\n      0x20\n        /* \"#utility.yul\":14775:14778   */\n      dup7\n        /* \"#utility.yul\":14771:14785   */\n      add\n        /* \"#utility.yul\":14757:14769   */\n      dup3\n        /* \"#utility.yul\":14723:14786   */\n      tag_396\n      jump\t// in\n    tag_423:\n        /* \"#utility.yul\":14623:14796   */\n      pop\n        /* \"#utility.yul\":14878:14882   */\n      0x40\n        /* \"#utility.yul\":14871:14876   */\n      dup4\n        /* \"#utility.yul\":14867:14883   */\n      add\n        /* \"#utility.yul\":14861:14884   */\n      mload\n        /* \"#utility.yul\":14931:14934   */\n      dup5\n        /* \"#utility.yul\":14925:14929   */\n      dup3\n        /* \"#utility.yul\":14921:14935   */\n      sub\n        /* \"#utility.yul\":14914:14918   */\n      0x40\n        /* \"#utility.yul\":14909:14912   */\n      dup7\n        /* \"#utility.yul\":14905:14919   */\n      add\n        /* \"#utility.yul\":14898:14936   */\n      mstore\n        /* \"#utility.yul\":14957:15052   */\n      tag_424\n        /* \"#utility.yul\":15047:15051   */\n      dup3\n        /* \"#utility.yul\":15033:15045   */\n      dup3\n        /* \"#utility.yul\":14957:15052   */\n      tag_402\n      jump\t// in\n    tag_424:\n        /* \"#utility.yul\":14949:15052   */\n      swap2\n      pop\n        /* \"#utility.yul\":14806:15063   */\n      pop\n        /* \"#utility.yul\":15146:15150   */\n      0x60\n        /* \"#utility.yul\":15139:15144   */\n      dup4\n        /* \"#utility.yul\":15135:15151   */\n      add\n        /* \"#utility.yul\":15129:15152   */\n      mload\n        /* \"#utility.yul\":15199:15202   */\n      dup5\n        /* \"#utility.yul\":15193:15197   */\n      dup3\n        /* \"#utility.yul\":15189:15203   */\n      sub\n        /* \"#utility.yul\":15182:15186   */\n      0x60\n        /* \"#utility.yul\":15177:15180   */\n      dup7\n        /* \"#utility.yul\":15173:15187   */\n      add\n        /* \"#utility.yul\":15166:15204   */\n      mstore\n        /* \"#utility.yul\":15225:15322   */\n      tag_425\n        /* \"#utility.yul\":15317:15321   */\n      dup3\n        /* \"#utility.yul\":15303:15315   */\n      dup3\n        /* \"#utility.yul\":15225:15322   */\n      tag_393\n      jump\t// in\n    tag_425:\n        /* \"#utility.yul\":15217:15322   */\n      swap2\n      pop\n        /* \"#utility.yul\":15073:15333   */\n      pop\n        /* \"#utility.yul\":15416:15420   */\n      0x80\n        /* \"#utility.yul\":15409:15414   */\n      dup4\n        /* \"#utility.yul\":15405:15421   */\n      add\n        /* \"#utility.yul\":15399:15422   */\n      mload\n        /* \"#utility.yul\":15469:15472   */\n      dup5\n        /* \"#utility.yul\":15463:15467   */\n      dup3\n        /* \"#utility.yul\":15459:15473   */\n      sub\n        /* \"#utility.yul\":15452:15456   */\n      0x80\n        /* \"#utility.yul\":15447:15450   */\n      dup7\n        /* \"#utility.yul\":15443:15457   */\n      add\n        /* \"#utility.yul\":15436:15474   */\n      mstore\n        /* \"#utility.yul\":15495:15592   */\n      tag_426\n        /* \"#utility.yul\":15587:15591   */\n      dup3\n        /* \"#utility.yul\":15573:15585   */\n      dup3\n        /* \"#utility.yul\":15495:15592   */\n      tag_393\n      jump\t// in\n    tag_426:\n        /* \"#utility.yul\":15487:15592   */\n      swap2\n      pop\n        /* \"#utility.yul\":15343:15603   */\n      pop\n        /* \"#utility.yul\":15620:15624   */\n      dup1\n        /* \"#utility.yul\":15613:15624   */\n      swap2\n      pop\n        /* \"#utility.yul\":14397:15630   */\n      pop\n        /* \"#utility.yul\":14275:15630   */\n      swap3\n      swap2\n      pop\n      pop\n      jump\t// out\n        /* \"#utility.yul\":15636:15744   */\n    tag_396:\n        /* \"#utility.yul\":15713:15737   */\n      tag_428\n        /* \"#utility.yul\":15731:15736   */\n      dup2\n        /* \"#utility.yul\":15713:15737   */\n      tag_429\n      jump\t// in\n    tag_428:\n        /* \"#utility.yul\":15708:15711   */\n      dup3\n        /* \"#utility.yul\":15701:15738   */\n      mstore\n        /* \"#utility.yul\":15636:15744   */\n      pop\n      pop\n      jump\t// out\n        /* \"#utility.yul\":15750:15868   */\n    tag_430:\n        /* \"#utility.yul\":15837:15861   */\n      tag_432\n        /* \"#utility.yul\":15855:15860   */\n      dup2\n        /* \"#utility.yul\":15837:15861   */\n      tag_429\n      jump\t// in\n    tag_432:\n        /* \"#utility.yul\":15832:15835   */\n      dup3\n        /* \"#utility.yul\":15825:15862   */\n      mstore\n        /* \"#utility.yul\":15750:15868   */\n      pop\n      pop\n      jump\t// out\n        /* \"#utility.yul\":15874:16235   */\n    tag_57:\n        /* \"#utility.yul\":16011:16015   */\n      0x00\n        /* \"#utility.yul\":16049:16051   */\n      0x20\n        /* \"#utility.yul\":16038:16047   */\n      dup3\n        /* \"#utility.yul\":16034:16052   */\n      add\n        /* \"#utility.yul\":16026:16052   */\n      swap1\n      pop\n        /* \"#utility.yul\":16098:16107   */\n      dup2\n        /* \"#utility.yul\":16092:16096   */\n      dup2\n        /* \"#utility.yul\":16088:16108   */\n      sub\n        /* \"#utility.yul\":16084:16085   */\n      0x00\n        /* \"#utility.yul\":16073:16082   */\n      dup4\n        /* \"#utility.yul\":16069:16086   */\n      add\n        /* \"#utility.yul\":16062:16109   */\n      mstore\n        /* \"#utility.yul\":16126:16228   */\n      tag_434\n        /* \"#utility.yul\":16223:16227   */\n      dup2\n        /* \"#utility.yul\":16214:16220   */\n      dup5\n        /* \"#utility.yul\":16126:16228   */\n      tag_398\n      jump\t// in\n    tag_434:\n        /* \"#utility.yul\":16118:16228   */\n      swap1\n      pop\n        /* \"#utility.yul\":15874:16235   */\n      swap3\n      swap2\n      pop\n      pop\n      jump\t// out\n        /* \"#utility.yul\":16241:16598   */\n    tag_36:\n        /* \"#utility.yul\":16376:16380   */\n      0x00\n        /* \"#utility.yul\":16414:16416   */\n      0x20\n        /* \"#utility.yul\":16403:16412   */\n      dup3\n        /* \"#utility.yul\":16399:16417   */\n      add\n        /* \"#utility.yul\":16391:16417   */\n      swap1\n      pop\n        /* \"#utility.yul\":16463:16472   */\n      dup2\n        /* \"#utility.yul\":16457:16461   */\n      dup2\n        /* \"#utility.yul\":16453:16473   */\n      sub\n        /* \"#utility.yul\":16449:16450   */\n      0x00\n        /* \"#utility.yul\":16438:16447   */\n      dup4\n        /* \"#utility.yul\":16434:16451   */\n      add\n        /* \"#utility.yul\":16427:16474   */\n      mstore\n        /* \"#utility.yul\":16491:16591   */\n      tag_436\n        /* \"#utility.yul\":16586:16590   */\n      dup2\n        /* \"#utility.yul\":16577:16583   */\n      dup5\n        /* \"#utility.yul\":16491:16591   */\n      tag_411\n      jump\t// in\n    tag_436:\n        /* \"#utility.yul\":16483:16591   */\n      swap1\n      pop\n        /* \"#utility.yul\":16241:16598   */\n      swap3\n      swap2\n      pop\n      pop\n      jump\t// out\n        /* \"#utility.yul\":16604:16973   */\n    tag_31:\n        /* \"#utility.yul\":16745:16749   */\n      0x00\n        /* \"#utility.yul\":16783:16785   */\n      0x20\n        /* \"#utility.yul\":16772:16781   */\n      dup3\n        /* \"#utility.yul\":16768:16786   */\n      add\n        /* \"#utility.yul\":16760:16786   */\n      swap1\n      pop\n        /* \"#utility.yul\":16832:16841   */\n      dup2\n        /* \"#utility.yul\":16826:16830   */\n      dup2\n        /* \"#utility.yul\":16822:16842   */\n      sub\n        /* \"#utility.yul\":16818:16819   */\n      0x00\n        /* \"#utility.yul\":16807:16816   */\n      dup4\n        /* \"#utility.yul\":16803:16820   */\n      add\n        /* \"#utility.yul\":16796:16843   */\n      mstore\n        /* \"#utility.yul\":16860:16966   */\n      tag_438\n        /* \"#utility.yul\":16961:16965   */\n      dup2\n        /* \"#utility.yul\":16952:16958   */\n      dup5\n        /* \"#utility.yul\":16860:16966   */\n      tag_420\n      jump\t// in\n    tag_438:\n        /* \"#utility.yul\":16852:16966   */\n      swap1\n      pop\n        /* \"#utility.yul\":16604:16973   */\n      swap3\n      swap2\n      pop\n      pop\n      jump\t// out\n        /* \"#utility.yul\":16979:17201   */\n    tag_25:\n        /* \"#utility.yul\":17072:17076   */\n      0x00\n        /* \"#utility.yul\":17110:17112   */\n      0x20\n        /* \"#utility.yul\":17099:17108   */\n      dup3\n        /* \"#utility.yul\":17095:17113   */\n      add\n        /* \"#utility.yul\":17087:17113   */\n      swap1\n      pop\n        /* \"#utility.yul\":17123:17194   */\n      tag_440\n        /* \"#utility.yul\":17191:17192   */\n      0x00\n        /* \"#utility.yul\":17180:17189   */\n      dup4\n        /* \"#utility.yul\":17176:17193   */\n      add\n        /* \"#utility.yul\":17167:17173   */\n      dup5\n        /* \"#utility.yul\":17123:17194   */\n      tag_430\n      jump\t// in\n    tag_440:\n        /* \"#utility.yul\":16979:17201   */\n      swap3\n      swap2\n      pop\n      pop\n      jump\t// out\n        /* \"#utility.yul\":17207:18406   */\n    tag_47:\n        /* \"#utility.yul\":17548:17552   */\n      0x00\n        /* \"#utility.yul\":17586:17589   */\n      0xe0\n        /* \"#utility.yul\":17575:17584   */\n      dup3\n        /* \"#utility.yul\":17571:17590   */\n      add\n        /* \"#utility.yul\":17563:17590   */\n      swap1\n      pop\n        /* \"#utility.yul\":17600:17671   */\n      tag_442\n        /* \"#utility.yul\":17668:17669   */\n      0x00\n        /* \"#utility.yul\":17657:17666   */\n      dup4\n        /* \"#utility.yul\":17653:17670   */\n      add\n        /* \"#utility.yul\":17644:17650   */\n      dup11\n        /* \"#utility.yul\":17600:17671   */\n      tag_430\n      jump\t// in\n    tag_442:\n        /* \"#utility.yul\":17681:17751   */\n      tag_443\n        /* \"#utility.yul\":17747:17749   */\n      0x20\n        /* \"#utility.yul\":17736:17745   */\n      dup4\n        /* \"#utility.yul\":17732:17750   */\n      add\n        /* \"#utility.yul\":17723:17729   */\n      dup10\n        /* \"#utility.yul\":17681:17751   */\n      tag_373\n      jump\t// in\n    tag_443:\n        /* \"#utility.yul\":17798:17807   */\n      dup2\n        /* \"#utility.yul\":17792:17796   */\n      dup2\n        /* \"#utility.yul\":17788:17808   */\n      sub\n        /* \"#utility.yul\":17783:17785   */\n      0x40\n        /* \"#utility.yul\":17772:17781   */\n      dup4\n        /* \"#utility.yul\":17768:17786   */\n      add\n        /* \"#utility.yul\":17761:17809   */\n      mstore\n        /* \"#utility.yul\":17826:17904   */\n      tag_444\n        /* \"#utility.yul\":17899:17903   */\n      dup2\n        /* \"#utility.yul\":17890:17896   */\n      dup9\n        /* \"#utility.yul\":17826:17904   */\n      tag_386\n      jump\t// in\n    tag_444:\n        /* \"#utility.yul\":17818:17904   */\n      swap1\n      pop\n        /* \"#utility.yul\":17951:17960   */\n      dup2\n        /* \"#utility.yul\":17945:17949   */\n      dup2\n        /* \"#utility.yul\":17941:17961   */\n      sub\n        /* \"#utility.yul\":17936:17938   */\n      0x60\n        /* \"#utility.yul\":17925:17934   */\n      dup4\n        /* \"#utility.yul\":17921:17939   */\n      add\n        /* \"#utility.yul\":17914:17962   */\n      mstore\n        /* \"#utility.yul\":17979:18057   */\n      tag_445\n        /* \"#utility.yul\":18052:18056   */\n      dup2\n        /* \"#utility.yul\":18043:18049   */\n      dup8\n        /* \"#utility.yul\":17979:18057   */\n      tag_386\n      jump\t// in\n    tag_445:\n        /* \"#utility.yul\":17971:18057   */\n      swap1\n      pop\n        /* \"#utility.yul\":18067:18140   */\n      tag_446\n        /* \"#utility.yul\":18135:18138   */\n      0x80\n        /* \"#utility.yul\":18124:18133   */\n      dup4\n        /* \"#utility.yul\":18120:18139   */\n      add\n        /* \"#utility.yul\":18111:18117   */\n      dup7\n        /* \"#utility.yul\":18067:18140   */\n      tag_430\n      jump\t// in\n    tag_446:\n        /* \"#utility.yul\":18150:18221   */\n      tag_447\n        /* \"#utility.yul\":18216:18219   */\n      0xa0\n        /* \"#utility.yul\":18205:18214   */\n      dup4\n        /* \"#utility.yul\":18201:18220   */\n      add\n        /* \"#utility.yul\":18192:18198   */\n      dup6\n        /* \"#utility.yul\":18150:18221   */\n      tag_373\n      jump\t// in\n    tag_447:\n        /* \"#utility.yul\":18269:18278   */\n      dup2\n        /* \"#utility.yul\":18263:18267   */\n      dup2\n        /* \"#utility.yul\":18259:18279   */\n      sub\n        /* \"#utility.yul\":18253:18256   */\n      0xc0\n        /* \"#utility.yul\":18242:18251   */\n      dup4\n        /* \"#utility.yul\":18238:18257   */\n      add\n        /* \"#utility.yul\":18231:18280   */\n      mstore\n        /* \"#utility.yul\":18297:18399   */\n      tag_448\n        /* \"#utility.yul\":18394:18398   */\n      dup2\n        /* \"#utility.yul\":18385:18391   */\n      dup5\n        /* \"#utility.yul\":18297:18399   */\n      tag_398\n      jump\t// in\n    tag_448:\n        /* \"#utility.yul\":18289:18399   */\n      swap1\n      pop\n        /* \"#utility.yul\":17207:18406   */\n      swap9\n      swap8\n      pop\n      pop\n      pop\n      pop\n      pop\n      pop\n      pop\n      pop\n      jump\t// out\n        /* \"#utility.yul\":18412:18835   */\n    tag_70:\n        /* \"#utility.yul\":18553:18557   */\n      0x00\n        /* \"#utility.yul\":18591:18593   */\n      0x40\n        /* \"#utility.yul\":18580:18589   */\n      dup3\n        /* \"#utility.yul\":18576:18594   */\n      add\n        /* \"#utility.yul\":18568:18594   */\n      swap1\n      pop\n        /* \"#utility.yul\":18604:18675   */\n      tag_450\n        /* \"#utility.yul\":18672:18673   */\n      0x00\n        /* \"#utility.yul\":18661:18670   */\n      dup4\n        /* \"#utility.yul\":18657:18674   */\n      add\n        /* \"#utility.yul\":18648:18654   */\n      dup6\n        /* \"#utility.yul\":18604:18675   */\n      tag_430\n      jump\t// in\n    tag_450:\n        /* \"#utility.yul\":18722:18731   */\n      dup2\n        /* \"#utility.yul\":18716:18720   */\n      dup2\n        /* \"#utility.yul\":18712:18732   */\n      sub\n        /* \"#utility.yul\":18707:18709   */\n      0x20\n        /* \"#utility.yul\":18696:18705   */\n      dup4\n        /* \"#utility.yul\":18692:18710   */\n      add\n        /* \"#utility.yul\":18685:18733   */\n      mstore\n        /* \"#utility.yul\":18750:18828   */\n      tag_451\n        /* \"#utility.yul\":18823:18827   */\n      dup2\n        /* \"#utility.yul\":18814:18820   */\n      dup5\n        /* \"#utility.yul\":18750:18828   */\n      tag_386\n      jump\t// in\n    tag_451:\n        /* \"#utility.yul\":18742:18828   */\n      swap1\n      pop\n        /* \"#utility.yul\":18412:18835   */\n      swap4\n      swap3\n      pop\n      pop\n      pop\n      jump\t// out\n        /* \"#utility.yul\":18841:19918   */\n    tag_52:\n        /* \"#utility.yul\":19176:19180   */\n      0x00\n        /* \"#utility.yul\":19214:19217   */\n      0xa0\n        /* \"#utility.yul\":19203:19212   */\n      dup3\n        /* \"#utility.yul\":19199:19218   */\n      add\n        /* \"#utility.yul\":19191:19218   */\n      swap1\n      pop\n        /* \"#utility.yul\":19228:19299   */\n      tag_453\n        /* \"#utility.yul\":19296:19297   */\n      0x00\n        /* \"#utility.yul\":19285:19294   */\n      dup4\n        /* \"#utility.yul\":19281:19298   */\n      add\n        /* \"#utility.yul\":19272:19278   */\n      dup9\n        /* \"#utility.yul\":19228:19299   */\n      tag_430\n      jump\t// in\n    tag_453:\n        /* \"#utility.yul\":19309:19381   */\n      tag_454\n        /* \"#utility.yul\":19377:19379   */\n      0x20\n        /* \"#utility.yul\":19366:19375   */\n      dup4\n        /* \"#utility.yul\":19362:19380   */\n      add\n        /* \"#utility.yul\":19353:19359   */\n      dup8\n        /* \"#utility.yul\":19309:19381   */\n      tag_430\n      jump\t// in\n    tag_454:\n        /* \"#utility.yul\":19428:19437   */\n      dup2\n        /* \"#utility.yul\":19422:19426   */\n      dup2\n        /* \"#utility.yul\":19418:19438   */\n      sub\n        /* \"#utility.yul\":19413:19415   */\n      0x40\n        /* \"#utility.yul\":19402:19411   */\n      dup4\n        /* \"#utility.yul\":19398:19416   */\n      add\n        /* \"#utility.yul\":19391:19439   */\n      mstore\n        /* \"#utility.yul\":19456:19556   */\n      tag_455\n        /* \"#utility.yul\":19551:19555   */\n      dup2\n        /* \"#utility.yul\":19542:19548   */\n      dup7\n        /* \"#utility.yul\":19456:19556   */\n      tag_411\n      jump\t// in\n    tag_455:\n        /* \"#utility.yul\":19448:19556   */\n      swap1\n      pop\n        /* \"#utility.yul\":19603:19612   */\n      dup2\n        /* \"#utility.yul\":19597:19601   */\n      dup2\n        /* \"#utility.yul\":19593:19613   */\n      sub\n        /* \"#utility.yul\":19588:19590   */\n      0x60\n        /* \"#utility.yul\":19577:19586   */\n      dup4\n        /* \"#utility.yul\":19573:19591   */\n      add\n        /* \"#utility.yul\":19566:19614   */\n      mstore\n        /* \"#utility.yul\":19631:19733   */\n      tag_456\n        /* \"#utility.yul\":19728:19732   */\n      dup2\n        /* \"#utility.yul\":19719:19725   */\n      dup6\n        /* \"#utility.yul\":19631:19733   */\n      tag_398\n      jump\t// in\n    tag_456:\n        /* \"#utility.yul\":19623:19733   */\n      swap1\n      pop\n        /* \"#utility.yul\":19781:19790   */\n      dup2\n        /* \"#utility.yul\":19775:19779   */\n      dup2\n        /* \"#utility.yul\":19771:19791   */\n      sub\n        /* \"#utility.yul\":19765:19768   */\n      0x80\n        /* \"#utility.yul\":19754:19763   */\n      dup4\n        /* \"#utility.yul\":19750:19769   */\n      add\n        /* \"#utility.yul\":19743:19792   */\n      mstore\n        /* \"#utility.yul\":19809:19911   */\n      tag_457\n        /* \"#utility.yul\":19906:19910   */\n      dup2\n        /* \"#utility.yul\":19897:19903   */\n      dup5\n        /* \"#utility.yul\":19809:19911   */\n      tag_398\n      jump\t// in\n    tag_457:\n        /* \"#utility.yul\":19801:19911   */\n      swap1\n      pop\n        /* \"#utility.yul\":18841:19918   */\n      swap7\n      swap6\n      pop\n      pop\n      pop\n      pop\n      pop\n      pop\n      jump\t// out\n        /* \"#utility.yul\":19924:20053   */\n    tag_273:\n        /* \"#utility.yul\":19958:19964   */\n      0x00\n        /* \"#utility.yul\":19985:20005   */\n      tag_459\n      tag_460\n      jump\t// in\n    tag_459:\n        /* \"#utility.yul\":19975:20005   */\n      swap1\n      pop\n        /* \"#utility.yul\":20014:20047   */\n      tag_461\n        /* \"#utility.yul\":20042:20046   */\n      dup3\n        /* \"#utility.yul\":20034:20040   */\n      dup3\n        /* \"#utility.yul\":20014:20047   */\n      tag_462\n      jump\t// in\n    tag_461:\n        /* \"#utility.yul\":19924:20053   */\n      swap2\n      swap1\n      pop\n      jump\t// out\n        /* \"#utility.yul\":20059:20134   */\n    tag_460:\n        /* \"#utility.yul\":20092:20098   */\n      0x00\n        /* \"#utility.yul\":20125:20127   */\n      0x40\n        /* \"#utility.yul\":20119:20128   */\n      mload\n        /* \"#utility.yul\":20109:20128   */\n      swap1\n      pop\n        /* \"#utility.yul\":20059:20134   */\n      swap1\n      jump\t// out\n        /* \"#utility.yul\":20140:20448   */\n    tag_272:\n        /* \"#utility.yul\":20202:20206   */\n      0x00\n        /* \"#utility.yul\":20292:20310   */\n      0xffffffffffffffff\n        /* \"#utility.yul\":20284:20290   */\n      dup3\n        /* \"#utility.yul\":20281:20311   */\n      gt\n        /* \"#utility.yul\":20278:20334   */\n      iszero\n      tag_465\n      jumpi\n        /* \"#utility.yul\":20314:20332   */\n      tag_466\n      tag_467\n      jump\t// in\n    tag_466:\n        /* \"#utility.yul\":20278:20334   */\n    tag_465:\n        /* \"#utility.yul\":20352:20381   */\n      tag_468\n        /* \"#utility.yul\":20374:20380   */\n      dup3\n        /* \"#utility.yul\":20352:20381   */\n      tag_385\n      jump\t// in\n    tag_468:\n        /* \"#utility.yul\":20344:20381   */\n      swap1\n      pop\n        /* \"#utility.yul\":20436:20440   */\n      0x20\n        /* \"#utility.yul\":20430:20434   */\n      dup2\n        /* \"#utility.yul\":20426:20441   */\n      add\n        /* \"#utility.yul\":20418:20441   */\n      swap1\n      pop\n        /* \"#utility.yul\":20140:20448   */\n      swap2\n      swap1\n      pop\n      jump\t// out\n        /* \"#utility.yul\":20454:20553   */\n    tag_379:\n        /* \"#utility.yul\":20506:20512   */\n      0x00\n        /* \"#utility.yul\":20540:20545   */\n      dup2\n        /* \"#utility.yul\":20534:20546   */\n      mload\n        /* \"#utility.yul\":20524:20546   */\n      swap1\n      pop\n        /* \"#utility.yul\":20454:20553   */\n      swap2\n      swap1\n      pop\n      jump\t// out\n        /* \"#utility.yul\":20559:20718   */\n    tag_381:\n        /* \"#utility.yul\":20633:20644   */\n      0x00\n        /* \"#utility.yul\":20667:20673   */\n      dup3\n        /* \"#utility.yul\":20662:20665   */\n      dup3\n        /* \"#utility.yul\":20655:20674   */\n      mstore\n        /* \"#utility.yul\":20707:20711   */\n      0x20\n        /* \"#utility.yul\":20702:20705   */\n      dup3\n        /* \"#utility.yul\":20698:20712   */\n      add\n        /* \"#utility.yul\":20683:20712   */\n      swap1\n      pop\n        /* \"#utility.yul\":20559:20718   */\n      swap3\n      swap2\n      pop\n      pop\n      jump\t// out\n        /* \"#utility.yul\":20724:20893   */\n    tag_390:\n        /* \"#utility.yul\":20808:20819   */\n      0x00\n        /* \"#utility.yul\":20842:20848   */\n      dup3\n        /* \"#utility.yul\":20837:20840   */\n      dup3\n        /* \"#utility.yul\":20830:20849   */\n      mstore\n        /* \"#utility.yul\":20882:20886   */\n      0x20\n        /* \"#utility.yul\":20877:20880   */\n      dup3\n        /* \"#utility.yul\":20873:20887   */\n      add\n        /* \"#utility.yul\":20858:20887   */\n      swap1\n      pop\n        /* \"#utility.yul\":20724:20893   */\n      swap3\n      swap2\n      pop\n      pop\n      jump\t// out\n        /* \"#utility.yul\":20899:20975   */\n    tag_372:\n        /* \"#utility.yul\":20935:20942   */\n      0x00\n        /* \"#utility.yul\":20964:20969   */\n      dup2\n        /* \"#utility.yul\":20953:20969   */\n      swap1\n      pop\n        /* \"#utility.yul\":20899:20975   */\n      swap2\n      swap1\n      pop\n      jump\t// out\n        /* \"#utility.yul\":20981:21058   */\n    tag_429:\n        /* \"#utility.yul\":21018:21025   */\n      0x00\n        /* \"#utility.yul\":21047:21052   */\n      dup2\n        /* \"#utility.yul\":21036:21052   */\n      swap1\n      pop\n        /* \"#utility.yul\":20981:21058   */\n      swap2\n      swap1\n      pop\n      jump\t// out\n        /* \"#utility.yul\":21064:21218   */\n    tag_278:\n        /* \"#utility.yul\":21148:21154   */\n      dup3\n        /* \"#utility.yul\":21143:21146   */\n      dup2\n        /* \"#utility.yul\":21138:21141   */\n      dup4\n        /* \"#utility.yul\":21125:21155   */\n      calldatacopy\n        /* \"#utility.yul\":21210:21211   */\n      0x00\n        /* \"#utility.yul\":21201:21207   */\n      dup4\n        /* \"#utility.yul\":21196:21199   */\n      dup4\n        /* \"#utility.yul\":21192:21208   */\n      add\n        /* \"#utility.yul\":21185:21212   */\n      mstore\n        /* \"#utility.yul\":21064:21218   */\n      pop\n      pop\n      pop\n      jump\t// out\n        /* \"#utility.yul\":21224:21531   */\n    tag_383:\n        /* \"#utility.yul\":21292:21293   */\n      0x00\n        /* \"#utility.yul\":21302:21415   */\n    tag_476:\n        /* \"#utility.yul\":21316:21322   */\n      dup4\n        /* \"#utility.yul\":21313:21314   */\n      dup2\n        /* \"#utility.yul\":21310:21323   */\n      lt\n        /* \"#utility.yul\":21302:21415   */\n      iszero\n      tag_478\n      jumpi\n        /* \"#utility.yul\":21401:21402   */\n      dup1\n        /* \"#utility.yul\":21396:21399   */\n      dup3\n        /* \"#utility.yul\":21392:21403   */\n      add\n        /* \"#utility.yul\":21386:21404   */\n      mload\n        /* \"#utility.yul\":21382:21383   */\n      dup2\n        /* \"#utility.yul\":21377:21380   */\n      dup5\n        /* \"#utility.yul\":21373:21384   */\n      add\n        /* \"#utility.yul\":21366:21405   */\n      mstore\n        /* \"#utility.yul\":21338:21340   */\n      0x20\n        /* \"#utility.yul\":21335:21336   */\n      dup2\n        /* \"#utility.yul\":21331:21341   */\n      add\n        /* \"#utility.yul\":21326:21341   */\n      swap1\n      pop\n        /* \"#utility.yul\":21302:21415   */\n      jump(tag_476)\n    tag_478:\n        /* \"#utility.yul\":21433:21439   */\n      dup4\n        /* \"#utility.yul\":21430:21431   */\n      dup2\n        /* \"#utility.yul\":21427:21440   */\n      gt\n        /* \"#utility.yul\":21424:21525   */\n      iszero\n      tag_479\n      jumpi\n        /* \"#utility.yul\":21513:21514   */\n      0x00\n        /* \"#utility.yul\":21504:21510   */\n      dup5\n        /* \"#utility.yul\":21499:21502   */\n      dup5\n        /* \"#utility.yul\":21495:21511   */\n      add\n        /* \"#utility.yul\":21488:21515   */\n      mstore\n        /* \"#utility.yul\":21424:21525   */\n    tag_479:\n        /* \"#utility.yul\":21273:21531   */\n      pop\n        /* \"#utility.yul\":21224:21531   */\n      pop\n      pop\n      pop\n      jump\t// out\n        /* \"#utility.yul\":21537:21857   */\n    tag_91:\n        /* \"#utility.yul\":21581:21587   */\n      0x00\n        /* \"#utility.yul\":21618:21619   */\n      0x02\n        /* \"#utility.yul\":21612:21616   */\n      dup3\n        /* \"#utility.yul\":21608:21620   */\n      div\n        /* \"#utility.yul\":21598:21620   */\n      swap1\n      pop\n        /* \"#utility.yul\":21665:21666   */\n      0x01\n        /* \"#utility.yul\":21659:21663   */\n      dup3\n        /* \"#utility.yul\":21655:21667   */\n      and\n        /* \"#utility.yul\":21686:21704   */\n      dup1\n        /* \"#utility.yul\":21676:21757   */\n      tag_481\n      jumpi\n        /* \"#utility.yul\":21742:21746   */\n      0x7f\n        /* \"#utility.yul\":21734:21740   */\n      dup3\n        /* \"#utility.yul\":21730:21747   */\n      and\n        /* \"#utility.yul\":21720:21747   */\n      swap2\n      pop\n        /* \"#utility.yul\":21676:21757   */\n    tag_481:\n        /* \"#utility.yul\":21804:21806   */\n      0x20\n        /* \"#utility.yul\":21796:21802   */\n      dup3\n        /* \"#utility.yul\":21793:21807   */\n      lt\n        /* \"#utility.yul\":21773:21791   */\n      dup2\n        /* \"#utility.yul\":21770:21808   */\n      eq\n        /* \"#utility.yul\":21767:21851   */\n      iszero\n      tag_482\n      jumpi\n        /* \"#utility.yul\":21823:21841   */\n      tag_483\n      tag_484\n      jump\t// in\n    tag_483:\n        /* \"#utility.yul\":21767:21851   */\n    tag_482:\n        /* \"#utility.yul\":21588:21857   */\n      pop\n        /* \"#utility.yul\":21537:21857   */\n      swap2\n      swap1\n      pop\n      jump\t// out\n        /* \"#utility.yul\":21863:22144   */\n    tag_462:\n        /* \"#utility.yul\":21946:21973   */\n      tag_486\n        /* \"#utility.yul\":21968:21972   */\n      dup3\n        /* \"#utility.yul\":21946:21973   */\n      tag_385\n      jump\t// in\n    tag_486:\n        /* \"#utility.yul\":21938:21944   */\n      dup2\n        /* \"#utility.yul\":21934:21974   */\n      add\n        /* \"#utility.yul\":22076:22082   */\n      dup2\n        /* \"#utility.yul\":22064:22074   */\n      dup2\n        /* \"#utility.yul\":22061:22083   */\n      lt\n        /* \"#utility.yul\":22040:22058   */\n      0xffffffffffffffff\n        /* \"#utility.yul\":22028:22038   */\n      dup3\n        /* \"#utility.yul\":22025:22059   */\n      gt\n        /* \"#utility.yul\":22022:22084   */\n      or\n        /* \"#utility.yul\":22019:22107   */\n      iszero\n      tag_487\n      jumpi\n        /* \"#utility.yul\":22087:22105   */\n      tag_488\n      tag_467\n      jump\t// in\n    tag_488:\n        /* \"#utility.yul\":22019:22107   */\n    tag_487:\n        /* \"#utility.yul\":22127:22137   */\n      dup1\n        /* \"#utility.yul\":22123:22125   */\n      0x40\n        /* \"#utility.yul\":22116:22138   */\n      mstore\n        /* \"#utility.yul\":21906:22144   */\n      pop\n        /* \"#utility.yul\":21863:22144   */\n      pop\n      pop\n      jump\t// out\n        /* \"#utility.yul\":22150:22383   */\n    tag_77:\n        /* \"#utility.yul\":22189:22192   */\n      0x00\n        /* \"#utility.yul\":22212:22236   */\n      tag_490\n        /* \"#utility.yul\":22230:22235   */\n      dup3\n        /* \"#utility.yul\":22212:22236   */\n      tag_429\n      jump\t// in\n    tag_490:\n        /* \"#utility.yul\":22203:22236   */\n      swap2\n      pop\n        /* \"#utility.yul\":22258:22324   */\n      0xffffffffffffffffffffffffffffffffffffffffffffffffffffffffffffffff\n        /* \"#utility.yul\":22251:22256   */\n      dup3\n        /* \"#utility.yul\":22248:22325   */\n      eq\n        /* \"#utility.yul\":22245:22348   */\n      iszero\n      tag_491\n      jumpi\n        /* \"#utility.yul\":22328:22346   */\n      tag_492\n      tag_493\n      jump\t// in\n    tag_492:\n        /* \"#utility.yul\":22245:22348   */\n    tag_491:\n        /* \"#utility.yul\":22375:22376   */\n      0x01\n        /* \"#utility.yul\":22368:22373   */\n      dup3\n        /* \"#utility.yul\":22364:22377   */\n      add\n        /* \"#utility.yul\":22357:22377   */\n      swap1\n      pop\n        /* \"#utility.yul\":22150:22383   */\n      swap2\n      swap1\n      pop\n      jump\t// out\n        /* \"#utility.yul\":22389:22569   */\n    tag_493:\n        /* \"#utility.yul\":22437:22514   */\n      0x4e487b7100000000000000000000000000000000000000000000000000000000\n        /* \"#utility.yul\":22434:22435   */\n      0x00\n        /* \"#utility.yul\":22427:22515   */\n      mstore\n        /* \"#utility.yul\":22534:22538   */\n      0x11\n        /* \"#utility.yul\":22531:22532   */\n      0x04\n        /* \"#utility.yul\":22524:22539   */\n      mstore\n        /* \"#utility.yul\":22558:22562   */\n      0x24\n        /* \"#utility.yul\":22555:22556   */\n      0x00\n        /* \"#utility.yul\":22548:22563   */\n      revert\n        /* \"#utility.yul\":22575:22755   */\n    tag_484:\n        /* \"#utility.yul\":22623:22700   */\n      0x4e487b7100000000000000000000000000000000000000000000000000000000\n        /* \"#utility.yul\":22620:22621   */\n      0x00\n        /* \"#utility.yul\":22613:22701   */\n      mstore\n        /* \"#utility.yul\":22720:22724   */\n      0x22\n        /* \"#utility.yul\":22717:22718   */\n      0x04\n        /* \"#utility.yul\":22710:22725   */\n      mstore\n        /* \"#utility.yul\":22744:22748   */\n      0x24\n        /* \"#utility.yul\":22741:22742   */\n      0x00\n        /* \"#utility.yul\":22734:22749   */\n      revert\n        /* \"#utility.yul\":22761:22941   */\n    tag_88:\n        /* \"#utility.yul\":22809:22886   */\n      0x4e487b7100000000000000000000000000000000000000000000000000000000\n        /* \"#utility.yul\":22806:22807   */\n      0x00\n        /* \"#utility.yul\":22799:22887   */\n      mstore\n        /* \"#utility.yul\":22906:22910   */\n      0x32\n        /* \"#utility.yul\":22903:22904   */\n      0x04\n        /* \"#utility.yul\":22896:22911   */\n      mstore\n        /* \"#utility.yul\":22930:22934   */\n      0x24\n        /* \"#utility.yul\":22927:22928   */\n      0x00\n        /* \"#utility.yul\":22920:22935   */\n      revert\n        /* \"#utility.yul\":22947:23127   */\n    tag_467:\n        /* \"#utility.yul\":22995:23072   */\n      0x4e487b7100000000000000000000000000000000000000000000000000000000\n        /* \"#utility.yul\":22992:22993   */\n      0x00\n        /* \"#utility.yul\":22985:23073   */\n      mstore\n        /* \"#utility.yul\":23092:23096   */\n      0x41\n        /* \"#utility.yul\":23089:23090   */\n      0x04\n        /* \"#utility.yul\":23082:23097   */\n      mstore\n        /* \"#utility.yul\":23116:23120   */\n      0x24\n        /* \"#utility.yul\":23113:23114   */\n      0x00\n        /* \"#utility.yul\":23106:23121   */\n      revert\n        /* \"#utility.yul\":23133:23250   */\n    tag_287:\n        /* \"#utility.yul\":23242:23243   */\n      0x00\n        /* \"#utility.yul\":23239:23240   */\n      dup1\n        /* \"#utility.yul\":23232:23244   */\n      revert\n        /* \"#utility.yul\":23256:23373   */\n    tag_293:\n        /* \"#utility.yul\":23365:23366   */\n      0x00\n        /* \"#utility.yul\":23362:23363   */\n      dup1\n        /* \"#utility.yul\":23355:23367   */\n      revert\n        /* \"#utility.yul\":23379:23496   */\n    tag_299:\n        /* \"#utility.yul\":23488:23489   */\n      0x00\n        /* \"#utility.yul\":23485:23486   */\n      dup1\n        /* \"#utility.yul\":23478:23490   */\n      revert\n        /* \"#utility.yul\":23502:23619   */\n    tag_276:\n        /* \"#utility.yul\":23611:23612   */\n      0x00\n        /* \"#utility.yul\":23608:23609   */\n      dup1\n        /* \"#utility.yul\":23601:23613   */\n      revert\n        /* \"#utility.yul\":23625:23742   */\n    tag_329:\n        /* \"#utility.yul\":23734:23735   */\n      0x00\n        /* \"#utility.yul\":23731:23732   */\n      dup1\n        /* \"#utility.yul\":23724:23736   */\n      revert\n        /* \"#utility.yul\":23748:23865   */\n    tag_325:\n        /* \"#utility.yul\":23857:23858   */\n      0x00\n        /* \"#utility.yul\":23854:23855   */\n      dup1\n        /* \"#utility.yul\":23847:23859   */\n      revert\n        /* \"#utility.yul\":23871:23973   */\n    tag_385:\n        /* \"#utility.yul\":23912:23918   */\n      0x00\n        /* \"#utility.yul\":23963:23965   */\n      0x1f\n        /* \"#utility.yul\":23959:23966   */\n      not\n        /* \"#utility.yul\":23954:23956   */\n      0x1f\n        /* \"#utility.yul\":23947:23952   */\n      dup4\n        /* \"#utility.yul\":23943:23957   */\n      add\n        /* \"#utility.yul\":23939:23967   */\n      and\n        /* \"#utility.yul\":23929:23967   */\n      swap1\n      pop\n        /* \"#utility.yul\":23871:23973   */\n      swap2\n      swap1\n      pop\n      jump\t// out\n        /* \"#utility.yul\":23979:24099   */\n    tag_282:\n        /* \"#utility.yul\":24051:24074   */\n      tag_506\n        /* \"#utility.yul\":24068:24073   */\n      dup2\n        /* \"#utility.yul\":24051:24074   */\n      tag_372\n      jump\t// in\n    tag_506:\n        /* \"#utility.yul\":24044:24049   */\n      dup2\n        /* \"#utility.yul\":24041:24075   */\n      eq\n        /* \"#utility.yul\":24031:24093   */\n      tag_507\n      jumpi\n        /* \"#utility.yul\":24089:24090   */\n      0x00\n        /* \"#utility.yul\":24086:24087   */\n      dup1\n        /* \"#utility.yul\":24079:24091   */\n      revert\n        /* \"#utility.yul\":24031:24093   */\n    tag_507:\n        /* \"#utility.yul\":23979:24099   */\n      pop\n      jump\t// out\n        /* \"#utility.yul\":24105:24227   */\n    tag_321:\n        /* \"#utility.yul\":24178:24202   */\n      tag_509\n        /* \"#utility.yul\":24196:24201   */\n      dup2\n        /* \"#utility.yul\":24178:24202   */\n      tag_429\n      jump\t// in\n    tag_509:\n        /* \"#utility.yul\":24171:24176   */\n      dup2\n        /* \"#utility.yul\":24168:24203   */\n      eq\n        /* \"#utility.yul\":24158:24221   */\n      tag_510\n      jumpi\n        /* \"#utility.yul\":24217:24218   */\n      0x00\n        /* \"#utility.yul\":24214:24215   */\n      dup1\n        /* \"#utility.yul\":24207:24219   */\n      revert\n        /* \"#utility.yul\":24158:24221   */\n    tag_510:\n        /* \"#utility.yul\":24105:24227   */\n      pop\n      jump\t// out\n\n    auxdata: 0xa264697066735822122011200ccd5264cab5f0d7bf2d341eec1ec0b97c818e1f912558b0eadd9452966364736f6c63430008070033\n}\n",
				"bytecode": {
					"linkReferences": {},
					"object": "608060405234801561001057600080fd5b5061259a806100206000396000f3fe608060405234801561001057600080fd5b50600436106100cf5760003560e01c80637a80dc1d1161008c578063e32bf8e411610066578063e32bf8e414610244578063e88e9f0f14610260578063f88af21d1461027c578063fccd0046146102ad576100cf565b80637a80dc1d146101aa5780638392fe31146101e0578063d0068f8014610214576100cf565b80631d78c52c146100d45780632cb9d0e8146100f05780633742a9f71461010e57806347ac33ee1461013e5780635b02c9221461016e5780636f3ffbb91461018c575b600080fd5b6100ee60048036038101906100e99190611bb0565b6102c9565b005b6100f86103db565b604051610105919061218f565b60405180910390f35b61012860048036038101906101239190611cda565b6103e1565b604051610135919061216d565b60405180910390f35b61015860048036038101906101539190611cda565b6107a1565b604051610165919061214b565b60405180910390f35b6101766109d9565b604051610183919061218f565b60405180910390f35b6101946109df565b6040516101a1919061218f565b60405180910390f35b6101c460048036038101906101bf9190611cda565b6109e5565b6040516101d797969594939291906121aa565b60405180910390f35b6101fa60048036038101906101f59190611cda565b610bed565b60405161020b95949392919061225e565b60405180910390f35b61022e60048036038101906102299190611cda565b610f85565b60405161023b9190612129565b60405180910390f35b61025e60048036038101906102599190611dc2565b61105d565b005b61027a60048036038101906102759190611c91565b61159c565b005b61029660048036038101906102919190611cda565b61161e565b6040516102a492919061222e565b60405180910390f35b6102c760048036038101906102c29190611d07565b6116da565b005b60006040518060e00160405280600160008154809291906102e990612402565b9190505581526020018881526020018781526020018681526020018581526020018481526020018381525090806001815401808255809150506001900390600052602060002090600802016000909190919091506000820151816000015560208201518160010155604082015181600201908051906020019061036d929190611861565b50606082015181600301908051906020019061038a929190611861565b506080820151816004015560a0820151816005015560c0820151816006016000820151816000015560208201518160010190805190602001906103ce929190611861565b5050505050505050505050565b60035481565b6103e96118e7565b600282815481106103fd576103fc6124a9565b5b90600052602060002090600e02016040518060a00160405290816000820154815260200160018201548152602001600282016040518060e0016040529081600082015481526020016001820154815260200160028201805461045e9061239f565b80601f016020809104026020016040519081016040528092919081815260200182805461048a9061239f565b80156104d75780601f106104ac576101008083540402835291602001916104d7565b820191906000526020600020905b8154815290600101906020018083116104ba57829003601f168201915b505050505081526020016003820180546104f09061239f565b80601f016020809104026020016040519081016040528092919081815260200182805461051c9061239f565b80156105695780601f1061053e57610100808354040283529160200191610569565b820191906000526020600020905b81548152906001019060200180831161054c57829003601f168201915b50505050508152602001600482015481526020016005820154815260200160068201604051806040016040529081600082015481526020016001820180546105b09061239f565b80601f01602080910402602001604051908101604052809291908181526020018280546105dc9061239f565b80156106295780601f106105fe57610100808354040283529160200191610629565b820191906000526020600020905b81548152906001019060200180831161060c57829003601f168201915b505050505081525050815250508152602001600a8201604051806040016040529081600082015481526020016001820180546106649061239f565b80601f01602080910402602001604051908101604052809291908181526020018280546106909061239f565b80156106dd5780601f106106b2576101008083540402835291602001916106dd565b820191906000526020600020905b8154815290600101906020018083116106c057829003601f168201915b5050505050815250508152602001600c8201604051806040016040529081600082015481526020016001820180546107149061239f565b80601f01602080910402602001604051908101604052809291908181526020018280546107409061239f565b801561078d5780601f106107625761010080835404028352916020019161078d565b820191906000526020600020905b81548152906001019060200180831161077057829003601f168201915b505050505081525050815250509050919050565b6107a9611928565b600082815481106107bd576107bc6124a9565b5b90600052602060002090600802016040518060e001604052908160008201548152602001600182015481526020016002820180546107fa9061239f565b80601f01602080910402602001604051908101604052809291908181526020018280546108269061239f565b80156108735780601f1061084857610100808354040283529160200191610873565b820191906000526020600020905b81548152906001019060200180831161085657829003601f168201915b5050505050815260200160038201805461088c9061239f565b80601f01602080910402602001604051908101604052809291908181526020018280546108b89061239f565b80156109055780601f106108da57610100808354040283529160200191610905565b820191906000526020600020905b8154815290600101906020018083116108e857829003601f168201915b505050505081526020016004820154815260200160058201548152602001600682016040518060400160405290816000820154815260200160018201805461094c9061239f565b80601f01602080910402602001604051908101604052809291908181526020018280546109789061239f565b80156109c55780601f1061099a576101008083540402835291602001916109c5565b820191906000526020600020905b8154815290600101906020018083116109a857829003601f168201915b505050505081525050815250509050919050565b60055481565b60015481565b600081815481106109f557600080fd5b9060005260206000209060080201600091509050806000015490806001015490806002018054610a249061239f565b80601f0160208091040260200160405190810160405280929190818152602001828054610a509061239f565b8015610a9d5780601f10610a7257610100808354040283529160200191610a9d565b820191906000526020600020905b815481529060010190602001808311610a8057829003601f168201915b505050505090806003018054610ab29061239f565b80601f0160208091040260200160405190810160405280929190818152602001828054610ade9061239f565b8015610b2b5780601f10610b0057610100808354040283529160200191610b2b565b820191906000526020600020905b815481529060010190602001808311610b0e57829003601f168201915b5050505050908060040154908060050154908060060160405180604001604052908160008201548152602001600182018054610b669061239f565b80601f0160208091040260200160405190810160405280929190818152602001828054610b929061239f565b8015610bdf5780601f10610bb457610100808354040283529160200191610bdf565b820191906000526020600020905b815481529060010190602001808311610bc257829003601f168201915b505050505081525050905087565b60028181548110610bfd57600080fd5b90600052602060002090600e0201600091509050806000015490806001015490806002016040518060e00160405290816000820154815260200160018201548152602001600282018054610c509061239f565b80601f0160208091040260200160405190810160405280929190818152602001828054610c7c9061239f565b8015610cc95780601f10610c9e57610100808354040283529160200191610cc9565b820191906000526020600020905b815481529060010190602001808311610cac57829003601f168201915b50505050508152602001600382018054610ce29061239f565b80601f0160208091040260200160405190810160405280929190818152602001828054610d0e9061239f565b8015610d5b5780601f10610d3057610100808354040283529160200191610d5b565b820191906000526020600020905b815481529060010190602001808311610d3e57829003601f168201915b5050505050815260200160048201548152602001600582015481526020016006820160405180604001604052908160008201548152602001600182018054610da29061239f565b80601f0160208091040260200160405190810160405280929190818152602001828054610dce9061239f565b8015610e1b5780601f10610df057610100808354040283529160200191610e1b565b820191906000526020600020905b815481529060010190602001808311610dfe57829003601f168201915b505050505081525050815250509080600a0160405180604001604052908160008201548152602001600182018054610e529061239f565b80601f0160208091040260200160405190810160405280929190818152602001828054610e7e9061239f565b8015610ecb5780601f10610ea057610100808354040283529160200191610ecb565b820191906000526020600020905b815481529060010190602001808311610eae57829003601f168201915b5050505050815250509080600c0160405180604001604052908160008201548152602001600182018054610efe9061239f565b80601f0160208091040260200160405190810160405280929190818152602001828054610f2a9061239f565b8015610f775780601f10610f4c57610100808354040283529160200191610f77565b820191906000526020600020905b815481529060010190602001808311610f5a57829003601f168201915b505050505081525050905085565b610f8d61196b565b60048281548110610fa157610fa06124a9565b5b906000526020600020906002020160405180604001604052908160008201548152602001600182018054610fd49061239f565b80601f01602080910402602001604051908101604052809291908181526020018280546110009061239f565b801561104d5780601f106110225761010080835404028352916020019161104d565b820191906000526020600020905b81548152906001019060200180831161103057829003601f168201915b5050505050815250509050919050565b60026040518060a001604052806003600081548092919061107d90612402565b919050558152602001868152602001600086815481106110a05761109f6124a9565b5b90600052602060002090600802016040518060e001604052908160008201548152602001600182015481526020016002820180546110dd9061239f565b80601f01602080910402602001604051908101604052809291908181526020018280546111099061239f565b80156111565780601f1061112b57610100808354040283529160200191611156565b820191906000526020600020905b81548152906001019060200180831161113957829003601f168201915b5050505050815260200160038201805461116f9061239f565b80601f016020809104026020016040519081016040528092919081815260200182805461119b9061239f565b80156111e85780601f106111bd576101008083540402835291602001916111e8565b820191906000526020600020905b8154815290600101906020018083116111cb57829003601f168201915b505050505081526020016004820154815260200160058201548152602001600682016040518060400160405290816000820154815260200160018201805461122f9061239f565b80601f016020809104026020016040519081016040528092919081815260200182805461125b9061239f565b80156112a85780601f1061127d576101008083540402835291602001916112a8565b820191906000526020600020905b81548152906001019060200180831161128b57829003601f168201915b505050505081525050815250508152602001600485815481106112ce576112cd6124a9565b5b9060005260206000209060020201604051806040016040529081600082015481526020016001820180546113019061239f565b80601f016020809104026020016040519081016040528092919081815260200182805461132d9061239f565b801561137a5780601f1061134f5761010080835404028352916020019161137a565b820191906000526020600020905b81548152906001019060200180831161135d57829003601f168201915b50505050508152505081526020016004848154811061139c5761139b6124a9565b5b9060005260206000209060020201604051806040016040529081600082015481526020016001820180546113cf9061239f565b80601f01602080910402602001604051908101604052809291908181526020018280546113fb9061239f565b80156114485780601f1061141d57610100808354040283529160200191611448565b820191906000526020600020905b81548152906001019060200180831161142b57829003601f168201915b50505050508152505081525090806001815401808255809150506001900390600052602060002090600e02016000909190919091506000820151816000015560208201518160010155604082015181600201600082015181600001556020820151816001015560408201518160020190805190602001906114ca929190611861565b5060608201518160030190805190602001906114e7929190611861565b506080820151816004015560a0820151816005015560c08201518160060160008201518160000155602082015181600101908051906020019061152b929190611861565b5050505050606082015181600a0160008201518160000155602082015181600101908051906020019061155f929190611861565b505050608082015181600c01600082015181600001556020820151816001019080519060200190611591929190611861565b505050505050505050565b60046040518060400160405280600560008154809291906115bc90612402565b919050558152602001838152509080600181540180825580915050600190039060005260206000209060020201600090919091909150600082015181600001556020820151816001019080519060200190611618929190611861565b50505050565b6004818154811061162e57600080fd5b90600052602060002090600202016000915090508060000154908060010180546116579061239f565b80601f01602080910402602001604051908101604052809291908181526020018280546116839061239f565b80156116d05780601f106116a5576101008083540402835291602001916116d0565b820191906000526020600020905b8154815290600101906020018083116116b357829003601f168201915b5050505050905082565b60026040518060a00160405280600360008154809291906116fa90612402565b9190505581526020018681526020018581526020018481526020018381525090806001815401808255809150506001900390600052602060002090600e020160009091909190915060008201518160000155602082015181600101556040820151816002016000820151816000015560208201518160010155604082015181600201908051906020019061178f929190611861565b5060608201518160030190805190602001906117ac929190611861565b506080820151816004015560a0820151816005015560c0820151816006016000820151816000015560208201518160010190805190602001906117f0929190611861565b5050505050606082015181600a01600082015181600001556020820151816001019080519060200190611824929190611861565b505050608082015181600c01600082015181600001556020820151816001019080519060200190611856929190611861565b505050505050505050565b82805461186d9061239f565b90600052602060002090601f01602090048101928261188f57600085556118d6565b82601f106118a857805160ff19168380011785556118d6565b828001600101855582156118d6579182015b828111156118d55782518255916020019190600101906118ba565b5b5090506118e39190611985565b5090565b6040518060a001604052806000815260200160008152602001611908611928565b815260200161191561196b565b815260200161192261196b565b81525090565b6040518060e0016040528060008152602001600081526020016060815260200160608152602001600081526020016000815260200161196561196b565b81525090565b604051806040016040528060008152602001606081525090565b5b8082111561199e576000816000905550600101611986565b5090565b60006119b56119b0846122eb565b6122c6565b9050828152602081018484840111156119d1576119d0612516565b5b6119dc84828561235d565b509392505050565b6000813590506119f381612536565b92915050565b600082601f830112611a0e57611a0d612507565b5b8135611a1e8482602086016119a2565b91505092915050565b600060408284031215611a3d57611a3c61250c565b5b611a4760406122c6565b90506000611a5784828501611b9b565b600083015250602082013567ffffffffffffffff811115611a7b57611a7a612511565b5b611a87848285016119f9565b60208301525092915050565b600060e08284031215611aa957611aa861250c565b5b611ab360e06122c6565b90506000611ac384828501611b9b565b6000830152506020611ad7848285016119e4565b602083015250604082013567ffffffffffffffff811115611afb57611afa612511565b5b611b07848285016119f9565b604083015250606082013567ffffffffffffffff811115611b2b57611b2a612511565b5b611b37848285016119f9565b6060830152506080611b4b84828501611b9b565b60808301525060a0611b5f848285016119e4565b60a08301525060c082013567ffffffffffffffff811115611b8357611b82612511565b5b611b8f84828501611a27565b60c08301525092915050565b600081359050611baa8161254d565b92915050565b60008060008060008060c08789031215611bcd57611bcc612520565b5b6000611bdb89828a016119e4565b965050602087013567ffffffffffffffff811115611bfc57611bfb61251b565b5b611c0889828a016119f9565b955050604087013567ffffffffffffffff811115611c2957611c2861251b565b5b611c3589828a016119f9565b9450506060611c4689828a01611b9b565b9350506080611c5789828a016119e4565b92505060a087013567ffffffffffffffff811115611c7857611c7761251b565b5b611c8489828a01611a27565b9150509295509295509295565b600060208284031215611ca757611ca6612520565b5b600082013567ffffffffffffffff811115611cc557611cc461251b565b5b611cd1848285016119f9565b91505092915050565b600060208284031215611cf057611cef612520565b5b6000611cfe84828501611b9b565b91505092915050565b60008060008060808587031215611d2157611d20612520565b5b6000611d2f87828801611b9b565b945050602085013567ffffffffffffffff811115611d5057611d4f61251b565b5b611d5c87828801611a93565b935050604085013567ffffffffffffffff811115611d7d57611d7c61251b565b5b611d8987828801611a27565b925050606085013567ffffffffffffffff811115611daa57611da961251b565b5b611db687828801611a27565b91505092959194509250565b60008060008060808587031215611ddc57611ddb612520565b5b6000611dea87828801611b9b565b9450506020611dfb87828801611b9b565b9350506040611e0c87828801611b9b565b9250506060611e1d87828801611b9b565b91505092959194509250565b611e3281612349565b82525050565b611e4181612349565b82525050565b6000611e528261231c565b611e5c8185612327565b9350611e6c81856020860161236c565b611e7581612525565b840191505092915050565b6000611e8b8261231c565b611e958185612338565b9350611ea581856020860161236c565b611eae81612525565b840191505092915050565b6000604083016000830151611ed1600086018261210b565b5060208301518482036020860152611ee98282611e47565b9150508091505092915050565b6000604083016000830151611f0e600086018261210b565b5060208301518482036020860152611f268282611e47565b9150508091505092915050565b600060e083016000830151611f4b600086018261210b565b506020830151611f5e6020860182611e29565b5060408301518482036040860152611f768282611e47565b91505060608301518482036060860152611f908282611e47565b9150506080830151611fa5608086018261210b565b5060a0830151611fb860a0860182611e29565b5060c083015184820360c0860152611fd08282611eb9565b9150508091505092915050565b600060e083016000830151611ff5600086018261210b565b5060208301516120086020860182611e29565b50604083015184820360408601526120208282611e47565b9150506060830151848203606086015261203a8282611e47565b915050608083015161204f608086018261210b565b5060a083015161206260a0860182611e29565b5060c083015184820360c086015261207a8282611eb9565b9150508091505092915050565b600060a08301600083015161209f600086018261210b565b5060208301516120b2602086018261210b565b50604083015184820360408601526120ca8282611f33565b915050606083015184820360608601526120e48282611eb9565b915050608083015184820360808601526120fe8282611eb9565b9150508091505092915050565b61211481612353565b82525050565b61212381612353565b82525050565b600060208201905081810360008301526121438184611ef6565b905092915050565b600060208201905081810360008301526121658184611fdd565b905092915050565b600060208201905081810360008301526121878184612087565b905092915050565b60006020820190506121a4600083018461211a565b92915050565b600060e0820190506121bf600083018a61211a565b6121cc6020830189611e38565b81810360408301526121de8188611e80565b905081810360608301526121f28187611e80565b9050612201608083018661211a565b61220e60a0830185611e38565b81810360c08301526122208184611ef6565b905098975050505050505050565b6000604082019050612243600083018561211a565b81810360208301526122558184611e80565b90509392505050565b600060a082019050612273600083018861211a565b612280602083018761211a565b81810360408301526122928186611fdd565b905081810360608301526122a68185611ef6565b905081810360808301526122ba8184611ef6565b90509695505050505050565b60006122d06122e1565b90506122dc82826123d1565b919050565b6000604051905090565b600067ffffffffffffffff821115612306576123056124d8565b5b61230f82612525565b9050602081019050919050565b600081519050919050565b600082825260208201905092915050565b600082825260208201905092915050565b6000819050919050565b6000819050919050565b82818337600083830152505050565b60005b8381101561238a57808201518184015260208101905061236f565b83811115612399576000848401525b50505050565b600060028204905060018216806123b757607f821691505b602082108114156123cb576123ca61247a565b5b50919050565b6123da82612525565b810181811067ffffffffffffffff821117156123f9576123f86124d8565b5b80604052505050565b600061240d82612353565b91507fffffffffffffffffffffffffffffffffffffffffffffffffffffffffffffffff8214156124405761243f61244b565b5b600182019050919050565b7f4e487b7100000000000000000000000000000000000000000000000000000000600052601160045260246000fd5b7f4e487b7100000000000000000000000000000000000000000000000000000000600052602260045260246000fd5b7f4e487b7100000000000000000000000000000000000000000000000000000000600052603260045260246000fd5b7f4e487b7100000000000000000000000000000000000000000000000000000000600052604160045260246000fd5b600080fd5b600080fd5b600080fd5b600080fd5b600080fd5b600080fd5b6000601f19601f8301169050919050565b61253f81612349565b811461254a57600080fd5b50565b61255681612353565b811461256157600080fd5b5056fea264697066735822122011200ccd5264cab5f0d7bf2d341eec1ec0b97c818e1f912558b0eadd9452966364736f6c63430008070033",
					"opcodes": "PUSH1 0x80 PUSH1 0x40 MSTORE CALLVALUE DUP1 ISZERO PUSH2 0x10 JUMPI PUSH1 0x0 DUP1 REVERT JUMPDEST POP PUSH2 0x259A DUP1 PUSH2 0x20 PUSH1 0x0 CODECOPY PUSH1 0x0 RETURN INVALID PUSH1 0x80 PUSH1 0x40 MSTORE CALLVALUE DUP1 ISZERO PUSH2 0x10 JUMPI PUSH1 0x0 DUP1 REVERT JUMPDEST POP PUSH1 0x4 CALLDATASIZE LT PUSH2 0xCF JUMPI PUSH1 0x0 CALLDATALOAD PUSH1 0xE0 SHR DUP1 PUSH4 0x7A80DC1D GT PUSH2 0x8C JUMPI DUP1 PUSH4 0xE32BF8E4 GT PUSH2 0x66 JUMPI DUP1 PUSH4 0xE32BF8E4 EQ PUSH2 0x244 JUMPI DUP1 PUSH4 0xE88E9F0F EQ PUSH2 0x260 JUMPI DUP1 PUSH4 0xF88AF21D EQ PUSH2 0x27C JUMPI DUP1 PUSH4 0xFCCD0046 EQ PUSH2 0x2AD JUMPI PUSH2 0xCF JUMP JUMPDEST DUP1 PUSH4 0x7A80DC1D EQ PUSH2 0x1AA JUMPI DUP1 PUSH4 0x8392FE31 EQ PUSH2 0x1E0 JUMPI DUP1 PUSH4 0xD0068F80 EQ PUSH2 0x214 JUMPI PUSH2 0xCF JUMP JUMPDEST DUP1 PUSH4 0x1D78C52C EQ PUSH2 0xD4 JUMPI DUP1 PUSH4 0x2CB9D0E8 EQ PUSH2 0xF0 JUMPI DUP1 PUSH4 0x3742A9F7 EQ PUSH2 0x10E JUMPI DUP1 PUSH4 0x47AC33EE EQ PUSH2 0x13E JUMPI DUP1 PUSH4 0x5B02C922 EQ PUSH2 0x16E JUMPI DUP1 PUSH4 0x6F3FFBB9 EQ PUSH2 0x18C JUMPI JUMPDEST PUSH1 0x0 DUP1 REVERT JUMPDEST PUSH2 0xEE PUSH1 0x4 DUP1 CALLDATASIZE SUB DUP2 ADD SWAP1 PUSH2 0xE9 SWAP2 SWAP1 PUSH2 0x1BB0 JUMP JUMPDEST PUSH2 0x2C9 JUMP JUMPDEST STOP JUMPDEST PUSH2 0xF8 PUSH2 0x3DB JUMP JUMPDEST PUSH1 0x40 MLOAD PUSH2 0x105 SWAP2 SWAP1 PUSH2 0x218F JUMP JUMPDEST PUSH1 0x40 MLOAD DUP1 SWAP2 SUB SWAP1 RETURN JUMPDEST PUSH2 0x128 PUSH1 0x4 DUP1 CALLDATASIZE SUB DUP2 ADD SWAP1 PUSH2 0x123 SWAP2 SWAP1 PUSH2 0x1CDA JUMP JUMPDEST PUSH2 0x3E1 JUMP JUMPDEST PUSH1 0x40 MLOAD PUSH2 0x135 SWAP2 SWAP1 PUSH2 0x216D JUMP JUMPDEST PUSH1 0x40 MLOAD DUP1 SWAP2 SUB SWAP1 RETURN JUMPDEST PUSH2 0x158 PUSH1 0x4 DUP1 CALLDATASIZE SUB DUP2 ADD SWAP1 PUSH2 0x153 SWAP2 SWAP1 PUSH2 0x1CDA JUMP JUMPDEST PUSH2 0x7A1 JUMP JUMPDEST PUSH1 0x40 MLOAD PUSH2 0x165 SWAP2 SWAP1 PUSH2 0x214B JUMP JUMPDEST PUSH1 0x40 MLOAD DUP1 SWAP2 SUB SWAP1 RETURN JUMPDEST PUSH2 0x176 PUSH2 0x9D9 JUMP JUMPDEST PUSH1 0x40 MLOAD PUSH2 0x183 SWAP2 SWAP1 PUSH2 0x218F JUMP JUMPDEST PUSH1 0x40 MLOAD DUP1 SWAP2 SUB SWAP1 RETURN JUMPDEST PUSH2 0x194 PUSH2 0x9DF JUMP JUMPDEST PUSH1 0x40 MLOAD PUSH2 0x1A1 SWAP2 SWAP1 PUSH2 0x218F JUMP JUMPDEST PUSH1 0x40 MLOAD DUP1 SWAP2 SUB SWAP1 RETURN JUMPDEST PUSH2 0x1C4 PUSH1 0x4 DUP1 CALLDATASIZE SUB DUP2 ADD SWAP1 PUSH2 0x1BF SWAP2 SWAP1 PUSH2 0x1CDA JUMP JUMPDEST PUSH2 0x9E5 JUMP JUMPDEST PUSH1 0x40 MLOAD PUSH2 0x1D7 SWAP8 SWAP7 SWAP6 SWAP5 SWAP4 SWAP3 SWAP2 SWAP1 PUSH2 0x21AA JUMP JUMPDEST PUSH1 0x40 MLOAD DUP1 SWAP2 SUB SWAP1 RETURN JUMPDEST PUSH2 0x1FA PUSH1 0x4 DUP1 CALLDATASIZE SUB DUP2 ADD SWAP1 PUSH2 0x1F5 SWAP2 SWAP1 PUSH2 0x1CDA JUMP JUMPDEST PUSH2 0xBED JUMP JUMPDEST PUSH1 0x40 MLOAD PUSH2 0x20B SWAP6 SWAP5 SWAP4 SWAP3 SWAP2 SWAP1 PUSH2 0x225E JUMP JUMPDEST PUSH1 0x40 MLOAD DUP1 SWAP2 SUB SWAP1 RETURN JUMPDEST PUSH2 0x22E PUSH1 0x4 DUP1 CALLDATASIZE SUB DUP2 ADD SWAP1 PUSH2 0x229 SWAP2 SWAP1 PUSH2 0x1CDA JUMP JUMPDEST PUSH2 0xF85 JUMP JUMPDEST PUSH1 0x40 MLOAD PUSH2 0x23B SWAP2 SWAP1 PUSH2 0x2129 JUMP JUMPDEST PUSH1 0x40 MLOAD DUP1 SWAP2 SUB SWAP1 RETURN JUMPDEST PUSH2 0x25E PUSH1 0x4 DUP1 CALLDATASIZE SUB DUP2 ADD SWAP1 PUSH2 0x259 SWAP2 SWAP1 PUSH2 0x1DC2 JUMP JUMPDEST PUSH2 0x105D JUMP JUMPDEST STOP JUMPDEST PUSH2 0x27A PUSH1 0x4 DUP1 CALLDATASIZE SUB DUP2 ADD SWAP1 PUSH2 0x275 SWAP2 SWAP1 PUSH2 0x1C91 JUMP JUMPDEST PUSH2 0x159C JUMP JUMPDEST STOP JUMPDEST PUSH2 0x296 PUSH1 0x4 DUP1 CALLDATASIZE SUB DUP2 ADD SWAP1 PUSH2 0x291 SWAP2 SWAP1 PUSH2 0x1CDA JUMP JUMPDEST PUSH2 0x161E JUMP JUMPDEST PUSH1 0x40 MLOAD PUSH2 0x2A4 SWAP3 SWAP2 SWAP1 PUSH2 0x222E JUMP JUMPDEST PUSH1 0x40 MLOAD DUP1 SWAP2 SUB SWAP1 RETURN JUMPDEST PUSH2 0x2C7 PUSH1 0x4 DUP1 CALLDATASIZE SUB DUP2 ADD SWAP1 PUSH2 0x2C2 SWAP2 SWAP1 PUSH2 0x1D07 JUMP JUMPDEST PUSH2 0x16DA JUMP JUMPDEST STOP JUMPDEST PUSH1 0x0 PUSH1 0x40 MLOAD DUP1 PUSH1 0xE0 ADD PUSH1 0x40 MSTORE DUP1 PUSH1 0x1 PUSH1 0x0 DUP2 SLOAD DUP1 SWAP3 SWAP2 SWAP1 PUSH2 0x2E9 SWAP1 PUSH2 0x2402 JUMP JUMPDEST SWAP2 SWAP1 POP SSTORE DUP2 MSTORE PUSH1 0x20 ADD DUP9 DUP2 MSTORE PUSH1 0x20 ADD DUP8 DUP2 MSTORE PUSH1 0x20 ADD DUP7 DUP2 MSTORE PUSH1 0x20 ADD DUP6 DUP2 MSTORE PUSH1 0x20 ADD DUP5 DUP2 MSTORE PUSH1 0x20 ADD DUP4 DUP2 MSTORE POP SWAP1 DUP1 PUSH1 0x1 DUP2 SLOAD ADD DUP1 DUP3 SSTORE DUP1 SWAP2 POP POP PUSH1 0x1 SWAP1 SUB SWAP1 PUSH1 0x0 MSTORE PUSH1 0x20 PUSH1 0x0 KECCAK256 SWAP1 PUSH1 0x8 MUL ADD PUSH1 0x0 SWAP1 SWAP2 SWAP1 SWAP2 SWAP1 SWAP2 POP PUSH1 0x0 DUP3 ADD MLOAD DUP2 PUSH1 0x0 ADD SSTORE PUSH1 0x20 DUP3 ADD MLOAD DUP2 PUSH1 0x1 ADD SSTORE PUSH1 0x40 DUP3 ADD MLOAD DUP2 PUSH1 0x2 ADD SWAP1 DUP1 MLOAD SWAP1 PUSH1 0x20 ADD SWAP1 PUSH2 0x36D SWAP3 SWAP2 SWAP1 PUSH2 0x1861 JUMP JUMPDEST POP PUSH1 0x60 DUP3 ADD MLOAD DUP2 PUSH1 0x3 ADD SWAP1 DUP1 MLOAD SWAP1 PUSH1 0x20 ADD SWAP1 PUSH2 0x38A SWAP3 SWAP2 SWAP1 PUSH2 0x1861 JUMP JUMPDEST POP PUSH1 0x80 DUP3 ADD MLOAD DUP2 PUSH1 0x4 ADD SSTORE PUSH1 0xA0 DUP3 ADD MLOAD DUP2 PUSH1 0x5 ADD SSTORE PUSH1 0xC0 DUP3 ADD MLOAD DUP2 PUSH1 0x6 ADD PUSH1 0x0 DUP3 ADD MLOAD DUP2 PUSH1 0x0 ADD SSTORE PUSH1 0x20 DUP3 ADD MLOAD DUP2 PUSH1 0x1 ADD SWAP1 DUP1 MLOAD SWAP1 PUSH1 0x20 ADD SWAP1 PUSH2 0x3CE SWAP3 SWAP2 SWAP1 PUSH2 0x1861 JUMP JUMPDEST POP POP POP POP POP POP POP POP POP POP POP JUMP JUMPDEST PUSH1 0x3 SLOAD DUP2 JUMP JUMPDEST PUSH2 0x3E9 PUSH2 0x18E7 JUMP JUMPDEST PUSH1 0x2 DUP3 DUP2 SLOAD DUP2 LT PUSH2 0x3FD JUMPI PUSH2 0x3FC PUSH2 0x24A9 JUMP JUMPDEST JUMPDEST SWAP1 PUSH1 0x0 MSTORE PUSH1 0x20 PUSH1 0x0 KECCAK256 SWAP1 PUSH1 0xE MUL ADD PUSH1 0x40 MLOAD DUP1 PUSH1 0xA0 ADD PUSH1 0x40 MSTORE SWAP1 DUP2 PUSH1 0x0 DUP3 ADD SLOAD DUP2 MSTORE PUSH1 0x20 ADD PUSH1 0x1 DUP3 ADD SLOAD DUP2 MSTORE PUSH1 0x20 ADD PUSH1 0x2 DUP3 ADD PUSH1 0x40 MLOAD DUP1 PUSH1 0xE0 ADD PUSH1 0x40 MSTORE SWAP1 DUP2 PUSH1 0x0 DUP3 ADD SLOAD DUP2 MSTORE PUSH1 0x20 ADD PUSH1 0x1 DUP3 ADD SLOAD DUP2 MSTORE PUSH1 0x20 ADD PUSH1 0x2 DUP3 ADD DUP1 SLOAD PUSH2 0x45E SWAP1 PUSH2 0x239F JUMP JUMPDEST DUP1 PUSH1 0x1F ADD PUSH1 0x20 DUP1 SWAP2 DIV MUL PUSH1 0x20 ADD PUSH1 0x40 MLOAD SWAP1 DUP2 ADD PUSH1 0x40 MSTORE DUP1 SWAP3 SWAP2 SWAP1 DUP2 DUP2 MSTORE PUSH1 0x20 ADD DUP3 DUP1 SLOAD PUSH2 0x48A SWAP1 PUSH2 0x239F JUMP JUMPDEST DUP1 ISZERO PUSH2 0x4D7 JUMPI DUP1 PUSH1 0x1F LT PUSH2 0x4AC JUMPI PUSH2 0x100 DUP1 DUP4 SLOAD DIV MUL DUP4 MSTORE SWAP2 PUSH1 0x20 ADD SWAP2 PUSH2 0x4D7 JUMP JUMPDEST DUP3 ADD SWAP2 SWAP1 PUSH1 0x0 MSTORE PUSH1 0x20 PUSH1 0x0 KECCAK256 SWAP1 JUMPDEST DUP2 SLOAD DUP2 MSTORE SWAP1 PUSH1 0x1 ADD SWAP1 PUSH1 0x20 ADD DUP1 DUP4 GT PUSH2 0x4BA JUMPI DUP3 SWAP1 SUB PUSH1 0x1F AND DUP3 ADD SWAP2 JUMPDEST POP POP POP POP POP DUP2 MSTORE PUSH1 0x20 ADD PUSH1 0x3 DUP3 ADD DUP1 SLOAD PUSH2 0x4F0 SWAP1 PUSH2 0x239F JUMP JUMPDEST DUP1 PUSH1 0x1F ADD PUSH1 0x20 DUP1 SWAP2 DIV MUL PUSH1 0x20 ADD PUSH1 0x40 MLOAD SWAP1 DUP2 ADD PUSH1 0x40 MSTORE DUP1 SWAP3 SWAP2 SWAP1 DUP2 DUP2 MSTORE PUSH1 0x20 ADD DUP3 DUP1 SLOAD PUSH2 0x51C SWAP1 PUSH2 0x239F JUMP JUMPDEST DUP1 ISZERO PUSH2 0x569 JUMPI DUP1 PUSH1 0x1F LT PUSH2 0x53E JUMPI PUSH2 0x100 DUP1 DUP4 SLOAD DIV MUL DUP4 MSTORE SWAP2 PUSH1 0x20 ADD SWAP2 PUSH2 0x569 JUMP JUMPDEST DUP3 ADD SWAP2 SWAP1 PUSH1 0x0 MSTORE PUSH1 0x20 PUSH1 0x0 KECCAK256 SWAP1 JUMPDEST DUP2 SLOAD DUP2 MSTORE SWAP1 PUSH1 0x1 ADD SWAP1 PUSH1 0x20 ADD DUP1 DUP4 GT PUSH2 0x54C JUMPI DUP3 SWAP1 SUB PUSH1 0x1F AND DUP3 ADD SWAP2 JUMPDEST POP POP POP POP POP DUP2 MSTORE PUSH1 0x20 ADD PUSH1 0x4 DUP3 ADD SLOAD DUP2 MSTORE PUSH1 0x20 ADD PUSH1 0x5 DUP3 ADD SLOAD DUP2 MSTORE PUSH1 0x20 ADD PUSH1 0x6 DUP3 ADD PUSH1 0x40 MLOAD DUP1 PUSH1 0x40 ADD PUSH1 0x40 MSTORE SWAP1 DUP2 PUSH1 0x0 DUP3 ADD SLOAD DUP2 MSTORE PUSH1 0x20 ADD PUSH1 0x1 DUP3 ADD DUP1 SLOAD PUSH2 0x5B0 SWAP1 PUSH2 0x239F JUMP JUMPDEST DUP1 PUSH1 0x1F ADD PUSH1 0x20 DUP1 SWAP2 DIV MUL PUSH1 0x20 ADD PUSH1 0x40 MLOAD SWAP1 DUP2 ADD PUSH1 0x40 MSTORE DUP1 SWAP3 SWAP2 SWAP1 DUP2 DUP2 MSTORE PUSH1 0x20 ADD DUP3 DUP1 SLOAD PUSH2 0x5DC SWAP1 PUSH2 0x239F JUMP JUMPDEST DUP1 ISZERO PUSH2 0x629 JUMPI DUP1 PUSH1 0x1F LT PUSH2 0x5FE JUMPI PUSH2 0x100 DUP1 DUP4 SLOAD DIV MUL DUP4 MSTORE SWAP2 PUSH1 0x20 ADD SWAP2 PUSH2 0x629 JUMP JUMPDEST DUP3 ADD SWAP2 SWAP1 PUSH1 0x0 MSTORE PUSH1 0x20 PUSH1 0x0 KECCAK256 SWAP1 JUMPDEST DUP2 SLOAD DUP2 MSTORE SWAP1 PUSH1 0x1 ADD SWAP1 PUSH1 0x20 ADD DUP1 DUP4 GT PUSH2 0x60C JUMPI DUP3 SWAP1 SUB PUSH1 0x1F AND DUP3 ADD SWAP2 JUMPDEST POP POP POP POP POP DUP2 MSTORE POP POP DUP2 MSTORE POP POP DUP2 MSTORE PUSH1 0x20 ADD PUSH1 0xA DUP3 ADD PUSH1 0x40 MLOAD DUP1 PUSH1 0x40 ADD PUSH1 0x40 MSTORE SWAP1 DUP2 PUSH1 0x0 DUP3 ADD SLOAD DUP2 MSTORE PUSH1 0x20 ADD PUSH1 0x1 DUP3 ADD DUP1 SLOAD PUSH2 0x664 SWAP1 PUSH2 0x239F JUMP JUMPDEST DUP1 PUSH1 0x1F ADD PUSH1 0x20 DUP1 SWAP2 DIV MUL PUSH1 0x20 ADD PUSH1 0x40 MLOAD SWAP1 DUP2 ADD PUSH1 0x40 MSTORE DUP1 SWAP3 SWAP2 SWAP1 DUP2 DUP2 MSTORE PUSH1 0x20 ADD DUP3 DUP1 SLOAD PUSH2 0x690 SWAP1 PUSH2 0x239F JUMP JUMPDEST DUP1 ISZERO PUSH2 0x6DD JUMPI DUP1 PUSH1 0x1F LT PUSH2 0x6B2 JUMPI PUSH2 0x100 DUP1 DUP4 SLOAD DIV MUL DUP4 MSTORE SWAP2 PUSH1 0x20 ADD SWAP2 PUSH2 0x6DD JUMP JUMPDEST DUP3 ADD SWAP2 SWAP1 PUSH1 0x0 MSTORE PUSH1 0x20 PUSH1 0x0 KECCAK256 SWAP1 JUMPDEST DUP2 SLOAD DUP2 MSTORE SWAP1 PUSH1 0x1 ADD SWAP1 PUSH1 0x20 ADD DUP1 DUP4 GT PUSH2 0x6C0 JUMPI DUP3 SWAP1 SUB PUSH1 0x1F AND DUP3 ADD SWAP2 JUMPDEST POP POP POP POP POP DUP2 MSTORE POP POP DUP2 MSTORE PUSH1 0x20 ADD PUSH1 0xC DUP3 ADD PUSH1 0x40 MLOAD DUP1 PUSH1 0x40 ADD PUSH1 0x40 MSTORE SWAP1 DUP2 PUSH1 0x0 DUP3 ADD SLOAD DUP2 MSTORE PUSH1 0x20 ADD PUSH1 0x1 DUP3 ADD DUP1 SLOAD PUSH2 0x714 SWAP1 PUSH2 0x239F JUMP JUMPDEST DUP1 PUSH1 0x1F ADD PUSH1 0x20 DUP1 SWAP2 DIV MUL PUSH1 0x20 ADD PUSH1 0x40 MLOAD SWAP1 DUP2 ADD PUSH1 0x40 MSTORE DUP1 SWAP3 SWAP2 SWAP1 DUP2 DUP2 MSTORE PUSH1 0x20 ADD DUP3 DUP1 SLOAD PUSH2 0x740 SWAP1 PUSH2 0x239F JUMP JUMPDEST DUP1 ISZERO PUSH2 0x78D JUMPI DUP1 PUSH1 0x1F LT PUSH2 0x762 JUMPI PUSH2 0x100 DUP1 DUP4 SLOAD DIV MUL DUP4 MSTORE SWAP2 PUSH1 0x20 ADD SWAP2 PUSH2 0x78D JUMP JUMPDEST DUP3 ADD SWAP2 SWAP1 PUSH1 0x0 MSTORE PUSH1 0x20 PUSH1 0x0 KECCAK256 SWAP1 JUMPDEST DUP2 SLOAD DUP2 MSTORE SWAP1 PUSH1 0x1 ADD SWAP1 PUSH1 0x20 ADD DUP1 DUP4 GT PUSH2 0x770 JUMPI DUP3 SWAP1 SUB PUSH1 0x1F AND DUP3 ADD SWAP2 JUMPDEST POP POP POP POP POP DUP2 MSTORE POP POP DUP2 MSTORE POP POP SWAP1 POP SWAP2 SWAP1 POP JUMP JUMPDEST PUSH2 0x7A9 PUSH2 0x1928 JUMP JUMPDEST PUSH1 0x0 DUP3 DUP2 SLOAD DUP2 LT PUSH2 0x7BD JUMPI PUSH2 0x7BC PUSH2 0x24A9 JUMP JUMPDEST JUMPDEST SWAP1 PUSH1 0x0 MSTORE PUSH1 0x20 PUSH1 0x0 KECCAK256 SWAP1 PUSH1 0x8 MUL ADD PUSH1 0x40 MLOAD DUP1 PUSH1 0xE0 ADD PUSH1 0x40 MSTORE SWAP1 DUP2 PUSH1 0x0 DUP3 ADD SLOAD DUP2 MSTORE PUSH1 0x20 ADD PUSH1 0x1 DUP3 ADD SLOAD DUP2 MSTORE PUSH1 0x20 ADD PUSH1 0x2 DUP3 ADD DUP1 SLOAD PUSH2 0x7FA SWAP1 PUSH2 0x239F JUMP JUMPDEST DUP1 PUSH1 0x1F ADD PUSH1 0x20 DUP1 SWAP2 DIV MUL PUSH1 0x20 ADD PUSH1 0x40 MLOAD SWAP1 DUP2 ADD PUSH1 0x40 MSTORE DUP1 SWAP3 SWAP2 SWAP1 DUP2 DUP2 MSTORE PUSH1 0x20 ADD DUP3 DUP1 SLOAD PUSH2 0x826 SWAP1 PUSH2 0x239F JUMP JUMPDEST DUP1 ISZERO PUSH2 0x873 JUMPI DUP1 PUSH1 0x1F LT PUSH2 0x848 JUMPI PUSH2 0x100 DUP1 DUP4 SLOAD DIV MUL DUP4 MSTORE SWAP2 PUSH1 0x20 ADD SWAP2 PUSH2 0x873 JUMP JUMPDEST DUP3 ADD SWAP2 SWAP1 PUSH1 0x0 MSTORE PUSH1 0x20 PUSH1 0x0 KECCAK256 SWAP1 JUMPDEST DUP2 SLOAD DUP2 MSTORE SWAP1 PUSH1 0x1 ADD SWAP1 PUSH1 0x20 ADD DUP1 DUP4 GT PUSH2 0x856 JUMPI DUP3 SWAP1 SUB PUSH1 0x1F AND DUP3 ADD SWAP2 JUMPDEST POP POP POP POP POP DUP2 MSTORE PUSH1 0x20 ADD PUSH1 0x3 DUP3 ADD DUP1 SLOAD PUSH2 0x88C SWAP1 PUSH2 0x239F JUMP JUMPDEST DUP1 PUSH1 0x1F ADD PUSH1 0x20 DUP1 SWAP2 DIV MUL PUSH1 0x20 ADD PUSH1 0x40 MLOAD SWAP1 DUP2 ADD PUSH1 0x40 MSTORE DUP1 SWAP3 SWAP2 SWAP1 DUP2 DUP2 MSTORE PUSH1 0x20 ADD DUP3 DUP1 SLOAD PUSH2 0x8B8 SWAP1 PUSH2 0x239F JUMP JUMPDEST DUP1 ISZERO PUSH2 0x905 JUMPI DUP1 PUSH1 0x1F LT PUSH2 0x8DA JUMPI PUSH2 0x100 DUP1 DUP4 SLOAD DIV MUL DUP4 MSTORE SWAP2 PUSH1 0x20 ADD SWAP2 PUSH2 0x905 JUMP JUMPDEST DUP3 ADD SWAP2 SWAP1 PUSH1 0x0 MSTORE PUSH1 0x20 PUSH1 0x0 KECCAK256 SWAP1 JUMPDEST DUP2 SLOAD DUP2 MSTORE SWAP1 PUSH1 0x1 ADD SWAP1 PUSH1 0x20 ADD DUP1 DUP4 GT PUSH2 0x8E8 JUMPI DUP3 SWAP1 SUB PUSH1 0x1F AND DUP3 ADD SWAP2 JUMPDEST POP POP POP POP POP DUP2 MSTORE PUSH1 0x20 ADD PUSH1 0x4 DUP3 ADD SLOAD DUP2 MSTORE PUSH1 0x20 ADD PUSH1 0x5 DUP3 ADD SLOAD DUP2 MSTORE PUSH1 0x20 ADD PUSH1 0x6 DUP3 ADD PUSH1 0x40 MLOAD DUP1 PUSH1 0x40 ADD PUSH1 0x40 MSTORE SWAP1 DUP2 PUSH1 0x0 DUP3 ADD SLOAD DUP2 MSTORE PUSH1 0x20 ADD PUSH1 0x1 DUP3 ADD DUP1 SLOAD PUSH2 0x94C SWAP1 PUSH2 0x239F JUMP JUMPDEST DUP1 PUSH1 0x1F ADD PUSH1 0x20 DUP1 SWAP2 DIV MUL PUSH1 0x20 ADD PUSH1 0x40 MLOAD SWAP1 DUP2 ADD PUSH1 0x40 MSTORE DUP1 SWAP3 SWAP2 SWAP1 DUP2 DUP2 MSTORE PUSH1 0x20 ADD DUP3 DUP1 SLOAD PUSH2 0x978 SWAP1 PUSH2 0x239F JUMP JUMPDEST DUP1 ISZERO PUSH2 0x9C5 JUMPI DUP1 PUSH1 0x1F LT PUSH2 0x99A JUMPI PUSH2 0x100 DUP1 DUP4 SLOAD DIV MUL DUP4 MSTORE SWAP2 PUSH1 0x20 ADD SWAP2 PUSH2 0x9C5 JUMP JUMPDEST DUP3 ADD SWAP2 SWAP1 PUSH1 0x0 MSTORE PUSH1 0x20 PUSH1 0x0 KECCAK256 SWAP1 JUMPDEST DUP2 SLOAD DUP2 MSTORE SWAP1 PUSH1 0x1 ADD SWAP1 PUSH1 0x20 ADD DUP1 DUP4 GT PUSH2 0x9A8 JUMPI DUP3 SWAP1 SUB PUSH1 0x1F AND DUP3 ADD SWAP2 JUMPDEST POP POP POP POP POP DUP2 MSTORE POP POP DUP2 MSTORE POP POP SWAP1 POP SWAP2 SWAP1 POP JUMP JUMPDEST PUSH1 0x5 SLOAD DUP2 JUMP JUMPDEST PUSH1 0x1 SLOAD DUP2 JUMP JUMPDEST PUSH1 0x0 DUP2 DUP2 SLOAD DUP2 LT PUSH2 0x9F5 JUMPI PUSH1 0x0 DUP1 REVERT JUMPDEST SWAP1 PUSH1 0x0 MSTORE PUSH1 0x20 PUSH1 0x0 KECCAK256 SWAP1 PUSH1 0x8 MUL ADD PUSH1 0x0 SWAP2 POP SWAP1 POP DUP1 PUSH1 0x0 ADD SLOAD SWAP1 DUP1 PUSH1 0x1 ADD SLOAD SWAP1 DUP1 PUSH1 0x2 ADD DUP1 SLOAD PUSH2 0xA24 SWAP1 PUSH2 0x239F JUMP JUMPDEST DUP1 PUSH1 0x1F ADD PUSH1 0x20 DUP1 SWAP2 DIV MUL PUSH1 0x20 ADD PUSH1 0x40 MLOAD SWAP1 DUP2 ADD PUSH1 0x40 MSTORE DUP1 SWAP3 SWAP2 SWAP1 DUP2 DUP2 MSTORE PUSH1 0x20 ADD DUP3 DUP1 SLOAD PUSH2 0xA50 SWAP1 PUSH2 0x239F JUMP JUMPDEST DUP1 ISZERO PUSH2 0xA9D JUMPI DUP1 PUSH1 0x1F LT PUSH2 0xA72 JUMPI PUSH2 0x100 DUP1 DUP4 SLOAD DIV MUL DUP4 MSTORE SWAP2 PUSH1 0x20 ADD SWAP2 PUSH2 0xA9D JUMP JUMPDEST DUP3 ADD SWAP2 SWAP1 PUSH1 0x0 MSTORE PUSH1 0x20 PUSH1 0x0 KECCAK256 SWAP1 JUMPDEST DUP2 SLOAD DUP2 MSTORE SWAP1 PUSH1 0x1 ADD SWAP1 PUSH1 0x20 ADD DUP1 DUP4 GT PUSH2 0xA80 JUMPI DUP3 SWAP1 SUB PUSH1 0x1F AND DUP3 ADD SWAP2 JUMPDEST POP POP POP POP POP SWAP1 DUP1 PUSH1 0x3 ADD DUP1 SLOAD PUSH2 0xAB2 SWAP1 PUSH2 0x239F JUMP JUMPDEST DUP1 PUSH1 0x1F ADD PUSH1 0x20 DUP1 SWAP2 DIV MUL PUSH1 0x20 ADD PUSH1 0x40 MLOAD SWAP1 DUP2 ADD PUSH1 0x40 MSTORE DUP1 SWAP3 SWAP2 SWAP1 DUP2 DUP2 MSTORE PUSH1 0x20 ADD DUP3 DUP1 SLOAD PUSH2 0xADE SWAP1 PUSH2 0x239F JUMP JUMPDEST DUP1 ISZERO PUSH2 0xB2B JUMPI DUP1 PUSH1 0x1F LT PUSH2 0xB00 JUMPI PUSH2 0x100 DUP1 DUP4 SLOAD DIV MUL DUP4 MSTORE SWAP2 PUSH1 0x20 ADD SWAP2 PUSH2 0xB2B JUMP JUMPDEST DUP3 ADD SWAP2 SWAP1 PUSH1 0x0 MSTORE PUSH1 0x20 PUSH1 0x0 KECCAK256 SWAP1 JUMPDEST DUP2 SLOAD DUP2 MSTORE SWAP1 PUSH1 0x1 ADD SWAP1 PUSH1 0x20 ADD DUP1 DUP4 GT PUSH2 0xB0E JUMPI DUP3 SWAP1 SUB PUSH1 0x1F AND DUP3 ADD SWAP2 JUMPDEST POP POP POP POP POP SWAP1 DUP1 PUSH1 0x4 ADD SLOAD SWAP1 DUP1 PUSH1 0x5 ADD SLOAD SWAP1 DUP1 PUSH1 0x6 ADD PUSH1 0x40 MLOAD DUP1 PUSH1 0x40 ADD PUSH1 0x40 MSTORE SWAP1 DUP2 PUSH1 0x0 DUP3 ADD SLOAD DUP2 MSTORE PUSH1 0x20 ADD PUSH1 0x1 DUP3 ADD DUP1 SLOAD PUSH2 0xB66 SWAP1 PUSH2 0x239F JUMP JUMPDEST DUP1 PUSH1 0x1F ADD PUSH1 0x20 DUP1 SWAP2 DIV MUL PUSH1 0x20 ADD PUSH1 0x40 MLOAD SWAP1 DUP2 ADD PUSH1 0x40 MSTORE DUP1 SWAP3 SWAP2 SWAP1 DUP2 DUP2 MSTORE PUSH1 0x20 ADD DUP3 DUP1 SLOAD PUSH2 0xB92 SWAP1 PUSH2 0x239F JUMP JUMPDEST DUP1 ISZERO PUSH2 0xBDF JUMPI DUP1 PUSH1 0x1F LT PUSH2 0xBB4 JUMPI PUSH2 0x100 DUP1 DUP4 SLOAD DIV MUL DUP4 MSTORE SWAP2 PUSH1 0x20 ADD SWAP2 PUSH2 0xBDF JUMP JUMPDEST DUP3 ADD SWAP2 SWAP1 PUSH1 0x0 MSTORE PUSH1 0x20 PUSH1 0x0 KECCAK256 SWAP1 JUMPDEST DUP2 SLOAD DUP2 MSTORE SWAP1 PUSH1 0x1 ADD SWAP1 PUSH1 0x20 ADD DUP1 DUP4 GT PUSH2 0xBC2 JUMPI DUP3 SWAP1 SUB PUSH1 0x1F AND DUP3 ADD SWAP2 JUMPDEST POP POP POP POP POP DUP2 MSTORE POP POP SWAP1 POP DUP8 JUMP JUMPDEST PUSH1 0x2 DUP2 DUP2 SLOAD DUP2 LT PUSH2 0xBFD JUMPI PUSH1 0x0 DUP1 REVERT JUMPDEST SWAP1 PUSH1 0x0 MSTORE PUSH1 0x20 PUSH1 0x0 KECCAK256 SWAP1 PUSH1 0xE MUL ADD PUSH1 0x0 SWAP2 POP SWAP1 POP DUP1 PUSH1 0x0 ADD SLOAD SWAP1 DUP1 PUSH1 0x1 ADD SLOAD SWAP1 DUP1 PUSH1 0x2 ADD PUSH1 0x40 MLOAD DUP1 PUSH1 0xE0 ADD PUSH1 0x40 MSTORE SWAP1 DUP2 PUSH1 0x0 DUP3 ADD SLOAD DUP2 MSTORE PUSH1 0x20 ADD PUSH1 0x1 DUP3 ADD SLOAD DUP2 MSTORE PUSH1 0x20 ADD PUSH1 0x2 DUP3 ADD DUP1 SLOAD PUSH2 0xC50 SWAP1 PUSH2 0x239F JUMP JUMPDEST DUP1 PUSH1 0x1F ADD PUSH1 0x20 DUP1 SWAP2 DIV MUL PUSH1 0x20 ADD PUSH1 0x40 MLOAD SWAP1 DUP2 ADD PUSH1 0x40 MSTORE DUP1 SWAP3 SWAP2 SWAP1 DUP2 DUP2 MSTORE PUSH1 0x20 ADD DUP3 DUP1 SLOAD PUSH2 0xC7C SWAP1 PUSH2 0x239F JUMP JUMPDEST DUP1 ISZERO PUSH2 0xCC9 JUMPI DUP1 PUSH1 0x1F LT PUSH2 0xC9E JUMPI PUSH2 0x100 DUP1 DUP4 SLOAD DIV MUL DUP4 MSTORE SWAP2 PUSH1 0x20 ADD SWAP2 PUSH2 0xCC9 JUMP JUMPDEST DUP3 ADD SWAP2 SWAP1 PUSH1 0x0 MSTORE PUSH1 0x20 PUSH1 0x0 KECCAK256 SWAP1 JUMPDEST DUP2 SLOAD DUP2 MSTORE SWAP1 PUSH1 0x1 ADD SWAP1 PUSH1 0x20 ADD DUP1 DUP4 GT PUSH2 0xCAC JUMPI DUP3 SWAP1 SUB PUSH1 0x1F AND DUP3 ADD SWAP2 JUMPDEST POP POP POP POP POP DUP2 MSTORE PUSH1 0x20 ADD PUSH1 0x3 DUP3 ADD DUP1 SLOAD PUSH2 0xCE2 SWAP1 PUSH2 0x239F JUMP JUMPDEST DUP1 PUSH1 0x1F ADD PUSH1 0x20 DUP1 SWAP2 DIV MUL PUSH1 0x20 ADD PUSH1 0x40 MLOAD SWAP1 DUP2 ADD PUSH1 0x40 MSTORE DUP1 SWAP3 SWAP2 SWAP1 DUP2 DUP2 MSTORE PUSH1 0x20 ADD DUP3 DUP1 SLOAD PUSH2 0xD0E SWAP1 PUSH2 0x239F JUMP JUMPDEST DUP1 ISZERO PUSH2 0xD5B JUMPI DUP1 PUSH1 0x1F LT PUSH2 0xD30 JUMPI PUSH2 0x100 DUP1 DUP4 SLOAD DIV MUL DUP4 MSTORE SWAP2 PUSH1 0x20 ADD SWAP2 PUSH2 0xD5B JUMP JUMPDEST DUP3 ADD SWAP2 SWAP1 PUSH1 0x0 MSTORE PUSH1 0x20 PUSH1 0x0 KECCAK256 SWAP1 JUMPDEST DUP2 SLOAD DUP2 MSTORE SWAP1 PUSH1 0x1 ADD SWAP1 PUSH1 0x20 ADD DUP1 DUP4 GT PUSH2 0xD3E JUMPI DUP3 SWAP1 SUB PUSH1 0x1F AND DUP3 ADD SWAP2 JUMPDEST POP POP POP POP POP DUP2 MSTORE PUSH1 0x20 ADD PUSH1 0x4 DUP3 ADD SLOAD DUP2 MSTORE PUSH1 0x20 ADD PUSH1 0x5 DUP3 ADD SLOAD DUP2 MSTORE PUSH1 0x20 ADD PUSH1 0x6 DUP3 ADD PUSH1 0x40 MLOAD DUP1 PUSH1 0x40 ADD PUSH1 0x40 MSTORE SWAP1 DUP2 PUSH1 0x0 DUP3 ADD SLOAD DUP2 MSTORE PUSH1 0x20 ADD PUSH1 0x1 DUP3 ADD DUP1 SLOAD PUSH2 0xDA2 SWAP1 PUSH2 0x239F JUMP JUMPDEST DUP1 PUSH1 0x1F ADD PUSH1 0x20 DUP1 SWAP2 DIV MUL PUSH1 0x20 ADD PUSH1 0x40 MLOAD SWAP1 DUP2 ADD PUSH1 0x40 MSTORE DUP1 SWAP3 SWAP2 SWAP1 DUP2 DUP2 MSTORE PUSH1 0x20 ADD DUP3 DUP1 SLOAD PUSH2 0xDCE SWAP1 PUSH2 0x239F JUMP JUMPDEST DUP1 ISZERO PUSH2 0xE1B JUMPI DUP1 PUSH1 0x1F LT PUSH2 0xDF0 JUMPI PUSH2 0x100 DUP1 DUP4 SLOAD DIV MUL DUP4 MSTORE SWAP2 PUSH1 0x20 ADD SWAP2 PUSH2 0xE1B JUMP JUMPDEST DUP3 ADD SWAP2 SWAP1 PUSH1 0x0 MSTORE PUSH1 0x20 PUSH1 0x0 KECCAK256 SWAP1 JUMPDEST DUP2 SLOAD DUP2 MSTORE SWAP1 PUSH1 0x1 ADD SWAP1 PUSH1 0x20 ADD DUP1 DUP4 GT PUSH2 0xDFE JUMPI DUP3 SWAP1 SUB PUSH1 0x1F AND DUP3 ADD SWAP2 JUMPDEST POP POP POP POP POP DUP2 MSTORE POP POP DUP2 MSTORE POP POP SWAP1 DUP1 PUSH1 0xA ADD PUSH1 0x40 MLOAD DUP1 PUSH1 0x40 ADD PUSH1 0x40 MSTORE SWAP1 DUP2 PUSH1 0x0 DUP3 ADD SLOAD DUP2 MSTORE PUSH1 0x20 ADD PUSH1 0x1 DUP3 ADD DUP1 SLOAD PUSH2 0xE52 SWAP1 PUSH2 0x239F JUMP JUMPDEST DUP1 PUSH1 0x1F ADD PUSH1 0x20 DUP1 SWAP2 DIV MUL PUSH1 0x20 ADD PUSH1 0x40 MLOAD SWAP1 DUP2 ADD PUSH1 0x40 MSTORE DUP1 SWAP3 SWAP2 SWAP1 DUP2 DUP2 MSTORE PUSH1 0x20 ADD DUP3 DUP1 SLOAD PUSH2 0xE7E SWAP1 PUSH2 0x239F JUMP JUMPDEST DUP1 ISZERO PUSH2 0xECB JUMPI DUP1 PUSH1 0x1F LT PUSH2 0xEA0 JUMPI PUSH2 0x100 DUP1 DUP4 SLOAD DIV MUL DUP4 MSTORE SWAP2 PUSH1 0x20 ADD SWAP2 PUSH2 0xECB JUMP JUMPDEST DUP3 ADD SWAP2 SWAP1 PUSH1 0x0 MSTORE PUSH1 0x20 PUSH1 0x0 KECCAK256 SWAP1 JUMPDEST DUP2 SLOAD DUP2 MSTORE SWAP1 PUSH1 0x1 ADD SWAP1 PUSH1 0x20 ADD DUP1 DUP4 GT PUSH2 0xEAE JUMPI DUP3 SWAP1 SUB PUSH1 0x1F AND DUP3 ADD SWAP2 JUMPDEST POP POP POP POP POP DUP2 MSTORE POP POP SWAP1 DUP1 PUSH1 0xC ADD PUSH1 0x40 MLOAD DUP1 PUSH1 0x40 ADD PUSH1 0x40 MSTORE SWAP1 DUP2 PUSH1 0x0 DUP3 ADD SLOAD DUP2 MSTORE PUSH1 0x20 ADD PUSH1 0x1 DUP3 ADD DUP1 SLOAD PUSH2 0xEFE SWAP1 PUSH2 0x239F JUMP JUMPDEST DUP1 PUSH1 0x1F ADD PUSH1 0x20 DUP1 SWAP2 DIV MUL PUSH1 0x20 ADD PUSH1 0x40 MLOAD SWAP1 DUP2 ADD PUSH1 0x40 MSTORE DUP1 SWAP3 SWAP2 SWAP1 DUP2 DUP2 MSTORE PUSH1 0x20 ADD DUP3 DUP1 SLOAD PUSH2 0xF2A SWAP1 PUSH2 0x239F JUMP JUMPDEST DUP1 ISZERO PUSH2 0xF77 JUMPI DUP1 PUSH1 0x1F LT PUSH2 0xF4C JUMPI PUSH2 0x100 DUP1 DUP4 SLOAD DIV MUL DUP4 MSTORE SWAP2 PUSH1 0x20 ADD SWAP2 PUSH2 0xF77 JUMP JUMPDEST DUP3 ADD SWAP2 SWAP1 PUSH1 0x0 MSTORE PUSH1 0x20 PUSH1 0x0 KECCAK256 SWAP1 JUMPDEST DUP2 SLOAD DUP2 MSTORE SWAP1 PUSH1 0x1 ADD SWAP1 PUSH1 0x20 ADD DUP1 DUP4 GT PUSH2 0xF5A JUMPI DUP3 SWAP1 SUB PUSH1 0x1F AND DUP3 ADD SWAP2 JUMPDEST POP POP POP POP POP DUP2 MSTORE POP POP SWAP1 POP DUP6 JUMP JUMPDEST PUSH2 0xF8D PUSH2 0x196B JUMP JUMPDEST PUSH1 0x4 DUP3 DUP2 SLOAD DUP2 LT PUSH2 0xFA1 JUMPI PUSH2 0xFA0 PUSH2 0x24A9 JUMP JUMPDEST JUMPDEST SWAP1 PUSH1 0x0 MSTORE PUSH1 0x20 PUSH1 0x0 KECCAK256 SWAP1 PUSH1 0x2 MUL ADD PUSH1 0x40 MLOAD DUP1 PUSH1 0x40 ADD PUSH1 0x40 MSTORE SWAP1 DUP2 PUSH1 0x0 DUP3 ADD SLOAD DUP2 MSTORE PUSH1 0x20 ADD PUSH1 0x1 DUP3 ADD DUP1 SLOAD PUSH2 0xFD4 SWAP1 PUSH2 0x239F JUMP JUMPDEST DUP1 PUSH1 0x1F ADD PUSH1 0x20 DUP1 SWAP2 DIV MUL PUSH1 0x20 ADD PUSH1 0x40 MLOAD SWAP1 DUP2 ADD PUSH1 0x40 MSTORE DUP1 SWAP3 SWAP2 SWAP1 DUP2 DUP2 MSTORE PUSH1 0x20 ADD DUP3 DUP1 SLOAD PUSH2 0x1000 SWAP1 PUSH2 0x239F JUMP JUMPDEST DUP1 ISZERO PUSH2 0x104D JUMPI DUP1 PUSH1 0x1F LT PUSH2 0x1022 JUMPI PUSH2 0x100 DUP1 DUP4 SLOAD DIV MUL DUP4 MSTORE SWAP2 PUSH1 0x20 ADD SWAP2 PUSH2 0x104D JUMP JUMPDEST DUP3 ADD SWAP2 SWAP1 PUSH1 0x0 MSTORE PUSH1 0x20 PUSH1 0x0 KECCAK256 SWAP1 JUMPDEST DUP2 SLOAD DUP2 MSTORE SWAP1 PUSH1 0x1 ADD SWAP1 PUSH1 0x20 ADD DUP1 DUP4 GT PUSH2 0x1030 JUMPI DUP3 SWAP1 SUB PUSH1 0x1F AND DUP3 ADD SWAP2 JUMPDEST POP POP POP POP POP DUP2 MSTORE POP POP SWAP1 POP SWAP2 SWAP1 POP JUMP JUMPDEST PUSH1 0x2 PUSH1 0x40 MLOAD DUP1 PUSH1 0xA0 ADD PUSH1 0x40 MSTORE DUP1 PUSH1 0x3 PUSH1 0x0 DUP2 SLOAD DUP1 SWAP3 SWAP2 SWAP1 PUSH2 0x107D SWAP1 PUSH2 0x2402 JUMP JUMPDEST SWAP2 SWAP1 POP SSTORE DUP2 MSTORE PUSH1 0x20 ADD DUP7 DUP2 MSTORE PUSH1 0x20 ADD PUSH1 0x0 DUP7 DUP2 SLOAD DUP2 LT PUSH2 0x10A0 JUMPI PUSH2 0x109F PUSH2 0x24A9 JUMP JUMPDEST JUMPDEST SWAP1 PUSH1 0x0 MSTORE PUSH1 0x20 PUSH1 0x0 KECCAK256 SWAP1 PUSH1 0x8 MUL ADD PUSH1 0x40 MLOAD DUP1 PUSH1 0xE0 ADD PUSH1 0x40 MSTORE SWAP1 DUP2 PUSH1 0x0 DUP3 ADD SLOAD DUP2 MSTORE PUSH1 0x20 ADD PUSH1 0x1 DUP3 ADD SLOAD DUP2 MSTORE PUSH1 0x20 ADD PUSH1 0x2 DUP3 ADD DUP1 SLOAD PUSH2 0x10DD SWAP1 PUSH2 0x239F JUMP JUMPDEST DUP1 PUSH1 0x1F ADD PUSH1 0x20 DUP1 SWAP2 DIV MUL PUSH1 0x20 ADD PUSH1 0x40 MLOAD SWAP1 DUP2 ADD PUSH1 0x40 MSTORE DUP1 SWAP3 SWAP2 SWAP1 DUP2 DUP2 MSTORE PUSH1 0x20 ADD DUP3 DUP1 SLOAD PUSH2 0x1109 SWAP1 PUSH2 0x239F JUMP JUMPDEST DUP1 ISZERO PUSH2 0x1156 JUMPI DUP1 PUSH1 0x1F LT PUSH2 0x112B JUMPI PUSH2 0x100 DUP1 DUP4 SLOAD DIV MUL DUP4 MSTORE SWAP2 PUSH1 0x20 ADD SWAP2 PUSH2 0x1156 JUMP JUMPDEST DUP3 ADD SWAP2 SWAP1 PUSH1 0x0 MSTORE PUSH1 0x20 PUSH1 0x0 KECCAK256 SWAP1 JUMPDEST DUP2 SLOAD DUP2 MSTORE SWAP1 PUSH1 0x1 ADD SWAP1 PUSH1 0x20 ADD DUP1 DUP4 GT PUSH2 0x1139 JUMPI DUP3 SWAP1 SUB PUSH1 0x1F AND DUP3 ADD SWAP2 JUMPDEST POP POP POP POP POP DUP2 MSTORE PUSH1 0x20 ADD PUSH1 0x3 DUP3 ADD DUP1 SLOAD PUSH2 0x116F SWAP1 PUSH2 0x239F JUMP JUMPDEST DUP1 PUSH1 0x1F ADD PUSH1 0x20 DUP1 SWAP2 DIV MUL PUSH1 0x20 ADD PUSH1 0x40 MLOAD SWAP1 DUP2 ADD PUSH1 0x40 MSTORE DUP1 SWAP3 SWAP2 SWAP1 DUP2 DUP2 MSTORE PUSH1 0x20 ADD DUP3 DUP1 SLOAD PUSH2 0x119B SWAP1 PUSH2 0x239F JUMP JUMPDEST DUP1 ISZERO PUSH2 0x11E8 JUMPI DUP1 PUSH1 0x1F LT PUSH2 0x11BD JUMPI PUSH2 0x100 DUP1 DUP4 SLOAD DIV MUL DUP4 MSTORE SWAP2 PUSH1 0x20 ADD SWAP2 PUSH2 0x11E8 JUMP JUMPDEST DUP3 ADD SWAP2 SWAP1 PUSH1 0x0 MSTORE PUSH1 0x20 PUSH1 0x0 KECCAK256 SWAP1 JUMPDEST DUP2 SLOAD DUP2 MSTORE SWAP1 PUSH1 0x1 ADD SWAP1 PUSH1 0x20 ADD DUP1 DUP4 GT PUSH2 0x11CB JUMPI DUP3 SWAP1 SUB PUSH1 0x1F AND DUP3 ADD SWAP2 JUMPDEST POP POP POP POP POP DUP2 MSTORE PUSH1 0x20 ADD PUSH1 0x4 DUP3 ADD SLOAD DUP2 MSTORE PUSH1 0x20 ADD PUSH1 0x5 DUP3 ADD SLOAD DUP2 MSTORE PUSH1 0x20 ADD PUSH1 0x6 DUP3 ADD PUSH1 0x40 MLOAD DUP1 PUSH1 0x40 ADD PUSH1 0x40 MSTORE SWAP1 DUP2 PUSH1 0x0 DUP3 ADD SLOAD DUP2 MSTORE PUSH1 0x20 ADD PUSH1 0x1 DUP3 ADD DUP1 SLOAD PUSH2 0x122F SWAP1 PUSH2 0x239F JUMP JUMPDEST DUP1 PUSH1 0x1F ADD PUSH1 0x20 DUP1 SWAP2 DIV MUL PUSH1 0x20 ADD PUSH1 0x40 MLOAD SWAP1 DUP2 ADD PUSH1 0x40 MSTORE DUP1 SWAP3 SWAP2 SWAP1 DUP2 DUP2 MSTORE PUSH1 0x20 ADD DUP3 DUP1 SLOAD PUSH2 0x125B SWAP1 PUSH2 0x239F JUMP JUMPDEST DUP1 ISZERO PUSH2 0x12A8 JUMPI DUP1 PUSH1 0x1F LT PUSH2 0x127D JUMPI PUSH2 0x100 DUP1 DUP4 SLOAD DIV MUL DUP4 MSTORE SWAP2 PUSH1 0x20 ADD SWAP2 PUSH2 0x12A8 JUMP JUMPDEST DUP3 ADD SWAP2 SWAP1 PUSH1 0x0 MSTORE PUSH1 0x20 PUSH1 0x0 KECCAK256 SWAP1 JUMPDEST DUP2 SLOAD DUP2 MSTORE SWAP1 PUSH1 0x1 ADD SWAP1 PUSH1 0x20 ADD DUP1 DUP4 GT PUSH2 0x128B JUMPI DUP3 SWAP1 SUB PUSH1 0x1F AND DUP3 ADD SWAP2 JUMPDEST POP POP POP POP POP DUP2 MSTORE POP POP DUP2 MSTORE POP POP DUP2 MSTORE PUSH1 0x20 ADD PUSH1 0x4 DUP6 DUP2 SLOAD DUP2 LT PUSH2 0x12CE JUMPI PUSH2 0x12CD PUSH2 0x24A9 JUMP JUMPDEST JUMPDEST SWAP1 PUSH1 0x0 MSTORE PUSH1 0x20 PUSH1 0x0 KECCAK256 SWAP1 PUSH1 0x2 MUL ADD PUSH1 0x40 MLOAD DUP1 PUSH1 0x40 ADD PUSH1 0x40 MSTORE SWAP1 DUP2 PUSH1 0x0 DUP3 ADD SLOAD DUP2 MSTORE PUSH1 0x20 ADD PUSH1 0x1 DUP3 ADD DUP1 SLOAD PUSH2 0x1301 SWAP1 PUSH2 0x239F JUMP JUMPDEST DUP1 PUSH1 0x1F ADD PUSH1 0x20 DUP1 SWAP2 DIV MUL PUSH1 0x20 ADD PUSH1 0x40 MLOAD SWAP1 DUP2 ADD PUSH1 0x40 MSTORE DUP1 SWAP3 SWAP2 SWAP1 DUP2 DUP2 MSTORE PUSH1 0x20 ADD DUP3 DUP1 SLOAD PUSH2 0x132D SWAP1 PUSH2 0x239F JUMP JUMPDEST DUP1 ISZERO PUSH2 0x137A JUMPI DUP1 PUSH1 0x1F LT PUSH2 0x134F JUMPI PUSH2 0x100 DUP1 DUP4 SLOAD DIV MUL DUP4 MSTORE SWAP2 PUSH1 0x20 ADD SWAP2 PUSH2 0x137A JUMP JUMPDEST DUP3 ADD SWAP2 SWAP1 PUSH1 0x0 MSTORE PUSH1 0x20 PUSH1 0x0 KECCAK256 SWAP1 JUMPDEST DUP2 SLOAD DUP2 MSTORE SWAP1 PUSH1 0x1 ADD SWAP1 PUSH1 0x20 ADD DUP1 DUP4 GT PUSH2 0x135D JUMPI DUP3 SWAP1 SUB PUSH1 0x1F AND DUP3 ADD SWAP2 JUMPDEST POP POP POP POP POP DUP2 MSTORE POP POP DUP2 MSTORE PUSH1 0x20 ADD PUSH1 0x4 DUP5 DUP2 SLOAD DUP2 LT PUSH2 0x139C JUMPI PUSH2 0x139B PUSH2 0x24A9 JUMP JUMPDEST JUMPDEST SWAP1 PUSH1 0x0 MSTORE PUSH1 0x20 PUSH1 0x0 KECCAK256 SWAP1 PUSH1 0x2 MUL ADD PUSH1 0x40 MLOAD DUP1 PUSH1 0x40 ADD PUSH1 0x40 MSTORE SWAP1 DUP2 PUSH1 0x0 DUP3 ADD SLOAD DUP2 MSTORE PUSH1 0x20 ADD PUSH1 0x1 DUP3 ADD DUP1 SLOAD PUSH2 0x13CF SWAP1 PUSH2 0x239F JUMP JUMPDEST DUP1 PUSH1 0x1F ADD PUSH1 0x20 DUP1 SWAP2 DIV MUL PUSH1 0x20 ADD PUSH1 0x40 MLOAD SWAP1 DUP2 ADD PUSH1 0x40 MSTORE DUP1 SWAP3 SWAP2 SWAP1 DUP2 DUP2 MSTORE PUSH1 0x20 ADD DUP3 DUP1 SLOAD PUSH2 0x13FB SWAP1 PUSH2 0x239F JUMP JUMPDEST DUP1 ISZERO PUSH2 0x1448 JUMPI DUP1 PUSH1 0x1F LT PUSH2 0x141D JUMPI PUSH2 0x100 DUP1 DUP4 SLOAD DIV MUL DUP4 MSTORE SWAP2 PUSH1 0x20 ADD SWAP2 PUSH2 0x1448 JUMP JUMPDEST DUP3 ADD SWAP2 SWAP1 PUSH1 0x0 MSTORE PUSH1 0x20 PUSH1 0x0 KECCAK256 SWAP1 JUMPDEST DUP2 SLOAD DUP2 MSTORE SWAP1 PUSH1 0x1 ADD SWAP1 PUSH1 0x20 ADD DUP1 DUP4 GT PUSH2 0x142B JUMPI DUP3 SWAP1 SUB PUSH1 0x1F AND DUP3 ADD SWAP2 JUMPDEST POP POP POP POP POP DUP2 MSTORE POP POP DUP2 MSTORE POP SWAP1 DUP1 PUSH1 0x1 DUP2 SLOAD ADD DUP1 DUP3 SSTORE DUP1 SWAP2 POP POP PUSH1 0x1 SWAP1 SUB SWAP1 PUSH1 0x0 MSTORE PUSH1 0x20 PUSH1 0x0 KECCAK256 SWAP1 PUSH1 0xE MUL ADD PUSH1 0x0 SWAP1 SWAP2 SWAP1 SWAP2 SWAP1 SWAP2 POP PUSH1 0x0 DUP3 ADD MLOAD DUP2 PUSH1 0x0 ADD SSTORE PUSH1 0x20 DUP3 ADD MLOAD DUP2 PUSH1 0x1 ADD SSTORE PUSH1 0x40 DUP3 ADD MLOAD DUP2 PUSH1 0x2 ADD PUSH1 0x0 DUP3 ADD MLOAD DUP2 PUSH1 0x0 ADD SSTORE PUSH1 0x20 DUP3 ADD MLOAD DUP2 PUSH1 0x1 ADD SSTORE PUSH1 0x40 DUP3 ADD MLOAD DUP2 PUSH1 0x2 ADD SWAP1 DUP1 MLOAD SWAP1 PUSH1 0x20 ADD SWAP1 PUSH2 0x14CA SWAP3 SWAP2 SWAP1 PUSH2 0x1861 JUMP JUMPDEST POP PUSH1 0x60 DUP3 ADD MLOAD DUP2 PUSH1 0x3 ADD SWAP1 DUP1 MLOAD SWAP1 PUSH1 0x20 ADD SWAP1 PUSH2 0x14E7 SWAP3 SWAP2 SWAP1 PUSH2 0x1861 JUMP JUMPDEST POP PUSH1 0x80 DUP3 ADD MLOAD DUP2 PUSH1 0x4 ADD SSTORE PUSH1 0xA0 DUP3 ADD MLOAD DUP2 PUSH1 0x5 ADD SSTORE PUSH1 0xC0 DUP3 ADD MLOAD DUP2 PUSH1 0x6 ADD PUSH1 0x0 DUP3 ADD MLOAD DUP2 PUSH1 0x0 ADD SSTORE PUSH1 0x20 DUP3 ADD MLOAD DUP2 PUSH1 0x1 ADD SWAP1 DUP1 MLOAD SWAP1 PUSH1 0x20 ADD SWAP1 PUSH2 0x152B SWAP3 SWAP2 SWAP1 PUSH2 0x1861 JUMP JUMPDEST POP POP POP POP POP PUSH1 0x60 DUP3 ADD MLOAD DUP2 PUSH1 0xA ADD PUSH1 0x0 DUP3 ADD MLOAD DUP2 PUSH1 0x0 ADD SSTORE PUSH1 0x20 DUP3 ADD MLOAD DUP2 PUSH1 0x1 ADD SWAP1 DUP1 MLOAD SWAP1 PUSH1 0x20 ADD SWAP1 PUSH2 0x155F SWAP3 SWAP2 SWAP1 PUSH2 0x1861 JUMP JUMPDEST POP POP POP PUSH1 0x80 DUP3 ADD MLOAD DUP2 PUSH1 0xC ADD PUSH1 0x0 DUP3 ADD MLOAD DUP2 PUSH1 0x0 ADD SSTORE PUSH1 0x20 DUP3 ADD MLOAD DUP2 PUSH1 0x1 ADD SWAP1 DUP1 MLOAD SWAP1 PUSH1 0x20 ADD SWAP1 PUSH2 0x1591 SWAP3 SWAP2 SWAP1 PUSH2 0x1861 JUMP JUMPDEST POP POP POP POP POP POP POP POP POP JUMP JUMPDEST PUSH1 0x4 PUSH1 0x40 MLOAD DUP1 PUSH1 0x40 ADD PUSH1 0x40 MSTORE DUP1 PUSH1 0x5 PUSH1 0x0 DUP2 SLOAD DUP1 SWAP3 SWAP2 SWAP1 PUSH2 0x15BC SWAP1 PUSH2 0x2402 JUMP JUMPDEST SWAP2 SWAP1 POP SSTORE DUP2 MSTORE PUSH1 0x20 ADD DUP4 DUP2 MSTORE POP SWAP1 DUP1 PUSH1 0x1 DUP2 SLOAD ADD DUP1 DUP3 SSTORE DUP1 SWAP2 POP POP PUSH1 0x1 SWAP1 SUB SWAP1 PUSH1 0x0 MSTORE PUSH1 0x20 PUSH1 0x0 KECCAK256 SWAP1 PUSH1 0x2 MUL ADD PUSH1 0x0 SWAP1 SWAP2 SWAP1 SWAP2 SWAP1 SWAP2 POP PUSH1 0x0 DUP3 ADD MLOAD DUP2 PUSH1 0x0 ADD SSTORE PUSH1 0x20 DUP3 ADD MLOAD DUP2 PUSH1 0x1 ADD SWAP1 DUP1 MLOAD SWAP1 PUSH1 0x20 ADD SWAP1 PUSH2 0x1618 SWAP3 SWAP2 SWAP1 PUSH2 0x1861 JUMP JUMPDEST POP POP POP POP JUMP JUMPDEST PUSH1 0x4 DUP2 DUP2 SLOAD DUP2 LT PUSH2 0x162E JUMPI PUSH1 0x0 DUP1 REVERT JUMPDEST SWAP1 PUSH1 0x0 MSTORE PUSH1 0x20 PUSH1 0x0 KECCAK256 SWAP1 PUSH1 0x2 MUL ADD PUSH1 0x0 SWAP2 POP SWAP1 POP DUP1 PUSH1 0x0 ADD SLOAD SWAP1 DUP1 PUSH1 0x1 ADD DUP1 SLOAD PUSH2 0x1657 SWAP1 PUSH2 0x239F JUMP JUMPDEST DUP1 PUSH1 0x1F ADD PUSH1 0x20 DUP1 SWAP2 DIV MUL PUSH1 0x20 ADD PUSH1 0x40 MLOAD SWAP1 DUP2 ADD PUSH1 0x40 MSTORE DUP1 SWAP3 SWAP2 SWAP1 DUP2 DUP2 MSTORE PUSH1 0x20 ADD DUP3 DUP1 SLOAD PUSH2 0x1683 SWAP1 PUSH2 0x239F JUMP JUMPDEST DUP1 ISZERO PUSH2 0x16D0 JUMPI DUP1 PUSH1 0x1F LT PUSH2 0x16A5 JUMPI PUSH2 0x100 DUP1 DUP4 SLOAD DIV MUL DUP4 MSTORE SWAP2 PUSH1 0x20 ADD SWAP2 PUSH2 0x16D0 JUMP JUMPDEST DUP3 ADD SWAP2 SWAP1 PUSH1 0x0 MSTORE PUSH1 0x20 PUSH1 0x0 KECCAK256 SWAP1 JUMPDEST DUP2 SLOAD DUP2 MSTORE SWAP1 PUSH1 0x1 ADD SWAP1 PUSH1 0x20 ADD DUP1 DUP4 GT PUSH2 0x16B3 JUMPI DUP3 SWAP1 SUB PUSH1 0x1F AND DUP3 ADD SWAP2 JUMPDEST POP POP POP POP POP SWAP1 POP DUP3 JUMP JUMPDEST PUSH1 0x2 PUSH1 0x40 MLOAD DUP1 PUSH1 0xA0 ADD PUSH1 0x40 MSTORE DUP1 PUSH1 0x3 PUSH1 0x0 DUP2 SLOAD DUP1 SWAP3 SWAP2 SWAP1 PUSH2 0x16FA SWAP1 PUSH2 0x2402 JUMP JUMPDEST SWAP2 SWAP1 POP SSTORE DUP2 MSTORE PUSH1 0x20 ADD DUP7 DUP2 MSTORE PUSH1 0x20 ADD DUP6 DUP2 MSTORE PUSH1 0x20 ADD DUP5 DUP2 MSTORE PUSH1 0x20 ADD DUP4 DUP2 MSTORE POP SWAP1 DUP1 PUSH1 0x1 DUP2 SLOAD ADD DUP1 DUP3 SSTORE DUP1 SWAP2 POP POP PUSH1 0x1 SWAP1 SUB SWAP1 PUSH1 0x0 MSTORE PUSH1 0x20 PUSH1 0x0 KECCAK256 SWAP1 PUSH1 0xE MUL ADD PUSH1 0x0 SWAP1 SWAP2 SWAP1 SWAP2 SWAP1 SWAP2 POP PUSH1 0x0 DUP3 ADD MLOAD DUP2 PUSH1 0x0 ADD SSTORE PUSH1 0x20 DUP3 ADD MLOAD DUP2 PUSH1 0x1 ADD SSTORE PUSH1 0x40 DUP3 ADD MLOAD DUP2 PUSH1 0x2 ADD PUSH1 0x0 DUP3 ADD MLOAD DUP2 PUSH1 0x0 ADD SSTORE PUSH1 0x20 DUP3 ADD MLOAD DUP2 PUSH1 0x1 ADD SSTORE PUSH1 0x40 DUP3 ADD MLOAD DUP2 PUSH1 0x2 ADD SWAP1 DUP1 MLOAD SWAP1 PUSH1 0x20 ADD SWAP1 PUSH2 0x178F SWAP3 SWAP2 SWAP1 PUSH2 0x1861 JUMP JUMPDEST POP PUSH1 0x60 DUP3 ADD MLOAD DUP2 PUSH1 0x3 ADD SWAP1 DUP1 MLOAD SWAP1 PUSH1 0x20 ADD SWAP1 PUSH2 0x17AC SWAP3 SWAP2 SWAP1 PUSH2 0x1861 JUMP JUMPDEST POP PUSH1 0x80 DUP3 ADD MLOAD DUP2 PUSH1 0x4 ADD SSTORE PUSH1 0xA0 DUP3 ADD MLOAD DUP2 PUSH1 0x5 ADD SSTORE PUSH1 0xC0 DUP3 ADD MLOAD DUP2 PUSH1 0x6 ADD PUSH1 0x0 DUP3 ADD MLOAD DUP2 PUSH1 0x0 ADD SSTORE PUSH1 0x20 DUP3 ADD MLOAD DUP2 PUSH1 0x1 ADD SWAP1 DUP1 MLOAD SWAP1 PUSH1 0x20 ADD SWAP1 PUSH2 0x17F0 SWAP3 SWAP2 SWAP1 PUSH2 0x1861 JUMP JUMPDEST POP POP POP POP POP PUSH1 0x60 DUP3 ADD MLOAD DUP2 PUSH1 0xA ADD PUSH1 0x0 DUP3 ADD MLOAD DUP2 PUSH1 0x0 ADD SSTORE PUSH1 0x20 DUP3 ADD MLOAD DUP2 PUSH1 0x1 ADD SWAP1 DUP1 MLOAD SWAP1 PUSH1 0x20 ADD SWAP1 PUSH2 0x1824 SWAP3 SWAP2 SWAP1 PUSH2 0x1861 JUMP JUMPDEST POP POP POP PUSH1 0x80 DUP3 ADD MLOAD DUP2 PUSH1 0xC ADD PUSH1 0x0 DUP3 ADD MLOAD DUP2 PUSH1 0x0 ADD SSTORE PUSH1 0x20 DUP3 ADD MLOAD DUP2 PUSH1 0x1 ADD SWAP1 DUP1 MLOAD SWAP1 PUSH1 0x20 ADD SWAP1 PUSH2 0x1856 SWAP3 SWAP2 SWAP1 PUSH2 0x1861 JUMP JUMPDEST POP POP POP POP POP POP POP POP POP JUMP JUMPDEST DUP3 DUP1 SLOAD PUSH2 0x186D SWAP1 PUSH2 0x239F JUMP JUMPDEST SWAP1 PUSH1 0x0 MSTORE PUSH1 0x20 PUSH1 0x0 KECCAK256 SWAP1 PUSH1 0x1F ADD PUSH1 0x20 SWAP1 DIV DUP2 ADD SWAP3 DUP3 PUSH2 0x188F JUMPI PUSH1 0x0 DUP6 SSTORE PUSH2 0x18D6 JUMP JUMPDEST DUP3 PUSH1 0x1F LT PUSH2 0x18A8 JUMPI DUP1 MLOAD PUSH1 0xFF NOT AND DUP4 DUP1 ADD OR DUP6 SSTORE PUSH2 0x18D6 JUMP JUMPDEST DUP3 DUP1 ADD PUSH1 0x1 ADD DUP6 SSTORE DUP3 ISZERO PUSH2 0x18D6 JUMPI SWAP2 DUP3 ADD JUMPDEST DUP3 DUP2 GT ISZERO PUSH2 0x18D5 JUMPI DUP3 MLOAD DUP3 SSTORE SWAP2 PUSH1 0x20 ADD SWAP2 SWAP1 PUSH1 0x1 ADD SWAP1 PUSH2 0x18BA JUMP JUMPDEST JUMPDEST POP SWAP1 POP PUSH2 0x18E3 SWAP2 SWAP1 PUSH2 0x1985 JUMP JUMPDEST POP SWAP1 JUMP JUMPDEST PUSH1 0x40 MLOAD DUP1 PUSH1 0xA0 ADD PUSH1 0x40 MSTORE DUP1 PUSH1 0x0 DUP2 MSTORE PUSH1 0x20 ADD PUSH1 0x0 DUP2 MSTORE PUSH1 0x20 ADD PUSH2 0x1908 PUSH2 0x1928 JUMP JUMPDEST DUP2 MSTORE PUSH1 0x20 ADD PUSH2 0x1915 PUSH2 0x196B JUMP JUMPDEST DUP2 MSTORE PUSH1 0x20 ADD PUSH2 0x1922 PUSH2 0x196B JUMP JUMPDEST DUP2 MSTORE POP SWAP1 JUMP JUMPDEST PUSH1 0x40 MLOAD DUP1 PUSH1 0xE0 ADD PUSH1 0x40 MSTORE DUP1 PUSH1 0x0 DUP2 MSTORE PUSH1 0x20 ADD PUSH1 0x0 DUP2 MSTORE PUSH1 0x20 ADD PUSH1 0x60 DUP2 MSTORE PUSH1 0x20 ADD PUSH1 0x60 DUP2 MSTORE PUSH1 0x20 ADD PUSH1 0x0 DUP2 MSTORE PUSH1 0x20 ADD PUSH1 0x0 DUP2 MSTORE PUSH1 0x20 ADD PUSH2 0x1965 PUSH2 0x196B JUMP JUMPDEST DUP2 MSTORE POP SWAP1 JUMP JUMPDEST PUSH1 0x40 MLOAD DUP1 PUSH1 0x40 ADD PUSH1 0x40 MSTORE DUP1 PUSH1 0x0 DUP2 MSTORE PUSH1 0x20 ADD PUSH1 0x60 DUP2 MSTORE POP SWAP1 JUMP JUMPDEST JUMPDEST DUP1 DUP3 GT ISZERO PUSH2 0x199E JUMPI PUSH1 0x0 DUP2 PUSH1 0x0 SWAP1 SSTORE POP PUSH1 0x1 ADD PUSH2 0x1986 JUMP JUMPDEST POP SWAP1 JUMP JUMPDEST PUSH1 0x0 PUSH2 0x19B5 PUSH2 0x19B0 DUP5 PUSH2 0x22EB JUMP JUMPDEST PUSH2 0x22C6 JUMP JUMPDEST SWAP1 POP DUP3 DUP2 MSTORE PUSH1 0x20 DUP2 ADD DUP5 DUP5 DUP5 ADD GT ISZERO PUSH2 0x19D1 JUMPI PUSH2 0x19D0 PUSH2 0x2516 JUMP JUMPDEST JUMPDEST PUSH2 0x19DC DUP5 DUP3 DUP6 PUSH2 0x235D JUMP JUMPDEST POP SWAP4 SWAP3 POP POP POP JUMP JUMPDEST PUSH1 0x0 DUP2 CALLDATALOAD SWAP1 POP PUSH2 0x19F3 DUP2 PUSH2 0x2536 JUMP JUMPDEST SWAP3 SWAP2 POP POP JUMP JUMPDEST PUSH1 0x0 DUP3 PUSH1 0x1F DUP4 ADD SLT PUSH2 0x1A0E JUMPI PUSH2 0x1A0D PUSH2 0x2507 JUMP JUMPDEST JUMPDEST DUP2 CALLDATALOAD PUSH2 0x1A1E DUP5 DUP3 PUSH1 0x20 DUP7 ADD PUSH2 0x19A2 JUMP JUMPDEST SWAP2 POP POP SWAP3 SWAP2 POP POP JUMP JUMPDEST PUSH1 0x0 PUSH1 0x40 DUP3 DUP5 SUB SLT ISZERO PUSH2 0x1A3D JUMPI PUSH2 0x1A3C PUSH2 0x250C JUMP JUMPDEST JUMPDEST PUSH2 0x1A47 PUSH1 0x40 PUSH2 0x22C6 JUMP JUMPDEST SWAP1 POP PUSH1 0x0 PUSH2 0x1A57 DUP5 DUP3 DUP6 ADD PUSH2 0x1B9B JUMP JUMPDEST PUSH1 0x0 DUP4 ADD MSTORE POP PUSH1 0x20 DUP3 ADD CALLDATALOAD PUSH8 0xFFFFFFFFFFFFFFFF DUP2 GT ISZERO PUSH2 0x1A7B JUMPI PUSH2 0x1A7A PUSH2 0x2511 JUMP JUMPDEST JUMPDEST PUSH2 0x1A87 DUP5 DUP3 DUP6 ADD PUSH2 0x19F9 JUMP JUMPDEST PUSH1 0x20 DUP4 ADD MSTORE POP SWAP3 SWAP2 POP POP JUMP JUMPDEST PUSH1 0x0 PUSH1 0xE0 DUP3 DUP5 SUB SLT ISZERO PUSH2 0x1AA9 JUMPI PUSH2 0x1AA8 PUSH2 0x250C JUMP JUMPDEST JUMPDEST PUSH2 0x1AB3 PUSH1 0xE0 PUSH2 0x22C6 JUMP JUMPDEST SWAP1 POP PUSH1 0x0 PUSH2 0x1AC3 DUP5 DUP3 DUP6 ADD PUSH2 0x1B9B JUMP JUMPDEST PUSH1 0x0 DUP4 ADD MSTORE POP PUSH1 0x20 PUSH2 0x1AD7 DUP5 DUP3 DUP6 ADD PUSH2 0x19E4 JUMP JUMPDEST PUSH1 0x20 DUP4 ADD MSTORE POP PUSH1 0x40 DUP3 ADD CALLDATALOAD PUSH8 0xFFFFFFFFFFFFFFFF DUP2 GT ISZERO PUSH2 0x1AFB JUMPI PUSH2 0x1AFA PUSH2 0x2511 JUMP JUMPDEST JUMPDEST PUSH2 0x1B07 DUP5 DUP3 DUP6 ADD PUSH2 0x19F9 JUMP JUMPDEST PUSH1 0x40 DUP4 ADD MSTORE POP PUSH1 0x60 DUP3 ADD CALLDATALOAD PUSH8 0xFFFFFFFFFFFFFFFF DUP2 GT ISZERO PUSH2 0x1B2B JUMPI PUSH2 0x1B2A PUSH2 0x2511 JUMP JUMPDEST JUMPDEST PUSH2 0x1B37 DUP5 DUP3 DUP6 ADD PUSH2 0x19F9 JUMP JUMPDEST PUSH1 0x60 DUP4 ADD MSTORE POP PUSH1 0x80 PUSH2 0x1B4B DUP5 DUP3 DUP6 ADD PUSH2 0x1B9B JUMP JUMPDEST PUSH1 0x80 DUP4 ADD MSTORE POP PUSH1 0xA0 PUSH2 0x1B5F DUP5 DUP3 DUP6 ADD PUSH2 0x19E4 JUMP JUMPDEST PUSH1 0xA0 DUP4 ADD MSTORE POP PUSH1 0xC0 DUP3 ADD CALLDATALOAD PUSH8 0xFFFFFFFFFFFFFFFF DUP2 GT ISZERO PUSH2 0x1B83 JUMPI PUSH2 0x1B82 PUSH2 0x2511 JUMP JUMPDEST JUMPDEST PUSH2 0x1B8F DUP5 DUP3 DUP6 ADD PUSH2 0x1A27 JUMP JUMPDEST PUSH1 0xC0 DUP4 ADD MSTORE POP SWAP3 SWAP2 POP POP JUMP JUMPDEST PUSH1 0x0 DUP2 CALLDATALOAD SWAP1 POP PUSH2 0x1BAA DUP2 PUSH2 0x254D JUMP JUMPDEST SWAP3 SWAP2 POP POP JUMP JUMPDEST PUSH1 0x0 DUP1 PUSH1 0x0 DUP1 PUSH1 0x0 DUP1 PUSH1 0xC0 DUP8 DUP10 SUB SLT ISZERO PUSH2 0x1BCD JUMPI PUSH2 0x1BCC PUSH2 0x2520 JUMP JUMPDEST JUMPDEST PUSH1 0x0 PUSH2 0x1BDB DUP10 DUP3 DUP11 ADD PUSH2 0x19E4 JUMP JUMPDEST SWAP7 POP POP PUSH1 0x20 DUP8 ADD CALLDATALOAD PUSH8 0xFFFFFFFFFFFFFFFF DUP2 GT ISZERO PUSH2 0x1BFC JUMPI PUSH2 0x1BFB PUSH2 0x251B JUMP JUMPDEST JUMPDEST PUSH2 0x1C08 DUP10 DUP3 DUP11 ADD PUSH2 0x19F9 JUMP JUMPDEST SWAP6 POP POP PUSH1 0x40 DUP8 ADD CALLDATALOAD PUSH8 0xFFFFFFFFFFFFFFFF DUP2 GT ISZERO PUSH2 0x1C29 JUMPI PUSH2 0x1C28 PUSH2 0x251B JUMP JUMPDEST JUMPDEST PUSH2 0x1C35 DUP10 DUP3 DUP11 ADD PUSH2 0x19F9 JUMP JUMPDEST SWAP5 POP POP PUSH1 0x60 PUSH2 0x1C46 DUP10 DUP3 DUP11 ADD PUSH2 0x1B9B JUMP JUMPDEST SWAP4 POP POP PUSH1 0x80 PUSH2 0x1C57 DUP10 DUP3 DUP11 ADD PUSH2 0x19E4 JUMP JUMPDEST SWAP3 POP POP PUSH1 0xA0 DUP8 ADD CALLDATALOAD PUSH8 0xFFFFFFFFFFFFFFFF DUP2 GT ISZERO PUSH2 0x1C78 JUMPI PUSH2 0x1C77 PUSH2 0x251B JUMP JUMPDEST JUMPDEST PUSH2 0x1C84 DUP10 DUP3 DUP11 ADD PUSH2 0x1A27 JUMP JUMPDEST SWAP2 POP POP SWAP3 SWAP6 POP SWAP3 SWAP6 POP SWAP3 SWAP6 JUMP JUMPDEST PUSH1 0x0 PUSH1 0x20 DUP3 DUP5 SUB SLT ISZERO PUSH2 0x1CA7 JUMPI PUSH2 0x1CA6 PUSH2 0x2520 JUMP JUMPDEST JUMPDEST PUSH1 0x0 DUP3 ADD CALLDATALOAD PUSH8 0xFFFFFFFFFFFFFFFF DUP2 GT ISZERO PUSH2 0x1CC5 JUMPI PUSH2 0x1CC4 PUSH2 0x251B JUMP JUMPDEST JUMPDEST PUSH2 0x1CD1 DUP5 DUP3 DUP6 ADD PUSH2 0x19F9 JUMP JUMPDEST SWAP2 POP POP SWAP3 SWAP2 POP POP JUMP JUMPDEST PUSH1 0x0 PUSH1 0x20 DUP3 DUP5 SUB SLT ISZERO PUSH2 0x1CF0 JUMPI PUSH2 0x1CEF PUSH2 0x2520 JUMP JUMPDEST JUMPDEST PUSH1 0x0 PUSH2 0x1CFE DUP5 DUP3 DUP6 ADD PUSH2 0x1B9B JUMP JUMPDEST SWAP2 POP POP SWAP3 SWAP2 POP POP JUMP JUMPDEST PUSH1 0x0 DUP1 PUSH1 0x0 DUP1 PUSH1 0x80 DUP6 DUP8 SUB SLT ISZERO PUSH2 0x1D21 JUMPI PUSH2 0x1D20 PUSH2 0x2520 JUMP JUMPDEST JUMPDEST PUSH1 0x0 PUSH2 0x1D2F DUP8 DUP3 DUP9 ADD PUSH2 0x1B9B JUMP JUMPDEST SWAP5 POP POP PUSH1 0x20 DUP6 ADD CALLDATALOAD PUSH8 0xFFFFFFFFFFFFFFFF DUP2 GT ISZERO PUSH2 0x1D50 JUMPI PUSH2 0x1D4F PUSH2 0x251B JUMP JUMPDEST JUMPDEST PUSH2 0x1D5C DUP8 DUP3 DUP9 ADD PUSH2 0x1A93 JUMP JUMPDEST SWAP4 POP POP PUSH1 0x40 DUP6 ADD CALLDATALOAD PUSH8 0xFFFFFFFFFFFFFFFF DUP2 GT ISZERO PUSH2 0x1D7D JUMPI PUSH2 0x1D7C PUSH2 0x251B JUMP JUMPDEST JUMPDEST PUSH2 0x1D89 DUP8 DUP3 DUP9 ADD PUSH2 0x1A27 JUMP JUMPDEST SWAP3 POP POP PUSH1 0x60 DUP6 ADD CALLDATALOAD PUSH8 0xFFFFFFFFFFFFFFFF DUP2 GT ISZERO PUSH2 0x1DAA JUMPI PUSH2 0x1DA9 PUSH2 0x251B JUMP JUMPDEST JUMPDEST PUSH2 0x1DB6 DUP8 DUP3 DUP9 ADD PUSH2 0x1A27 JUMP JUMPDEST SWAP2 POP POP SWAP3 SWAP6 SWAP2 SWAP5 POP SWAP3 POP JUMP JUMPDEST PUSH1 0x0 DUP1 PUSH1 0x0 DUP1 PUSH1 0x80 DUP6 DUP8 SUB SLT ISZERO PUSH2 0x1DDC JUMPI PUSH2 0x1DDB PUSH2 0x2520 JUMP JUMPDEST JUMPDEST PUSH1 0x0 PUSH2 0x1DEA DUP8 DUP3 DUP9 ADD PUSH2 0x1B9B JUMP JUMPDEST SWAP5 POP POP PUSH1 0x20 PUSH2 0x1DFB DUP8 DUP3 DUP9 ADD PUSH2 0x1B9B JUMP JUMPDEST SWAP4 POP POP PUSH1 0x40 PUSH2 0x1E0C DUP8 DUP3 DUP9 ADD PUSH2 0x1B9B JUMP JUMPDEST SWAP3 POP POP PUSH1 0x60 PUSH2 0x1E1D DUP8 DUP3 DUP9 ADD PUSH2 0x1B9B JUMP JUMPDEST SWAP2 POP POP SWAP3 SWAP6 SWAP2 SWAP5 POP SWAP3 POP JUMP JUMPDEST PUSH2 0x1E32 DUP2 PUSH2 0x2349 JUMP JUMPDEST DUP3 MSTORE POP POP JUMP JUMPDEST PUSH2 0x1E41 DUP2 PUSH2 0x2349 JUMP JUMPDEST DUP3 MSTORE POP POP JUMP JUMPDEST PUSH1 0x0 PUSH2 0x1E52 DUP3 PUSH2 0x231C JUMP JUMPDEST PUSH2 0x1E5C DUP2 DUP6 PUSH2 0x2327 JUMP JUMPDEST SWAP4 POP PUSH2 0x1E6C DUP2 DUP6 PUSH1 0x20 DUP7 ADD PUSH2 0x236C JUMP JUMPDEST PUSH2 0x1E75 DUP2 PUSH2 0x2525 JUMP JUMPDEST DUP5 ADD SWAP2 POP POP SWAP3 SWAP2 POP POP JUMP JUMPDEST PUSH1 0x0 PUSH2 0x1E8B DUP3 PUSH2 0x231C JUMP JUMPDEST PUSH2 0x1E95 DUP2 DUP6 PUSH2 0x2338 JUMP JUMPDEST SWAP4 POP PUSH2 0x1EA5 DUP2 DUP6 PUSH1 0x20 DUP7 ADD PUSH2 0x236C JUMP JUMPDEST PUSH2 0x1EAE DUP2 PUSH2 0x2525 JUMP JUMPDEST DUP5 ADD SWAP2 POP POP SWAP3 SWAP2 POP POP JUMP JUMPDEST PUSH1 0x0 PUSH1 0x40 DUP4 ADD PUSH1 0x0 DUP4 ADD MLOAD PUSH2 0x1ED1 PUSH1 0x0 DUP7 ADD DUP3 PUSH2 0x210B JUMP JUMPDEST POP PUSH1 0x20 DUP4 ADD MLOAD DUP5 DUP3 SUB PUSH1 0x20 DUP7 ADD MSTORE PUSH2 0x1EE9 DUP3 DUP3 PUSH2 0x1E47 JUMP JUMPDEST SWAP2 POP POP DUP1 SWAP2 POP POP SWAP3 SWAP2 POP POP JUMP JUMPDEST PUSH1 0x0 PUSH1 0x40 DUP4 ADD PUSH1 0x0 DUP4 ADD MLOAD PUSH2 0x1F0E PUSH1 0x0 DUP7 ADD DUP3 PUSH2 0x210B JUMP JUMPDEST POP PUSH1 0x20 DUP4 ADD MLOAD DUP5 DUP3 SUB PUSH1 0x20 DUP7 ADD MSTORE PUSH2 0x1F26 DUP3 DUP3 PUSH2 0x1E47 JUMP JUMPDEST SWAP2 POP POP DUP1 SWAP2 POP POP SWAP3 SWAP2 POP POP JUMP JUMPDEST PUSH1 0x0 PUSH1 0xE0 DUP4 ADD PUSH1 0x0 DUP4 ADD MLOAD PUSH2 0x1F4B PUSH1 0x0 DUP7 ADD DUP3 PUSH2 0x210B JUMP JUMPDEST POP PUSH1 0x20 DUP4 ADD MLOAD PUSH2 0x1F5E PUSH1 0x20 DUP7 ADD DUP3 PUSH2 0x1E29 JUMP JUMPDEST POP PUSH1 0x40 DUP4 ADD MLOAD DUP5 DUP3 SUB PUSH1 0x40 DUP7 ADD MSTORE PUSH2 0x1F76 DUP3 DUP3 PUSH2 0x1E47 JUMP JUMPDEST SWAP2 POP POP PUSH1 0x60 DUP4 ADD MLOAD DUP5 DUP3 SUB PUSH1 0x60 DUP7 ADD MSTORE PUSH2 0x1F90 DUP3 DUP3 PUSH2 0x1E47 JUMP JUMPDEST SWAP2 POP POP PUSH1 0x80 DUP4 ADD MLOAD PUSH2 0x1FA5 PUSH1 0x80 DUP7 ADD DUP3 PUSH2 0x210B JUMP JUMPDEST POP PUSH1 0xA0 DUP4 ADD MLOAD PUSH2 0x1FB8 PUSH1 0xA0 DUP7 ADD DUP3 PUSH2 0x1E29 JUMP JUMPDEST POP PUSH1 0xC0 DUP4 ADD MLOAD DUP5 DUP3 SUB PUSH1 0xC0 DUP7 ADD MSTORE PUSH2 0x1FD0 DUP3 DUP3 PUSH2 0x1EB9 JUMP JUMPDEST SWAP2 POP POP DUP1 SWAP2 POP POP SWAP3 SWAP2 POP POP JUMP JUMPDEST PUSH1 0x0 PUSH1 0xE0 DUP4 ADD PUSH1 0x0 DUP4 ADD MLOAD PUSH2 0x1FF5 PUSH1 0x0 DUP7 ADD DUP3 PUSH2 0x210B JUMP JUMPDEST POP PUSH1 0x20 DUP4 ADD MLOAD PUSH2 0x2008 PUSH1 0x20 DUP7 ADD DUP3 PUSH2 0x1E29 JUMP JUMPDEST POP PUSH1 0x40 DUP4 ADD MLOAD DUP5 DUP3 SUB PUSH1 0x40 DUP7 ADD MSTORE PUSH2 0x2020 DUP3 DUP3 PUSH2 0x1E47 JUMP JUMPDEST SWAP2 POP POP PUSH1 0x60 DUP4 ADD MLOAD DUP5 DUP3 SUB PUSH1 0x60 DUP7 ADD MSTORE PUSH2 0x203A DUP3 DUP3 PUSH2 0x1E47 JUMP JUMPDEST SWAP2 POP POP PUSH1 0x80 DUP4 ADD MLOAD PUSH2 0x204F PUSH1 0x80 DUP7 ADD DUP3 PUSH2 0x210B JUMP JUMPDEST POP PUSH1 0xA0 DUP4 ADD MLOAD PUSH2 0x2062 PUSH1 0xA0 DUP7 ADD DUP3 PUSH2 0x1E29 JUMP JUMPDEST POP PUSH1 0xC0 DUP4 ADD MLOAD DUP5 DUP3 SUB PUSH1 0xC0 DUP7 ADD MSTORE PUSH2 0x207A DUP3 DUP3 PUSH2 0x1EB9 JUMP JUMPDEST SWAP2 POP POP DUP1 SWAP2 POP POP SWAP3 SWAP2 POP POP JUMP JUMPDEST PUSH1 0x0 PUSH1 0xA0 DUP4 ADD PUSH1 0x0 DUP4 ADD MLOAD PUSH2 0x209F PUSH1 0x0 DUP7 ADD DUP3 PUSH2 0x210B JUMP JUMPDEST POP PUSH1 0x20 DUP4 ADD MLOAD PUSH2 0x20B2 PUSH1 0x20 DUP7 ADD DUP3 PUSH2 0x210B JUMP JUMPDEST POP PUSH1 0x40 DUP4 ADD MLOAD DUP5 DUP3 SUB PUSH1 0x40 DUP7 ADD MSTORE PUSH2 0x20CA DUP3 DUP3 PUSH2 0x1F33 JUMP JUMPDEST SWAP2 POP POP PUSH1 0x60 DUP4 ADD MLOAD DUP5 DUP3 SUB PUSH1 0x60 DUP7 ADD MSTORE PUSH2 0x20E4 DUP3 DUP3 PUSH2 0x1EB9 JUMP JUMPDEST SWAP2 POP POP PUSH1 0x80 DUP4 ADD MLOAD DUP5 DUP3 SUB PUSH1 0x80 DUP7 ADD MSTORE PUSH2 0x20FE DUP3 DUP3 PUSH2 0x1EB9 JUMP JUMPDEST SWAP2 POP POP DUP1 SWAP2 POP POP SWAP3 SWAP2 POP POP JUMP JUMPDEST PUSH2 0x2114 DUP2 PUSH2 0x2353 JUMP JUMPDEST DUP3 MSTORE POP POP JUMP JUMPDEST PUSH2 0x2123 DUP2 PUSH2 0x2353 JUMP JUMPDEST DUP3 MSTORE POP POP JUMP JUMPDEST PUSH1 0x0 PUSH1 0x20 DUP3 ADD SWAP1 POP DUP2 DUP2 SUB PUSH1 0x0 DUP4 ADD MSTORE PUSH2 0x2143 DUP2 DUP5 PUSH2 0x1EF6 JUMP JUMPDEST SWAP1 POP SWAP3 SWAP2 POP POP JUMP JUMPDEST PUSH1 0x0 PUSH1 0x20 DUP3 ADD SWAP1 POP DUP2 DUP2 SUB PUSH1 0x0 DUP4 ADD MSTORE PUSH2 0x2165 DUP2 DUP5 PUSH2 0x1FDD JUMP JUMPDEST SWAP1 POP SWAP3 SWAP2 POP POP JUMP JUMPDEST PUSH1 0x0 PUSH1 0x20 DUP3 ADD SWAP1 POP DUP2 DUP2 SUB PUSH1 0x0 DUP4 ADD MSTORE PUSH2 0x2187 DUP2 DUP5 PUSH2 0x2087 JUMP JUMPDEST SWAP1 POP SWAP3 SWAP2 POP POP JUMP JUMPDEST PUSH1 0x0 PUSH1 0x20 DUP3 ADD SWAP1 POP PUSH2 0x21A4 PUSH1 0x0 DUP4 ADD DUP5 PUSH2 0x211A JUMP JUMPDEST SWAP3 SWAP2 POP POP JUMP JUMPDEST PUSH1 0x0 PUSH1 0xE0 DUP3 ADD SWAP1 POP PUSH2 0x21BF PUSH1 0x0 DUP4 ADD DUP11 PUSH2 0x211A JUMP JUMPDEST PUSH2 0x21CC PUSH1 0x20 DUP4 ADD DUP10 PUSH2 0x1E38 JUMP JUMPDEST DUP2 DUP2 SUB PUSH1 0x40 DUP4 ADD MSTORE PUSH2 0x21DE DUP2 DUP9 PUSH2 0x1E80 JUMP JUMPDEST SWAP1 POP DUP2 DUP2 SUB PUSH1 0x60 DUP4 ADD MSTORE PUSH2 0x21F2 DUP2 DUP8 PUSH2 0x1E80 JUMP JUMPDEST SWAP1 POP PUSH2 0x2201 PUSH1 0x80 DUP4 ADD DUP7 PUSH2 0x211A JUMP JUMPDEST PUSH2 0x220E PUSH1 0xA0 DUP4 ADD DUP6 PUSH2 0x1E38 JUMP JUMPDEST DUP2 DUP2 SUB PUSH1 0xC0 DUP4 ADD MSTORE PUSH2 0x2220 DUP2 DUP5 PUSH2 0x1EF6 JUMP JUMPDEST SWAP1 POP SWAP9 SWAP8 POP POP POP POP POP POP POP POP JUMP JUMPDEST PUSH1 0x0 PUSH1 0x40 DUP3 ADD SWAP1 POP PUSH2 0x2243 PUSH1 0x0 DUP4 ADD DUP6 PUSH2 0x211A JUMP JUMPDEST DUP2 DUP2 SUB PUSH1 0x20 DUP4 ADD MSTORE PUSH2 0x2255 DUP2 DUP5 PUSH2 0x1E80 JUMP JUMPDEST SWAP1 POP SWAP4 SWAP3 POP POP POP JUMP JUMPDEST PUSH1 0x0 PUSH1 0xA0 DUP3 ADD SWAP1 POP PUSH2 0x2273 PUSH1 0x0 DUP4 ADD DUP9 PUSH2 0x211A JUMP JUMPDEST PUSH2 0x2280 PUSH1 0x20 DUP4 ADD DUP8 PUSH2 0x211A JUMP JUMPDEST DUP2 DUP2 SUB PUSH1 0x40 DUP4 ADD MSTORE PUSH2 0x2292 DUP2 DUP7 PUSH2 0x1FDD JUMP JUMPDEST SWAP1 POP DUP2 DUP2 SUB PUSH1 0x60 DUP4 ADD MSTORE PUSH2 0x22A6 DUP2 DUP6 PUSH2 0x1EF6 JUMP JUMPDEST SWAP1 POP DUP2 DUP2 SUB PUSH1 0x80 DUP4 ADD MSTORE PUSH2 0x22BA DUP2 DUP5 PUSH2 0x1EF6 JUMP JUMPDEST SWAP1 POP SWAP7 SWAP6 POP POP POP POP POP POP JUMP JUMPDEST PUSH1 0x0 PUSH2 0x22D0 PUSH2 0x22E1 JUMP JUMPDEST SWAP1 POP PUSH2 0x22DC DUP3 DUP3 PUSH2 0x23D1 JUMP JUMPDEST SWAP2 SWAP1 POP JUMP JUMPDEST PUSH1 0x0 PUSH1 0x40 MLOAD SWAP1 POP SWAP1 JUMP JUMPDEST PUSH1 0x0 PUSH8 0xFFFFFFFFFFFFFFFF DUP3 GT ISZERO PUSH2 0x2306 JUMPI PUSH2 0x2305 PUSH2 0x24D8 JUMP JUMPDEST JUMPDEST PUSH2 0x230F DUP3 PUSH2 0x2525 JUMP JUMPDEST SWAP1 POP PUSH1 0x20 DUP2 ADD SWAP1 POP SWAP2 SWAP1 POP JUMP JUMPDEST PUSH1 0x0 DUP2 MLOAD SWAP1 POP SWAP2 SWAP1 POP JUMP JUMPDEST PUSH1 0x0 DUP3 DUP3 MSTORE PUSH1 0x20 DUP3 ADD SWAP1 POP SWAP3 SWAP2 POP POP JUMP JUMPDEST PUSH1 0x0 DUP3 DUP3 MSTORE PUSH1 0x20 DUP3 ADD SWAP1 POP SWAP3 SWAP2 POP POP JUMP JUMPDEST PUSH1 0x0 DUP2 SWAP1 POP SWAP2 SWAP1 POP JUMP JUMPDEST PUSH1 0x0 DUP2 SWAP1 POP SWAP2 SWAP1 POP JUMP JUMPDEST DUP3 DUP2 DUP4 CALLDATACOPY PUSH1 0x0 DUP4 DUP4 ADD MSTORE POP POP POP JUMP JUMPDEST PUSH1 0x0 JUMPDEST DUP4 DUP2 LT ISZERO PUSH2 0x238A JUMPI DUP1 DUP3 ADD MLOAD DUP2 DUP5 ADD MSTORE PUSH1 0x20 DUP2 ADD SWAP1 POP PUSH2 0x236F JUMP JUMPDEST DUP4 DUP2 GT ISZERO PUSH2 0x2399 JUMPI PUSH1 0x0 DUP5 DUP5 ADD MSTORE JUMPDEST POP POP POP POP JUMP JUMPDEST PUSH1 0x0 PUSH1 0x2 DUP3 DIV SWAP1 POP PUSH1 0x1 DUP3 AND DUP1 PUSH2 0x23B7 JUMPI PUSH1 0x7F DUP3 AND SWAP2 POP JUMPDEST PUSH1 0x20 DUP3 LT DUP2 EQ ISZERO PUSH2 0x23CB JUMPI PUSH2 0x23CA PUSH2 0x247A JUMP JUMPDEST JUMPDEST POP SWAP2 SWAP1 POP JUMP JUMPDEST PUSH2 0x23DA DUP3 PUSH2 0x2525 JUMP JUMPDEST DUP2 ADD DUP2 DUP2 LT PUSH8 0xFFFFFFFFFFFFFFFF DUP3 GT OR ISZERO PUSH2 0x23F9 JUMPI PUSH2 0x23F8 PUSH2 0x24D8 JUMP JUMPDEST JUMPDEST DUP1 PUSH1 0x40 MSTORE POP POP POP JUMP JUMPDEST PUSH1 0x0 PUSH2 0x240D DUP3 PUSH2 0x2353 JUMP JUMPDEST SWAP2 POP PUSH32 0xFFFFFFFFFFFFFFFFFFFFFFFFFFFFFFFFFFFFFFFFFFFFFFFFFFFFFFFFFFFFFFFF DUP3 EQ ISZERO PUSH2 0x2440 JUMPI PUSH2 0x243F PUSH2 0x244B JUMP JUMPDEST JUMPDEST PUSH1 0x1 DUP3 ADD SWAP1 POP SWAP2 SWAP1 POP JUMP JUMPDEST PUSH32 0x4E487B7100000000000000000000000000000000000000000000000000000000 PUSH1 0x0 MSTORE PUSH1 0x11 PUSH1 0x4 MSTORE PUSH1 0x24 PUSH1 0x0 REVERT JUMPDEST PUSH32 0x4E487B7100000000000000000000000000000000000000000000000000000000 PUSH1 0x0 MSTORE PUSH1 0x22 PUSH1 0x4 MSTORE PUSH1 0x24 PUSH1 0x0 REVERT JUMPDEST PUSH32 0x4E487B7100000000000000000000000000000000000000000000000000000000 PUSH1 0x0 MSTORE PUSH1 0x32 PUSH1 0x4 MSTORE PUSH1 0x24 PUSH1 0x0 REVERT JUMPDEST PUSH32 0x4E487B7100000000000000000000000000000000000000000000000000000000 PUSH1 0x0 MSTORE PUSH1 0x41 PUSH1 0x4 MSTORE PUSH1 0x24 PUSH1 0x0 REVERT JUMPDEST PUSH1 0x0 DUP1 REVERT JUMPDEST PUSH1 0x0 DUP1 REVERT JUMPDEST PUSH1 0x0 DUP1 REVERT JUMPDEST PUSH1 0x0 DUP1 REVERT JUMPDEST PUSH1 0x0 DUP1 REVERT JUMPDEST PUSH1 0x0 DUP1 REVERT JUMPDEST PUSH1 0x0 PUSH1 0x1F NOT PUSH1 0x1F DUP4 ADD AND SWAP1 POP SWAP2 SWAP1 POP JUMP JUMPDEST PUSH2 0x253F DUP2 PUSH2 0x2349 JUMP JUMPDEST DUP2 EQ PUSH2 0x254A JUMPI PUSH1 0x0 DUP1 REVERT JUMPDEST POP JUMP JUMPDEST PUSH2 0x2556 DUP2 PUSH2 0x2353 JUMP JUMPDEST DUP2 EQ PUSH2 0x2561 JUMPI PUSH1 0x0 DUP1 REVERT JUMPDEST POP JUMP INVALID LOG2 PUSH5 0x6970667358 0x22 SLT KECCAK256 GT KECCAK256 0xC 0xCD MSTORE PUSH5 0xCAB5F0D7BF 0x2D CALLVALUE 0x1E 0xEC 0x1E 0xC0 0xB9 PUSH29 0x818E1F912558B0EADD9452966364736F6C634300080700330000000000 "
				},
				"gasEstimates": {
					"creation": {
						"codeDepositCost": "1925200",
						"executionCost": "2033",
						"totalCost": "1927233"
					},
					"external": {
						"clients(uint256)": "infinite",
						"comics(uint256)": "infinite",
						"createClient(string)": "infinite",
						"createComic(int256,string,string,uint256,int256,(uint256,string))": "infinite",
						"createPurchase(uint256,(uint256,int256,string,string,uint256,int256,(uint256,string)),(uint256,string),(uint256,string))": "infinite",
						"createPurchase(uint256,uint256,uint256,uint256)": "infinite",
						"getClient(uint256)": "infinite",
						"getComic(uint256)": "infinite",
						"getPurchase(uint256)": "infinite",
						"nextIdClients()": "2518",
						"nextIdPurchase()": "2452",
						"nextidComic()": "2540",
						"purchases(uint256)": "infinite"
					}
				},
				"methodIdentifiers": {
					"clients(uint256)": "f88af21d",
					"comics(uint256)": "7a80dc1d",
					"createClient(string)": "e88e9f0f",
					"createComic(int256,string,string,uint256,int256,(uint256,string))": "1d78c52c",
					"createPurchase(uint256,(uint256,int256,string,string,uint256,int256,(uint256,string)),(uint256,string),(uint256,string))": "fccd0046",
					"createPurchase(uint256,uint256,uint256,uint256)": "e32bf8e4",
					"getClient(uint256)": "d0068f80",
					"getComic(uint256)": "47ac33ee",
					"getPurchase(uint256)": "3742a9f7",
					"nextIdClients()": "5b02c922",
					"nextIdPurchase()": "2cb9d0e8",
					"nextidComic()": "6f3ffbb9",
					"purchases(uint256)": "8392fe31"
				}
			},
			"storageLayout": {
				"storage": [
					{
						"astId": 40,
						"contract": "contracts/purchaseContract.sol:purchaseContract",
						"label": "comics",
						"offset": 0,
						"slot": "0",
						"type": "t_array(t_struct(Comic)17_storage)dyn_storage"
					},
					{
						"astId": 42,
						"contract": "contracts/purchaseContract.sol:purchaseContract",
						"label": "nextidComic",
						"offset": 0,
						"slot": "1",
						"type": "t_uint256"
					},
					{
						"astId": 46,
						"contract": "contracts/purchaseContract.sol:purchaseContract",
						"label": "purchases",
						"offset": 0,
						"slot": "2",
						"type": "t_array(t_struct(Purchase)31_storage)dyn_storage"
					},
					{
						"astId": 48,
						"contract": "contracts/purchaseContract.sol:purchaseContract",
						"label": "nextIdPurchase",
						"offset": 0,
						"slot": "3",
						"type": "t_uint256"
					},
					{
						"astId": 52,
						"contract": "contracts/purchaseContract.sol:purchaseContract",
						"label": "clients",
						"offset": 0,
						"slot": "4",
						"type": "t_array(t_struct(Client)36_storage)dyn_storage"
					},
					{
						"astId": 54,
						"contract": "contracts/purchaseContract.sol:purchaseContract",
						"label": "nextIdClients",
						"offset": 0,
						"slot": "5",
						"type": "t_uint256"
					}
				],
				"types": {
					"t_array(t_struct(Client)36_storage)dyn_storage": {
						"base": "t_struct(Client)36_storage",
						"encoding": "dynamic_array",
						"label": "struct purchaseContract.Client[]",
						"numberOfBytes": "32"
					},
					"t_array(t_struct(Comic)17_storage)dyn_storage": {
						"base": "t_struct(Comic)17_storage",
						"encoding": "dynamic_array",
						"label": "struct purchaseContract.Comic[]",
						"numberOfBytes": "32"
					},
					"t_array(t_struct(Purchase)31_storage)dyn_storage": {
						"base": "t_struct(Purchase)31_storage",
						"encoding": "dynamic_array",
						"label": "struct purchaseContract.Purchase[]",
						"numberOfBytes": "32"
					},
					"t_int256": {
						"encoding": "inplace",
						"label": "int256",
						"numberOfBytes": "32"
					},
					"t_string_storage": {
						"encoding": "bytes",
						"label": "string",
						"numberOfBytes": "32"
					},
					"t_struct(Client)36_storage": {
						"encoding": "inplace",
						"label": "struct purchaseContract.Client",
						"members": [
							{
								"astId": 33,
								"contract": "contracts/purchaseContract.sol:purchaseContract",
								"label": "idclient",
								"offset": 0,
								"slot": "0",
								"type": "t_uint256"
							},
							{
								"astId": 35,
								"contract": "contracts/purchaseContract.sol:purchaseContract",
								"label": "name",
								"offset": 0,
								"slot": "1",
								"type": "t_string_storage"
							}
						],
						"numberOfBytes": "64"
					},
					"t_struct(Comic)17_storage": {
						"encoding": "inplace",
						"label": "struct purchaseContract.Comic",
						"members": [
							{
								"astId": 3,
								"contract": "contracts/purchaseContract.sol:purchaseContract",
								"label": "idcomic",
								"offset": 0,
								"slot": "0",
								"type": "t_uint256"
							},
							{
								"astId": 5,
								"contract": "contracts/purchaseContract.sol:purchaseContract",
								"label": "price",
								"offset": 0,
								"slot": "1",
								"type": "t_int256"
							},
							{
								"astId": 7,
								"contract": "contracts/purchaseContract.sol:purchaseContract",
								"label": "name_comic",
								"offset": 0,
								"slot": "2",
								"type": "t_string_storage"
							},
							{
								"astId": 9,
								"contract": "contracts/purchaseContract.sol:purchaseContract",
								"label": "author",
								"offset": 0,
								"slot": "3",
								"type": "t_string_storage"
							},
							{
								"astId": 11,
								"contract": "contracts/purchaseContract.sol:purchaseContract",
								"label": "publish_date",
								"offset": 0,
								"slot": "4",
								"type": "t_uint256"
							},
							{
								"astId": 13,
								"contract": "contracts/purchaseContract.sol:purchaseContract",
								"label": "ISBN",
								"offset": 0,
								"slot": "5",
								"type": "t_int256"
							},
							{
								"astId": 16,
								"contract": "contracts/purchaseContract.sol:purchaseContract",
								"label": "owner",
								"offset": 0,
								"slot": "6",
								"type": "t_struct(Client)36_storage"
							}
						],
						"numberOfBytes": "256"
					},
					"t_struct(Purchase)31_storage": {
						"encoding": "inplace",
						"label": "struct purchaseContract.Purchase",
						"members": [
							{
								"astId": 19,
								"contract": "contracts/purchaseContract.sol:purchaseContract",
								"label": "idpurchase",
								"offset": 0,
								"slot": "0",
								"type": "t_uint256"
							},
							{
								"astId": 21,
								"contract": "contracts/purchaseContract.sol:purchaseContract",
								"label": "purchase_date",
								"offset": 0,
								"slot": "1",
								"type": "t_uint256"
							},
							{
								"astId": 24,
								"contract": "contracts/purchaseContract.sol:purchaseContract",
								"label": "item",
								"offset": 0,
								"slot": "2",
								"type": "t_struct(Comic)17_storage"
							},
							{
								"astId": 27,
								"contract": "contracts/purchaseContract.sol:purchaseContract",
								"label": "owner",
								"offset": 0,
								"slot": "10",
								"type": "t_struct(Client)36_storage"
							},
							{
								"astId": 30,
								"contract": "contracts/purchaseContract.sol:purchaseContract",
								"label": "buyer",
								"offset": 0,
								"slot": "12",
								"type": "t_struct(Client)36_storage"
							}
						],
						"numberOfBytes": "448"
					},
					"t_uint256": {
						"encoding": "inplace",
						"label": "uint256",
						"numberOfBytes": "32"
					}
				}
			},
			"userdoc": {
				"kind": "user",
				"methods": {},
				"version": 1
			}
		}
	}
}