{
	"contracts/purchaseContract.sol": {
		"purchaseContract": {
			"abi": [
				{
					"inputs": [
						{
							"internalType": "uint256",
							"name": "",
							"type": "uint256"
						}
					],
					"name": "clients",
					"outputs": [
						{
							"internalType": "uint256",
							"name": "idclient",
							"type": "uint256"
						}
					],
					"stateMutability": "view",
					"type": "function"
				},
				{
					"inputs": [
						{
							"internalType": "uint256",
							"name": "",
							"type": "uint256"
						}
					],
					"name": "comics",
					"outputs": [
						{
							"internalType": "uint256",
							"name": "idcomic",
							"type": "uint256"
						},
						{
							"internalType": "int256",
							"name": "price",
							"type": "int256"
						},
						{
							"internalType": "string",
							"name": "name_comic",
							"type": "string"
						},
						{
							"internalType": "string",
							"name": "author",
							"type": "string"
						},
						{
							"internalType": "uint256",
							"name": "publish_date",
							"type": "uint256"
						},
						{
							"internalType": "int256",
							"name": "ISBN",
							"type": "int256"
						},
						{
							"components": [
								{
									"internalType": "uint256",
									"name": "idclient",
									"type": "uint256"
								}
							],
							"internalType": "struct purchaseContract.Client",
							"name": "owner",
							"type": "tuple"
						}
					],
					"stateMutability": "view",
					"type": "function"
				},
				{
					"inputs": [
						{
							"internalType": "int256",
							"name": "price",
							"type": "int256"
						}
					],
					"name": "createComic",
					"outputs": [],
					"stateMutability": "nonpayable",
					"type": "function"
				},
				{
					"inputs": [
						{
							"internalType": "uint256",
							"name": "id",
							"type": "uint256"
						}
					],
					"name": "getClient",
					"outputs": [],
					"stateMutability": "nonpayable",
					"type": "function"
				},
				{
					"inputs": [
						{
							"internalType": "uint256",
							"name": "id",
							"type": "uint256"
						}
					],
					"name": "getComic",
					"outputs": [],
					"stateMutability": "nonpayable",
					"type": "function"
				},
				{
					"inputs": [
						{
							"internalType": "uint256",
							"name": "id",
							"type": "uint256"
						}
					],
					"name": "getPurchase",
					"outputs": [],
					"stateMutability": "nonpayable",
					"type": "function"
				},
				{
					"inputs": [
						{
							"internalType": "uint256",
							"name": "id",
							"type": "uint256"
						}
					],
					"name": "geta",
					"outputs": [
						{
							"components": [
								{
									"internalType": "uint256",
									"name": "idcomic",
									"type": "uint256"
								},
								{
									"internalType": "int256",
									"name": "price",
									"type": "int256"
								},
								{
									"internalType": "string",
									"name": "name_comic",
									"type": "string"
								},
								{
									"internalType": "string",
									"name": "author",
									"type": "string"
								},
								{
									"internalType": "uint256",
									"name": "publish_date",
									"type": "uint256"
								},
								{
									"internalType": "int256",
									"name": "ISBN",
									"type": "int256"
								},
								{
									"components": [
										{
											"internalType": "uint256",
											"name": "idclient",
											"type": "uint256"
										}
									],
									"internalType": "struct purchaseContract.Client",
									"name": "owner",
									"type": "tuple"
								}
							],
							"internalType": "struct purchaseContract.Comic",
							"name": "",
							"type": "tuple"
						}
					],
					"stateMutability": "view",
					"type": "function"
				},
				{
					"inputs": [
						{
							"internalType": "uint256",
							"name": "",
							"type": "uint256"
						}
					],
					"name": "purchases",
					"outputs": [
						{
							"internalType": "uint256",
							"name": "idpurchase",
							"type": "uint256"
						},
						{
							"internalType": "uint256",
							"name": "purchase_date",
							"type": "uint256"
						},
						{
							"components": [
								{
									"internalType": "uint256",
									"name": "idcomic",
									"type": "uint256"
								},
								{
									"internalType": "int256",
									"name": "price",
									"type": "int256"
								},
								{
									"internalType": "string",
									"name": "name_comic",
									"type": "string"
								},
								{
									"internalType": "string",
									"name": "author",
									"type": "string"
								},
								{
									"internalType": "uint256",
									"name": "publish_date",
									"type": "uint256"
								},
								{
									"internalType": "int256",
									"name": "ISBN",
									"type": "int256"
								},
								{
									"components": [
										{
											"internalType": "uint256",
											"name": "idclient",
											"type": "uint256"
										}
									],
									"internalType": "struct purchaseContract.Client",
									"name": "owner",
									"type": "tuple"
								}
							],
							"internalType": "struct purchaseContract.Comic",
							"name": "item",
							"type": "tuple"
						},
						{
							"components": [
								{
									"internalType": "uint256",
									"name": "idclient",
									"type": "uint256"
								}
							],
							"internalType": "struct purchaseContract.Client",
							"name": "owner",
							"type": "tuple"
						},
						{
							"components": [
								{
									"internalType": "uint256",
									"name": "idclient",
									"type": "uint256"
								}
							],
							"internalType": "struct purchaseContract.Client",
							"name": "buyer",
							"type": "tuple"
						}
					],
					"stateMutability": "view",
					"type": "function"
				}
			],
			"devdoc": {
				"kind": "dev",
				"methods": {},
				"version": 1
			},
			"evm": {
				"assembly": "    /* \"contracts/purchaseContract.sol\":27:901  contract purchaseContract {\r... */\n  mstore(0x40, 0x80)\n  callvalue\n  dup1\n  iszero\n  tag_1\n  jumpi\n  0x00\n  dup1\n  revert\ntag_1:\n  pop\n  dataSize(sub_0)\n  dup1\n  dataOffset(sub_0)\n  0x00\n  codecopy\n  0x00\n  return\nstop\n\nsub_0: assembly {\n        /* \"contracts/purchaseContract.sol\":27:901  contract purchaseContract {\r... */\n      mstore(0x40, 0x80)\n      callvalue\n      dup1\n      iszero\n      tag_1\n      jumpi\n      0x00\n      dup1\n      revert\n    tag_1:\n      pop\n      jumpi(tag_2, lt(calldatasize, 0x04))\n      shr(0xe0, calldataload(0x00))\n      dup1\n      0x9966e0a6\n      gt\n      tag_11\n      jumpi\n      dup1\n      0x9966e0a6\n      eq\n      tag_7\n      jumpi\n      dup1\n      0xa8e28c49\n      eq\n      tag_8\n      jumpi\n      dup1\n      0xd0068f80\n      eq\n      tag_9\n      jumpi\n      dup1\n      0xf88af21d\n      eq\n      tag_10\n      jumpi\n      jump(tag_2)\n    tag_11:\n      dup1\n      0x3742a9f7\n      eq\n      tag_3\n      jumpi\n      dup1\n      0x47ac33ee\n      eq\n      tag_4\n      jumpi\n      dup1\n      0x7a80dc1d\n      eq\n      tag_5\n      jumpi\n      dup1\n      0x8392fe31\n      eq\n      tag_6\n      jumpi\n    tag_2:\n      0x00\n      dup1\n      revert\n        /* \"contracts/purchaseContract.sol\":664:718  function getPurchase(uint id) public{\r... */\n    tag_3:\n      tag_12\n      0x04\n      dup1\n      calldatasize\n      sub\n      dup2\n      add\n      swap1\n      tag_13\n      swap2\n      swap1\n      tag_14\n      jump\t// in\n    tag_13:\n      tag_15\n      jump\t// in\n    tag_12:\n      stop\n        /* \"contracts/purchaseContract.sol\":613:656  function getComic(uint id) public{\r... */\n    tag_4:\n      tag_16\n      0x04\n      dup1\n      calldatasize\n      sub\n      dup2\n      add\n      swap1\n      tag_17\n      swap2\n      swap1\n      tag_14\n      jump\t// in\n    tag_17:\n      tag_18\n      jump\t// in\n    tag_16:\n      stop\n        /* \"contracts/purchaseContract.sol\":459:480  Comic[] public comics */\n    tag_5:\n      tag_19\n      0x04\n      dup1\n      calldatasize\n      sub\n      dup2\n      add\n      swap1\n      tag_20\n      swap2\n      swap1\n      tag_14\n      jump\t// in\n    tag_20:\n      tag_21\n      jump\t// in\n    tag_19:\n      mload(0x40)\n      tag_22\n      swap8\n      swap7\n      swap6\n      swap5\n      swap4\n      swap3\n      swap2\n      swap1\n      tag_23\n      jump\t// in\n    tag_22:\n      mload(0x40)\n      dup1\n      swap2\n      sub\n      swap1\n      return\n        /* \"contracts/purchaseContract.sol\":487:514  Purchase[] public purchases */\n    tag_6:\n      tag_24\n      0x04\n      dup1\n      calldatasize\n      sub\n      dup2\n      add\n      swap1\n      tag_25\n      swap2\n      swap1\n      tag_14\n      jump\t// in\n    tag_25:\n      tag_26\n      jump\t// in\n    tag_24:\n      mload(0x40)\n      tag_27\n      swap6\n      swap5\n      swap4\n      swap3\n      swap2\n      swap1\n      tag_28\n      jump\t// in\n    tag_27:\n      mload(0x40)\n      dup1\n      swap2\n      sub\n      swap1\n      return\n        /* \"contracts/purchaseContract.sol\":557:605  function createComic(int price) public{\r... */\n    tag_7:\n      tag_29\n      0x04\n      dup1\n      calldatasize\n      sub\n      dup2\n      add\n      swap1\n      tag_30\n      swap2\n      swap1\n      tag_31\n      jump\t// in\n    tag_30:\n      tag_32\n      jump\t// in\n    tag_29:\n      stop\n        /* \"contracts/purchaseContract.sol\":778:870  function geta(uint id) public view returns (Comic memory){\r... */\n    tag_8:\n      tag_33\n      0x04\n      dup1\n      calldatasize\n      sub\n      dup2\n      add\n      swap1\n      tag_34\n      swap2\n      swap1\n      tag_14\n      jump\t// in\n    tag_34:\n      tag_35\n      jump\t// in\n    tag_33:\n      mload(0x40)\n      tag_36\n      swap2\n      swap1\n      tag_37\n      jump\t// in\n    tag_36:\n      mload(0x40)\n      dup1\n      swap2\n      sub\n      swap1\n      return\n        /* \"contracts/purchaseContract.sol\":726:770  function getClient(uint id) public{\r... */\n    tag_9:\n      tag_38\n      0x04\n      dup1\n      calldatasize\n      sub\n      dup2\n      add\n      swap1\n      tag_39\n      swap2\n      swap1\n      tag_14\n      jump\t// in\n    tag_39:\n      tag_40\n      jump\t// in\n    tag_38:\n      stop\n        /* \"contracts/purchaseContract.sol\":521:544  Client[] public clients */\n    tag_10:\n      tag_41\n      0x04\n      dup1\n      calldatasize\n      sub\n      dup2\n      add\n      swap1\n      tag_42\n      swap2\n      swap1\n      tag_14\n      jump\t// in\n    tag_42:\n      tag_43\n      jump\t// in\n    tag_41:\n      mload(0x40)\n      tag_44\n      swap2\n      swap1\n      tag_45\n      jump\t// in\n    tag_44:\n      mload(0x40)\n      dup1\n      swap2\n      sub\n      swap1\n      return\n        /* \"contracts/purchaseContract.sol\":664:718  function getPurchase(uint id) public{\r... */\n    tag_15:\n      pop\n      jump\t// out\n        /* \"contracts/purchaseContract.sol\":613:656  function getComic(uint id) public{\r... */\n    tag_18:\n      pop\n      jump\t// out\n        /* \"contracts/purchaseContract.sol\":459:480  Comic[] public comics */\n    tag_21:\n      0x00\n      dup2\n      dup2\n      sload\n      dup2\n      lt\n      tag_48\n      jumpi\n      0x00\n      dup1\n      revert\n    tag_48:\n      swap1\n      0x00\n      mstore\n      keccak256(0x00, 0x20)\n      swap1\n      0x07\n      mul\n      add\n      0x00\n      swap2\n      pop\n      swap1\n      pop\n      dup1\n      0x00\n      add\n      sload\n      swap1\n      dup1\n      0x01\n      add\n      sload\n      swap1\n      dup1\n      0x02\n      add\n      dup1\n      sload\n      tag_50\n      swap1\n      tag_51\n      jump\t// in\n    tag_50:\n      dup1\n      0x1f\n      add\n      0x20\n      dup1\n      swap2\n      div\n      mul\n      0x20\n      add\n      mload(0x40)\n      swap1\n      dup2\n      add\n      0x40\n      mstore\n      dup1\n      swap3\n      swap2\n      swap1\n      dup2\n      dup2\n      mstore\n      0x20\n      add\n      dup3\n      dup1\n      sload\n      tag_52\n      swap1\n      tag_51\n      jump\t// in\n    tag_52:\n      dup1\n      iszero\n      tag_53\n      jumpi\n      dup1\n      0x1f\n      lt\n      tag_54\n      jumpi\n      0x0100\n      dup1\n      dup4\n      sload\n      div\n      mul\n      dup4\n      mstore\n      swap2\n      0x20\n      add\n      swap2\n      jump(tag_53)\n    tag_54:\n      dup3\n      add\n      swap2\n      swap1\n      0x00\n      mstore\n      keccak256(0x00, 0x20)\n      swap1\n    tag_55:\n      dup2\n      sload\n      dup2\n      mstore\n      swap1\n      0x01\n      add\n      swap1\n      0x20\n      add\n      dup1\n      dup4\n      gt\n      tag_55\n      jumpi\n      dup3\n      swap1\n      sub\n      0x1f\n      and\n      dup3\n      add\n      swap2\n    tag_53:\n      pop\n      pop\n      pop\n      pop\n      pop\n      swap1\n      dup1\n      0x03\n      add\n      dup1\n      sload\n      tag_56\n      swap1\n      tag_51\n      jump\t// in\n    tag_56:\n      dup1\n      0x1f\n      add\n      0x20\n      dup1\n      swap2\n      div\n      mul\n      0x20\n      add\n      mload(0x40)\n      swap1\n      dup2\n      add\n      0x40\n      mstore\n      dup1\n      swap3\n      swap2\n      swap1\n      dup2\n      dup2\n      mstore\n      0x20\n      add\n      dup3\n      dup1\n      sload\n      tag_57\n      swap1\n      tag_51\n      jump\t// in\n    tag_57:\n      dup1\n      iszero\n      tag_58\n      jumpi\n      dup1\n      0x1f\n      lt\n      tag_59\n      jumpi\n      0x0100\n      dup1\n      dup4\n      sload\n      div\n      mul\n      dup4\n      mstore\n      swap2\n      0x20\n      add\n      swap2\n      jump(tag_58)\n    tag_59:\n      dup3\n      add\n      swap2\n      swap1\n      0x00\n      mstore\n      keccak256(0x00, 0x20)\n      swap1\n    tag_60:\n      dup2\n      sload\n      dup2\n      mstore\n      swap1\n      0x01\n      add\n      swap1\n      0x20\n      add\n      dup1\n      dup4\n      gt\n      tag_60\n      jumpi\n      dup3\n      swap1\n      sub\n      0x1f\n      and\n      dup3\n      add\n      swap2\n    tag_58:\n      pop\n      pop\n      pop\n      pop\n      pop\n      swap1\n      dup1\n      0x04\n      add\n      sload\n      swap1\n      dup1\n      0x05\n      add\n      sload\n      swap1\n      dup1\n      0x06\n      add\n      mload(0x40)\n      dup1\n      0x20\n      add\n      0x40\n      mstore\n      swap1\n      dup2\n      0x00\n      dup3\n      add\n      sload\n      dup2\n      mstore\n      pop\n      pop\n      swap1\n      pop\n      dup8\n      jump\t// out\n        /* \"contracts/purchaseContract.sol\":487:514  Purchase[] public purchases */\n    tag_26:\n      0x01\n      dup2\n      dup2\n      sload\n      dup2\n      lt\n      tag_61\n      jumpi\n      0x00\n      dup1\n      revert\n    tag_61:\n      swap1\n      0x00\n      mstore\n      keccak256(0x00, 0x20)\n      swap1\n      0x0b\n      mul\n      add\n      0x00\n      swap2\n      pop\n      swap1\n      pop\n      dup1\n      0x00\n      add\n      sload\n      swap1\n      dup1\n      0x01\n      add\n      sload\n      swap1\n      dup1\n      0x02\n      add\n      mload(0x40)\n      dup1\n      0xe0\n      add\n      0x40\n      mstore\n      swap1\n      dup2\n      0x00\n      dup3\n      add\n      sload\n      dup2\n      mstore\n      0x20\n      add\n      0x01\n      dup3\n      add\n      sload\n      dup2\n      mstore\n      0x20\n      add\n      0x02\n      dup3\n      add\n      dup1\n      sload\n      tag_63\n      swap1\n      tag_51\n      jump\t// in\n    tag_63:\n      dup1\n      0x1f\n      add\n      0x20\n      dup1\n      swap2\n      div\n      mul\n      0x20\n      add\n      mload(0x40)\n      swap1\n      dup2\n      add\n      0x40\n      mstore\n      dup1\n      swap3\n      swap2\n      swap1\n      dup2\n      dup2\n      mstore\n      0x20\n      add\n      dup3\n      dup1\n      sload\n      tag_64\n      swap1\n      tag_51\n      jump\t// in\n    tag_64:\n      dup1\n      iszero\n      tag_65\n      jumpi\n      dup1\n      0x1f\n      lt\n      tag_66\n      jumpi\n      0x0100\n      dup1\n      dup4\n      sload\n      div\n      mul\n      dup4\n      mstore\n      swap2\n      0x20\n      add\n      swap2\n      jump(tag_65)\n    tag_66:\n      dup3\n      add\n      swap2\n      swap1\n      0x00\n      mstore\n      keccak256(0x00, 0x20)\n      swap1\n    tag_67:\n      dup2\n      sload\n      dup2\n      mstore\n      swap1\n      0x01\n      add\n      swap1\n      0x20\n      add\n      dup1\n      dup4\n      gt\n      tag_67\n      jumpi\n      dup3\n      swap1\n      sub\n      0x1f\n      and\n      dup3\n      add\n      swap2\n    tag_65:\n      pop\n      pop\n      pop\n      pop\n      pop\n      dup2\n      mstore\n      0x20\n      add\n      0x03\n      dup3\n      add\n      dup1\n      sload\n      tag_68\n      swap1\n      tag_51\n      jump\t// in\n    tag_68:\n      dup1\n      0x1f\n      add\n      0x20\n      dup1\n      swap2\n      div\n      mul\n      0x20\n      add\n      mload(0x40)\n      swap1\n      dup2\n      add\n      0x40\n      mstore\n      dup1\n      swap3\n      swap2\n      swap1\n      dup2\n      dup2\n      mstore\n      0x20\n      add\n      dup3\n      dup1\n      sload\n      tag_69\n      swap1\n      tag_51\n      jump\t// in\n    tag_69:\n      dup1\n      iszero\n      tag_70\n      jumpi\n      dup1\n      0x1f\n      lt\n      tag_71\n      jumpi\n      0x0100\n      dup1\n      dup4\n      sload\n      div\n      mul\n      dup4\n      mstore\n      swap2\n      0x20\n      add\n      swap2\n      jump(tag_70)\n    tag_71:\n      dup3\n      add\n      swap2\n      swap1\n      0x00\n      mstore\n      keccak256(0x00, 0x20)\n      swap1\n    tag_72:\n      dup2\n      sload\n      dup2\n      mstore\n      swap1\n      0x01\n      add\n      swap1\n      0x20\n      add\n      dup1\n      dup4\n      gt\n      tag_72\n      jumpi\n      dup3\n      swap1\n      sub\n      0x1f\n      and\n      dup3\n      add\n      swap2\n    tag_70:\n      pop\n      pop\n      pop\n      pop\n      pop\n      dup2\n      mstore\n      0x20\n      add\n      0x04\n      dup3\n      add\n      sload\n      dup2\n      mstore\n      0x20\n      add\n      0x05\n      dup3\n      add\n      sload\n      dup2\n      mstore\n      0x20\n      add\n      0x06\n      dup3\n      add\n      mload(0x40)\n      dup1\n      0x20\n      add\n      0x40\n      mstore\n      swap1\n      dup2\n      0x00\n      dup3\n      add\n      sload\n      dup2\n      mstore\n      pop\n      pop\n      dup2\n      mstore\n      pop\n      pop\n      swap1\n      dup1\n      0x09\n      add\n      mload(0x40)\n      dup1\n      0x20\n      add\n      0x40\n      mstore\n      swap1\n      dup2\n      0x00\n      dup3\n      add\n      sload\n      dup2\n      mstore\n      pop\n      pop\n      swap1\n      dup1\n      0x0a\n      add\n      mload(0x40)\n      dup1\n      0x20\n      add\n      0x40\n      mstore\n      swap1\n      dup2\n      0x00\n      dup3\n      add\n      sload\n      dup2\n      mstore\n      pop\n      pop\n      swap1\n      pop\n      dup6\n      jump\t// out\n        /* \"contracts/purchaseContract.sol\":557:605  function createComic(int price) public{\r... */\n    tag_32:\n      pop\n      jump\t// out\n        /* \"contracts/purchaseContract.sol\":778:870  function geta(uint id) public view returns (Comic memory){\r... */\n    tag_35:\n        /* \"contracts/purchaseContract.sol\":822:834  Comic memory */\n      tag_74\n      tag_75\n      jump\t// in\n    tag_74:\n        /* \"contracts/purchaseContract.sol\":853:859  comics */\n      0x00\n        /* \"contracts/purchaseContract.sol\":860:861  0 */\n      dup1\n        /* \"contracts/purchaseContract.sol\":853:862  comics[0] */\n      dup2\n      sload\n      dup2\n      lt\n      tag_77\n      jumpi\n      tag_78\n      tag_79\n      jump\t// in\n    tag_78:\n    tag_77:\n      swap1\n      0x00\n      mstore\n      keccak256(0x00, 0x20)\n      swap1\n      0x07\n      mul\n      add\n        /* \"contracts/purchaseContract.sol\":846:862  return comics[0] */\n      mload(0x40)\n      dup1\n      0xe0\n      add\n      0x40\n      mstore\n      swap1\n      dup2\n      0x00\n      dup3\n      add\n      sload\n      dup2\n      mstore\n      0x20\n      add\n      0x01\n      dup3\n      add\n      sload\n      dup2\n      mstore\n      0x20\n      add\n      0x02\n      dup3\n      add\n      dup1\n      sload\n      tag_81\n      swap1\n      tag_51\n      jump\t// in\n    tag_81:\n      dup1\n      0x1f\n      add\n      0x20\n      dup1\n      swap2\n      div\n      mul\n      0x20\n      add\n      mload(0x40)\n      swap1\n      dup2\n      add\n      0x40\n      mstore\n      dup1\n      swap3\n      swap2\n      swap1\n      dup2\n      dup2\n      mstore\n      0x20\n      add\n      dup3\n      dup1\n      sload\n      tag_82\n      swap1\n      tag_51\n      jump\t// in\n    tag_82:\n      dup1\n      iszero\n      tag_83\n      jumpi\n      dup1\n      0x1f\n      lt\n      tag_84\n      jumpi\n      0x0100\n      dup1\n      dup4\n      sload\n      div\n      mul\n      dup4\n      mstore\n      swap2\n      0x20\n      add\n      swap2\n      jump(tag_83)\n    tag_84:\n      dup3\n      add\n      swap2\n      swap1\n      0x00\n      mstore\n      keccak256(0x00, 0x20)\n      swap1\n    tag_85:\n      dup2\n      sload\n      dup2\n      mstore\n      swap1\n      0x01\n      add\n      swap1\n      0x20\n      add\n      dup1\n      dup4\n      gt\n      tag_85\n      jumpi\n      dup3\n      swap1\n      sub\n      0x1f\n      and\n      dup3\n      add\n      swap2\n    tag_83:\n      pop\n      pop\n      pop\n      pop\n      pop\n      dup2\n      mstore\n      0x20\n      add\n      0x03\n      dup3\n      add\n      dup1\n      sload\n      tag_86\n      swap1\n      tag_51\n      jump\t// in\n    tag_86:\n      dup1\n      0x1f\n      add\n      0x20\n      dup1\n      swap2\n      div\n      mul\n      0x20\n      add\n      mload(0x40)\n      swap1\n      dup2\n      add\n      0x40\n      mstore\n      dup1\n      swap3\n      swap2\n      swap1\n      dup2\n      dup2\n      mstore\n      0x20\n      add\n      dup3\n      dup1\n      sload\n      tag_87\n      swap1\n      tag_51\n      jump\t// in\n    tag_87:\n      dup1\n      iszero\n      tag_88\n      jumpi\n      dup1\n      0x1f\n      lt\n      tag_89\n      jumpi\n      0x0100\n      dup1\n      dup4\n      sload\n      div\n      mul\n      dup4\n      mstore\n      swap2\n      0x20\n      add\n      swap2\n      jump(tag_88)\n    tag_89:\n      dup3\n      add\n      swap2\n      swap1\n      0x00\n      mstore\n      keccak256(0x00, 0x20)\n      swap1\n    tag_90:\n      dup2\n      sload\n      dup2\n      mstore\n      swap1\n      0x01\n      add\n      swap1\n      0x20\n      add\n      dup1\n      dup4\n      gt\n      tag_90\n      jumpi\n      dup3\n      swap1\n      sub\n      0x1f\n      and\n      dup3\n      add\n      swap2\n    tag_88:\n      pop\n      pop\n      pop\n      pop\n      pop\n      dup2\n      mstore\n      0x20\n      add\n      0x04\n      dup3\n      add\n      sload\n      dup2\n      mstore\n      0x20\n      add\n      0x05\n      dup3\n      add\n      sload\n      dup2\n      mstore\n      0x20\n      add\n      0x06\n      dup3\n      add\n      mload(0x40)\n      dup1\n      0x20\n      add\n      0x40\n      mstore\n      swap1\n      dup2\n      0x00\n      dup3\n      add\n      sload\n      dup2\n      mstore\n      pop\n      pop\n      dup2\n      mstore\n      pop\n      pop\n      swap1\n      pop\n        /* \"contracts/purchaseContract.sol\":778:870  function geta(uint id) public view returns (Comic memory){\r... */\n      swap2\n      swap1\n      pop\n      jump\t// out\n        /* \"contracts/purchaseContract.sol\":726:770  function getClient(uint id) public{\r... */\n    tag_40:\n      pop\n      jump\t// out\n        /* \"contracts/purchaseContract.sol\":521:544  Client[] public clients */\n    tag_43:\n      0x02\n      dup2\n      dup2\n      sload\n      dup2\n      lt\n      tag_92\n      jumpi\n      0x00\n      dup1\n      revert\n    tag_92:\n      swap1\n      0x00\n      mstore\n      keccak256(0x00, 0x20)\n      add\n      0x00\n      swap2\n      pop\n      swap1\n      pop\n      dup1\n      0x00\n      add\n      sload\n      swap1\n      pop\n      dup2\n      jump\t// out\n    tag_75:\n      mload(0x40)\n      dup1\n      0xe0\n      add\n      0x40\n      mstore\n      dup1\n      0x00\n      dup2\n      mstore\n      0x20\n      add\n      0x00\n      dup2\n      mstore\n      0x20\n      add\n      0x60\n      dup2\n      mstore\n      0x20\n      add\n      0x60\n      dup2\n      mstore\n      0x20\n      add\n      0x00\n      dup2\n      mstore\n      0x20\n      add\n      0x00\n      dup2\n      mstore\n      0x20\n      add\n      tag_94\n      tag_95\n      jump\t// in\n    tag_94:\n      dup2\n      mstore\n      pop\n      swap1\n      jump\t// out\n    tag_95:\n      mload(0x40)\n      dup1\n      0x20\n      add\n      0x40\n      mstore\n      dup1\n      0x00\n      dup2\n      mstore\n      pop\n      swap1\n      jump\t// out\n        /* \"#utility.yul\":7:144   */\n    tag_97:\n        /* \"#utility.yul\":52:57   */\n      0x00\n        /* \"#utility.yul\":90:96   */\n      dup2\n        /* \"#utility.yul\":77:97   */\n      calldataload\n        /* \"#utility.yul\":68:97   */\n      swap1\n      pop\n        /* \"#utility.yul\":106:138   */\n      tag_99\n        /* \"#utility.yul\":132:137   */\n      dup2\n        /* \"#utility.yul\":106:138   */\n      tag_100\n      jump\t// in\n    tag_99:\n        /* \"#utility.yul\":7:144   */\n      swap3\n      swap2\n      pop\n      pop\n      jump\t// out\n        /* \"#utility.yul\":150:289   */\n    tag_101:\n        /* \"#utility.yul\":196:201   */\n      0x00\n        /* \"#utility.yul\":234:240   */\n      dup2\n        /* \"#utility.yul\":221:241   */\n      calldataload\n        /* \"#utility.yul\":212:241   */\n      swap1\n      pop\n        /* \"#utility.yul\":250:283   */\n      tag_103\n        /* \"#utility.yul\":277:282   */\n      dup2\n        /* \"#utility.yul\":250:283   */\n      tag_104\n      jump\t// in\n    tag_103:\n        /* \"#utility.yul\":150:289   */\n      swap3\n      swap2\n      pop\n      pop\n      jump\t// out\n        /* \"#utility.yul\":295:622   */\n    tag_31:\n        /* \"#utility.yul\":353:359   */\n      0x00\n        /* \"#utility.yul\":402:404   */\n      0x20\n        /* \"#utility.yul\":390:399   */\n      dup3\n        /* \"#utility.yul\":381:388   */\n      dup5\n        /* \"#utility.yul\":377:400   */\n      sub\n        /* \"#utility.yul\":373:405   */\n      slt\n        /* \"#utility.yul\":370:489   */\n      iszero\n      tag_106\n      jumpi\n        /* \"#utility.yul\":408:487   */\n      tag_107\n      tag_108\n      jump\t// in\n    tag_107:\n        /* \"#utility.yul\":370:489   */\n    tag_106:\n        /* \"#utility.yul\":528:529   */\n      0x00\n        /* \"#utility.yul\":553:605   */\n      tag_109\n        /* \"#utility.yul\":597:604   */\n      dup5\n        /* \"#utility.yul\":588:594   */\n      dup3\n        /* \"#utility.yul\":577:586   */\n      dup6\n        /* \"#utility.yul\":573:595   */\n      add\n        /* \"#utility.yul\":553:605   */\n      tag_97\n      jump\t// in\n    tag_109:\n        /* \"#utility.yul\":543:605   */\n      swap2\n      pop\n        /* \"#utility.yul\":499:615   */\n      pop\n        /* \"#utility.yul\":295:622   */\n      swap3\n      swap2\n      pop\n      pop\n      jump\t// out\n        /* \"#utility.yul\":628:957   */\n    tag_14:\n        /* \"#utility.yul\":687:693   */\n      0x00\n        /* \"#utility.yul\":736:738   */\n      0x20\n        /* \"#utility.yul\":724:733   */\n      dup3\n        /* \"#utility.yul\":715:722   */\n      dup5\n        /* \"#utility.yul\":711:734   */\n      sub\n        /* \"#utility.yul\":707:739   */\n      slt\n        /* \"#utility.yul\":704:823   */\n      iszero\n      tag_111\n      jumpi\n        /* \"#utility.yul\":742:821   */\n      tag_112\n      tag_108\n      jump\t// in\n    tag_112:\n        /* \"#utility.yul\":704:823   */\n    tag_111:\n        /* \"#utility.yul\":862:863   */\n      0x00\n        /* \"#utility.yul\":887:940   */\n      tag_113\n        /* \"#utility.yul\":932:939   */\n      dup5\n        /* \"#utility.yul\":923:929   */\n      dup3\n        /* \"#utility.yul\":912:921   */\n      dup6\n        /* \"#utility.yul\":908:930   */\n      add\n        /* \"#utility.yul\":887:940   */\n      tag_101\n      jump\t// in\n    tag_113:\n        /* \"#utility.yul\":877:940   */\n      swap2\n      pop\n        /* \"#utility.yul\":833:950   */\n      pop\n        /* \"#utility.yul\":628:957   */\n      swap3\n      swap2\n      pop\n      pop\n      jump\t// out\n        /* \"#utility.yul\":963:1068   */\n    tag_114:\n        /* \"#utility.yul\":1038:1061   */\n      tag_116\n        /* \"#utility.yul\":1055:1060   */\n      dup2\n        /* \"#utility.yul\":1038:1061   */\n      tag_117\n      jump\t// in\n    tag_116:\n        /* \"#utility.yul\":1033:1036   */\n      dup3\n        /* \"#utility.yul\":1026:1062   */\n      mstore\n        /* \"#utility.yul\":963:1068   */\n      pop\n      pop\n      jump\t// out\n        /* \"#utility.yul\":1074:1189   */\n    tag_118:\n        /* \"#utility.yul\":1159:1182   */\n      tag_120\n        /* \"#utility.yul\":1176:1181   */\n      dup2\n        /* \"#utility.yul\":1159:1182   */\n      tag_117\n      jump\t// in\n    tag_120:\n        /* \"#utility.yul\":1154:1157   */\n      dup3\n        /* \"#utility.yul\":1147:1183   */\n      mstore\n        /* \"#utility.yul\":1074:1189   */\n      pop\n      pop\n      jump\t// out\n        /* \"#utility.yul\":1195:1539   */\n    tag_121:\n        /* \"#utility.yul\":1273:1276   */\n      0x00\n        /* \"#utility.yul\":1301:1340   */\n      tag_123\n        /* \"#utility.yul\":1334:1339   */\n      dup3\n        /* \"#utility.yul\":1301:1340   */\n      tag_124\n      jump\t// in\n    tag_123:\n        /* \"#utility.yul\":1356:1417   */\n      tag_125\n        /* \"#utility.yul\":1410:1416   */\n      dup2\n        /* \"#utility.yul\":1405:1408   */\n      dup6\n        /* \"#utility.yul\":1356:1417   */\n      tag_126\n      jump\t// in\n    tag_125:\n        /* \"#utility.yul\":1349:1417   */\n      swap4\n      pop\n        /* \"#utility.yul\":1426:1478   */\n      tag_127\n        /* \"#utility.yul\":1471:1477   */\n      dup2\n        /* \"#utility.yul\":1466:1469   */\n      dup6\n        /* \"#utility.yul\":1459:1463   */\n      0x20\n        /* \"#utility.yul\":1452:1457   */\n      dup7\n        /* \"#utility.yul\":1448:1464   */\n      add\n        /* \"#utility.yul\":1426:1478   */\n      tag_128\n      jump\t// in\n    tag_127:\n        /* \"#utility.yul\":1503:1532   */\n      tag_129\n        /* \"#utility.yul\":1525:1531   */\n      dup2\n        /* \"#utility.yul\":1503:1532   */\n      tag_130\n      jump\t// in\n    tag_129:\n        /* \"#utility.yul\":1498:1501   */\n      dup5\n        /* \"#utility.yul\":1494:1533   */\n      add\n        /* \"#utility.yul\":1487:1533   */\n      swap2\n      pop\n        /* \"#utility.yul\":1277:1539   */\n      pop\n        /* \"#utility.yul\":1195:1539   */\n      swap3\n      swap2\n      pop\n      pop\n      jump\t// out\n        /* \"#utility.yul\":1545:1909   */\n    tag_131:\n        /* \"#utility.yul\":1633:1636   */\n      0x00\n        /* \"#utility.yul\":1661:1700   */\n      tag_133\n        /* \"#utility.yul\":1694:1699   */\n      dup3\n        /* \"#utility.yul\":1661:1700   */\n      tag_124\n      jump\t// in\n    tag_133:\n        /* \"#utility.yul\":1716:1787   */\n      tag_134\n        /* \"#utility.yul\":1780:1786   */\n      dup2\n        /* \"#utility.yul\":1775:1778   */\n      dup6\n        /* \"#utility.yul\":1716:1787   */\n      tag_135\n      jump\t// in\n    tag_134:\n        /* \"#utility.yul\":1709:1787   */\n      swap4\n      pop\n        /* \"#utility.yul\":1796:1848   */\n      tag_136\n        /* \"#utility.yul\":1841:1847   */\n      dup2\n        /* \"#utility.yul\":1836:1839   */\n      dup6\n        /* \"#utility.yul\":1829:1833   */\n      0x20\n        /* \"#utility.yul\":1822:1827   */\n      dup7\n        /* \"#utility.yul\":1818:1834   */\n      add\n        /* \"#utility.yul\":1796:1848   */\n      tag_128\n      jump\t// in\n    tag_136:\n        /* \"#utility.yul\":1873:1902   */\n      tag_137\n        /* \"#utility.yul\":1895:1901   */\n      dup2\n        /* \"#utility.yul\":1873:1902   */\n      tag_130\n      jump\t// in\n    tag_137:\n        /* \"#utility.yul\":1868:1871   */\n      dup5\n        /* \"#utility.yul\":1864:1903   */\n      add\n        /* \"#utility.yul\":1857:1903   */\n      swap2\n      pop\n        /* \"#utility.yul\":1637:1909   */\n      pop\n        /* \"#utility.yul\":1545:1909   */\n      swap3\n      swap2\n      pop\n      pop\n      jump\t// out\n        /* \"#utility.yul\":1987:2308   */\n    tag_138:\n        /* \"#utility.yul\":2118:2122   */\n      0x20\n        /* \"#utility.yul\":2113:2116   */\n      dup3\n        /* \"#utility.yul\":2109:2123   */\n      add\n        /* \"#utility.yul\":2209:2213   */\n      0x00\n        /* \"#utility.yul\":2202:2207   */\n      dup3\n        /* \"#utility.yul\":2198:2214   */\n      add\n        /* \"#utility.yul\":2192:2215   */\n      mload\n        /* \"#utility.yul\":2228:2291   */\n      tag_140\n        /* \"#utility.yul\":2285:2289   */\n      0x00\n        /* \"#utility.yul\":2280:2283   */\n      dup6\n        /* \"#utility.yul\":2276:2290   */\n      add\n        /* \"#utility.yul\":2262:2274   */\n      dup3\n        /* \"#utility.yul\":2228:2291   */\n      tag_141\n      jump\t// in\n    tag_140:\n        /* \"#utility.yul\":2133:2301   */\n      pop\n        /* \"#utility.yul\":2087:2308   */\n      pop\n        /* \"#utility.yul\":1987:2308   */\n      pop\n      pop\n      jump\t// out\n        /* \"#utility.yul\":2386:2717   */\n    tag_142:\n        /* \"#utility.yul\":2527:2531   */\n      0x20\n        /* \"#utility.yul\":2522:2525   */\n      dup3\n        /* \"#utility.yul\":2518:2532   */\n      add\n        /* \"#utility.yul\":2618:2622   */\n      0x00\n        /* \"#utility.yul\":2611:2616   */\n      dup3\n        /* \"#utility.yul\":2607:2623   */\n      add\n        /* \"#utility.yul\":2601:2624   */\n      mload\n        /* \"#utility.yul\":2637:2700   */\n      tag_144\n        /* \"#utility.yul\":2694:2698   */\n      0x00\n        /* \"#utility.yul\":2689:2692   */\n      dup6\n        /* \"#utility.yul\":2685:2699   */\n      add\n        /* \"#utility.yul\":2671:2683   */\n      dup3\n        /* \"#utility.yul\":2637:2700   */\n      tag_141\n      jump\t// in\n    tag_144:\n        /* \"#utility.yul\":2542:2710   */\n      pop\n        /* \"#utility.yul\":2496:2717   */\n      pop\n        /* \"#utility.yul\":2386:2717   */\n      pop\n      pop\n      jump\t// out\n        /* \"#utility.yul\":2793:4393   */\n    tag_145:\n        /* \"#utility.yul\":2904:2907   */\n      0x00\n        /* \"#utility.yul\":2940:2944   */\n      0xe0\n        /* \"#utility.yul\":2935:2938   */\n      dup4\n        /* \"#utility.yul\":2931:2945   */\n      add\n        /* \"#utility.yul\":3030:3034   */\n      0x00\n        /* \"#utility.yul\":3023:3028   */\n      dup4\n        /* \"#utility.yul\":3019:3035   */\n      add\n        /* \"#utility.yul\":3013:3036   */\n      mload\n        /* \"#utility.yul\":3049:3112   */\n      tag_147\n        /* \"#utility.yul\":3106:3110   */\n      0x00\n        /* \"#utility.yul\":3101:3104   */\n      dup7\n        /* \"#utility.yul\":3097:3111   */\n      add\n        /* \"#utility.yul\":3083:3095   */\n      dup3\n        /* \"#utility.yul\":3049:3112   */\n      tag_141\n      jump\t// in\n    tag_147:\n        /* \"#utility.yul\":2955:3122   */\n      pop\n        /* \"#utility.yul\":3205:3209   */\n      0x20\n        /* \"#utility.yul\":3198:3203   */\n      dup4\n        /* \"#utility.yul\":3194:3210   */\n      add\n        /* \"#utility.yul\":3188:3211   */\n      mload\n        /* \"#utility.yul\":3224:3285   */\n      tag_148\n        /* \"#utility.yul\":3279:3283   */\n      0x20\n        /* \"#utility.yul\":3274:3277   */\n      dup7\n        /* \"#utility.yul\":3270:3284   */\n      add\n        /* \"#utility.yul\":3256:3268   */\n      dup3\n        /* \"#utility.yul\":3224:3285   */\n      tag_114\n      jump\t// in\n    tag_148:\n        /* \"#utility.yul\":3132:3295   */\n      pop\n        /* \"#utility.yul\":3383:3387   */\n      0x40\n        /* \"#utility.yul\":3376:3381   */\n      dup4\n        /* \"#utility.yul\":3372:3388   */\n      add\n        /* \"#utility.yul\":3366:3389   */\n      mload\n        /* \"#utility.yul\":3436:3439   */\n      dup5\n        /* \"#utility.yul\":3430:3434   */\n      dup3\n        /* \"#utility.yul\":3426:3440   */\n      sub\n        /* \"#utility.yul\":3419:3423   */\n      0x40\n        /* \"#utility.yul\":3414:3417   */\n      dup7\n        /* \"#utility.yul\":3410:3424   */\n      add\n        /* \"#utility.yul\":3403:3441   */\n      mstore\n        /* \"#utility.yul\":3462:3535   */\n      tag_149\n        /* \"#utility.yul\":3530:3534   */\n      dup3\n        /* \"#utility.yul\":3516:3528   */\n      dup3\n        /* \"#utility.yul\":3462:3535   */\n      tag_121\n      jump\t// in\n    tag_149:\n        /* \"#utility.yul\":3454:3535   */\n      swap2\n      pop\n        /* \"#utility.yul\":3305:3546   */\n      pop\n        /* \"#utility.yul\":3630:3634   */\n      0x60\n        /* \"#utility.yul\":3623:3628   */\n      dup4\n        /* \"#utility.yul\":3619:3635   */\n      add\n        /* \"#utility.yul\":3613:3636   */\n      mload\n        /* \"#utility.yul\":3683:3686   */\n      dup5\n        /* \"#utility.yul\":3677:3681   */\n      dup3\n        /* \"#utility.yul\":3673:3687   */\n      sub\n        /* \"#utility.yul\":3666:3670   */\n      0x60\n        /* \"#utility.yul\":3661:3664   */\n      dup7\n        /* \"#utility.yul\":3657:3671   */\n      add\n        /* \"#utility.yul\":3650:3688   */\n      mstore\n        /* \"#utility.yul\":3709:3782   */\n      tag_150\n        /* \"#utility.yul\":3777:3781   */\n      dup3\n        /* \"#utility.yul\":3763:3775   */\n      dup3\n        /* \"#utility.yul\":3709:3782   */\n      tag_121\n      jump\t// in\n    tag_150:\n        /* \"#utility.yul\":3701:3782   */\n      swap2\n      pop\n        /* \"#utility.yul\":3556:3793   */\n      pop\n        /* \"#utility.yul\":3883:3887   */\n      0x80\n        /* \"#utility.yul\":3876:3881   */\n      dup4\n        /* \"#utility.yul\":3872:3888   */\n      add\n        /* \"#utility.yul\":3866:3889   */\n      mload\n        /* \"#utility.yul\":3902:3965   */\n      tag_151\n        /* \"#utility.yul\":3959:3963   */\n      0x80\n        /* \"#utility.yul\":3954:3957   */\n      dup7\n        /* \"#utility.yul\":3950:3964   */\n      add\n        /* \"#utility.yul\":3936:3948   */\n      dup3\n        /* \"#utility.yul\":3902:3965   */\n      tag_141\n      jump\t// in\n    tag_151:\n        /* \"#utility.yul\":3803:3975   */\n      pop\n        /* \"#utility.yul\":4057:4061   */\n      0xa0\n        /* \"#utility.yul\":4050:4055   */\n      dup4\n        /* \"#utility.yul\":4046:4062   */\n      add\n        /* \"#utility.yul\":4040:4063   */\n      mload\n        /* \"#utility.yul\":4076:4137   */\n      tag_152\n        /* \"#utility.yul\":4131:4135   */\n      0xa0\n        /* \"#utility.yul\":4126:4129   */\n      dup7\n        /* \"#utility.yul\":4122:4136   */\n      add\n        /* \"#utility.yul\":4108:4120   */\n      dup3\n        /* \"#utility.yul\":4076:4137   */\n      tag_114\n      jump\t// in\n    tag_152:\n        /* \"#utility.yul\":3985:4147   */\n      pop\n        /* \"#utility.yul\":4230:4234   */\n      0xc0\n        /* \"#utility.yul\":4223:4228   */\n      dup4\n        /* \"#utility.yul\":4219:4235   */\n      add\n        /* \"#utility.yul\":4213:4236   */\n      mload\n        /* \"#utility.yul\":4249:4356   */\n      tag_153\n        /* \"#utility.yul\":4350:4354   */\n      0xc0\n        /* \"#utility.yul\":4345:4348   */\n      dup7\n        /* \"#utility.yul\":4341:4355   */\n      add\n        /* \"#utility.yul\":4327:4339   */\n      dup3\n        /* \"#utility.yul\":4249:4356   */\n      tag_138\n      jump\t// in\n    tag_153:\n        /* \"#utility.yul\":4157:4366   */\n      pop\n        /* \"#utility.yul\":4383:4387   */\n      dup1\n        /* \"#utility.yul\":4376:4387   */\n      swap2\n      pop\n        /* \"#utility.yul\":2909:4393   */\n      pop\n        /* \"#utility.yul\":2793:4393   */\n      swap3\n      swap2\n      pop\n      pop\n      jump\t// out\n        /* \"#utility.yul\":4399:4507   */\n    tag_141:\n        /* \"#utility.yul\":4476:4500   */\n      tag_155\n        /* \"#utility.yul\":4494:4499   */\n      dup2\n        /* \"#utility.yul\":4476:4500   */\n      tag_156\n      jump\t// in\n    tag_155:\n        /* \"#utility.yul\":4471:4474   */\n      dup3\n        /* \"#utility.yul\":4464:4501   */\n      mstore\n        /* \"#utility.yul\":4399:4507   */\n      pop\n      pop\n      jump\t// out\n        /* \"#utility.yul\":4513:4631   */\n    tag_157:\n        /* \"#utility.yul\":4600:4624   */\n      tag_159\n        /* \"#utility.yul\":4618:4623   */\n      dup2\n        /* \"#utility.yul\":4600:4624   */\n      tag_156\n      jump\t// in\n    tag_159:\n        /* \"#utility.yul\":4595:4598   */\n      dup3\n        /* \"#utility.yul\":4588:4625   */\n      mstore\n        /* \"#utility.yul\":4513:4631   */\n      pop\n      pop\n      jump\t// out\n        /* \"#utility.yul\":4637:4994   */\n    tag_37:\n        /* \"#utility.yul\":4772:4776   */\n      0x00\n        /* \"#utility.yul\":4810:4812   */\n      0x20\n        /* \"#utility.yul\":4799:4808   */\n      dup3\n        /* \"#utility.yul\":4795:4813   */\n      add\n        /* \"#utility.yul\":4787:4813   */\n      swap1\n      pop\n        /* \"#utility.yul\":4859:4868   */\n      dup2\n        /* \"#utility.yul\":4853:4857   */\n      dup2\n        /* \"#utility.yul\":4849:4869   */\n      sub\n        /* \"#utility.yul\":4845:4846   */\n      0x00\n        /* \"#utility.yul\":4834:4843   */\n      dup4\n        /* \"#utility.yul\":4830:4847   */\n      add\n        /* \"#utility.yul\":4823:4870   */\n      mstore\n        /* \"#utility.yul\":4887:4987   */\n      tag_161\n        /* \"#utility.yul\":4982:4986   */\n      dup2\n        /* \"#utility.yul\":4973:4979   */\n      dup5\n        /* \"#utility.yul\":4887:4987   */\n      tag_145\n      jump\t// in\n    tag_161:\n        /* \"#utility.yul\":4879:4987   */\n      swap1\n      pop\n        /* \"#utility.yul\":4637:4994   */\n      swap3\n      swap2\n      pop\n      pop\n      jump\t// out\n        /* \"#utility.yul\":5000:5222   */\n    tag_45:\n        /* \"#utility.yul\":5093:5097   */\n      0x00\n        /* \"#utility.yul\":5131:5133   */\n      0x20\n        /* \"#utility.yul\":5120:5129   */\n      dup3\n        /* \"#utility.yul\":5116:5134   */\n      add\n        /* \"#utility.yul\":5108:5134   */\n      swap1\n      pop\n        /* \"#utility.yul\":5144:5215   */\n      tag_163\n        /* \"#utility.yul\":5212:5213   */\n      0x00\n        /* \"#utility.yul\":5201:5210   */\n      dup4\n        /* \"#utility.yul\":5197:5214   */\n      add\n        /* \"#utility.yul\":5188:5194   */\n      dup5\n        /* \"#utility.yul\":5144:5215   */\n      tag_157\n      jump\t// in\n    tag_163:\n        /* \"#utility.yul\":5000:5222   */\n      swap3\n      swap2\n      pop\n      pop\n      jump\t// out\n        /* \"#utility.yul\":5228:6376   */\n    tag_23:\n        /* \"#utility.yul\":5569:5573   */\n      0x00\n        /* \"#utility.yul\":5607:5610   */\n      0xe0\n        /* \"#utility.yul\":5596:5605   */\n      dup3\n        /* \"#utility.yul\":5592:5611   */\n      add\n        /* \"#utility.yul\":5584:5611   */\n      swap1\n      pop\n        /* \"#utility.yul\":5621:5692   */\n      tag_165\n        /* \"#utility.yul\":5689:5690   */\n      0x00\n        /* \"#utility.yul\":5678:5687   */\n      dup4\n        /* \"#utility.yul\":5674:5691   */\n      add\n        /* \"#utility.yul\":5665:5671   */\n      dup11\n        /* \"#utility.yul\":5621:5692   */\n      tag_157\n      jump\t// in\n    tag_165:\n        /* \"#utility.yul\":5702:5772   */\n      tag_166\n        /* \"#utility.yul\":5768:5770   */\n      0x20\n        /* \"#utility.yul\":5757:5766   */\n      dup4\n        /* \"#utility.yul\":5753:5771   */\n      add\n        /* \"#utility.yul\":5744:5750   */\n      dup10\n        /* \"#utility.yul\":5702:5772   */\n      tag_118\n      jump\t// in\n    tag_166:\n        /* \"#utility.yul\":5819:5828   */\n      dup2\n        /* \"#utility.yul\":5813:5817   */\n      dup2\n        /* \"#utility.yul\":5809:5829   */\n      sub\n        /* \"#utility.yul\":5804:5806   */\n      0x40\n        /* \"#utility.yul\":5793:5802   */\n      dup4\n        /* \"#utility.yul\":5789:5807   */\n      add\n        /* \"#utility.yul\":5782:5830   */\n      mstore\n        /* \"#utility.yul\":5847:5925   */\n      tag_167\n        /* \"#utility.yul\":5920:5924   */\n      dup2\n        /* \"#utility.yul\":5911:5917   */\n      dup9\n        /* \"#utility.yul\":5847:5925   */\n      tag_131\n      jump\t// in\n    tag_167:\n        /* \"#utility.yul\":5839:5925   */\n      swap1\n      pop\n        /* \"#utility.yul\":5972:5981   */\n      dup2\n        /* \"#utility.yul\":5966:5970   */\n      dup2\n        /* \"#utility.yul\":5962:5982   */\n      sub\n        /* \"#utility.yul\":5957:5959   */\n      0x60\n        /* \"#utility.yul\":5946:5955   */\n      dup4\n        /* \"#utility.yul\":5942:5960   */\n      add\n        /* \"#utility.yul\":5935:5983   */\n      mstore\n        /* \"#utility.yul\":6000:6078   */\n      tag_168\n        /* \"#utility.yul\":6073:6077   */\n      dup2\n        /* \"#utility.yul\":6064:6070   */\n      dup8\n        /* \"#utility.yul\":6000:6078   */\n      tag_131\n      jump\t// in\n    tag_168:\n        /* \"#utility.yul\":5992:6078   */\n      swap1\n      pop\n        /* \"#utility.yul\":6088:6161   */\n      tag_169\n        /* \"#utility.yul\":6156:6159   */\n      0x80\n        /* \"#utility.yul\":6145:6154   */\n      dup4\n        /* \"#utility.yul\":6141:6160   */\n      add\n        /* \"#utility.yul\":6132:6138   */\n      dup7\n        /* \"#utility.yul\":6088:6161   */\n      tag_157\n      jump\t// in\n    tag_169:\n        /* \"#utility.yul\":6171:6242   */\n      tag_170\n        /* \"#utility.yul\":6237:6240   */\n      0xa0\n        /* \"#utility.yul\":6226:6235   */\n      dup4\n        /* \"#utility.yul\":6222:6241   */\n      add\n        /* \"#utility.yul\":6213:6219   */\n      dup6\n        /* \"#utility.yul\":6171:6242   */\n      tag_118\n      jump\t// in\n    tag_170:\n        /* \"#utility.yul\":6252:6369   */\n      tag_171\n        /* \"#utility.yul\":6364:6367   */\n      0xc0\n        /* \"#utility.yul\":6353:6362   */\n      dup4\n        /* \"#utility.yul\":6349:6368   */\n      add\n        /* \"#utility.yul\":6340:6346   */\n      dup5\n        /* \"#utility.yul\":6252:6369   */\n      tag_142\n      jump\t// in\n    tag_171:\n        /* \"#utility.yul\":5228:6376   */\n      swap9\n      swap8\n      pop\n      pop\n      pop\n      pop\n      pop\n      pop\n      pop\n      pop\n      jump\t// out\n        /* \"#utility.yul\":6382:7357   */\n    tag_28:\n        /* \"#utility.yul\":6717:6721   */\n      0x00\n        /* \"#utility.yul\":6755:6758   */\n      0xa0\n        /* \"#utility.yul\":6744:6753   */\n      dup3\n        /* \"#utility.yul\":6740:6759   */\n      add\n        /* \"#utility.yul\":6732:6759   */\n      swap1\n      pop\n        /* \"#utility.yul\":6769:6840   */\n      tag_173\n        /* \"#utility.yul\":6837:6838   */\n      0x00\n        /* \"#utility.yul\":6826:6835   */\n      dup4\n        /* \"#utility.yul\":6822:6839   */\n      add\n        /* \"#utility.yul\":6813:6819   */\n      dup9\n        /* \"#utility.yul\":6769:6840   */\n      tag_157\n      jump\t// in\n    tag_173:\n        /* \"#utility.yul\":6850:6922   */\n      tag_174\n        /* \"#utility.yul\":6918:6920   */\n      0x20\n        /* \"#utility.yul\":6907:6916   */\n      dup4\n        /* \"#utility.yul\":6903:6921   */\n      add\n        /* \"#utility.yul\":6894:6900   */\n      dup8\n        /* \"#utility.yul\":6850:6922   */\n      tag_157\n      jump\t// in\n    tag_174:\n        /* \"#utility.yul\":6969:6978   */\n      dup2\n        /* \"#utility.yul\":6963:6967   */\n      dup2\n        /* \"#utility.yul\":6959:6979   */\n      sub\n        /* \"#utility.yul\":6954:6956   */\n      0x40\n        /* \"#utility.yul\":6943:6952   */\n      dup4\n        /* \"#utility.yul\":6939:6957   */\n      add\n        /* \"#utility.yul\":6932:6980   */\n      mstore\n        /* \"#utility.yul\":6997:7097   */\n      tag_175\n        /* \"#utility.yul\":7092:7096   */\n      dup2\n        /* \"#utility.yul\":7083:7089   */\n      dup7\n        /* \"#utility.yul\":6997:7097   */\n      tag_145\n      jump\t// in\n    tag_175:\n        /* \"#utility.yul\":6989:7097   */\n      swap1\n      pop\n        /* \"#utility.yul\":7107:7223   */\n      tag_176\n        /* \"#utility.yul\":7219:7221   */\n      0x60\n        /* \"#utility.yul\":7208:7217   */\n      dup4\n        /* \"#utility.yul\":7204:7222   */\n      add\n        /* \"#utility.yul\":7195:7201   */\n      dup6\n        /* \"#utility.yul\":7107:7223   */\n      tag_142\n      jump\t// in\n    tag_176:\n        /* \"#utility.yul\":7233:7350   */\n      tag_177\n        /* \"#utility.yul\":7345:7348   */\n      0x80\n        /* \"#utility.yul\":7334:7343   */\n      dup4\n        /* \"#utility.yul\":7330:7349   */\n      add\n        /* \"#utility.yul\":7321:7327   */\n      dup5\n        /* \"#utility.yul\":7233:7350   */\n      tag_142\n      jump\t// in\n    tag_177:\n        /* \"#utility.yul\":6382:7357   */\n      swap7\n      swap6\n      pop\n      pop\n      pop\n      pop\n      pop\n      pop\n      jump\t// out\n        /* \"#utility.yul\":7444:7543   */\n    tag_124:\n        /* \"#utility.yul\":7496:7502   */\n      0x00\n        /* \"#utility.yul\":7530:7535   */\n      dup2\n        /* \"#utility.yul\":7524:7536   */\n      mload\n        /* \"#utility.yul\":7514:7536   */\n      swap1\n      pop\n        /* \"#utility.yul\":7444:7543   */\n      swap2\n      swap1\n      pop\n      jump\t// out\n        /* \"#utility.yul\":7549:7708   */\n    tag_126:\n        /* \"#utility.yul\":7623:7634   */\n      0x00\n        /* \"#utility.yul\":7657:7663   */\n      dup3\n        /* \"#utility.yul\":7652:7655   */\n      dup3\n        /* \"#utility.yul\":7645:7664   */\n      mstore\n        /* \"#utility.yul\":7697:7701   */\n      0x20\n        /* \"#utility.yul\":7692:7695   */\n      dup3\n        /* \"#utility.yul\":7688:7702   */\n      add\n        /* \"#utility.yul\":7673:7702   */\n      swap1\n      pop\n        /* \"#utility.yul\":7549:7708   */\n      swap3\n      swap2\n      pop\n      pop\n      jump\t// out\n        /* \"#utility.yul\":7714:7883   */\n    tag_135:\n        /* \"#utility.yul\":7798:7809   */\n      0x00\n        /* \"#utility.yul\":7832:7838   */\n      dup3\n        /* \"#utility.yul\":7827:7830   */\n      dup3\n        /* \"#utility.yul\":7820:7839   */\n      mstore\n        /* \"#utility.yul\":7872:7876   */\n      0x20\n        /* \"#utility.yul\":7867:7870   */\n      dup3\n        /* \"#utility.yul\":7863:7877   */\n      add\n        /* \"#utility.yul\":7848:7877   */\n      swap1\n      pop\n        /* \"#utility.yul\":7714:7883   */\n      swap3\n      swap2\n      pop\n      pop\n      jump\t// out\n        /* \"#utility.yul\":7889:7965   */\n    tag_117:\n        /* \"#utility.yul\":7925:7932   */\n      0x00\n        /* \"#utility.yul\":7954:7959   */\n      dup2\n        /* \"#utility.yul\":7943:7959   */\n      swap1\n      pop\n        /* \"#utility.yul\":7889:7965   */\n      swap2\n      swap1\n      pop\n      jump\t// out\n        /* \"#utility.yul\":7971:8048   */\n    tag_156:\n        /* \"#utility.yul\":8008:8015   */\n      0x00\n        /* \"#utility.yul\":8037:8042   */\n      dup2\n        /* \"#utility.yul\":8026:8042   */\n      swap1\n      pop\n        /* \"#utility.yul\":7971:8048   */\n      swap2\n      swap1\n      pop\n      jump\t// out\n        /* \"#utility.yul\":8054:8361   */\n    tag_128:\n        /* \"#utility.yul\":8122:8123   */\n      0x00\n        /* \"#utility.yul\":8132:8245   */\n    tag_186:\n        /* \"#utility.yul\":8146:8152   */\n      dup4\n        /* \"#utility.yul\":8143:8144   */\n      dup2\n        /* \"#utility.yul\":8140:8153   */\n      lt\n        /* \"#utility.yul\":8132:8245   */\n      iszero\n      tag_188\n      jumpi\n        /* \"#utility.yul\":8231:8232   */\n      dup1\n        /* \"#utility.yul\":8226:8229   */\n      dup3\n        /* \"#utility.yul\":8222:8233   */\n      add\n        /* \"#utility.yul\":8216:8234   */\n      mload\n        /* \"#utility.yul\":8212:8213   */\n      dup2\n        /* \"#utility.yul\":8207:8210   */\n      dup5\n        /* \"#utility.yul\":8203:8214   */\n      add\n        /* \"#utility.yul\":8196:8235   */\n      mstore\n        /* \"#utility.yul\":8168:8170   */\n      0x20\n        /* \"#utility.yul\":8165:8166   */\n      dup2\n        /* \"#utility.yul\":8161:8171   */\n      add\n        /* \"#utility.yul\":8156:8171   */\n      swap1\n      pop\n        /* \"#utility.yul\":8132:8245   */\n      jump(tag_186)\n    tag_188:\n        /* \"#utility.yul\":8263:8269   */\n      dup4\n        /* \"#utility.yul\":8260:8261   */\n      dup2\n        /* \"#utility.yul\":8257:8270   */\n      gt\n        /* \"#utility.yul\":8254:8355   */\n      iszero\n      tag_189\n      jumpi\n        /* \"#utility.yul\":8343:8344   */\n      0x00\n        /* \"#utility.yul\":8334:8340   */\n      dup5\n        /* \"#utility.yul\":8329:8332   */\n      dup5\n        /* \"#utility.yul\":8325:8341   */\n      add\n        /* \"#utility.yul\":8318:8345   */\n      mstore\n        /* \"#utility.yul\":8254:8355   */\n    tag_189:\n        /* \"#utility.yul\":8103:8361   */\n      pop\n        /* \"#utility.yul\":8054:8361   */\n      pop\n      pop\n      pop\n      jump\t// out\n        /* \"#utility.yul\":8367:8687   */\n    tag_51:\n        /* \"#utility.yul\":8411:8417   */\n      0x00\n        /* \"#utility.yul\":8448:8449   */\n      0x02\n        /* \"#utility.yul\":8442:8446   */\n      dup3\n        /* \"#utility.yul\":8438:8450   */\n      div\n        /* \"#utility.yul\":8428:8450   */\n      swap1\n      pop\n        /* \"#utility.yul\":8495:8496   */\n      0x01\n        /* \"#utility.yul\":8489:8493   */\n      dup3\n        /* \"#utility.yul\":8485:8497   */\n      and\n        /* \"#utility.yul\":8516:8534   */\n      dup1\n        /* \"#utility.yul\":8506:8587   */\n      tag_191\n      jumpi\n        /* \"#utility.yul\":8572:8576   */\n      0x7f\n        /* \"#utility.yul\":8564:8570   */\n      dup3\n        /* \"#utility.yul\":8560:8577   */\n      and\n        /* \"#utility.yul\":8550:8577   */\n      swap2\n      pop\n        /* \"#utility.yul\":8506:8587   */\n    tag_191:\n        /* \"#utility.yul\":8634:8636   */\n      0x20\n        /* \"#utility.yul\":8626:8632   */\n      dup3\n        /* \"#utility.yul\":8623:8637   */\n      lt\n        /* \"#utility.yul\":8603:8621   */\n      dup2\n        /* \"#utility.yul\":8600:8638   */\n      eq\n        /* \"#utility.yul\":8597:8681   */\n      iszero\n      tag_192\n      jumpi\n        /* \"#utility.yul\":8653:8671   */\n      tag_193\n      tag_194\n      jump\t// in\n    tag_193:\n        /* \"#utility.yul\":8597:8681   */\n    tag_192:\n        /* \"#utility.yul\":8418:8687   */\n      pop\n        /* \"#utility.yul\":8367:8687   */\n      swap2\n      swap1\n      pop\n      jump\t// out\n        /* \"#utility.yul\":8693:8873   */\n    tag_194:\n        /* \"#utility.yul\":8741:8818   */\n      0x4e487b7100000000000000000000000000000000000000000000000000000000\n        /* \"#utility.yul\":8738:8739   */\n      0x00\n        /* \"#utility.yul\":8731:8819   */\n      mstore\n        /* \"#utility.yul\":8838:8842   */\n      0x22\n        /* \"#utility.yul\":8835:8836   */\n      0x04\n        /* \"#utility.yul\":8828:8843   */\n      mstore\n        /* \"#utility.yul\":8862:8866   */\n      0x24\n        /* \"#utility.yul\":8859:8860   */\n      0x00\n        /* \"#utility.yul\":8852:8867   */\n      revert\n        /* \"#utility.yul\":8879:9059   */\n    tag_79:\n        /* \"#utility.yul\":8927:9004   */\n      0x4e487b7100000000000000000000000000000000000000000000000000000000\n        /* \"#utility.yul\":8924:8925   */\n      0x00\n        /* \"#utility.yul\":8917:9005   */\n      mstore\n        /* \"#utility.yul\":9024:9028   */\n      0x32\n        /* \"#utility.yul\":9021:9022   */\n      0x04\n        /* \"#utility.yul\":9014:9029   */\n      mstore\n        /* \"#utility.yul\":9048:9052   */\n      0x24\n        /* \"#utility.yul\":9045:9046   */\n      0x00\n        /* \"#utility.yul\":9038:9053   */\n      revert\n        /* \"#utility.yul\":9188:9305   */\n    tag_108:\n        /* \"#utility.yul\":9297:9298   */\n      0x00\n        /* \"#utility.yul\":9294:9295   */\n      dup1\n        /* \"#utility.yul\":9287:9299   */\n      revert\n        /* \"#utility.yul\":9311:9413   */\n    tag_130:\n        /* \"#utility.yul\":9352:9358   */\n      0x00\n        /* \"#utility.yul\":9403:9405   */\n      0x1f\n        /* \"#utility.yul\":9399:9406   */\n      not\n        /* \"#utility.yul\":9394:9396   */\n      0x1f\n        /* \"#utility.yul\":9387:9392   */\n      dup4\n        /* \"#utility.yul\":9383:9397   */\n      add\n        /* \"#utility.yul\":9379:9407   */\n      and\n        /* \"#utility.yul\":9369:9407   */\n      swap1\n      pop\n        /* \"#utility.yul\":9311:9413   */\n      swap2\n      swap1\n      pop\n      jump\t// out\n        /* \"#utility.yul\":9419:9539   */\n    tag_100:\n        /* \"#utility.yul\":9491:9514   */\n      tag_202\n        /* \"#utility.yul\":9508:9513   */\n      dup2\n        /* \"#utility.yul\":9491:9514   */\n      tag_117\n      jump\t// in\n    tag_202:\n        /* \"#utility.yul\":9484:9489   */\n      dup2\n        /* \"#utility.yul\":9481:9515   */\n      eq\n        /* \"#utility.yul\":9471:9533   */\n      tag_203\n      jumpi\n        /* \"#utility.yul\":9529:9530   */\n      0x00\n        /* \"#utility.yul\":9526:9527   */\n      dup1\n        /* \"#utility.yul\":9519:9531   */\n      revert\n        /* \"#utility.yul\":9471:9533   */\n    tag_203:\n        /* \"#utility.yul\":9419:9539   */\n      pop\n      jump\t// out\n        /* \"#utility.yul\":9545:9667   */\n    tag_104:\n        /* \"#utility.yul\":9618:9642   */\n      tag_205\n        /* \"#utility.yul\":9636:9641   */\n      dup2\n        /* \"#utility.yul\":9618:9642   */\n      tag_156\n      jump\t// in\n    tag_205:\n        /* \"#utility.yul\":9611:9616   */\n      dup2\n        /* \"#utility.yul\":9608:9643   */\n      eq\n        /* \"#utility.yul\":9598:9661   */\n      tag_206\n      jumpi\n        /* \"#utility.yul\":9657:9658   */\n      0x00\n        /* \"#utility.yul\":9654:9655   */\n      dup1\n        /* \"#utility.yul\":9647:9659   */\n      revert\n        /* \"#utility.yul\":9598:9661   */\n    tag_206:\n        /* \"#utility.yul\":9545:9667   */\n      pop\n      jump\t// out\n\n    auxdata: 0xa264697066735822122026301367c575d815bac7868ade734f4627f762d6e76f737f1554ca5c7c6c916164736f6c63430008070033\n}\n",
				"bytecode": {
					"linkReferences": {},
					"object": "608060405234801561001057600080fd5b50610bf0806100206000396000f3fe608060405234801561001057600080fd5b50600436106100885760003560e01c80639966e0a61161005b5780639966e0a61461012f578063a8e28c491461014b578063d0068f801461017b578063f88af21d1461019757610088565b80633742a9f71461008d57806347ac33ee146100a95780637a80dc1d146100c55780638392fe31146100fb575b600080fd5b6100a760048036038101906100a291906107a8565b6101c7565b005b6100c360048036038101906100be91906107a8565b6101ca565b005b6100df60048036038101906100da91906107a8565b6101cd565b6040516100f2979695949392919061099b565b60405180910390f35b610115600480360381019061011091906107a8565b610343565b604051610126959493929190610a18565b60405180910390f35b6101496004803603810190610144919061077b565b610525565b005b610165600480360381019061016091906107a8565b610528565b604051610172919061095e565b60405180910390f35b610195600480360381019061019091906107a8565b6106ce565b005b6101b160048036038101906101ac91906107a8565b6106d1565b6040516101be9190610980565b60405180910390f35b50565b50565b600081815481106101dd57600080fd5b906000526020600020906007020160009150905080600001549080600101549080600201805461020c90610ae6565b80601f016020809104026020016040519081016040528092919081815260200182805461023890610ae6565b80156102855780601f1061025a57610100808354040283529160200191610285565b820191906000526020600020905b81548152906001019060200180831161026857829003601f168201915b50505050509080600301805461029a90610ae6565b80601f01602080910402602001604051908101604052809291908181526020018280546102c690610ae6565b80156103135780601f106102e857610100808354040283529160200191610313565b820191906000526020600020905b8154815290600101906020018083116102f657829003601f168201915b50505050509080600401549080600501549080600601604051806020016040529081600082015481525050905087565b6001818154811061035357600080fd5b90600052602060002090600b0201600091509050806000015490806001015490806002016040518060e001604052908160008201548152602001600182015481526020016002820180546103a690610ae6565b80601f01602080910402602001604051908101604052809291908181526020018280546103d290610ae6565b801561041f5780601f106103f45761010080835404028352916020019161041f565b820191906000526020600020905b81548152906001019060200180831161040257829003601f168201915b5050505050815260200160038201805461043890610ae6565b80601f016020809104026020016040519081016040528092919081815260200182805461046490610ae6565b80156104b15780601f10610486576101008083540402835291602001916104b1565b820191906000526020600020905b81548152906001019060200180831161049457829003601f168201915b505050505081526020016004820154815260200160058201548152602001600682016040518060200160405290816000820154815250508152505090806009016040518060200160405290816000820154815250509080600a01604051806020016040529081600082015481525050905085565b50565b6105306106fb565b6000808154811061054457610543610b47565b5b90600052602060002090600702016040518060e0016040529081600082015481526020016001820154815260200160028201805461058190610ae6565b80601f01602080910402602001604051908101604052809291908181526020018280546105ad90610ae6565b80156105fa5780601f106105cf576101008083540402835291602001916105fa565b820191906000526020600020905b8154815290600101906020018083116105dd57829003601f168201915b5050505050815260200160038201805461061390610ae6565b80601f016020809104026020016040519081016040528092919081815260200182805461063f90610ae6565b801561068c5780601f106106615761010080835404028352916020019161068c565b820191906000526020600020905b81548152906001019060200180831161066f57829003601f168201915b50505050508152602001600482015481526020016005820154815260200160068201604051806020016040529081600082015481525050815250509050919050565b50565b600281815481106106e157600080fd5b906000526020600020016000915090508060000154905081565b6040518060e0016040528060008152602001600081526020016060815260200160608152602001600081526020016000815260200161073861073e565b81525090565b6040518060200160405280600081525090565b60008135905061076081610b8c565b92915050565b60008135905061077581610ba3565b92915050565b60006020828403121561079157610790610b76565b5b600061079f84828501610751565b91505092915050565b6000602082840312156107be576107bd610b76565b5b60006107cc84828501610766565b91505092915050565b6107de81610a9f565b82525050565b6107ed81610a9f565b82525050565b60006107fe82610a72565b6108088185610a7d565b9350610818818560208601610ab3565b61082181610b7b565b840191505092915050565b600061083782610a72565b6108418185610a8e565b9350610851818560208601610ab3565b61085a81610b7b565b840191505092915050565b60208201600082015161087b6000850182610940565b50505050565b6020820160008201516108976000850182610940565b50505050565b600060e0830160008301516108b56000860182610940565b5060208301516108c860208601826107d5565b50604083015184820360408601526108e082826107f3565b915050606083015184820360608601526108fa82826107f3565b915050608083015161090f6080860182610940565b5060a083015161092260a08601826107d5565b5060c083015161093560c0860182610865565b508091505092915050565b61094981610aa9565b82525050565b61095881610aa9565b82525050565b60006020820190508181036000830152610978818461089d565b905092915050565b6000602082019050610995600083018461094f565b92915050565b600060e0820190506109b0600083018a61094f565b6109bd60208301896107e4565b81810360408301526109cf818861082c565b905081810360608301526109e3818761082c565b90506109f2608083018661094f565b6109ff60a08301856107e4565b610a0c60c0830184610881565b98975050505050505050565b600060a082019050610a2d600083018861094f565b610a3a602083018761094f565b8181036040830152610a4c818661089d565b9050610a5b6060830185610881565b610a686080830184610881565b9695505050505050565b600081519050919050565b600082825260208201905092915050565b600082825260208201905092915050565b6000819050919050565b6000819050919050565b60005b83811015610ad1578082015181840152602081019050610ab6565b83811115610ae0576000848401525b50505050565b60006002820490506001821680610afe57607f821691505b60208210811415610b1257610b11610b18565b5b50919050565b7f4e487b7100000000000000000000000000000000000000000000000000000000600052602260045260246000fd5b7f4e487b7100000000000000000000000000000000000000000000000000000000600052603260045260246000fd5b600080fd5b6000601f19601f8301169050919050565b610b9581610a9f565b8114610ba057600080fd5b50565b610bac81610aa9565b8114610bb757600080fd5b5056fea264697066735822122026301367c575d815bac7868ade734f4627f762d6e76f737f1554ca5c7c6c916164736f6c63430008070033",
					"opcodes": "PUSH1 0x80 PUSH1 0x40 MSTORE CALLVALUE DUP1 ISZERO PUSH2 0x10 JUMPI PUSH1 0x0 DUP1 REVERT JUMPDEST POP PUSH2 0xBF0 DUP1 PUSH2 0x20 PUSH1 0x0 CODECOPY PUSH1 0x0 RETURN INVALID PUSH1 0x80 PUSH1 0x40 MSTORE CALLVALUE DUP1 ISZERO PUSH2 0x10 JUMPI PUSH1 0x0 DUP1 REVERT JUMPDEST POP PUSH1 0x4 CALLDATASIZE LT PUSH2 0x88 JUMPI PUSH1 0x0 CALLDATALOAD PUSH1 0xE0 SHR DUP1 PUSH4 0x9966E0A6 GT PUSH2 0x5B JUMPI DUP1 PUSH4 0x9966E0A6 EQ PUSH2 0x12F JUMPI DUP1 PUSH4 0xA8E28C49 EQ PUSH2 0x14B JUMPI DUP1 PUSH4 0xD0068F80 EQ PUSH2 0x17B JUMPI DUP1 PUSH4 0xF88AF21D EQ PUSH2 0x197 JUMPI PUSH2 0x88 JUMP JUMPDEST DUP1 PUSH4 0x3742A9F7 EQ PUSH2 0x8D JUMPI DUP1 PUSH4 0x47AC33EE EQ PUSH2 0xA9 JUMPI DUP1 PUSH4 0x7A80DC1D EQ PUSH2 0xC5 JUMPI DUP1 PUSH4 0x8392FE31 EQ PUSH2 0xFB JUMPI JUMPDEST PUSH1 0x0 DUP1 REVERT JUMPDEST PUSH2 0xA7 PUSH1 0x4 DUP1 CALLDATASIZE SUB DUP2 ADD SWAP1 PUSH2 0xA2 SWAP2 SWAP1 PUSH2 0x7A8 JUMP JUMPDEST PUSH2 0x1C7 JUMP JUMPDEST STOP JUMPDEST PUSH2 0xC3 PUSH1 0x4 DUP1 CALLDATASIZE SUB DUP2 ADD SWAP1 PUSH2 0xBE SWAP2 SWAP1 PUSH2 0x7A8 JUMP JUMPDEST PUSH2 0x1CA JUMP JUMPDEST STOP JUMPDEST PUSH2 0xDF PUSH1 0x4 DUP1 CALLDATASIZE SUB DUP2 ADD SWAP1 PUSH2 0xDA SWAP2 SWAP1 PUSH2 0x7A8 JUMP JUMPDEST PUSH2 0x1CD JUMP JUMPDEST PUSH1 0x40 MLOAD PUSH2 0xF2 SWAP8 SWAP7 SWAP6 SWAP5 SWAP4 SWAP3 SWAP2 SWAP1 PUSH2 0x99B JUMP JUMPDEST PUSH1 0x40 MLOAD DUP1 SWAP2 SUB SWAP1 RETURN JUMPDEST PUSH2 0x115 PUSH1 0x4 DUP1 CALLDATASIZE SUB DUP2 ADD SWAP1 PUSH2 0x110 SWAP2 SWAP1 PUSH2 0x7A8 JUMP JUMPDEST PUSH2 0x343 JUMP JUMPDEST PUSH1 0x40 MLOAD PUSH2 0x126 SWAP6 SWAP5 SWAP4 SWAP3 SWAP2 SWAP1 PUSH2 0xA18 JUMP JUMPDEST PUSH1 0x40 MLOAD DUP1 SWAP2 SUB SWAP1 RETURN JUMPDEST PUSH2 0x149 PUSH1 0x4 DUP1 CALLDATASIZE SUB DUP2 ADD SWAP1 PUSH2 0x144 SWAP2 SWAP1 PUSH2 0x77B JUMP JUMPDEST PUSH2 0x525 JUMP JUMPDEST STOP JUMPDEST PUSH2 0x165 PUSH1 0x4 DUP1 CALLDATASIZE SUB DUP2 ADD SWAP1 PUSH2 0x160 SWAP2 SWAP1 PUSH2 0x7A8 JUMP JUMPDEST PUSH2 0x528 JUMP JUMPDEST PUSH1 0x40 MLOAD PUSH2 0x172 SWAP2 SWAP1 PUSH2 0x95E JUMP JUMPDEST PUSH1 0x40 MLOAD DUP1 SWAP2 SUB SWAP1 RETURN JUMPDEST PUSH2 0x195 PUSH1 0x4 DUP1 CALLDATASIZE SUB DUP2 ADD SWAP1 PUSH2 0x190 SWAP2 SWAP1 PUSH2 0x7A8 JUMP JUMPDEST PUSH2 0x6CE JUMP JUMPDEST STOP JUMPDEST PUSH2 0x1B1 PUSH1 0x4 DUP1 CALLDATASIZE SUB DUP2 ADD SWAP1 PUSH2 0x1AC SWAP2 SWAP1 PUSH2 0x7A8 JUMP JUMPDEST PUSH2 0x6D1 JUMP JUMPDEST PUSH1 0x40 MLOAD PUSH2 0x1BE SWAP2 SWAP1 PUSH2 0x980 JUMP JUMPDEST PUSH1 0x40 MLOAD DUP1 SWAP2 SUB SWAP1 RETURN JUMPDEST POP JUMP JUMPDEST POP JUMP JUMPDEST PUSH1 0x0 DUP2 DUP2 SLOAD DUP2 LT PUSH2 0x1DD JUMPI PUSH1 0x0 DUP1 REVERT JUMPDEST SWAP1 PUSH1 0x0 MSTORE PUSH1 0x20 PUSH1 0x0 KECCAK256 SWAP1 PUSH1 0x7 MUL ADD PUSH1 0x0 SWAP2 POP SWAP1 POP DUP1 PUSH1 0x0 ADD SLOAD SWAP1 DUP1 PUSH1 0x1 ADD SLOAD SWAP1 DUP1 PUSH1 0x2 ADD DUP1 SLOAD PUSH2 0x20C SWAP1 PUSH2 0xAE6 JUMP JUMPDEST DUP1 PUSH1 0x1F ADD PUSH1 0x20 DUP1 SWAP2 DIV MUL PUSH1 0x20 ADD PUSH1 0x40 MLOAD SWAP1 DUP2 ADD PUSH1 0x40 MSTORE DUP1 SWAP3 SWAP2 SWAP1 DUP2 DUP2 MSTORE PUSH1 0x20 ADD DUP3 DUP1 SLOAD PUSH2 0x238 SWAP1 PUSH2 0xAE6 JUMP JUMPDEST DUP1 ISZERO PUSH2 0x285 JUMPI DUP1 PUSH1 0x1F LT PUSH2 0x25A JUMPI PUSH2 0x100 DUP1 DUP4 SLOAD DIV MUL DUP4 MSTORE SWAP2 PUSH1 0x20 ADD SWAP2 PUSH2 0x285 JUMP JUMPDEST DUP3 ADD SWAP2 SWAP1 PUSH1 0x0 MSTORE PUSH1 0x20 PUSH1 0x0 KECCAK256 SWAP1 JUMPDEST DUP2 SLOAD DUP2 MSTORE SWAP1 PUSH1 0x1 ADD SWAP1 PUSH1 0x20 ADD DUP1 DUP4 GT PUSH2 0x268 JUMPI DUP3 SWAP1 SUB PUSH1 0x1F AND DUP3 ADD SWAP2 JUMPDEST POP POP POP POP POP SWAP1 DUP1 PUSH1 0x3 ADD DUP1 SLOAD PUSH2 0x29A SWAP1 PUSH2 0xAE6 JUMP JUMPDEST DUP1 PUSH1 0x1F ADD PUSH1 0x20 DUP1 SWAP2 DIV MUL PUSH1 0x20 ADD PUSH1 0x40 MLOAD SWAP1 DUP2 ADD PUSH1 0x40 MSTORE DUP1 SWAP3 SWAP2 SWAP1 DUP2 DUP2 MSTORE PUSH1 0x20 ADD DUP3 DUP1 SLOAD PUSH2 0x2C6 SWAP1 PUSH2 0xAE6 JUMP JUMPDEST DUP1 ISZERO PUSH2 0x313 JUMPI DUP1 PUSH1 0x1F LT PUSH2 0x2E8 JUMPI PUSH2 0x100 DUP1 DUP4 SLOAD DIV MUL DUP4 MSTORE SWAP2 PUSH1 0x20 ADD SWAP2 PUSH2 0x313 JUMP JUMPDEST DUP3 ADD SWAP2 SWAP1 PUSH1 0x0 MSTORE PUSH1 0x20 PUSH1 0x0 KECCAK256 SWAP1 JUMPDEST DUP2 SLOAD DUP2 MSTORE SWAP1 PUSH1 0x1 ADD SWAP1 PUSH1 0x20 ADD DUP1 DUP4 GT PUSH2 0x2F6 JUMPI DUP3 SWAP1 SUB PUSH1 0x1F AND DUP3 ADD SWAP2 JUMPDEST POP POP POP POP POP SWAP1 DUP1 PUSH1 0x4 ADD SLOAD SWAP1 DUP1 PUSH1 0x5 ADD SLOAD SWAP1 DUP1 PUSH1 0x6 ADD PUSH1 0x40 MLOAD DUP1 PUSH1 0x20 ADD PUSH1 0x40 MSTORE SWAP1 DUP2 PUSH1 0x0 DUP3 ADD SLOAD DUP2 MSTORE POP POP SWAP1 POP DUP8 JUMP JUMPDEST PUSH1 0x1 DUP2 DUP2 SLOAD DUP2 LT PUSH2 0x353 JUMPI PUSH1 0x0 DUP1 REVERT JUMPDEST SWAP1 PUSH1 0x0 MSTORE PUSH1 0x20 PUSH1 0x0 KECCAK256 SWAP1 PUSH1 0xB MUL ADD PUSH1 0x0 SWAP2 POP SWAP1 POP DUP1 PUSH1 0x0 ADD SLOAD SWAP1 DUP1 PUSH1 0x1 ADD SLOAD SWAP1 DUP1 PUSH1 0x2 ADD PUSH1 0x40 MLOAD DUP1 PUSH1 0xE0 ADD PUSH1 0x40 MSTORE SWAP1 DUP2 PUSH1 0x0 DUP3 ADD SLOAD DUP2 MSTORE PUSH1 0x20 ADD PUSH1 0x1 DUP3 ADD SLOAD DUP2 MSTORE PUSH1 0x20 ADD PUSH1 0x2 DUP3 ADD DUP1 SLOAD PUSH2 0x3A6 SWAP1 PUSH2 0xAE6 JUMP JUMPDEST DUP1 PUSH1 0x1F ADD PUSH1 0x20 DUP1 SWAP2 DIV MUL PUSH1 0x20 ADD PUSH1 0x40 MLOAD SWAP1 DUP2 ADD PUSH1 0x40 MSTORE DUP1 SWAP3 SWAP2 SWAP1 DUP2 DUP2 MSTORE PUSH1 0x20 ADD DUP3 DUP1 SLOAD PUSH2 0x3D2 SWAP1 PUSH2 0xAE6 JUMP JUMPDEST DUP1 ISZERO PUSH2 0x41F JUMPI DUP1 PUSH1 0x1F LT PUSH2 0x3F4 JUMPI PUSH2 0x100 DUP1 DUP4 SLOAD DIV MUL DUP4 MSTORE SWAP2 PUSH1 0x20 ADD SWAP2 PUSH2 0x41F JUMP JUMPDEST DUP3 ADD SWAP2 SWAP1 PUSH1 0x0 MSTORE PUSH1 0x20 PUSH1 0x0 KECCAK256 SWAP1 JUMPDEST DUP2 SLOAD DUP2 MSTORE SWAP1 PUSH1 0x1 ADD SWAP1 PUSH1 0x20 ADD DUP1 DUP4 GT PUSH2 0x402 JUMPI DUP3 SWAP1 SUB PUSH1 0x1F AND DUP3 ADD SWAP2 JUMPDEST POP POP POP POP POP DUP2 MSTORE PUSH1 0x20 ADD PUSH1 0x3 DUP3 ADD DUP1 SLOAD PUSH2 0x438 SWAP1 PUSH2 0xAE6 JUMP JUMPDEST DUP1 PUSH1 0x1F ADD PUSH1 0x20 DUP1 SWAP2 DIV MUL PUSH1 0x20 ADD PUSH1 0x40 MLOAD SWAP1 DUP2 ADD PUSH1 0x40 MSTORE DUP1 SWAP3 SWAP2 SWAP1 DUP2 DUP2 MSTORE PUSH1 0x20 ADD DUP3 DUP1 SLOAD PUSH2 0x464 SWAP1 PUSH2 0xAE6 JUMP JUMPDEST DUP1 ISZERO PUSH2 0x4B1 JUMPI DUP1 PUSH1 0x1F LT PUSH2 0x486 JUMPI PUSH2 0x100 DUP1 DUP4 SLOAD DIV MUL DUP4 MSTORE SWAP2 PUSH1 0x20 ADD SWAP2 PUSH2 0x4B1 JUMP JUMPDEST DUP3 ADD SWAP2 SWAP1 PUSH1 0x0 MSTORE PUSH1 0x20 PUSH1 0x0 KECCAK256 SWAP1 JUMPDEST DUP2 SLOAD DUP2 MSTORE SWAP1 PUSH1 0x1 ADD SWAP1 PUSH1 0x20 ADD DUP1 DUP4 GT PUSH2 0x494 JUMPI DUP3 SWAP1 SUB PUSH1 0x1F AND DUP3 ADD SWAP2 JUMPDEST POP POP POP POP POP DUP2 MSTORE PUSH1 0x20 ADD PUSH1 0x4 DUP3 ADD SLOAD DUP2 MSTORE PUSH1 0x20 ADD PUSH1 0x5 DUP3 ADD SLOAD DUP2 MSTORE PUSH1 0x20 ADD PUSH1 0x6 DUP3 ADD PUSH1 0x40 MLOAD DUP1 PUSH1 0x20 ADD PUSH1 0x40 MSTORE SWAP1 DUP2 PUSH1 0x0 DUP3 ADD SLOAD DUP2 MSTORE POP POP DUP2 MSTORE POP POP SWAP1 DUP1 PUSH1 0x9 ADD PUSH1 0x40 MLOAD DUP1 PUSH1 0x20 ADD PUSH1 0x40 MSTORE SWAP1 DUP2 PUSH1 0x0 DUP3 ADD SLOAD DUP2 MSTORE POP POP SWAP1 DUP1 PUSH1 0xA ADD PUSH1 0x40 MLOAD DUP1 PUSH1 0x20 ADD PUSH1 0x40 MSTORE SWAP1 DUP2 PUSH1 0x0 DUP3 ADD SLOAD DUP2 MSTORE POP POP SWAP1 POP DUP6 JUMP JUMPDEST POP JUMP JUMPDEST PUSH2 0x530 PUSH2 0x6FB JUMP JUMPDEST PUSH1 0x0 DUP1 DUP2 SLOAD DUP2 LT PUSH2 0x544 JUMPI PUSH2 0x543 PUSH2 0xB47 JUMP JUMPDEST JUMPDEST SWAP1 PUSH1 0x0 MSTORE PUSH1 0x20 PUSH1 0x0 KECCAK256 SWAP1 PUSH1 0x7 MUL ADD PUSH1 0x40 MLOAD DUP1 PUSH1 0xE0 ADD PUSH1 0x40 MSTORE SWAP1 DUP2 PUSH1 0x0 DUP3 ADD SLOAD DUP2 MSTORE PUSH1 0x20 ADD PUSH1 0x1 DUP3 ADD SLOAD DUP2 MSTORE PUSH1 0x20 ADD PUSH1 0x2 DUP3 ADD DUP1 SLOAD PUSH2 0x581 SWAP1 PUSH2 0xAE6 JUMP JUMPDEST DUP1 PUSH1 0x1F ADD PUSH1 0x20 DUP1 SWAP2 DIV MUL PUSH1 0x20 ADD PUSH1 0x40 MLOAD SWAP1 DUP2 ADD PUSH1 0x40 MSTORE DUP1 SWAP3 SWAP2 SWAP1 DUP2 DUP2 MSTORE PUSH1 0x20 ADD DUP3 DUP1 SLOAD PUSH2 0x5AD SWAP1 PUSH2 0xAE6 JUMP JUMPDEST DUP1 ISZERO PUSH2 0x5FA JUMPI DUP1 PUSH1 0x1F LT PUSH2 0x5CF JUMPI PUSH2 0x100 DUP1 DUP4 SLOAD DIV MUL DUP4 MSTORE SWAP2 PUSH1 0x20 ADD SWAP2 PUSH2 0x5FA JUMP JUMPDEST DUP3 ADD SWAP2 SWAP1 PUSH1 0x0 MSTORE PUSH1 0x20 PUSH1 0x0 KECCAK256 SWAP1 JUMPDEST DUP2 SLOAD DUP2 MSTORE SWAP1 PUSH1 0x1 ADD SWAP1 PUSH1 0x20 ADD DUP1 DUP4 GT PUSH2 0x5DD JUMPI DUP3 SWAP1 SUB PUSH1 0x1F AND DUP3 ADD SWAP2 JUMPDEST POP POP POP POP POP DUP2 MSTORE PUSH1 0x20 ADD PUSH1 0x3 DUP3 ADD DUP1 SLOAD PUSH2 0x613 SWAP1 PUSH2 0xAE6 JUMP JUMPDEST DUP1 PUSH1 0x1F ADD PUSH1 0x20 DUP1 SWAP2 DIV MUL PUSH1 0x20 ADD PUSH1 0x40 MLOAD SWAP1 DUP2 ADD PUSH1 0x40 MSTORE DUP1 SWAP3 SWAP2 SWAP1 DUP2 DUP2 MSTORE PUSH1 0x20 ADD DUP3 DUP1 SLOAD PUSH2 0x63F SWAP1 PUSH2 0xAE6 JUMP JUMPDEST DUP1 ISZERO PUSH2 0x68C JUMPI DUP1 PUSH1 0x1F LT PUSH2 0x661 JUMPI PUSH2 0x100 DUP1 DUP4 SLOAD DIV MUL DUP4 MSTORE SWAP2 PUSH1 0x20 ADD SWAP2 PUSH2 0x68C JUMP JUMPDEST DUP3 ADD SWAP2 SWAP1 PUSH1 0x0 MSTORE PUSH1 0x20 PUSH1 0x0 KECCAK256 SWAP1 JUMPDEST DUP2 SLOAD DUP2 MSTORE SWAP1 PUSH1 0x1 ADD SWAP1 PUSH1 0x20 ADD DUP1 DUP4 GT PUSH2 0x66F JUMPI DUP3 SWAP1 SUB PUSH1 0x1F AND DUP3 ADD SWAP2 JUMPDEST POP POP POP POP POP DUP2 MSTORE PUSH1 0x20 ADD PUSH1 0x4 DUP3 ADD SLOAD DUP2 MSTORE PUSH1 0x20 ADD PUSH1 0x5 DUP3 ADD SLOAD DUP2 MSTORE PUSH1 0x20 ADD PUSH1 0x6 DUP3 ADD PUSH1 0x40 MLOAD DUP1 PUSH1 0x20 ADD PUSH1 0x40 MSTORE SWAP1 DUP2 PUSH1 0x0 DUP3 ADD SLOAD DUP2 MSTORE POP POP DUP2 MSTORE POP POP SWAP1 POP SWAP2 SWAP1 POP JUMP JUMPDEST POP JUMP JUMPDEST PUSH1 0x2 DUP2 DUP2 SLOAD DUP2 LT PUSH2 0x6E1 JUMPI PUSH1 0x0 DUP1 REVERT JUMPDEST SWAP1 PUSH1 0x0 MSTORE PUSH1 0x20 PUSH1 0x0 KECCAK256 ADD PUSH1 0x0 SWAP2 POP SWAP1 POP DUP1 PUSH1 0x0 ADD SLOAD SWAP1 POP DUP2 JUMP JUMPDEST PUSH1 0x40 MLOAD DUP1 PUSH1 0xE0 ADD PUSH1 0x40 MSTORE DUP1 PUSH1 0x0 DUP2 MSTORE PUSH1 0x20 ADD PUSH1 0x0 DUP2 MSTORE PUSH1 0x20 ADD PUSH1 0x60 DUP2 MSTORE PUSH1 0x20 ADD PUSH1 0x60 DUP2 MSTORE PUSH1 0x20 ADD PUSH1 0x0 DUP2 MSTORE PUSH1 0x20 ADD PUSH1 0x0 DUP2 MSTORE PUSH1 0x20 ADD PUSH2 0x738 PUSH2 0x73E JUMP JUMPDEST DUP2 MSTORE POP SWAP1 JUMP JUMPDEST PUSH1 0x40 MLOAD DUP1 PUSH1 0x20 ADD PUSH1 0x40 MSTORE DUP1 PUSH1 0x0 DUP2 MSTORE POP SWAP1 JUMP JUMPDEST PUSH1 0x0 DUP2 CALLDATALOAD SWAP1 POP PUSH2 0x760 DUP2 PUSH2 0xB8C JUMP JUMPDEST SWAP3 SWAP2 POP POP JUMP JUMPDEST PUSH1 0x0 DUP2 CALLDATALOAD SWAP1 POP PUSH2 0x775 DUP2 PUSH2 0xBA3 JUMP JUMPDEST SWAP3 SWAP2 POP POP JUMP JUMPDEST PUSH1 0x0 PUSH1 0x20 DUP3 DUP5 SUB SLT ISZERO PUSH2 0x791 JUMPI PUSH2 0x790 PUSH2 0xB76 JUMP JUMPDEST JUMPDEST PUSH1 0x0 PUSH2 0x79F DUP5 DUP3 DUP6 ADD PUSH2 0x751 JUMP JUMPDEST SWAP2 POP POP SWAP3 SWAP2 POP POP JUMP JUMPDEST PUSH1 0x0 PUSH1 0x20 DUP3 DUP5 SUB SLT ISZERO PUSH2 0x7BE JUMPI PUSH2 0x7BD PUSH2 0xB76 JUMP JUMPDEST JUMPDEST PUSH1 0x0 PUSH2 0x7CC DUP5 DUP3 DUP6 ADD PUSH2 0x766 JUMP JUMPDEST SWAP2 POP POP SWAP3 SWAP2 POP POP JUMP JUMPDEST PUSH2 0x7DE DUP2 PUSH2 0xA9F JUMP JUMPDEST DUP3 MSTORE POP POP JUMP JUMPDEST PUSH2 0x7ED DUP2 PUSH2 0xA9F JUMP JUMPDEST DUP3 MSTORE POP POP JUMP JUMPDEST PUSH1 0x0 PUSH2 0x7FE DUP3 PUSH2 0xA72 JUMP JUMPDEST PUSH2 0x808 DUP2 DUP6 PUSH2 0xA7D JUMP JUMPDEST SWAP4 POP PUSH2 0x818 DUP2 DUP6 PUSH1 0x20 DUP7 ADD PUSH2 0xAB3 JUMP JUMPDEST PUSH2 0x821 DUP2 PUSH2 0xB7B JUMP JUMPDEST DUP5 ADD SWAP2 POP POP SWAP3 SWAP2 POP POP JUMP JUMPDEST PUSH1 0x0 PUSH2 0x837 DUP3 PUSH2 0xA72 JUMP JUMPDEST PUSH2 0x841 DUP2 DUP6 PUSH2 0xA8E JUMP JUMPDEST SWAP4 POP PUSH2 0x851 DUP2 DUP6 PUSH1 0x20 DUP7 ADD PUSH2 0xAB3 JUMP JUMPDEST PUSH2 0x85A DUP2 PUSH2 0xB7B JUMP JUMPDEST DUP5 ADD SWAP2 POP POP SWAP3 SWAP2 POP POP JUMP JUMPDEST PUSH1 0x20 DUP3 ADD PUSH1 0x0 DUP3 ADD MLOAD PUSH2 0x87B PUSH1 0x0 DUP6 ADD DUP3 PUSH2 0x940 JUMP JUMPDEST POP POP POP POP JUMP JUMPDEST PUSH1 0x20 DUP3 ADD PUSH1 0x0 DUP3 ADD MLOAD PUSH2 0x897 PUSH1 0x0 DUP6 ADD DUP3 PUSH2 0x940 JUMP JUMPDEST POP POP POP POP JUMP JUMPDEST PUSH1 0x0 PUSH1 0xE0 DUP4 ADD PUSH1 0x0 DUP4 ADD MLOAD PUSH2 0x8B5 PUSH1 0x0 DUP7 ADD DUP3 PUSH2 0x940 JUMP JUMPDEST POP PUSH1 0x20 DUP4 ADD MLOAD PUSH2 0x8C8 PUSH1 0x20 DUP7 ADD DUP3 PUSH2 0x7D5 JUMP JUMPDEST POP PUSH1 0x40 DUP4 ADD MLOAD DUP5 DUP3 SUB PUSH1 0x40 DUP7 ADD MSTORE PUSH2 0x8E0 DUP3 DUP3 PUSH2 0x7F3 JUMP JUMPDEST SWAP2 POP POP PUSH1 0x60 DUP4 ADD MLOAD DUP5 DUP3 SUB PUSH1 0x60 DUP7 ADD MSTORE PUSH2 0x8FA DUP3 DUP3 PUSH2 0x7F3 JUMP JUMPDEST SWAP2 POP POP PUSH1 0x80 DUP4 ADD MLOAD PUSH2 0x90F PUSH1 0x80 DUP7 ADD DUP3 PUSH2 0x940 JUMP JUMPDEST POP PUSH1 0xA0 DUP4 ADD MLOAD PUSH2 0x922 PUSH1 0xA0 DUP7 ADD DUP3 PUSH2 0x7D5 JUMP JUMPDEST POP PUSH1 0xC0 DUP4 ADD MLOAD PUSH2 0x935 PUSH1 0xC0 DUP7 ADD DUP3 PUSH2 0x865 JUMP JUMPDEST POP DUP1 SWAP2 POP POP SWAP3 SWAP2 POP POP JUMP JUMPDEST PUSH2 0x949 DUP2 PUSH2 0xAA9 JUMP JUMPDEST DUP3 MSTORE POP POP JUMP JUMPDEST PUSH2 0x958 DUP2 PUSH2 0xAA9 JUMP JUMPDEST DUP3 MSTORE POP POP JUMP JUMPDEST PUSH1 0x0 PUSH1 0x20 DUP3 ADD SWAP1 POP DUP2 DUP2 SUB PUSH1 0x0 DUP4 ADD MSTORE PUSH2 0x978 DUP2 DUP5 PUSH2 0x89D JUMP JUMPDEST SWAP1 POP SWAP3 SWAP2 POP POP JUMP JUMPDEST PUSH1 0x0 PUSH1 0x20 DUP3 ADD SWAP1 POP PUSH2 0x995 PUSH1 0x0 DUP4 ADD DUP5 PUSH2 0x94F JUMP JUMPDEST SWAP3 SWAP2 POP POP JUMP JUMPDEST PUSH1 0x0 PUSH1 0xE0 DUP3 ADD SWAP1 POP PUSH2 0x9B0 PUSH1 0x0 DUP4 ADD DUP11 PUSH2 0x94F JUMP JUMPDEST PUSH2 0x9BD PUSH1 0x20 DUP4 ADD DUP10 PUSH2 0x7E4 JUMP JUMPDEST DUP2 DUP2 SUB PUSH1 0x40 DUP4 ADD MSTORE PUSH2 0x9CF DUP2 DUP9 PUSH2 0x82C JUMP JUMPDEST SWAP1 POP DUP2 DUP2 SUB PUSH1 0x60 DUP4 ADD MSTORE PUSH2 0x9E3 DUP2 DUP8 PUSH2 0x82C JUMP JUMPDEST SWAP1 POP PUSH2 0x9F2 PUSH1 0x80 DUP4 ADD DUP7 PUSH2 0x94F JUMP JUMPDEST PUSH2 0x9FF PUSH1 0xA0 DUP4 ADD DUP6 PUSH2 0x7E4 JUMP JUMPDEST PUSH2 0xA0C PUSH1 0xC0 DUP4 ADD DUP5 PUSH2 0x881 JUMP JUMPDEST SWAP9 SWAP8 POP POP POP POP POP POP POP POP JUMP JUMPDEST PUSH1 0x0 PUSH1 0xA0 DUP3 ADD SWAP1 POP PUSH2 0xA2D PUSH1 0x0 DUP4 ADD DUP9 PUSH2 0x94F JUMP JUMPDEST PUSH2 0xA3A PUSH1 0x20 DUP4 ADD DUP8 PUSH2 0x94F JUMP JUMPDEST DUP2 DUP2 SUB PUSH1 0x40 DUP4 ADD MSTORE PUSH2 0xA4C DUP2 DUP7 PUSH2 0x89D JUMP JUMPDEST SWAP1 POP PUSH2 0xA5B PUSH1 0x60 DUP4 ADD DUP6 PUSH2 0x881 JUMP JUMPDEST PUSH2 0xA68 PUSH1 0x80 DUP4 ADD DUP5 PUSH2 0x881 JUMP JUMPDEST SWAP7 SWAP6 POP POP POP POP POP POP JUMP JUMPDEST PUSH1 0x0 DUP2 MLOAD SWAP1 POP SWAP2 SWAP1 POP JUMP JUMPDEST PUSH1 0x0 DUP3 DUP3 MSTORE PUSH1 0x20 DUP3 ADD SWAP1 POP SWAP3 SWAP2 POP POP JUMP JUMPDEST PUSH1 0x0 DUP3 DUP3 MSTORE PUSH1 0x20 DUP3 ADD SWAP1 POP SWAP3 SWAP2 POP POP JUMP JUMPDEST PUSH1 0x0 DUP2 SWAP1 POP SWAP2 SWAP1 POP JUMP JUMPDEST PUSH1 0x0 DUP2 SWAP1 POP SWAP2 SWAP1 POP JUMP JUMPDEST PUSH1 0x0 JUMPDEST DUP4 DUP2 LT ISZERO PUSH2 0xAD1 JUMPI DUP1 DUP3 ADD MLOAD DUP2 DUP5 ADD MSTORE PUSH1 0x20 DUP2 ADD SWAP1 POP PUSH2 0xAB6 JUMP JUMPDEST DUP4 DUP2 GT ISZERO PUSH2 0xAE0 JUMPI PUSH1 0x0 DUP5 DUP5 ADD MSTORE JUMPDEST POP POP POP POP JUMP JUMPDEST PUSH1 0x0 PUSH1 0x2 DUP3 DIV SWAP1 POP PUSH1 0x1 DUP3 AND DUP1 PUSH2 0xAFE JUMPI PUSH1 0x7F DUP3 AND SWAP2 POP JUMPDEST PUSH1 0x20 DUP3 LT DUP2 EQ ISZERO PUSH2 0xB12 JUMPI PUSH2 0xB11 PUSH2 0xB18 JUMP JUMPDEST JUMPDEST POP SWAP2 SWAP1 POP JUMP JUMPDEST PUSH32 0x4E487B7100000000000000000000000000000000000000000000000000000000 PUSH1 0x0 MSTORE PUSH1 0x22 PUSH1 0x4 MSTORE PUSH1 0x24 PUSH1 0x0 REVERT JUMPDEST PUSH32 0x4E487B7100000000000000000000000000000000000000000000000000000000 PUSH1 0x0 MSTORE PUSH1 0x32 PUSH1 0x4 MSTORE PUSH1 0x24 PUSH1 0x0 REVERT JUMPDEST PUSH1 0x0 DUP1 REVERT JUMPDEST PUSH1 0x0 PUSH1 0x1F NOT PUSH1 0x1F DUP4 ADD AND SWAP1 POP SWAP2 SWAP1 POP JUMP JUMPDEST PUSH2 0xB95 DUP2 PUSH2 0xA9F JUMP JUMPDEST DUP2 EQ PUSH2 0xBA0 JUMPI PUSH1 0x0 DUP1 REVERT JUMPDEST POP JUMP JUMPDEST PUSH2 0xBAC DUP2 PUSH2 0xAA9 JUMP JUMPDEST DUP2 EQ PUSH2 0xBB7 JUMPI PUSH1 0x0 DUP1 REVERT JUMPDEST POP JUMP INVALID LOG2 PUSH5 0x6970667358 0x22 SLT KECCAK256 0x26 ADDRESS SGT PUSH8 0xC575D815BAC7868A 0xDE PUSH20 0x4F4627F762D6E76F737F1554CA5C7C6C91616473 PUSH16 0x6C634300080700330000000000000000 "
				},
				"gasEstimates": {
					"creation": {
						"codeDepositCost": "611200",
						"executionCost": "645",
						"totalCost": "611845"
					},
					"external": {
						"clients(uint256)": "infinite",
						"comics(uint256)": "infinite",
						"createComic(int256)": "406",
						"getClient(uint256)": "450",
						"getComic(uint256)": "429",
						"getPurchase(uint256)": "407",
						"geta(uint256)": "infinite",
						"purchases(uint256)": "infinite"
					}
				},
				"methodIdentifiers": {
					"clients(uint256)": "f88af21d",
					"comics(uint256)": "7a80dc1d",
					"createComic(int256)": "9966e0a6",
					"getClient(uint256)": "d0068f80",
					"getComic(uint256)": "47ac33ee",
					"getPurchase(uint256)": "3742a9f7",
					"geta(uint256)": "a8e28c49",
					"purchases(uint256)": "8392fe31"
				}
			},
			"storageLayout": {
				"storage": [
					{
						"astId": 38,
						"contract": "contracts/purchaseContract.sol:purchaseContract",
						"label": "comics",
						"offset": 0,
						"slot": "0",
						"type": "t_array(t_struct(Comic)17_storage)dyn_storage"
					},
					{
						"astId": 42,
						"contract": "contracts/purchaseContract.sol:purchaseContract",
						"label": "purchases",
						"offset": 0,
						"slot": "1",
						"type": "t_array(t_struct(Purchase)31_storage)dyn_storage"
					},
					{
						"astId": 46,
						"contract": "contracts/purchaseContract.sol:purchaseContract",
						"label": "clients",
						"offset": 0,
						"slot": "2",
						"type": "t_array(t_struct(Client)34_storage)dyn_storage"
					}
				],
				"types": {
					"t_array(t_struct(Client)34_storage)dyn_storage": {
						"base": "t_struct(Client)34_storage",
						"encoding": "dynamic_array",
						"label": "struct purchaseContract.Client[]",
						"numberOfBytes": "32"
					},
					"t_array(t_struct(Comic)17_storage)dyn_storage": {
						"base": "t_struct(Comic)17_storage",
						"encoding": "dynamic_array",
						"label": "struct purchaseContract.Comic[]",
						"numberOfBytes": "32"
					},
					"t_array(t_struct(Purchase)31_storage)dyn_storage": {
						"base": "t_struct(Purchase)31_storage",
						"encoding": "dynamic_array",
						"label": "struct purchaseContract.Purchase[]",
						"numberOfBytes": "32"
					},
					"t_int256": {
						"encoding": "inplace",
						"label": "int256",
						"numberOfBytes": "32"
					},
					"t_string_storage": {
						"encoding": "bytes",
						"label": "string",
						"numberOfBytes": "32"
					},
					"t_struct(Client)34_storage": {
						"encoding": "inplace",
						"label": "struct purchaseContract.Client",
						"members": [
							{
								"astId": 33,
								"contract": "contracts/purchaseContract.sol:purchaseContract",
								"label": "idclient",
								"offset": 0,
								"slot": "0",
								"type": "t_uint256"
							}
						],
						"numberOfBytes": "32"
					},
					"t_struct(Comic)17_storage": {
						"encoding": "inplace",
						"label": "struct purchaseContract.Comic",
						"members": [
							{
								"astId": 3,
								"contract": "contracts/purchaseContract.sol:purchaseContract",
								"label": "idcomic",
								"offset": 0,
								"slot": "0",
								"type": "t_uint256"
							},
							{
								"astId": 5,
								"contract": "contracts/purchaseContract.sol:purchaseContract",
								"label": "price",
								"offset": 0,
								"slot": "1",
								"type": "t_int256"
							},
							{
								"astId": 7,
								"contract": "contracts/purchaseContract.sol:purchaseContract",
								"label": "name_comic",
								"offset": 0,
								"slot": "2",
								"type": "t_string_storage"
							},
							{
								"astId": 9,
								"contract": "contracts/purchaseContract.sol:purchaseContract",
								"label": "author",
								"offset": 0,
								"slot": "3",
								"type": "t_string_storage"
							},
							{
								"astId": 11,
								"contract": "contracts/purchaseContract.sol:purchaseContract",
								"label": "publish_date",
								"offset": 0,
								"slot": "4",
								"type": "t_uint256"
							},
							{
								"astId": 13,
								"contract": "contracts/purchaseContract.sol:purchaseContract",
								"label": "ISBN",
								"offset": 0,
								"slot": "5",
								"type": "t_int256"
							},
							{
								"astId": 16,
								"contract": "contracts/purchaseContract.sol:purchaseContract",
								"label": "owner",
								"offset": 0,
								"slot": "6",
								"type": "t_struct(Client)34_storage"
							}
						],
						"numberOfBytes": "224"
					},
					"t_struct(Purchase)31_storage": {
						"encoding": "inplace",
						"label": "struct purchaseContract.Purchase",
						"members": [
							{
								"astId": 19,
								"contract": "contracts/purchaseContract.sol:purchaseContract",
								"label": "idpurchase",
								"offset": 0,
								"slot": "0",
								"type": "t_uint256"
							},
							{
								"astId": 21,
								"contract": "contracts/purchaseContract.sol:purchaseContract",
								"label": "purchase_date",
								"offset": 0,
								"slot": "1",
								"type": "t_uint256"
							},
							{
								"astId": 24,
								"contract": "contracts/purchaseContract.sol:purchaseContract",
								"label": "item",
								"offset": 0,
								"slot": "2",
								"type": "t_struct(Comic)17_storage"
							},
							{
								"astId": 27,
								"contract": "contracts/purchaseContract.sol:purchaseContract",
								"label": "owner",
								"offset": 0,
								"slot": "9",
								"type": "t_struct(Client)34_storage"
							},
							{
								"astId": 30,
								"contract": "contracts/purchaseContract.sol:purchaseContract",
								"label": "buyer",
								"offset": 0,
								"slot": "10",
								"type": "t_struct(Client)34_storage"
							}
						],
						"numberOfBytes": "352"
					},
					"t_uint256": {
						"encoding": "inplace",
						"label": "uint256",
						"numberOfBytes": "32"
					}
				}
			},
			"userdoc": {
				"kind": "user",
				"methods": {},
				"version": 1
			}
		}
	}
}