{
	"data": {
		"bytecode": {
			"linkReferences": {},
			"object": "608060405234801561001057600080fd5b50611fbd806100206000396000f3fe608060405234801561001057600080fd5b50600436106100b45760003560e01c80637a80dc1d116100715780637a80dc1d1461018f5780638392fe31146101c5578063d0068f80146101f9578063e88e9f0f14610229578063f88af21d14610245578063fccd004614610276576100b4565b80631d78c52c146100b95780632cb9d0e8146100d55780633742a9f7146100f357806347ac33ee146101235780635b02c922146101535780636f3ffbb914610171575b600080fd5b6100d360048036038101906100ce919061163a565b610292565b005b6100dd6103a4565b6040516100ea9190611bb2565b60405180910390f35b61010d60048036038101906101089190611764565b6103aa565b60405161011a9190611b90565b60405180910390f35b61013d60048036038101906101389190611764565b61076a565b60405161014a9190611b6e565b60405180910390f35b61015b6109a2565b6040516101689190611bb2565b60405180910390f35b6101796109a8565b6040516101869190611bb2565b60405180910390f35b6101a960048036038101906101a49190611764565b6109ae565b6040516101bc9796959493929190611bcd565b60405180910390f35b6101df60048036038101906101da9190611764565b610bb6565b6040516101f0959493929190611c81565b60405180910390f35b610213600480360381019061020e9190611764565b610f4e565b6040516102209190611b4c565b60405180910390f35b610243600480360381019061023e919061171b565b611026565b005b61025f600480360381019061025a9190611764565b6110a8565b60405161026d929190611c51565b60405180910390f35b610290600480360381019061028b9190611791565b611164565b005b60006040518060e00160405280600160008154809291906102b290611e25565b919050558152602001888152602001878152602001868152602001858152602001848152602001838152509080600181540180825580915050600190039060005260206000209060080201600090919091909150600082015181600001556020820151816001015560408201518160020190805190602001906103369291906112eb565b5060608201518160030190805190602001906103539291906112eb565b506080820151816004015560a0820151816005015560c0820151816006016000820151816000015560208201518160010190805190602001906103979291906112eb565b5050505050505050505050565b60035481565b6103b2611371565b600282815481106103c6576103c5611ecc565b5b90600052602060002090600e02016040518060a00160405290816000820154815260200160018201548152602001600282016040518060e0016040529081600082015481526020016001820154815260200160028201805461042790611dc2565b80601f016020809104026020016040519081016040528092919081815260200182805461045390611dc2565b80156104a05780601f10610475576101008083540402835291602001916104a0565b820191906000526020600020905b81548152906001019060200180831161048357829003601f168201915b505050505081526020016003820180546104b990611dc2565b80601f01602080910402602001604051908101604052809291908181526020018280546104e590611dc2565b80156105325780601f1061050757610100808354040283529160200191610532565b820191906000526020600020905b81548152906001019060200180831161051557829003601f168201915b505050505081526020016004820154815260200160058201548152602001600682016040518060400160405290816000820154815260200160018201805461057990611dc2565b80601f01602080910402602001604051908101604052809291908181526020018280546105a590611dc2565b80156105f25780601f106105c7576101008083540402835291602001916105f2565b820191906000526020600020905b8154815290600101906020018083116105d557829003601f168201915b505050505081525050815250508152602001600a82016040518060400160405290816000820154815260200160018201805461062d90611dc2565b80601f016020809104026020016040519081016040528092919081815260200182805461065990611dc2565b80156106a65780601f1061067b576101008083540402835291602001916106a6565b820191906000526020600020905b81548152906001019060200180831161068957829003601f168201915b5050505050815250508152602001600c8201604051806040016040529081600082015481526020016001820180546106dd90611dc2565b80601f016020809104026020016040519081016040528092919081815260200182805461070990611dc2565b80156107565780601f1061072b57610100808354040283529160200191610756565b820191906000526020600020905b81548152906001019060200180831161073957829003601f168201915b505050505081525050815250509050919050565b6107726113b2565b6000828154811061078657610785611ecc565b5b90600052602060002090600802016040518060e001604052908160008201548152602001600182015481526020016002820180546107c390611dc2565b80601f01602080910402602001604051908101604052809291908181526020018280546107ef90611dc2565b801561083c5780601f106108115761010080835404028352916020019161083c565b820191906000526020600020905b81548152906001019060200180831161081f57829003601f168201915b5050505050815260200160038201805461085590611dc2565b80601f016020809104026020016040519081016040528092919081815260200182805461088190611dc2565b80156108ce5780601f106108a3576101008083540402835291602001916108ce565b820191906000526020600020905b8154815290600101906020018083116108b157829003601f168201915b505050505081526020016004820154815260200160058201548152602001600682016040518060400160405290816000820154815260200160018201805461091590611dc2565b80601f016020809104026020016040519081016040528092919081815260200182805461094190611dc2565b801561098e5780601f106109635761010080835404028352916020019161098e565b820191906000526020600020905b81548152906001019060200180831161097157829003601f168201915b505050505081525050815250509050919050565b60055481565b60015481565b600081815481106109be57600080fd5b90600052602060002090600802016000915090508060000154908060010154908060020180546109ed90611dc2565b80601f0160208091040260200160405190810160405280929190818152602001828054610a1990611dc2565b8015610a665780601f10610a3b57610100808354040283529160200191610a66565b820191906000526020600020905b815481529060010190602001808311610a4957829003601f168201915b505050505090806003018054610a7b90611dc2565b80601f0160208091040260200160405190810160405280929190818152602001828054610aa790611dc2565b8015610af45780601f10610ac957610100808354040283529160200191610af4565b820191906000526020600020905b815481529060010190602001808311610ad757829003601f168201915b5050505050908060040154908060050154908060060160405180604001604052908160008201548152602001600182018054610b2f90611dc2565b80601f0160208091040260200160405190810160405280929190818152602001828054610b5b90611dc2565b8015610ba85780601f10610b7d57610100808354040283529160200191610ba8565b820191906000526020600020905b815481529060010190602001808311610b8b57829003601f168201915b505050505081525050905087565b60028181548110610bc657600080fd5b90600052602060002090600e0201600091509050806000015490806001015490806002016040518060e00160405290816000820154815260200160018201548152602001600282018054610c1990611dc2565b80601f0160208091040260200160405190810160405280929190818152602001828054610c4590611dc2565b8015610c925780601f10610c6757610100808354040283529160200191610c92565b820191906000526020600020905b815481529060010190602001808311610c7557829003601f168201915b50505050508152602001600382018054610cab90611dc2565b80601f0160208091040260200160405190810160405280929190818152602001828054610cd790611dc2565b8015610d245780601f10610cf957610100808354040283529160200191610d24565b820191906000526020600020905b815481529060010190602001808311610d0757829003601f168201915b5050505050815260200160048201548152602001600582015481526020016006820160405180604001604052908160008201548152602001600182018054610d6b90611dc2565b80601f0160208091040260200160405190810160405280929190818152602001828054610d9790611dc2565b8015610de45780601f10610db957610100808354040283529160200191610de4565b820191906000526020600020905b815481529060010190602001808311610dc757829003601f168201915b505050505081525050815250509080600a0160405180604001604052908160008201548152602001600182018054610e1b90611dc2565b80601f0160208091040260200160405190810160405280929190818152602001828054610e4790611dc2565b8015610e945780601f10610e6957610100808354040283529160200191610e94565b820191906000526020600020905b815481529060010190602001808311610e7757829003601f168201915b5050505050815250509080600c0160405180604001604052908160008201548152602001600182018054610ec790611dc2565b80601f0160208091040260200160405190810160405280929190818152602001828054610ef390611dc2565b8015610f405780601f10610f1557610100808354040283529160200191610f40565b820191906000526020600020905b815481529060010190602001808311610f2357829003601f168201915b505050505081525050905085565b610f566113f5565b60048281548110610f6a57610f69611ecc565b5b906000526020600020906002020160405180604001604052908160008201548152602001600182018054610f9d90611dc2565b80601f0160208091040260200160405190810160405280929190818152602001828054610fc990611dc2565b80156110165780601f10610feb57610100808354040283529160200191611016565b820191906000526020600020905b815481529060010190602001808311610ff957829003601f168201915b5050505050815250509050919050565b600460405180604001604052806005600081548092919061104690611e25565b9190505581526020018381525090806001815401808255809150506001900390600052602060002090600202016000909190919091506000820151816000015560208201518160010190805190602001906110a29291906112eb565b50505050565b600481815481106110b857600080fd5b90600052602060002090600202016000915090508060000154908060010180546110e190611dc2565b80601f016020809104026020016040519081016040528092919081815260200182805461110d90611dc2565b801561115a5780601f1061112f5761010080835404028352916020019161115a565b820191906000526020600020905b81548152906001019060200180831161113d57829003601f168201915b5050505050905082565b60026040518060a001604052806003600081548092919061118490611e25565b9190505581526020018681526020018581526020018481526020018381525090806001815401808255809150506001900390600052602060002090600e02016000909190919091506000820151816000015560208201518160010155604082015181600201600082015181600001556020820151816001015560408201518160020190805190602001906112199291906112eb565b5060608201518160030190805190602001906112369291906112eb565b506080820151816004015560a0820151816005015560c08201518160060160008201518160000155602082015181600101908051906020019061127a9291906112eb565b5050505050606082015181600a016000820151816000015560208201518160010190805190602001906112ae9291906112eb565b505050608082015181600c016000820151816000015560208201518160010190805190602001906112e09291906112eb565b505050505050505050565b8280546112f790611dc2565b90600052602060002090601f0160209004810192826113195760008555611360565b82601f1061133257805160ff1916838001178555611360565b82800160010185558215611360579182015b8281111561135f578251825591602001919060010190611344565b5b50905061136d919061140f565b5090565b6040518060a0016040528060008152602001600081526020016113926113b2565b815260200161139f6113f5565b81526020016113ac6113f5565b81525090565b6040518060e001604052806000815260200160008152602001606081526020016060815260200160008152602001600081526020016113ef6113f5565b81525090565b604051806040016040528060008152602001606081525090565b5b80821115611428576000816000905550600101611410565b5090565b600061143f61143a84611d0e565b611ce9565b90508281526020810184848401111561145b5761145a611f39565b5b611466848285611d80565b509392505050565b60008135905061147d81611f59565b92915050565b600082601f83011261149857611497611f2a565b5b81356114a884826020860161142c565b91505092915050565b6000604082840312156114c7576114c6611f2f565b5b6114d16040611ce9565b905060006114e184828501611625565b600083015250602082013567ffffffffffffffff81111561150557611504611f34565b5b61151184828501611483565b60208301525092915050565b600060e0828403121561153357611532611f2f565b5b61153d60e0611ce9565b9050600061154d84828501611625565b60008301525060206115618482850161146e565b602083015250604082013567ffffffffffffffff81111561158557611584611f34565b5b61159184828501611483565b604083015250606082013567ffffffffffffffff8111156115b5576115b4611f34565b5b6115c184828501611483565b60608301525060806115d584828501611625565b60808301525060a06115e98482850161146e565b60a08301525060c082013567ffffffffffffffff81111561160d5761160c611f34565b5b611619848285016114b1565b60c08301525092915050565b60008135905061163481611f70565b92915050565b60008060008060008060c0878903121561165757611656611f43565b5b600061166589828a0161146e565b965050602087013567ffffffffffffffff81111561168657611685611f3e565b5b61169289828a01611483565b955050604087013567ffffffffffffffff8111156116b3576116b2611f3e565b5b6116bf89828a01611483565b94505060606116d089828a01611625565b93505060806116e189828a0161146e565b92505060a087013567ffffffffffffffff81111561170257611701611f3e565b5b61170e89828a016114b1565b9150509295509295509295565b60006020828403121561173157611730611f43565b5b600082013567ffffffffffffffff81111561174f5761174e611f3e565b5b61175b84828501611483565b91505092915050565b60006020828403121561177a57611779611f43565b5b600061178884828501611625565b91505092915050565b600080600080608085870312156117ab576117aa611f43565b5b60006117b987828801611625565b945050602085013567ffffffffffffffff8111156117da576117d9611f3e565b5b6117e68782880161151d565b935050604085013567ffffffffffffffff81111561180757611806611f3e565b5b611813878288016114b1565b925050606085013567ffffffffffffffff81111561183457611833611f3e565b5b611840878288016114b1565b91505092959194509250565b61185581611d6c565b82525050565b61186481611d6c565b82525050565b600061187582611d3f565b61187f8185611d4a565b935061188f818560208601611d8f565b61189881611f48565b840191505092915050565b60006118ae82611d3f565b6118b88185611d5b565b93506118c8818560208601611d8f565b6118d181611f48565b840191505092915050565b60006040830160008301516118f46000860182611b2e565b506020830151848203602086015261190c828261186a565b9150508091505092915050565b60006040830160008301516119316000860182611b2e565b5060208301518482036020860152611949828261186a565b9150508091505092915050565b600060e08301600083015161196e6000860182611b2e565b506020830151611981602086018261184c565b5060408301518482036040860152611999828261186a565b915050606083015184820360608601526119b3828261186a565b91505060808301516119c86080860182611b2e565b5060a08301516119db60a086018261184c565b5060c083015184820360c08601526119f382826118dc565b9150508091505092915050565b600060e083016000830151611a186000860182611b2e565b506020830151611a2b602086018261184c565b5060408301518482036040860152611a43828261186a565b91505060608301518482036060860152611a5d828261186a565b9150506080830151611a726080860182611b2e565b5060a0830151611a8560a086018261184c565b5060c083015184820360c0860152611a9d82826118dc565b9150508091505092915050565b600060a083016000830151611ac26000860182611b2e565b506020830151611ad56020860182611b2e565b5060408301518482036040860152611aed8282611956565b91505060608301518482036060860152611b0782826118dc565b91505060808301518482036080860152611b2182826118dc565b9150508091505092915050565b611b3781611d76565b82525050565b611b4681611d76565b82525050565b60006020820190508181036000830152611b668184611919565b905092915050565b60006020820190508181036000830152611b888184611a00565b905092915050565b60006020820190508181036000830152611baa8184611aaa565b905092915050565b6000602082019050611bc76000830184611b3d565b92915050565b600060e082019050611be2600083018a611b3d565b611bef602083018961185b565b8181036040830152611c0181886118a3565b90508181036060830152611c1581876118a3565b9050611c246080830186611b3d565b611c3160a083018561185b565b81810360c0830152611c438184611919565b905098975050505050505050565b6000604082019050611c666000830185611b3d565b8181036020830152611c7881846118a3565b90509392505050565b600060a082019050611c966000830188611b3d565b611ca36020830187611b3d565b8181036040830152611cb58186611a00565b90508181036060830152611cc98185611919565b90508181036080830152611cdd8184611919565b90509695505050505050565b6000611cf3611d04565b9050611cff8282611df4565b919050565b6000604051905090565b600067ffffffffffffffff821115611d2957611d28611efb565b5b611d3282611f48565b9050602081019050919050565b600081519050919050565b600082825260208201905092915050565b600082825260208201905092915050565b6000819050919050565b6000819050919050565b82818337600083830152505050565b60005b83811015611dad578082015181840152602081019050611d92565b83811115611dbc576000848401525b50505050565b60006002820490506001821680611dda57607f821691505b60208210811415611dee57611ded611e9d565b5b50919050565b611dfd82611f48565b810181811067ffffffffffffffff82111715611e1c57611e1b611efb565b5b80604052505050565b6000611e3082611d76565b91507fffffffffffffffffffffffffffffffffffffffffffffffffffffffffffffffff821415611e6357611e62611e6e565b5b600182019050919050565b7f4e487b7100000000000000000000000000000000000000000000000000000000600052601160045260246000fd5b7f4e487b7100000000000000000000000000000000000000000000000000000000600052602260045260246000fd5b7f4e487b7100000000000000000000000000000000000000000000000000000000600052603260045260246000fd5b7f4e487b7100000000000000000000000000000000000000000000000000000000600052604160045260246000fd5b600080fd5b600080fd5b600080fd5b600080fd5b600080fd5b600080fd5b6000601f19601f8301169050919050565b611f6281611d6c565b8114611f6d57600080fd5b50565b611f7981611d76565b8114611f8457600080fd5b5056fea26469706673582212203fdcfa6f8498020243b42cbda634baeb6bb190d8fc82aeebbbced607ec29bd1664736f6c63430008070033",
			"opcodes": "PUSH1 0x80 PUSH1 0x40 MSTORE CALLVALUE DUP1 ISZERO PUSH2 0x10 JUMPI PUSH1 0x0 DUP1 REVERT JUMPDEST POP PUSH2 0x1FBD DUP1 PUSH2 0x20 PUSH1 0x0 CODECOPY PUSH1 0x0 RETURN INVALID PUSH1 0x80 PUSH1 0x40 MSTORE CALLVALUE DUP1 ISZERO PUSH2 0x10 JUMPI PUSH1 0x0 DUP1 REVERT JUMPDEST POP PUSH1 0x4 CALLDATASIZE LT PUSH2 0xB4 JUMPI PUSH1 0x0 CALLDATALOAD PUSH1 0xE0 SHR DUP1 PUSH4 0x7A80DC1D GT PUSH2 0x71 JUMPI DUP1 PUSH4 0x7A80DC1D EQ PUSH2 0x18F JUMPI DUP1 PUSH4 0x8392FE31 EQ PUSH2 0x1C5 JUMPI DUP1 PUSH4 0xD0068F80 EQ PUSH2 0x1F9 JUMPI DUP1 PUSH4 0xE88E9F0F EQ PUSH2 0x229 JUMPI DUP1 PUSH4 0xF88AF21D EQ PUSH2 0x245 JUMPI DUP1 PUSH4 0xFCCD0046 EQ PUSH2 0x276 JUMPI PUSH2 0xB4 JUMP JUMPDEST DUP1 PUSH4 0x1D78C52C EQ PUSH2 0xB9 JUMPI DUP1 PUSH4 0x2CB9D0E8 EQ PUSH2 0xD5 JUMPI DUP1 PUSH4 0x3742A9F7 EQ PUSH2 0xF3 JUMPI DUP1 PUSH4 0x47AC33EE EQ PUSH2 0x123 JUMPI DUP1 PUSH4 0x5B02C922 EQ PUSH2 0x153 JUMPI DUP1 PUSH4 0x6F3FFBB9 EQ PUSH2 0x171 JUMPI JUMPDEST PUSH1 0x0 DUP1 REVERT JUMPDEST PUSH2 0xD3 PUSH1 0x4 DUP1 CALLDATASIZE SUB DUP2 ADD SWAP1 PUSH2 0xCE SWAP2 SWAP1 PUSH2 0x163A JUMP JUMPDEST PUSH2 0x292 JUMP JUMPDEST STOP JUMPDEST PUSH2 0xDD PUSH2 0x3A4 JUMP JUMPDEST PUSH1 0x40 MLOAD PUSH2 0xEA SWAP2 SWAP1 PUSH2 0x1BB2 JUMP JUMPDEST PUSH1 0x40 MLOAD DUP1 SWAP2 SUB SWAP1 RETURN JUMPDEST PUSH2 0x10D PUSH1 0x4 DUP1 CALLDATASIZE SUB DUP2 ADD SWAP1 PUSH2 0x108 SWAP2 SWAP1 PUSH2 0x1764 JUMP JUMPDEST PUSH2 0x3AA JUMP JUMPDEST PUSH1 0x40 MLOAD PUSH2 0x11A SWAP2 SWAP1 PUSH2 0x1B90 JUMP JUMPDEST PUSH1 0x40 MLOAD DUP1 SWAP2 SUB SWAP1 RETURN JUMPDEST PUSH2 0x13D PUSH1 0x4 DUP1 CALLDATASIZE SUB DUP2 ADD SWAP1 PUSH2 0x138 SWAP2 SWAP1 PUSH2 0x1764 JUMP JUMPDEST PUSH2 0x76A JUMP JUMPDEST PUSH1 0x40 MLOAD PUSH2 0x14A SWAP2 SWAP1 PUSH2 0x1B6E JUMP JUMPDEST PUSH1 0x40 MLOAD DUP1 SWAP2 SUB SWAP1 RETURN JUMPDEST PUSH2 0x15B PUSH2 0x9A2 JUMP JUMPDEST PUSH1 0x40 MLOAD PUSH2 0x168 SWAP2 SWAP1 PUSH2 0x1BB2 JUMP JUMPDEST PUSH1 0x40 MLOAD DUP1 SWAP2 SUB SWAP1 RETURN JUMPDEST PUSH2 0x179 PUSH2 0x9A8 JUMP JUMPDEST PUSH1 0x40 MLOAD PUSH2 0x186 SWAP2 SWAP1 PUSH2 0x1BB2 JUMP JUMPDEST PUSH1 0x40 MLOAD DUP1 SWAP2 SUB SWAP1 RETURN JUMPDEST PUSH2 0x1A9 PUSH1 0x4 DUP1 CALLDATASIZE SUB DUP2 ADD SWAP1 PUSH2 0x1A4 SWAP2 SWAP1 PUSH2 0x1764 JUMP JUMPDEST PUSH2 0x9AE JUMP JUMPDEST PUSH1 0x40 MLOAD PUSH2 0x1BC SWAP8 SWAP7 SWAP6 SWAP5 SWAP4 SWAP3 SWAP2 SWAP1 PUSH2 0x1BCD JUMP JUMPDEST PUSH1 0x40 MLOAD DUP1 SWAP2 SUB SWAP1 RETURN JUMPDEST PUSH2 0x1DF PUSH1 0x4 DUP1 CALLDATASIZE SUB DUP2 ADD SWAP1 PUSH2 0x1DA SWAP2 SWAP1 PUSH2 0x1764 JUMP JUMPDEST PUSH2 0xBB6 JUMP JUMPDEST PUSH1 0x40 MLOAD PUSH2 0x1F0 SWAP6 SWAP5 SWAP4 SWAP3 SWAP2 SWAP1 PUSH2 0x1C81 JUMP JUMPDEST PUSH1 0x40 MLOAD DUP1 SWAP2 SUB SWAP1 RETURN JUMPDEST PUSH2 0x213 PUSH1 0x4 DUP1 CALLDATASIZE SUB DUP2 ADD SWAP1 PUSH2 0x20E SWAP2 SWAP1 PUSH2 0x1764 JUMP JUMPDEST PUSH2 0xF4E JUMP JUMPDEST PUSH1 0x40 MLOAD PUSH2 0x220 SWAP2 SWAP1 PUSH2 0x1B4C JUMP JUMPDEST PUSH1 0x40 MLOAD DUP1 SWAP2 SUB SWAP1 RETURN JUMPDEST PUSH2 0x243 PUSH1 0x4 DUP1 CALLDATASIZE SUB DUP2 ADD SWAP1 PUSH2 0x23E SWAP2 SWAP1 PUSH2 0x171B JUMP JUMPDEST PUSH2 0x1026 JUMP JUMPDEST STOP JUMPDEST PUSH2 0x25F PUSH1 0x4 DUP1 CALLDATASIZE SUB DUP2 ADD SWAP1 PUSH2 0x25A SWAP2 SWAP1 PUSH2 0x1764 JUMP JUMPDEST PUSH2 0x10A8 JUMP JUMPDEST PUSH1 0x40 MLOAD PUSH2 0x26D SWAP3 SWAP2 SWAP1 PUSH2 0x1C51 JUMP JUMPDEST PUSH1 0x40 MLOAD DUP1 SWAP2 SUB SWAP1 RETURN JUMPDEST PUSH2 0x290 PUSH1 0x4 DUP1 CALLDATASIZE SUB DUP2 ADD SWAP1 PUSH2 0x28B SWAP2 SWAP1 PUSH2 0x1791 JUMP JUMPDEST PUSH2 0x1164 JUMP JUMPDEST STOP JUMPDEST PUSH1 0x0 PUSH1 0x40 MLOAD DUP1 PUSH1 0xE0 ADD PUSH1 0x40 MSTORE DUP1 PUSH1 0x1 PUSH1 0x0 DUP2 SLOAD DUP1 SWAP3 SWAP2 SWAP1 PUSH2 0x2B2 SWAP1 PUSH2 0x1E25 JUMP JUMPDEST SWAP2 SWAP1 POP SSTORE DUP2 MSTORE PUSH1 0x20 ADD DUP9 DUP2 MSTORE PUSH1 0x20 ADD DUP8 DUP2 MSTORE PUSH1 0x20 ADD DUP7 DUP2 MSTORE PUSH1 0x20 ADD DUP6 DUP2 MSTORE PUSH1 0x20 ADD DUP5 DUP2 MSTORE PUSH1 0x20 ADD DUP4 DUP2 MSTORE POP SWAP1 DUP1 PUSH1 0x1 DUP2 SLOAD ADD DUP1 DUP3 SSTORE DUP1 SWAP2 POP POP PUSH1 0x1 SWAP1 SUB SWAP1 PUSH1 0x0 MSTORE PUSH1 0x20 PUSH1 0x0 KECCAK256 SWAP1 PUSH1 0x8 MUL ADD PUSH1 0x0 SWAP1 SWAP2 SWAP1 SWAP2 SWAP1 SWAP2 POP PUSH1 0x0 DUP3 ADD MLOAD DUP2 PUSH1 0x0 ADD SSTORE PUSH1 0x20 DUP3 ADD MLOAD DUP2 PUSH1 0x1 ADD SSTORE PUSH1 0x40 DUP3 ADD MLOAD DUP2 PUSH1 0x2 ADD SWAP1 DUP1 MLOAD SWAP1 PUSH1 0x20 ADD SWAP1 PUSH2 0x336 SWAP3 SWAP2 SWAP1 PUSH2 0x12EB JUMP JUMPDEST POP PUSH1 0x60 DUP3 ADD MLOAD DUP2 PUSH1 0x3 ADD SWAP1 DUP1 MLOAD SWAP1 PUSH1 0x20 ADD SWAP1 PUSH2 0x353 SWAP3 SWAP2 SWAP1 PUSH2 0x12EB JUMP JUMPDEST POP PUSH1 0x80 DUP3 ADD MLOAD DUP2 PUSH1 0x4 ADD SSTORE PUSH1 0xA0 DUP3 ADD MLOAD DUP2 PUSH1 0x5 ADD SSTORE PUSH1 0xC0 DUP3 ADD MLOAD DUP2 PUSH1 0x6 ADD PUSH1 0x0 DUP3 ADD MLOAD DUP2 PUSH1 0x0 ADD SSTORE PUSH1 0x20 DUP3 ADD MLOAD DUP2 PUSH1 0x1 ADD SWAP1 DUP1 MLOAD SWAP1 PUSH1 0x20 ADD SWAP1 PUSH2 0x397 SWAP3 SWAP2 SWAP1 PUSH2 0x12EB JUMP JUMPDEST POP POP POP POP POP POP POP POP POP POP POP JUMP JUMPDEST PUSH1 0x3 SLOAD DUP2 JUMP JUMPDEST PUSH2 0x3B2 PUSH2 0x1371 JUMP JUMPDEST PUSH1 0x2 DUP3 DUP2 SLOAD DUP2 LT PUSH2 0x3C6 JUMPI PUSH2 0x3C5 PUSH2 0x1ECC JUMP JUMPDEST JUMPDEST SWAP1 PUSH1 0x0 MSTORE PUSH1 0x20 PUSH1 0x0 KECCAK256 SWAP1 PUSH1 0xE MUL ADD PUSH1 0x40 MLOAD DUP1 PUSH1 0xA0 ADD PUSH1 0x40 MSTORE SWAP1 DUP2 PUSH1 0x0 DUP3 ADD SLOAD DUP2 MSTORE PUSH1 0x20 ADD PUSH1 0x1 DUP3 ADD SLOAD DUP2 MSTORE PUSH1 0x20 ADD PUSH1 0x2 DUP3 ADD PUSH1 0x40 MLOAD DUP1 PUSH1 0xE0 ADD PUSH1 0x40 MSTORE SWAP1 DUP2 PUSH1 0x0 DUP3 ADD SLOAD DUP2 MSTORE PUSH1 0x20 ADD PUSH1 0x1 DUP3 ADD SLOAD DUP2 MSTORE PUSH1 0x20 ADD PUSH1 0x2 DUP3 ADD DUP1 SLOAD PUSH2 0x427 SWAP1 PUSH2 0x1DC2 JUMP JUMPDEST DUP1 PUSH1 0x1F ADD PUSH1 0x20 DUP1 SWAP2 DIV MUL PUSH1 0x20 ADD PUSH1 0x40 MLOAD SWAP1 DUP2 ADD PUSH1 0x40 MSTORE DUP1 SWAP3 SWAP2 SWAP1 DUP2 DUP2 MSTORE PUSH1 0x20 ADD DUP3 DUP1 SLOAD PUSH2 0x453 SWAP1 PUSH2 0x1DC2 JUMP JUMPDEST DUP1 ISZERO PUSH2 0x4A0 JUMPI DUP1 PUSH1 0x1F LT PUSH2 0x475 JUMPI PUSH2 0x100 DUP1 DUP4 SLOAD DIV MUL DUP4 MSTORE SWAP2 PUSH1 0x20 ADD SWAP2 PUSH2 0x4A0 JUMP JUMPDEST DUP3 ADD SWAP2 SWAP1 PUSH1 0x0 MSTORE PUSH1 0x20 PUSH1 0x0 KECCAK256 SWAP1 JUMPDEST DUP2 SLOAD DUP2 MSTORE SWAP1 PUSH1 0x1 ADD SWAP1 PUSH1 0x20 ADD DUP1 DUP4 GT PUSH2 0x483 JUMPI DUP3 SWAP1 SUB PUSH1 0x1F AND DUP3 ADD SWAP2 JUMPDEST POP POP POP POP POP DUP2 MSTORE PUSH1 0x20 ADD PUSH1 0x3 DUP3 ADD DUP1 SLOAD PUSH2 0x4B9 SWAP1 PUSH2 0x1DC2 JUMP JUMPDEST DUP1 PUSH1 0x1F ADD PUSH1 0x20 DUP1 SWAP2 DIV MUL PUSH1 0x20 ADD PUSH1 0x40 MLOAD SWAP1 DUP2 ADD PUSH1 0x40 MSTORE DUP1 SWAP3 SWAP2 SWAP1 DUP2 DUP2 MSTORE PUSH1 0x20 ADD DUP3 DUP1 SLOAD PUSH2 0x4E5 SWAP1 PUSH2 0x1DC2 JUMP JUMPDEST DUP1 ISZERO PUSH2 0x532 JUMPI DUP1 PUSH1 0x1F LT PUSH2 0x507 JUMPI PUSH2 0x100 DUP1 DUP4 SLOAD DIV MUL DUP4 MSTORE SWAP2 PUSH1 0x20 ADD SWAP2 PUSH2 0x532 JUMP JUMPDEST DUP3 ADD SWAP2 SWAP1 PUSH1 0x0 MSTORE PUSH1 0x20 PUSH1 0x0 KECCAK256 SWAP1 JUMPDEST DUP2 SLOAD DUP2 MSTORE SWAP1 PUSH1 0x1 ADD SWAP1 PUSH1 0x20 ADD DUP1 DUP4 GT PUSH2 0x515 JUMPI DUP3 SWAP1 SUB PUSH1 0x1F AND DUP3 ADD SWAP2 JUMPDEST POP POP POP POP POP DUP2 MSTORE PUSH1 0x20 ADD PUSH1 0x4 DUP3 ADD SLOAD DUP2 MSTORE PUSH1 0x20 ADD PUSH1 0x5 DUP3 ADD SLOAD DUP2 MSTORE PUSH1 0x20 ADD PUSH1 0x6 DUP3 ADD PUSH1 0x40 MLOAD DUP1 PUSH1 0x40 ADD PUSH1 0x40 MSTORE SWAP1 DUP2 PUSH1 0x0 DUP3 ADD SLOAD DUP2 MSTORE PUSH1 0x20 ADD PUSH1 0x1 DUP3 ADD DUP1 SLOAD PUSH2 0x579 SWAP1 PUSH2 0x1DC2 JUMP JUMPDEST DUP1 PUSH1 0x1F ADD PUSH1 0x20 DUP1 SWAP2 DIV MUL PUSH1 0x20 ADD PUSH1 0x40 MLOAD SWAP1 DUP2 ADD PUSH1 0x40 MSTORE DUP1 SWAP3 SWAP2 SWAP1 DUP2 DUP2 MSTORE PUSH1 0x20 ADD DUP3 DUP1 SLOAD PUSH2 0x5A5 SWAP1 PUSH2 0x1DC2 JUMP JUMPDEST DUP1 ISZERO PUSH2 0x5F2 JUMPI DUP1 PUSH1 0x1F LT PUSH2 0x5C7 JUMPI PUSH2 0x100 DUP1 DUP4 SLOAD DIV MUL DUP4 MSTORE SWAP2 PUSH1 0x20 ADD SWAP2 PUSH2 0x5F2 JUMP JUMPDEST DUP3 ADD SWAP2 SWAP1 PUSH1 0x0 MSTORE PUSH1 0x20 PUSH1 0x0 KECCAK256 SWAP1 JUMPDEST DUP2 SLOAD DUP2 MSTORE SWAP1 PUSH1 0x1 ADD SWAP1 PUSH1 0x20 ADD DUP1 DUP4 GT PUSH2 0x5D5 JUMPI DUP3 SWAP1 SUB PUSH1 0x1F AND DUP3 ADD SWAP2 JUMPDEST POP POP POP POP POP DUP2 MSTORE POP POP DUP2 MSTORE POP POP DUP2 MSTORE PUSH1 0x20 ADD PUSH1 0xA DUP3 ADD PUSH1 0x40 MLOAD DUP1 PUSH1 0x40 ADD PUSH1 0x40 MSTORE SWAP1 DUP2 PUSH1 0x0 DUP3 ADD SLOAD DUP2 MSTORE PUSH1 0x20 ADD PUSH1 0x1 DUP3 ADD DUP1 SLOAD PUSH2 0x62D SWAP1 PUSH2 0x1DC2 JUMP JUMPDEST DUP1 PUSH1 0x1F ADD PUSH1 0x20 DUP1 SWAP2 DIV MUL PUSH1 0x20 ADD PUSH1 0x40 MLOAD SWAP1 DUP2 ADD PUSH1 0x40 MSTORE DUP1 SWAP3 SWAP2 SWAP1 DUP2 DUP2 MSTORE PUSH1 0x20 ADD DUP3 DUP1 SLOAD PUSH2 0x659 SWAP1 PUSH2 0x1DC2 JUMP JUMPDEST DUP1 ISZERO PUSH2 0x6A6 JUMPI DUP1 PUSH1 0x1F LT PUSH2 0x67B JUMPI PUSH2 0x100 DUP1 DUP4 SLOAD DIV MUL DUP4 MSTORE SWAP2 PUSH1 0x20 ADD SWAP2 PUSH2 0x6A6 JUMP JUMPDEST DUP3 ADD SWAP2 SWAP1 PUSH1 0x0 MSTORE PUSH1 0x20 PUSH1 0x0 KECCAK256 SWAP1 JUMPDEST DUP2 SLOAD DUP2 MSTORE SWAP1 PUSH1 0x1 ADD SWAP1 PUSH1 0x20 ADD DUP1 DUP4 GT PUSH2 0x689 JUMPI DUP3 SWAP1 SUB PUSH1 0x1F AND DUP3 ADD SWAP2 JUMPDEST POP POP POP POP POP DUP2 MSTORE POP POP DUP2 MSTORE PUSH1 0x20 ADD PUSH1 0xC DUP3 ADD PUSH1 0x40 MLOAD DUP1 PUSH1 0x40 ADD PUSH1 0x40 MSTORE SWAP1 DUP2 PUSH1 0x0 DUP3 ADD SLOAD DUP2 MSTORE PUSH1 0x20 ADD PUSH1 0x1 DUP3 ADD DUP1 SLOAD PUSH2 0x6DD SWAP1 PUSH2 0x1DC2 JUMP JUMPDEST DUP1 PUSH1 0x1F ADD PUSH1 0x20 DUP1 SWAP2 DIV MUL PUSH1 0x20 ADD PUSH1 0x40 MLOAD SWAP1 DUP2 ADD PUSH1 0x40 MSTORE DUP1 SWAP3 SWAP2 SWAP1 DUP2 DUP2 MSTORE PUSH1 0x20 ADD DUP3 DUP1 SLOAD PUSH2 0x709 SWAP1 PUSH2 0x1DC2 JUMP JUMPDEST DUP1 ISZERO PUSH2 0x756 JUMPI DUP1 PUSH1 0x1F LT PUSH2 0x72B JUMPI PUSH2 0x100 DUP1 DUP4 SLOAD DIV MUL DUP4 MSTORE SWAP2 PUSH1 0x20 ADD SWAP2 PUSH2 0x756 JUMP JUMPDEST DUP3 ADD SWAP2 SWAP1 PUSH1 0x0 MSTORE PUSH1 0x20 PUSH1 0x0 KECCAK256 SWAP1 JUMPDEST DUP2 SLOAD DUP2 MSTORE SWAP1 PUSH1 0x1 ADD SWAP1 PUSH1 0x20 ADD DUP1 DUP4 GT PUSH2 0x739 JUMPI DUP3 SWAP1 SUB PUSH1 0x1F AND DUP3 ADD SWAP2 JUMPDEST POP POP POP POP POP DUP2 MSTORE POP POP DUP2 MSTORE POP POP SWAP1 POP SWAP2 SWAP1 POP JUMP JUMPDEST PUSH2 0x772 PUSH2 0x13B2 JUMP JUMPDEST PUSH1 0x0 DUP3 DUP2 SLOAD DUP2 LT PUSH2 0x786 JUMPI PUSH2 0x785 PUSH2 0x1ECC JUMP JUMPDEST JUMPDEST SWAP1 PUSH1 0x0 MSTORE PUSH1 0x20 PUSH1 0x0 KECCAK256 SWAP1 PUSH1 0x8 MUL ADD PUSH1 0x40 MLOAD DUP1 PUSH1 0xE0 ADD PUSH1 0x40 MSTORE SWAP1 DUP2 PUSH1 0x0 DUP3 ADD SLOAD DUP2 MSTORE PUSH1 0x20 ADD PUSH1 0x1 DUP3 ADD SLOAD DUP2 MSTORE PUSH1 0x20 ADD PUSH1 0x2 DUP3 ADD DUP1 SLOAD PUSH2 0x7C3 SWAP1 PUSH2 0x1DC2 JUMP JUMPDEST DUP1 PUSH1 0x1F ADD PUSH1 0x20 DUP1 SWAP2 DIV MUL PUSH1 0x20 ADD PUSH1 0x40 MLOAD SWAP1 DUP2 ADD PUSH1 0x40 MSTORE DUP1 SWAP3 SWAP2 SWAP1 DUP2 DUP2 MSTORE PUSH1 0x20 ADD DUP3 DUP1 SLOAD PUSH2 0x7EF SWAP1 PUSH2 0x1DC2 JUMP JUMPDEST DUP1 ISZERO PUSH2 0x83C JUMPI DUP1 PUSH1 0x1F LT PUSH2 0x811 JUMPI PUSH2 0x100 DUP1 DUP4 SLOAD DIV MUL DUP4 MSTORE SWAP2 PUSH1 0x20 ADD SWAP2 PUSH2 0x83C JUMP JUMPDEST DUP3 ADD SWAP2 SWAP1 PUSH1 0x0 MSTORE PUSH1 0x20 PUSH1 0x0 KECCAK256 SWAP1 JUMPDEST DUP2 SLOAD DUP2 MSTORE SWAP1 PUSH1 0x1 ADD SWAP1 PUSH1 0x20 ADD DUP1 DUP4 GT PUSH2 0x81F JUMPI DUP3 SWAP1 SUB PUSH1 0x1F AND DUP3 ADD SWAP2 JUMPDEST POP POP POP POP POP DUP2 MSTORE PUSH1 0x20 ADD PUSH1 0x3 DUP3 ADD DUP1 SLOAD PUSH2 0x855 SWAP1 PUSH2 0x1DC2 JUMP JUMPDEST DUP1 PUSH1 0x1F ADD PUSH1 0x20 DUP1 SWAP2 DIV MUL PUSH1 0x20 ADD PUSH1 0x40 MLOAD SWAP1 DUP2 ADD PUSH1 0x40 MSTORE DUP1 SWAP3 SWAP2 SWAP1 DUP2 DUP2 MSTORE PUSH1 0x20 ADD DUP3 DUP1 SLOAD PUSH2 0x881 SWAP1 PUSH2 0x1DC2 JUMP JUMPDEST DUP1 ISZERO PUSH2 0x8CE JUMPI DUP1 PUSH1 0x1F LT PUSH2 0x8A3 JUMPI PUSH2 0x100 DUP1 DUP4 SLOAD DIV MUL DUP4 MSTORE SWAP2 PUSH1 0x20 ADD SWAP2 PUSH2 0x8CE JUMP JUMPDEST DUP3 ADD SWAP2 SWAP1 PUSH1 0x0 MSTORE PUSH1 0x20 PUSH1 0x0 KECCAK256 SWAP1 JUMPDEST DUP2 SLOAD DUP2 MSTORE SWAP1 PUSH1 0x1 ADD SWAP1 PUSH1 0x20 ADD DUP1 DUP4 GT PUSH2 0x8B1 JUMPI DUP3 SWAP1 SUB PUSH1 0x1F AND DUP3 ADD SWAP2 JUMPDEST POP POP POP POP POP DUP2 MSTORE PUSH1 0x20 ADD PUSH1 0x4 DUP3 ADD SLOAD DUP2 MSTORE PUSH1 0x20 ADD PUSH1 0x5 DUP3 ADD SLOAD DUP2 MSTORE PUSH1 0x20 ADD PUSH1 0x6 DUP3 ADD PUSH1 0x40 MLOAD DUP1 PUSH1 0x40 ADD PUSH1 0x40 MSTORE SWAP1 DUP2 PUSH1 0x0 DUP3 ADD SLOAD DUP2 MSTORE PUSH1 0x20 ADD PUSH1 0x1 DUP3 ADD DUP1 SLOAD PUSH2 0x915 SWAP1 PUSH2 0x1DC2 JUMP JUMPDEST DUP1 PUSH1 0x1F ADD PUSH1 0x20 DUP1 SWAP2 DIV MUL PUSH1 0x20 ADD PUSH1 0x40 MLOAD SWAP1 DUP2 ADD PUSH1 0x40 MSTORE DUP1 SWAP3 SWAP2 SWAP1 DUP2 DUP2 MSTORE PUSH1 0x20 ADD DUP3 DUP1 SLOAD PUSH2 0x941 SWAP1 PUSH2 0x1DC2 JUMP JUMPDEST DUP1 ISZERO PUSH2 0x98E JUMPI DUP1 PUSH1 0x1F LT PUSH2 0x963 JUMPI PUSH2 0x100 DUP1 DUP4 SLOAD DIV MUL DUP4 MSTORE SWAP2 PUSH1 0x20 ADD SWAP2 PUSH2 0x98E JUMP JUMPDEST DUP3 ADD SWAP2 SWAP1 PUSH1 0x0 MSTORE PUSH1 0x20 PUSH1 0x0 KECCAK256 SWAP1 JUMPDEST DUP2 SLOAD DUP2 MSTORE SWAP1 PUSH1 0x1 ADD SWAP1 PUSH1 0x20 ADD DUP1 DUP4 GT PUSH2 0x971 JUMPI DUP3 SWAP1 SUB PUSH1 0x1F AND DUP3 ADD SWAP2 JUMPDEST POP POP POP POP POP DUP2 MSTORE POP POP DUP2 MSTORE POP POP SWAP1 POP SWAP2 SWAP1 POP JUMP JUMPDEST PUSH1 0x5 SLOAD DUP2 JUMP JUMPDEST PUSH1 0x1 SLOAD DUP2 JUMP JUMPDEST PUSH1 0x0 DUP2 DUP2 SLOAD DUP2 LT PUSH2 0x9BE JUMPI PUSH1 0x0 DUP1 REVERT JUMPDEST SWAP1 PUSH1 0x0 MSTORE PUSH1 0x20 PUSH1 0x0 KECCAK256 SWAP1 PUSH1 0x8 MUL ADD PUSH1 0x0 SWAP2 POP SWAP1 POP DUP1 PUSH1 0x0 ADD SLOAD SWAP1 DUP1 PUSH1 0x1 ADD SLOAD SWAP1 DUP1 PUSH1 0x2 ADD DUP1 SLOAD PUSH2 0x9ED SWAP1 PUSH2 0x1DC2 JUMP JUMPDEST DUP1 PUSH1 0x1F ADD PUSH1 0x20 DUP1 SWAP2 DIV MUL PUSH1 0x20 ADD PUSH1 0x40 MLOAD SWAP1 DUP2 ADD PUSH1 0x40 MSTORE DUP1 SWAP3 SWAP2 SWAP1 DUP2 DUP2 MSTORE PUSH1 0x20 ADD DUP3 DUP1 SLOAD PUSH2 0xA19 SWAP1 PUSH2 0x1DC2 JUMP JUMPDEST DUP1 ISZERO PUSH2 0xA66 JUMPI DUP1 PUSH1 0x1F LT PUSH2 0xA3B JUMPI PUSH2 0x100 DUP1 DUP4 SLOAD DIV MUL DUP4 MSTORE SWAP2 PUSH1 0x20 ADD SWAP2 PUSH2 0xA66 JUMP JUMPDEST DUP3 ADD SWAP2 SWAP1 PUSH1 0x0 MSTORE PUSH1 0x20 PUSH1 0x0 KECCAK256 SWAP1 JUMPDEST DUP2 SLOAD DUP2 MSTORE SWAP1 PUSH1 0x1 ADD SWAP1 PUSH1 0x20 ADD DUP1 DUP4 GT PUSH2 0xA49 JUMPI DUP3 SWAP1 SUB PUSH1 0x1F AND DUP3 ADD SWAP2 JUMPDEST POP POP POP POP POP SWAP1 DUP1 PUSH1 0x3 ADD DUP1 SLOAD PUSH2 0xA7B SWAP1 PUSH2 0x1DC2 JUMP JUMPDEST DUP1 PUSH1 0x1F ADD PUSH1 0x20 DUP1 SWAP2 DIV MUL PUSH1 0x20 ADD PUSH1 0x40 MLOAD SWAP1 DUP2 ADD PUSH1 0x40 MSTORE DUP1 SWAP3 SWAP2 SWAP1 DUP2 DUP2 MSTORE PUSH1 0x20 ADD DUP3 DUP1 SLOAD PUSH2 0xAA7 SWAP1 PUSH2 0x1DC2 JUMP JUMPDEST DUP1 ISZERO PUSH2 0xAF4 JUMPI DUP1 PUSH1 0x1F LT PUSH2 0xAC9 JUMPI PUSH2 0x100 DUP1 DUP4 SLOAD DIV MUL DUP4 MSTORE SWAP2 PUSH1 0x20 ADD SWAP2 PUSH2 0xAF4 JUMP JUMPDEST DUP3 ADD SWAP2 SWAP1 PUSH1 0x0 MSTORE PUSH1 0x20 PUSH1 0x0 KECCAK256 SWAP1 JUMPDEST DUP2 SLOAD DUP2 MSTORE SWAP1 PUSH1 0x1 ADD SWAP1 PUSH1 0x20 ADD DUP1 DUP4 GT PUSH2 0xAD7 JUMPI DUP3 SWAP1 SUB PUSH1 0x1F AND DUP3 ADD SWAP2 JUMPDEST POP POP POP POP POP SWAP1 DUP1 PUSH1 0x4 ADD SLOAD SWAP1 DUP1 PUSH1 0x5 ADD SLOAD SWAP1 DUP1 PUSH1 0x6 ADD PUSH1 0x40 MLOAD DUP1 PUSH1 0x40 ADD PUSH1 0x40 MSTORE SWAP1 DUP2 PUSH1 0x0 DUP3 ADD SLOAD DUP2 MSTORE PUSH1 0x20 ADD PUSH1 0x1 DUP3 ADD DUP1 SLOAD PUSH2 0xB2F SWAP1 PUSH2 0x1DC2 JUMP JUMPDEST DUP1 PUSH1 0x1F ADD PUSH1 0x20 DUP1 SWAP2 DIV MUL PUSH1 0x20 ADD PUSH1 0x40 MLOAD SWAP1 DUP2 ADD PUSH1 0x40 MSTORE DUP1 SWAP3 SWAP2 SWAP1 DUP2 DUP2 MSTORE PUSH1 0x20 ADD DUP3 DUP1 SLOAD PUSH2 0xB5B SWAP1 PUSH2 0x1DC2 JUMP JUMPDEST DUP1 ISZERO PUSH2 0xBA8 JUMPI DUP1 PUSH1 0x1F LT PUSH2 0xB7D JUMPI PUSH2 0x100 DUP1 DUP4 SLOAD DIV MUL DUP4 MSTORE SWAP2 PUSH1 0x20 ADD SWAP2 PUSH2 0xBA8 JUMP JUMPDEST DUP3 ADD SWAP2 SWAP1 PUSH1 0x0 MSTORE PUSH1 0x20 PUSH1 0x0 KECCAK256 SWAP1 JUMPDEST DUP2 SLOAD DUP2 MSTORE SWAP1 PUSH1 0x1 ADD SWAP1 PUSH1 0x20 ADD DUP1 DUP4 GT PUSH2 0xB8B JUMPI DUP3 SWAP1 SUB PUSH1 0x1F AND DUP3 ADD SWAP2 JUMPDEST POP POP POP POP POP DUP2 MSTORE POP POP SWAP1 POP DUP8 JUMP JUMPDEST PUSH1 0x2 DUP2 DUP2 SLOAD DUP2 LT PUSH2 0xBC6 JUMPI PUSH1 0x0 DUP1 REVERT JUMPDEST SWAP1 PUSH1 0x0 MSTORE PUSH1 0x20 PUSH1 0x0 KECCAK256 SWAP1 PUSH1 0xE MUL ADD PUSH1 0x0 SWAP2 POP SWAP1 POP DUP1 PUSH1 0x0 ADD SLOAD SWAP1 DUP1 PUSH1 0x1 ADD SLOAD SWAP1 DUP1 PUSH1 0x2 ADD PUSH1 0x40 MLOAD DUP1 PUSH1 0xE0 ADD PUSH1 0x40 MSTORE SWAP1 DUP2 PUSH1 0x0 DUP3 ADD SLOAD DUP2 MSTORE PUSH1 0x20 ADD PUSH1 0x1 DUP3 ADD SLOAD DUP2 MSTORE PUSH1 0x20 ADD PUSH1 0x2 DUP3 ADD DUP1 SLOAD PUSH2 0xC19 SWAP1 PUSH2 0x1DC2 JUMP JUMPDEST DUP1 PUSH1 0x1F ADD PUSH1 0x20 DUP1 SWAP2 DIV MUL PUSH1 0x20 ADD PUSH1 0x40 MLOAD SWAP1 DUP2 ADD PUSH1 0x40 MSTORE DUP1 SWAP3 SWAP2 SWAP1 DUP2 DUP2 MSTORE PUSH1 0x20 ADD DUP3 DUP1 SLOAD PUSH2 0xC45 SWAP1 PUSH2 0x1DC2 JUMP JUMPDEST DUP1 ISZERO PUSH2 0xC92 JUMPI DUP1 PUSH1 0x1F LT PUSH2 0xC67 JUMPI PUSH2 0x100 DUP1 DUP4 SLOAD DIV MUL DUP4 MSTORE SWAP2 PUSH1 0x20 ADD SWAP2 PUSH2 0xC92 JUMP JUMPDEST DUP3 ADD SWAP2 SWAP1 PUSH1 0x0 MSTORE PUSH1 0x20 PUSH1 0x0 KECCAK256 SWAP1 JUMPDEST DUP2 SLOAD DUP2 MSTORE SWAP1 PUSH1 0x1 ADD SWAP1 PUSH1 0x20 ADD DUP1 DUP4 GT PUSH2 0xC75 JUMPI DUP3 SWAP1 SUB PUSH1 0x1F AND DUP3 ADD SWAP2 JUMPDEST POP POP POP POP POP DUP2 MSTORE PUSH1 0x20 ADD PUSH1 0x3 DUP3 ADD DUP1 SLOAD PUSH2 0xCAB SWAP1 PUSH2 0x1DC2 JUMP JUMPDEST DUP1 PUSH1 0x1F ADD PUSH1 0x20 DUP1 SWAP2 DIV MUL PUSH1 0x20 ADD PUSH1 0x40 MLOAD SWAP1 DUP2 ADD PUSH1 0x40 MSTORE DUP1 SWAP3 SWAP2 SWAP1 DUP2 DUP2 MSTORE PUSH1 0x20 ADD DUP3 DUP1 SLOAD PUSH2 0xCD7 SWAP1 PUSH2 0x1DC2 JUMP JUMPDEST DUP1 ISZERO PUSH2 0xD24 JUMPI DUP1 PUSH1 0x1F LT PUSH2 0xCF9 JUMPI PUSH2 0x100 DUP1 DUP4 SLOAD DIV MUL DUP4 MSTORE SWAP2 PUSH1 0x20 ADD SWAP2 PUSH2 0xD24 JUMP JUMPDEST DUP3 ADD SWAP2 SWAP1 PUSH1 0x0 MSTORE PUSH1 0x20 PUSH1 0x0 KECCAK256 SWAP1 JUMPDEST DUP2 SLOAD DUP2 MSTORE SWAP1 PUSH1 0x1 ADD SWAP1 PUSH1 0x20 ADD DUP1 DUP4 GT PUSH2 0xD07 JUMPI DUP3 SWAP1 SUB PUSH1 0x1F AND DUP3 ADD SWAP2 JUMPDEST POP POP POP POP POP DUP2 MSTORE PUSH1 0x20 ADD PUSH1 0x4 DUP3 ADD SLOAD DUP2 MSTORE PUSH1 0x20 ADD PUSH1 0x5 DUP3 ADD SLOAD DUP2 MSTORE PUSH1 0x20 ADD PUSH1 0x6 DUP3 ADD PUSH1 0x40 MLOAD DUP1 PUSH1 0x40 ADD PUSH1 0x40 MSTORE SWAP1 DUP2 PUSH1 0x0 DUP3 ADD SLOAD DUP2 MSTORE PUSH1 0x20 ADD PUSH1 0x1 DUP3 ADD DUP1 SLOAD PUSH2 0xD6B SWAP1 PUSH2 0x1DC2 JUMP JUMPDEST DUP1 PUSH1 0x1F ADD PUSH1 0x20 DUP1 SWAP2 DIV MUL PUSH1 0x20 ADD PUSH1 0x40 MLOAD SWAP1 DUP2 ADD PUSH1 0x40 MSTORE DUP1 SWAP3 SWAP2 SWAP1 DUP2 DUP2 MSTORE PUSH1 0x20 ADD DUP3 DUP1 SLOAD PUSH2 0xD97 SWAP1 PUSH2 0x1DC2 JUMP JUMPDEST DUP1 ISZERO PUSH2 0xDE4 JUMPI DUP1 PUSH1 0x1F LT PUSH2 0xDB9 JUMPI PUSH2 0x100 DUP1 DUP4 SLOAD DIV MUL DUP4 MSTORE SWAP2 PUSH1 0x20 ADD SWAP2 PUSH2 0xDE4 JUMP JUMPDEST DUP3 ADD SWAP2 SWAP1 PUSH1 0x0 MSTORE PUSH1 0x20 PUSH1 0x0 KECCAK256 SWAP1 JUMPDEST DUP2 SLOAD DUP2 MSTORE SWAP1 PUSH1 0x1 ADD SWAP1 PUSH1 0x20 ADD DUP1 DUP4 GT PUSH2 0xDC7 JUMPI DUP3 SWAP1 SUB PUSH1 0x1F AND DUP3 ADD SWAP2 JUMPDEST POP POP POP POP POP DUP2 MSTORE POP POP DUP2 MSTORE POP POP SWAP1 DUP1 PUSH1 0xA ADD PUSH1 0x40 MLOAD DUP1 PUSH1 0x40 ADD PUSH1 0x40 MSTORE SWAP1 DUP2 PUSH1 0x0 DUP3 ADD SLOAD DUP2 MSTORE PUSH1 0x20 ADD PUSH1 0x1 DUP3 ADD DUP1 SLOAD PUSH2 0xE1B SWAP1 PUSH2 0x1DC2 JUMP JUMPDEST DUP1 PUSH1 0x1F ADD PUSH1 0x20 DUP1 SWAP2 DIV MUL PUSH1 0x20 ADD PUSH1 0x40 MLOAD SWAP1 DUP2 ADD PUSH1 0x40 MSTORE DUP1 SWAP3 SWAP2 SWAP1 DUP2 DUP2 MSTORE PUSH1 0x20 ADD DUP3 DUP1 SLOAD PUSH2 0xE47 SWAP1 PUSH2 0x1DC2 JUMP JUMPDEST DUP1 ISZERO PUSH2 0xE94 JUMPI DUP1 PUSH1 0x1F LT PUSH2 0xE69 JUMPI PUSH2 0x100 DUP1 DUP4 SLOAD DIV MUL DUP4 MSTORE SWAP2 PUSH1 0x20 ADD SWAP2 PUSH2 0xE94 JUMP JUMPDEST DUP3 ADD SWAP2 SWAP1 PUSH1 0x0 MSTORE PUSH1 0x20 PUSH1 0x0 KECCAK256 SWAP1 JUMPDEST DUP2 SLOAD DUP2 MSTORE SWAP1 PUSH1 0x1 ADD SWAP1 PUSH1 0x20 ADD DUP1 DUP4 GT PUSH2 0xE77 JUMPI DUP3 SWAP1 SUB PUSH1 0x1F AND DUP3 ADD SWAP2 JUMPDEST POP POP POP POP POP DUP2 MSTORE POP POP SWAP1 DUP1 PUSH1 0xC ADD PUSH1 0x40 MLOAD DUP1 PUSH1 0x40 ADD PUSH1 0x40 MSTORE SWAP1 DUP2 PUSH1 0x0 DUP3 ADD SLOAD DUP2 MSTORE PUSH1 0x20 ADD PUSH1 0x1 DUP3 ADD DUP1 SLOAD PUSH2 0xEC7 SWAP1 PUSH2 0x1DC2 JUMP JUMPDEST DUP1 PUSH1 0x1F ADD PUSH1 0x20 DUP1 SWAP2 DIV MUL PUSH1 0x20 ADD PUSH1 0x40 MLOAD SWAP1 DUP2 ADD PUSH1 0x40 MSTORE DUP1 SWAP3 SWAP2 SWAP1 DUP2 DUP2 MSTORE PUSH1 0x20 ADD DUP3 DUP1 SLOAD PUSH2 0xEF3 SWAP1 PUSH2 0x1DC2 JUMP JUMPDEST DUP1 ISZERO PUSH2 0xF40 JUMPI DUP1 PUSH1 0x1F LT PUSH2 0xF15 JUMPI PUSH2 0x100 DUP1 DUP4 SLOAD DIV MUL DUP4 MSTORE SWAP2 PUSH1 0x20 ADD SWAP2 PUSH2 0xF40 JUMP JUMPDEST DUP3 ADD SWAP2 SWAP1 PUSH1 0x0 MSTORE PUSH1 0x20 PUSH1 0x0 KECCAK256 SWAP1 JUMPDEST DUP2 SLOAD DUP2 MSTORE SWAP1 PUSH1 0x1 ADD SWAP1 PUSH1 0x20 ADD DUP1 DUP4 GT PUSH2 0xF23 JUMPI DUP3 SWAP1 SUB PUSH1 0x1F AND DUP3 ADD SWAP2 JUMPDEST POP POP POP POP POP DUP2 MSTORE POP POP SWAP1 POP DUP6 JUMP JUMPDEST PUSH2 0xF56 PUSH2 0x13F5 JUMP JUMPDEST PUSH1 0x4 DUP3 DUP2 SLOAD DUP2 LT PUSH2 0xF6A JUMPI PUSH2 0xF69 PUSH2 0x1ECC JUMP JUMPDEST JUMPDEST SWAP1 PUSH1 0x0 MSTORE PUSH1 0x20 PUSH1 0x0 KECCAK256 SWAP1 PUSH1 0x2 MUL ADD PUSH1 0x40 MLOAD DUP1 PUSH1 0x40 ADD PUSH1 0x40 MSTORE SWAP1 DUP2 PUSH1 0x0 DUP3 ADD SLOAD DUP2 MSTORE PUSH1 0x20 ADD PUSH1 0x1 DUP3 ADD DUP1 SLOAD PUSH2 0xF9D SWAP1 PUSH2 0x1DC2 JUMP JUMPDEST DUP1 PUSH1 0x1F ADD PUSH1 0x20 DUP1 SWAP2 DIV MUL PUSH1 0x20 ADD PUSH1 0x40 MLOAD SWAP1 DUP2 ADD PUSH1 0x40 MSTORE DUP1 SWAP3 SWAP2 SWAP1 DUP2 DUP2 MSTORE PUSH1 0x20 ADD DUP3 DUP1 SLOAD PUSH2 0xFC9 SWAP1 PUSH2 0x1DC2 JUMP JUMPDEST DUP1 ISZERO PUSH2 0x1016 JUMPI DUP1 PUSH1 0x1F LT PUSH2 0xFEB JUMPI PUSH2 0x100 DUP1 DUP4 SLOAD DIV MUL DUP4 MSTORE SWAP2 PUSH1 0x20 ADD SWAP2 PUSH2 0x1016 JUMP JUMPDEST DUP3 ADD SWAP2 SWAP1 PUSH1 0x0 MSTORE PUSH1 0x20 PUSH1 0x0 KECCAK256 SWAP1 JUMPDEST DUP2 SLOAD DUP2 MSTORE SWAP1 PUSH1 0x1 ADD SWAP1 PUSH1 0x20 ADD DUP1 DUP4 GT PUSH2 0xFF9 JUMPI DUP3 SWAP1 SUB PUSH1 0x1F AND DUP3 ADD SWAP2 JUMPDEST POP POP POP POP POP DUP2 MSTORE POP POP SWAP1 POP SWAP2 SWAP1 POP JUMP JUMPDEST PUSH1 0x4 PUSH1 0x40 MLOAD DUP1 PUSH1 0x40 ADD PUSH1 0x40 MSTORE DUP1 PUSH1 0x5 PUSH1 0x0 DUP2 SLOAD DUP1 SWAP3 SWAP2 SWAP1 PUSH2 0x1046 SWAP1 PUSH2 0x1E25 JUMP JUMPDEST SWAP2 SWAP1 POP SSTORE DUP2 MSTORE PUSH1 0x20 ADD DUP4 DUP2 MSTORE POP SWAP1 DUP1 PUSH1 0x1 DUP2 SLOAD ADD DUP1 DUP3 SSTORE DUP1 SWAP2 POP POP PUSH1 0x1 SWAP1 SUB SWAP1 PUSH1 0x0 MSTORE PUSH1 0x20 PUSH1 0x0 KECCAK256 SWAP1 PUSH1 0x2 MUL ADD PUSH1 0x0 SWAP1 SWAP2 SWAP1 SWAP2 SWAP1 SWAP2 POP PUSH1 0x0 DUP3 ADD MLOAD DUP2 PUSH1 0x0 ADD SSTORE PUSH1 0x20 DUP3 ADD MLOAD DUP2 PUSH1 0x1 ADD SWAP1 DUP1 MLOAD SWAP1 PUSH1 0x20 ADD SWAP1 PUSH2 0x10A2 SWAP3 SWAP2 SWAP1 PUSH2 0x12EB JUMP JUMPDEST POP POP POP POP JUMP JUMPDEST PUSH1 0x4 DUP2 DUP2 SLOAD DUP2 LT PUSH2 0x10B8 JUMPI PUSH1 0x0 DUP1 REVERT JUMPDEST SWAP1 PUSH1 0x0 MSTORE PUSH1 0x20 PUSH1 0x0 KECCAK256 SWAP1 PUSH1 0x2 MUL ADD PUSH1 0x0 SWAP2 POP SWAP1 POP DUP1 PUSH1 0x0 ADD SLOAD SWAP1 DUP1 PUSH1 0x1 ADD DUP1 SLOAD PUSH2 0x10E1 SWAP1 PUSH2 0x1DC2 JUMP JUMPDEST DUP1 PUSH1 0x1F ADD PUSH1 0x20 DUP1 SWAP2 DIV MUL PUSH1 0x20 ADD PUSH1 0x40 MLOAD SWAP1 DUP2 ADD PUSH1 0x40 MSTORE DUP1 SWAP3 SWAP2 SWAP1 DUP2 DUP2 MSTORE PUSH1 0x20 ADD DUP3 DUP1 SLOAD PUSH2 0x110D SWAP1 PUSH2 0x1DC2 JUMP JUMPDEST DUP1 ISZERO PUSH2 0x115A JUMPI DUP1 PUSH1 0x1F LT PUSH2 0x112F JUMPI PUSH2 0x100 DUP1 DUP4 SLOAD DIV MUL DUP4 MSTORE SWAP2 PUSH1 0x20 ADD SWAP2 PUSH2 0x115A JUMP JUMPDEST DUP3 ADD SWAP2 SWAP1 PUSH1 0x0 MSTORE PUSH1 0x20 PUSH1 0x0 KECCAK256 SWAP1 JUMPDEST DUP2 SLOAD DUP2 MSTORE SWAP1 PUSH1 0x1 ADD SWAP1 PUSH1 0x20 ADD DUP1 DUP4 GT PUSH2 0x113D JUMPI DUP3 SWAP1 SUB PUSH1 0x1F AND DUP3 ADD SWAP2 JUMPDEST POP POP POP POP POP SWAP1 POP DUP3 JUMP JUMPDEST PUSH1 0x2 PUSH1 0x40 MLOAD DUP1 PUSH1 0xA0 ADD PUSH1 0x40 MSTORE DUP1 PUSH1 0x3 PUSH1 0x0 DUP2 SLOAD DUP1 SWAP3 SWAP2 SWAP1 PUSH2 0x1184 SWAP1 PUSH2 0x1E25 JUMP JUMPDEST SWAP2 SWAP1 POP SSTORE DUP2 MSTORE PUSH1 0x20 ADD DUP7 DUP2 MSTORE PUSH1 0x20 ADD DUP6 DUP2 MSTORE PUSH1 0x20 ADD DUP5 DUP2 MSTORE PUSH1 0x20 ADD DUP4 DUP2 MSTORE POP SWAP1 DUP1 PUSH1 0x1 DUP2 SLOAD ADD DUP1 DUP3 SSTORE DUP1 SWAP2 POP POP PUSH1 0x1 SWAP1 SUB SWAP1 PUSH1 0x0 MSTORE PUSH1 0x20 PUSH1 0x0 KECCAK256 SWAP1 PUSH1 0xE MUL ADD PUSH1 0x0 SWAP1 SWAP2 SWAP1 SWAP2 SWAP1 SWAP2 POP PUSH1 0x0 DUP3 ADD MLOAD DUP2 PUSH1 0x0 ADD SSTORE PUSH1 0x20 DUP3 ADD MLOAD DUP2 PUSH1 0x1 ADD SSTORE PUSH1 0x40 DUP3 ADD MLOAD DUP2 PUSH1 0x2 ADD PUSH1 0x0 DUP3 ADD MLOAD DUP2 PUSH1 0x0 ADD SSTORE PUSH1 0x20 DUP3 ADD MLOAD DUP2 PUSH1 0x1 ADD SSTORE PUSH1 0x40 DUP3 ADD MLOAD DUP2 PUSH1 0x2 ADD SWAP1 DUP1 MLOAD SWAP1 PUSH1 0x20 ADD SWAP1 PUSH2 0x1219 SWAP3 SWAP2 SWAP1 PUSH2 0x12EB JUMP JUMPDEST POP PUSH1 0x60 DUP3 ADD MLOAD DUP2 PUSH1 0x3 ADD SWAP1 DUP1 MLOAD SWAP1 PUSH1 0x20 ADD SWAP1 PUSH2 0x1236 SWAP3 SWAP2 SWAP1 PUSH2 0x12EB JUMP JUMPDEST POP PUSH1 0x80 DUP3 ADD MLOAD DUP2 PUSH1 0x4 ADD SSTORE PUSH1 0xA0 DUP3 ADD MLOAD DUP2 PUSH1 0x5 ADD SSTORE PUSH1 0xC0 DUP3 ADD MLOAD DUP2 PUSH1 0x6 ADD PUSH1 0x0 DUP3 ADD MLOAD DUP2 PUSH1 0x0 ADD SSTORE PUSH1 0x20 DUP3 ADD MLOAD DUP2 PUSH1 0x1 ADD SWAP1 DUP1 MLOAD SWAP1 PUSH1 0x20 ADD SWAP1 PUSH2 0x127A SWAP3 SWAP2 SWAP1 PUSH2 0x12EB JUMP JUMPDEST POP POP POP POP POP PUSH1 0x60 DUP3 ADD MLOAD DUP2 PUSH1 0xA ADD PUSH1 0x0 DUP3 ADD MLOAD DUP2 PUSH1 0x0 ADD SSTORE PUSH1 0x20 DUP3 ADD MLOAD DUP2 PUSH1 0x1 ADD SWAP1 DUP1 MLOAD SWAP1 PUSH1 0x20 ADD SWAP1 PUSH2 0x12AE SWAP3 SWAP2 SWAP1 PUSH2 0x12EB JUMP JUMPDEST POP POP POP PUSH1 0x80 DUP3 ADD MLOAD DUP2 PUSH1 0xC ADD PUSH1 0x0 DUP3 ADD MLOAD DUP2 PUSH1 0x0 ADD SSTORE PUSH1 0x20 DUP3 ADD MLOAD DUP2 PUSH1 0x1 ADD SWAP1 DUP1 MLOAD SWAP1 PUSH1 0x20 ADD SWAP1 PUSH2 0x12E0 SWAP3 SWAP2 SWAP1 PUSH2 0x12EB JUMP JUMPDEST POP POP POP POP POP POP POP POP POP JUMP JUMPDEST DUP3 DUP1 SLOAD PUSH2 0x12F7 SWAP1 PUSH2 0x1DC2 JUMP JUMPDEST SWAP1 PUSH1 0x0 MSTORE PUSH1 0x20 PUSH1 0x0 KECCAK256 SWAP1 PUSH1 0x1F ADD PUSH1 0x20 SWAP1 DIV DUP2 ADD SWAP3 DUP3 PUSH2 0x1319 JUMPI PUSH1 0x0 DUP6 SSTORE PUSH2 0x1360 JUMP JUMPDEST DUP3 PUSH1 0x1F LT PUSH2 0x1332 JUMPI DUP1 MLOAD PUSH1 0xFF NOT AND DUP4 DUP1 ADD OR DUP6 SSTORE PUSH2 0x1360 JUMP JUMPDEST DUP3 DUP1 ADD PUSH1 0x1 ADD DUP6 SSTORE DUP3 ISZERO PUSH2 0x1360 JUMPI SWAP2 DUP3 ADD JUMPDEST DUP3 DUP2 GT ISZERO PUSH2 0x135F JUMPI DUP3 MLOAD DUP3 SSTORE SWAP2 PUSH1 0x20 ADD SWAP2 SWAP1 PUSH1 0x1 ADD SWAP1 PUSH2 0x1344 JUMP JUMPDEST JUMPDEST POP SWAP1 POP PUSH2 0x136D SWAP2 SWAP1 PUSH2 0x140F JUMP JUMPDEST POP SWAP1 JUMP JUMPDEST PUSH1 0x40 MLOAD DUP1 PUSH1 0xA0 ADD PUSH1 0x40 MSTORE DUP1 PUSH1 0x0 DUP2 MSTORE PUSH1 0x20 ADD PUSH1 0x0 DUP2 MSTORE PUSH1 0x20 ADD PUSH2 0x1392 PUSH2 0x13B2 JUMP JUMPDEST DUP2 MSTORE PUSH1 0x20 ADD PUSH2 0x139F PUSH2 0x13F5 JUMP JUMPDEST DUP2 MSTORE PUSH1 0x20 ADD PUSH2 0x13AC PUSH2 0x13F5 JUMP JUMPDEST DUP2 MSTORE POP SWAP1 JUMP JUMPDEST PUSH1 0x40 MLOAD DUP1 PUSH1 0xE0 ADD PUSH1 0x40 MSTORE DUP1 PUSH1 0x0 DUP2 MSTORE PUSH1 0x20 ADD PUSH1 0x0 DUP2 MSTORE PUSH1 0x20 ADD PUSH1 0x60 DUP2 MSTORE PUSH1 0x20 ADD PUSH1 0x60 DUP2 MSTORE PUSH1 0x20 ADD PUSH1 0x0 DUP2 MSTORE PUSH1 0x20 ADD PUSH1 0x0 DUP2 MSTORE PUSH1 0x20 ADD PUSH2 0x13EF PUSH2 0x13F5 JUMP JUMPDEST DUP2 MSTORE POP SWAP1 JUMP JUMPDEST PUSH1 0x40 MLOAD DUP1 PUSH1 0x40 ADD PUSH1 0x40 MSTORE DUP1 PUSH1 0x0 DUP2 MSTORE PUSH1 0x20 ADD PUSH1 0x60 DUP2 MSTORE POP SWAP1 JUMP JUMPDEST JUMPDEST DUP1 DUP3 GT ISZERO PUSH2 0x1428 JUMPI PUSH1 0x0 DUP2 PUSH1 0x0 SWAP1 SSTORE POP PUSH1 0x1 ADD PUSH2 0x1410 JUMP JUMPDEST POP SWAP1 JUMP JUMPDEST PUSH1 0x0 PUSH2 0x143F PUSH2 0x143A DUP5 PUSH2 0x1D0E JUMP JUMPDEST PUSH2 0x1CE9 JUMP JUMPDEST SWAP1 POP DUP3 DUP2 MSTORE PUSH1 0x20 DUP2 ADD DUP5 DUP5 DUP5 ADD GT ISZERO PUSH2 0x145B JUMPI PUSH2 0x145A PUSH2 0x1F39 JUMP JUMPDEST JUMPDEST PUSH2 0x1466 DUP5 DUP3 DUP6 PUSH2 0x1D80 JUMP JUMPDEST POP SWAP4 SWAP3 POP POP POP JUMP JUMPDEST PUSH1 0x0 DUP2 CALLDATALOAD SWAP1 POP PUSH2 0x147D DUP2 PUSH2 0x1F59 JUMP JUMPDEST SWAP3 SWAP2 POP POP JUMP JUMPDEST PUSH1 0x0 DUP3 PUSH1 0x1F DUP4 ADD SLT PUSH2 0x1498 JUMPI PUSH2 0x1497 PUSH2 0x1F2A JUMP JUMPDEST JUMPDEST DUP2 CALLDATALOAD PUSH2 0x14A8 DUP5 DUP3 PUSH1 0x20 DUP7 ADD PUSH2 0x142C JUMP JUMPDEST SWAP2 POP POP SWAP3 SWAP2 POP POP JUMP JUMPDEST PUSH1 0x0 PUSH1 0x40 DUP3 DUP5 SUB SLT ISZERO PUSH2 0x14C7 JUMPI PUSH2 0x14C6 PUSH2 0x1F2F JUMP JUMPDEST JUMPDEST PUSH2 0x14D1 PUSH1 0x40 PUSH2 0x1CE9 JUMP JUMPDEST SWAP1 POP PUSH1 0x0 PUSH2 0x14E1 DUP5 DUP3 DUP6 ADD PUSH2 0x1625 JUMP JUMPDEST PUSH1 0x0 DUP4 ADD MSTORE POP PUSH1 0x20 DUP3 ADD CALLDATALOAD PUSH8 0xFFFFFFFFFFFFFFFF DUP2 GT ISZERO PUSH2 0x1505 JUMPI PUSH2 0x1504 PUSH2 0x1F34 JUMP JUMPDEST JUMPDEST PUSH2 0x1511 DUP5 DUP3 DUP6 ADD PUSH2 0x1483 JUMP JUMPDEST PUSH1 0x20 DUP4 ADD MSTORE POP SWAP3 SWAP2 POP POP JUMP JUMPDEST PUSH1 0x0 PUSH1 0xE0 DUP3 DUP5 SUB SLT ISZERO PUSH2 0x1533 JUMPI PUSH2 0x1532 PUSH2 0x1F2F JUMP JUMPDEST JUMPDEST PUSH2 0x153D PUSH1 0xE0 PUSH2 0x1CE9 JUMP JUMPDEST SWAP1 POP PUSH1 0x0 PUSH2 0x154D DUP5 DUP3 DUP6 ADD PUSH2 0x1625 JUMP JUMPDEST PUSH1 0x0 DUP4 ADD MSTORE POP PUSH1 0x20 PUSH2 0x1561 DUP5 DUP3 DUP6 ADD PUSH2 0x146E JUMP JUMPDEST PUSH1 0x20 DUP4 ADD MSTORE POP PUSH1 0x40 DUP3 ADD CALLDATALOAD PUSH8 0xFFFFFFFFFFFFFFFF DUP2 GT ISZERO PUSH2 0x1585 JUMPI PUSH2 0x1584 PUSH2 0x1F34 JUMP JUMPDEST JUMPDEST PUSH2 0x1591 DUP5 DUP3 DUP6 ADD PUSH2 0x1483 JUMP JUMPDEST PUSH1 0x40 DUP4 ADD MSTORE POP PUSH1 0x60 DUP3 ADD CALLDATALOAD PUSH8 0xFFFFFFFFFFFFFFFF DUP2 GT ISZERO PUSH2 0x15B5 JUMPI PUSH2 0x15B4 PUSH2 0x1F34 JUMP JUMPDEST JUMPDEST PUSH2 0x15C1 DUP5 DUP3 DUP6 ADD PUSH2 0x1483 JUMP JUMPDEST PUSH1 0x60 DUP4 ADD MSTORE POP PUSH1 0x80 PUSH2 0x15D5 DUP5 DUP3 DUP6 ADD PUSH2 0x1625 JUMP JUMPDEST PUSH1 0x80 DUP4 ADD MSTORE POP PUSH1 0xA0 PUSH2 0x15E9 DUP5 DUP3 DUP6 ADD PUSH2 0x146E JUMP JUMPDEST PUSH1 0xA0 DUP4 ADD MSTORE POP PUSH1 0xC0 DUP3 ADD CALLDATALOAD PUSH8 0xFFFFFFFFFFFFFFFF DUP2 GT ISZERO PUSH2 0x160D JUMPI PUSH2 0x160C PUSH2 0x1F34 JUMP JUMPDEST JUMPDEST PUSH2 0x1619 DUP5 DUP3 DUP6 ADD PUSH2 0x14B1 JUMP JUMPDEST PUSH1 0xC0 DUP4 ADD MSTORE POP SWAP3 SWAP2 POP POP JUMP JUMPDEST PUSH1 0x0 DUP2 CALLDATALOAD SWAP1 POP PUSH2 0x1634 DUP2 PUSH2 0x1F70 JUMP JUMPDEST SWAP3 SWAP2 POP POP JUMP JUMPDEST PUSH1 0x0 DUP1 PUSH1 0x0 DUP1 PUSH1 0x0 DUP1 PUSH1 0xC0 DUP8 DUP10 SUB SLT ISZERO PUSH2 0x1657 JUMPI PUSH2 0x1656 PUSH2 0x1F43 JUMP JUMPDEST JUMPDEST PUSH1 0x0 PUSH2 0x1665 DUP10 DUP3 DUP11 ADD PUSH2 0x146E JUMP JUMPDEST SWAP7 POP POP PUSH1 0x20 DUP8 ADD CALLDATALOAD PUSH8 0xFFFFFFFFFFFFFFFF DUP2 GT ISZERO PUSH2 0x1686 JUMPI PUSH2 0x1685 PUSH2 0x1F3E JUMP JUMPDEST JUMPDEST PUSH2 0x1692 DUP10 DUP3 DUP11 ADD PUSH2 0x1483 JUMP JUMPDEST SWAP6 POP POP PUSH1 0x40 DUP8 ADD CALLDATALOAD PUSH8 0xFFFFFFFFFFFFFFFF DUP2 GT ISZERO PUSH2 0x16B3 JUMPI PUSH2 0x16B2 PUSH2 0x1F3E JUMP JUMPDEST JUMPDEST PUSH2 0x16BF DUP10 DUP3 DUP11 ADD PUSH2 0x1483 JUMP JUMPDEST SWAP5 POP POP PUSH1 0x60 PUSH2 0x16D0 DUP10 DUP3 DUP11 ADD PUSH2 0x1625 JUMP JUMPDEST SWAP4 POP POP PUSH1 0x80 PUSH2 0x16E1 DUP10 DUP3 DUP11 ADD PUSH2 0x146E JUMP JUMPDEST SWAP3 POP POP PUSH1 0xA0 DUP8 ADD CALLDATALOAD PUSH8 0xFFFFFFFFFFFFFFFF DUP2 GT ISZERO PUSH2 0x1702 JUMPI PUSH2 0x1701 PUSH2 0x1F3E JUMP JUMPDEST JUMPDEST PUSH2 0x170E DUP10 DUP3 DUP11 ADD PUSH2 0x14B1 JUMP JUMPDEST SWAP2 POP POP SWAP3 SWAP6 POP SWAP3 SWAP6 POP SWAP3 SWAP6 JUMP JUMPDEST PUSH1 0x0 PUSH1 0x20 DUP3 DUP5 SUB SLT ISZERO PUSH2 0x1731 JUMPI PUSH2 0x1730 PUSH2 0x1F43 JUMP JUMPDEST JUMPDEST PUSH1 0x0 DUP3 ADD CALLDATALOAD PUSH8 0xFFFFFFFFFFFFFFFF DUP2 GT ISZERO PUSH2 0x174F JUMPI PUSH2 0x174E PUSH2 0x1F3E JUMP JUMPDEST JUMPDEST PUSH2 0x175B DUP5 DUP3 DUP6 ADD PUSH2 0x1483 JUMP JUMPDEST SWAP2 POP POP SWAP3 SWAP2 POP POP JUMP JUMPDEST PUSH1 0x0 PUSH1 0x20 DUP3 DUP5 SUB SLT ISZERO PUSH2 0x177A JUMPI PUSH2 0x1779 PUSH2 0x1F43 JUMP JUMPDEST JUMPDEST PUSH1 0x0 PUSH2 0x1788 DUP5 DUP3 DUP6 ADD PUSH2 0x1625 JUMP JUMPDEST SWAP2 POP POP SWAP3 SWAP2 POP POP JUMP JUMPDEST PUSH1 0x0 DUP1 PUSH1 0x0 DUP1 PUSH1 0x80 DUP6 DUP8 SUB SLT ISZERO PUSH2 0x17AB JUMPI PUSH2 0x17AA PUSH2 0x1F43 JUMP JUMPDEST JUMPDEST PUSH1 0x0 PUSH2 0x17B9 DUP8 DUP3 DUP9 ADD PUSH2 0x1625 JUMP JUMPDEST SWAP5 POP POP PUSH1 0x20 DUP6 ADD CALLDATALOAD PUSH8 0xFFFFFFFFFFFFFFFF DUP2 GT ISZERO PUSH2 0x17DA JUMPI PUSH2 0x17D9 PUSH2 0x1F3E JUMP JUMPDEST JUMPDEST PUSH2 0x17E6 DUP8 DUP3 DUP9 ADD PUSH2 0x151D JUMP JUMPDEST SWAP4 POP POP PUSH1 0x40 DUP6 ADD CALLDATALOAD PUSH8 0xFFFFFFFFFFFFFFFF DUP2 GT ISZERO PUSH2 0x1807 JUMPI PUSH2 0x1806 PUSH2 0x1F3E JUMP JUMPDEST JUMPDEST PUSH2 0x1813 DUP8 DUP3 DUP9 ADD PUSH2 0x14B1 JUMP JUMPDEST SWAP3 POP POP PUSH1 0x60 DUP6 ADD CALLDATALOAD PUSH8 0xFFFFFFFFFFFFFFFF DUP2 GT ISZERO PUSH2 0x1834 JUMPI PUSH2 0x1833 PUSH2 0x1F3E JUMP JUMPDEST JUMPDEST PUSH2 0x1840 DUP8 DUP3 DUP9 ADD PUSH2 0x14B1 JUMP JUMPDEST SWAP2 POP POP SWAP3 SWAP6 SWAP2 SWAP5 POP SWAP3 POP JUMP JUMPDEST PUSH2 0x1855 DUP2 PUSH2 0x1D6C JUMP JUMPDEST DUP3 MSTORE POP POP JUMP JUMPDEST PUSH2 0x1864 DUP2 PUSH2 0x1D6C JUMP JUMPDEST DUP3 MSTORE POP POP JUMP JUMPDEST PUSH1 0x0 PUSH2 0x1875 DUP3 PUSH2 0x1D3F JUMP JUMPDEST PUSH2 0x187F DUP2 DUP6 PUSH2 0x1D4A JUMP JUMPDEST SWAP4 POP PUSH2 0x188F DUP2 DUP6 PUSH1 0x20 DUP7 ADD PUSH2 0x1D8F JUMP JUMPDEST PUSH2 0x1898 DUP2 PUSH2 0x1F48 JUMP JUMPDEST DUP5 ADD SWAP2 POP POP SWAP3 SWAP2 POP POP JUMP JUMPDEST PUSH1 0x0 PUSH2 0x18AE DUP3 PUSH2 0x1D3F JUMP JUMPDEST PUSH2 0x18B8 DUP2 DUP6 PUSH2 0x1D5B JUMP JUMPDEST SWAP4 POP PUSH2 0x18C8 DUP2 DUP6 PUSH1 0x20 DUP7 ADD PUSH2 0x1D8F JUMP JUMPDEST PUSH2 0x18D1 DUP2 PUSH2 0x1F48 JUMP JUMPDEST DUP5 ADD SWAP2 POP POP SWAP3 SWAP2 POP POP JUMP JUMPDEST PUSH1 0x0 PUSH1 0x40 DUP4 ADD PUSH1 0x0 DUP4 ADD MLOAD PUSH2 0x18F4 PUSH1 0x0 DUP7 ADD DUP3 PUSH2 0x1B2E JUMP JUMPDEST POP PUSH1 0x20 DUP4 ADD MLOAD DUP5 DUP3 SUB PUSH1 0x20 DUP7 ADD MSTORE PUSH2 0x190C DUP3 DUP3 PUSH2 0x186A JUMP JUMPDEST SWAP2 POP POP DUP1 SWAP2 POP POP SWAP3 SWAP2 POP POP JUMP JUMPDEST PUSH1 0x0 PUSH1 0x40 DUP4 ADD PUSH1 0x0 DUP4 ADD MLOAD PUSH2 0x1931 PUSH1 0x0 DUP7 ADD DUP3 PUSH2 0x1B2E JUMP JUMPDEST POP PUSH1 0x20 DUP4 ADD MLOAD DUP5 DUP3 SUB PUSH1 0x20 DUP7 ADD MSTORE PUSH2 0x1949 DUP3 DUP3 PUSH2 0x186A JUMP JUMPDEST SWAP2 POP POP DUP1 SWAP2 POP POP SWAP3 SWAP2 POP POP JUMP JUMPDEST PUSH1 0x0 PUSH1 0xE0 DUP4 ADD PUSH1 0x0 DUP4 ADD MLOAD PUSH2 0x196E PUSH1 0x0 DUP7 ADD DUP3 PUSH2 0x1B2E JUMP JUMPDEST POP PUSH1 0x20 DUP4 ADD MLOAD PUSH2 0x1981 PUSH1 0x20 DUP7 ADD DUP3 PUSH2 0x184C JUMP JUMPDEST POP PUSH1 0x40 DUP4 ADD MLOAD DUP5 DUP3 SUB PUSH1 0x40 DUP7 ADD MSTORE PUSH2 0x1999 DUP3 DUP3 PUSH2 0x186A JUMP JUMPDEST SWAP2 POP POP PUSH1 0x60 DUP4 ADD MLOAD DUP5 DUP3 SUB PUSH1 0x60 DUP7 ADD MSTORE PUSH2 0x19B3 DUP3 DUP3 PUSH2 0x186A JUMP JUMPDEST SWAP2 POP POP PUSH1 0x80 DUP4 ADD MLOAD PUSH2 0x19C8 PUSH1 0x80 DUP7 ADD DUP3 PUSH2 0x1B2E JUMP JUMPDEST POP PUSH1 0xA0 DUP4 ADD MLOAD PUSH2 0x19DB PUSH1 0xA0 DUP7 ADD DUP3 PUSH2 0x184C JUMP JUMPDEST POP PUSH1 0xC0 DUP4 ADD MLOAD DUP5 DUP3 SUB PUSH1 0xC0 DUP7 ADD MSTORE PUSH2 0x19F3 DUP3 DUP3 PUSH2 0x18DC JUMP JUMPDEST SWAP2 POP POP DUP1 SWAP2 POP POP SWAP3 SWAP2 POP POP JUMP JUMPDEST PUSH1 0x0 PUSH1 0xE0 DUP4 ADD PUSH1 0x0 DUP4 ADD MLOAD PUSH2 0x1A18 PUSH1 0x0 DUP7 ADD DUP3 PUSH2 0x1B2E JUMP JUMPDEST POP PUSH1 0x20 DUP4 ADD MLOAD PUSH2 0x1A2B PUSH1 0x20 DUP7 ADD DUP3 PUSH2 0x184C JUMP JUMPDEST POP PUSH1 0x40 DUP4 ADD MLOAD DUP5 DUP3 SUB PUSH1 0x40 DUP7 ADD MSTORE PUSH2 0x1A43 DUP3 DUP3 PUSH2 0x186A JUMP JUMPDEST SWAP2 POP POP PUSH1 0x60 DUP4 ADD MLOAD DUP5 DUP3 SUB PUSH1 0x60 DUP7 ADD MSTORE PUSH2 0x1A5D DUP3 DUP3 PUSH2 0x186A JUMP JUMPDEST SWAP2 POP POP PUSH1 0x80 DUP4 ADD MLOAD PUSH2 0x1A72 PUSH1 0x80 DUP7 ADD DUP3 PUSH2 0x1B2E JUMP JUMPDEST POP PUSH1 0xA0 DUP4 ADD MLOAD PUSH2 0x1A85 PUSH1 0xA0 DUP7 ADD DUP3 PUSH2 0x184C JUMP JUMPDEST POP PUSH1 0xC0 DUP4 ADD MLOAD DUP5 DUP3 SUB PUSH1 0xC0 DUP7 ADD MSTORE PUSH2 0x1A9D DUP3 DUP3 PUSH2 0x18DC JUMP JUMPDEST SWAP2 POP POP DUP1 SWAP2 POP POP SWAP3 SWAP2 POP POP JUMP JUMPDEST PUSH1 0x0 PUSH1 0xA0 DUP4 ADD PUSH1 0x0 DUP4 ADD MLOAD PUSH2 0x1AC2 PUSH1 0x0 DUP7 ADD DUP3 PUSH2 0x1B2E JUMP JUMPDEST POP PUSH1 0x20 DUP4 ADD MLOAD PUSH2 0x1AD5 PUSH1 0x20 DUP7 ADD DUP3 PUSH2 0x1B2E JUMP JUMPDEST POP PUSH1 0x40 DUP4 ADD MLOAD DUP5 DUP3 SUB PUSH1 0x40 DUP7 ADD MSTORE PUSH2 0x1AED DUP3 DUP3 PUSH2 0x1956 JUMP JUMPDEST SWAP2 POP POP PUSH1 0x60 DUP4 ADD MLOAD DUP5 DUP3 SUB PUSH1 0x60 DUP7 ADD MSTORE PUSH2 0x1B07 DUP3 DUP3 PUSH2 0x18DC JUMP JUMPDEST SWAP2 POP POP PUSH1 0x80 DUP4 ADD MLOAD DUP5 DUP3 SUB PUSH1 0x80 DUP7 ADD MSTORE PUSH2 0x1B21 DUP3 DUP3 PUSH2 0x18DC JUMP JUMPDEST SWAP2 POP POP DUP1 SWAP2 POP POP SWAP3 SWAP2 POP POP JUMP JUMPDEST PUSH2 0x1B37 DUP2 PUSH2 0x1D76 JUMP JUMPDEST DUP3 MSTORE POP POP JUMP JUMPDEST PUSH2 0x1B46 DUP2 PUSH2 0x1D76 JUMP JUMPDEST DUP3 MSTORE POP POP JUMP JUMPDEST PUSH1 0x0 PUSH1 0x20 DUP3 ADD SWAP1 POP DUP2 DUP2 SUB PUSH1 0x0 DUP4 ADD MSTORE PUSH2 0x1B66 DUP2 DUP5 PUSH2 0x1919 JUMP JUMPDEST SWAP1 POP SWAP3 SWAP2 POP POP JUMP JUMPDEST PUSH1 0x0 PUSH1 0x20 DUP3 ADD SWAP1 POP DUP2 DUP2 SUB PUSH1 0x0 DUP4 ADD MSTORE PUSH2 0x1B88 DUP2 DUP5 PUSH2 0x1A00 JUMP JUMPDEST SWAP1 POP SWAP3 SWAP2 POP POP JUMP JUMPDEST PUSH1 0x0 PUSH1 0x20 DUP3 ADD SWAP1 POP DUP2 DUP2 SUB PUSH1 0x0 DUP4 ADD MSTORE PUSH2 0x1BAA DUP2 DUP5 PUSH2 0x1AAA JUMP JUMPDEST SWAP1 POP SWAP3 SWAP2 POP POP JUMP JUMPDEST PUSH1 0x0 PUSH1 0x20 DUP3 ADD SWAP1 POP PUSH2 0x1BC7 PUSH1 0x0 DUP4 ADD DUP5 PUSH2 0x1B3D JUMP JUMPDEST SWAP3 SWAP2 POP POP JUMP JUMPDEST PUSH1 0x0 PUSH1 0xE0 DUP3 ADD SWAP1 POP PUSH2 0x1BE2 PUSH1 0x0 DUP4 ADD DUP11 PUSH2 0x1B3D JUMP JUMPDEST PUSH2 0x1BEF PUSH1 0x20 DUP4 ADD DUP10 PUSH2 0x185B JUMP JUMPDEST DUP2 DUP2 SUB PUSH1 0x40 DUP4 ADD MSTORE PUSH2 0x1C01 DUP2 DUP9 PUSH2 0x18A3 JUMP JUMPDEST SWAP1 POP DUP2 DUP2 SUB PUSH1 0x60 DUP4 ADD MSTORE PUSH2 0x1C15 DUP2 DUP8 PUSH2 0x18A3 JUMP JUMPDEST SWAP1 POP PUSH2 0x1C24 PUSH1 0x80 DUP4 ADD DUP7 PUSH2 0x1B3D JUMP JUMPDEST PUSH2 0x1C31 PUSH1 0xA0 DUP4 ADD DUP6 PUSH2 0x185B JUMP JUMPDEST DUP2 DUP2 SUB PUSH1 0xC0 DUP4 ADD MSTORE PUSH2 0x1C43 DUP2 DUP5 PUSH2 0x1919 JUMP JUMPDEST SWAP1 POP SWAP9 SWAP8 POP POP POP POP POP POP POP POP JUMP JUMPDEST PUSH1 0x0 PUSH1 0x40 DUP3 ADD SWAP1 POP PUSH2 0x1C66 PUSH1 0x0 DUP4 ADD DUP6 PUSH2 0x1B3D JUMP JUMPDEST DUP2 DUP2 SUB PUSH1 0x20 DUP4 ADD MSTORE PUSH2 0x1C78 DUP2 DUP5 PUSH2 0x18A3 JUMP JUMPDEST SWAP1 POP SWAP4 SWAP3 POP POP POP JUMP JUMPDEST PUSH1 0x0 PUSH1 0xA0 DUP3 ADD SWAP1 POP PUSH2 0x1C96 PUSH1 0x0 DUP4 ADD DUP9 PUSH2 0x1B3D JUMP JUMPDEST PUSH2 0x1CA3 PUSH1 0x20 DUP4 ADD DUP8 PUSH2 0x1B3D JUMP JUMPDEST DUP2 DUP2 SUB PUSH1 0x40 DUP4 ADD MSTORE PUSH2 0x1CB5 DUP2 DUP7 PUSH2 0x1A00 JUMP JUMPDEST SWAP1 POP DUP2 DUP2 SUB PUSH1 0x60 DUP4 ADD MSTORE PUSH2 0x1CC9 DUP2 DUP6 PUSH2 0x1919 JUMP JUMPDEST SWAP1 POP DUP2 DUP2 SUB PUSH1 0x80 DUP4 ADD MSTORE PUSH2 0x1CDD DUP2 DUP5 PUSH2 0x1919 JUMP JUMPDEST SWAP1 POP SWAP7 SWAP6 POP POP POP POP POP POP JUMP JUMPDEST PUSH1 0x0 PUSH2 0x1CF3 PUSH2 0x1D04 JUMP JUMPDEST SWAP1 POP PUSH2 0x1CFF DUP3 DUP3 PUSH2 0x1DF4 JUMP JUMPDEST SWAP2 SWAP1 POP JUMP JUMPDEST PUSH1 0x0 PUSH1 0x40 MLOAD SWAP1 POP SWAP1 JUMP JUMPDEST PUSH1 0x0 PUSH8 0xFFFFFFFFFFFFFFFF DUP3 GT ISZERO PUSH2 0x1D29 JUMPI PUSH2 0x1D28 PUSH2 0x1EFB JUMP JUMPDEST JUMPDEST PUSH2 0x1D32 DUP3 PUSH2 0x1F48 JUMP JUMPDEST SWAP1 POP PUSH1 0x20 DUP2 ADD SWAP1 POP SWAP2 SWAP1 POP JUMP JUMPDEST PUSH1 0x0 DUP2 MLOAD SWAP1 POP SWAP2 SWAP1 POP JUMP JUMPDEST PUSH1 0x0 DUP3 DUP3 MSTORE PUSH1 0x20 DUP3 ADD SWAP1 POP SWAP3 SWAP2 POP POP JUMP JUMPDEST PUSH1 0x0 DUP3 DUP3 MSTORE PUSH1 0x20 DUP3 ADD SWAP1 POP SWAP3 SWAP2 POP POP JUMP JUMPDEST PUSH1 0x0 DUP2 SWAP1 POP SWAP2 SWAP1 POP JUMP JUMPDEST PUSH1 0x0 DUP2 SWAP1 POP SWAP2 SWAP1 POP JUMP JUMPDEST DUP3 DUP2 DUP4 CALLDATACOPY PUSH1 0x0 DUP4 DUP4 ADD MSTORE POP POP POP JUMP JUMPDEST PUSH1 0x0 JUMPDEST DUP4 DUP2 LT ISZERO PUSH2 0x1DAD JUMPI DUP1 DUP3 ADD MLOAD DUP2 DUP5 ADD MSTORE PUSH1 0x20 DUP2 ADD SWAP1 POP PUSH2 0x1D92 JUMP JUMPDEST DUP4 DUP2 GT ISZERO PUSH2 0x1DBC JUMPI PUSH1 0x0 DUP5 DUP5 ADD MSTORE JUMPDEST POP POP POP POP JUMP JUMPDEST PUSH1 0x0 PUSH1 0x2 DUP3 DIV SWAP1 POP PUSH1 0x1 DUP3 AND DUP1 PUSH2 0x1DDA JUMPI PUSH1 0x7F DUP3 AND SWAP2 POP JUMPDEST PUSH1 0x20 DUP3 LT DUP2 EQ ISZERO PUSH2 0x1DEE JUMPI PUSH2 0x1DED PUSH2 0x1E9D JUMP JUMPDEST JUMPDEST POP SWAP2 SWAP1 POP JUMP JUMPDEST PUSH2 0x1DFD DUP3 PUSH2 0x1F48 JUMP JUMPDEST DUP2 ADD DUP2 DUP2 LT PUSH8 0xFFFFFFFFFFFFFFFF DUP3 GT OR ISZERO PUSH2 0x1E1C JUMPI PUSH2 0x1E1B PUSH2 0x1EFB JUMP JUMPDEST JUMPDEST DUP1 PUSH1 0x40 MSTORE POP POP POP JUMP JUMPDEST PUSH1 0x0 PUSH2 0x1E30 DUP3 PUSH2 0x1D76 JUMP JUMPDEST SWAP2 POP PUSH32 0xFFFFFFFFFFFFFFFFFFFFFFFFFFFFFFFFFFFFFFFFFFFFFFFFFFFFFFFFFFFFFFFF DUP3 EQ ISZERO PUSH2 0x1E63 JUMPI PUSH2 0x1E62 PUSH2 0x1E6E JUMP JUMPDEST JUMPDEST PUSH1 0x1 DUP3 ADD SWAP1 POP SWAP2 SWAP1 POP JUMP JUMPDEST PUSH32 0x4E487B7100000000000000000000000000000000000000000000000000000000 PUSH1 0x0 MSTORE PUSH1 0x11 PUSH1 0x4 MSTORE PUSH1 0x24 PUSH1 0x0 REVERT JUMPDEST PUSH32 0x4E487B7100000000000000000000000000000000000000000000000000000000 PUSH1 0x0 MSTORE PUSH1 0x22 PUSH1 0x4 MSTORE PUSH1 0x24 PUSH1 0x0 REVERT JUMPDEST PUSH32 0x4E487B7100000000000000000000000000000000000000000000000000000000 PUSH1 0x0 MSTORE PUSH1 0x32 PUSH1 0x4 MSTORE PUSH1 0x24 PUSH1 0x0 REVERT JUMPDEST PUSH32 0x4E487B7100000000000000000000000000000000000000000000000000000000 PUSH1 0x0 MSTORE PUSH1 0x41 PUSH1 0x4 MSTORE PUSH1 0x24 PUSH1 0x0 REVERT JUMPDEST PUSH1 0x0 DUP1 REVERT JUMPDEST PUSH1 0x0 DUP1 REVERT JUMPDEST PUSH1 0x0 DUP1 REVERT JUMPDEST PUSH1 0x0 DUP1 REVERT JUMPDEST PUSH1 0x0 DUP1 REVERT JUMPDEST PUSH1 0x0 DUP1 REVERT JUMPDEST PUSH1 0x0 PUSH1 0x1F NOT PUSH1 0x1F DUP4 ADD AND SWAP1 POP SWAP2 SWAP1 POP JUMP JUMPDEST PUSH2 0x1F62 DUP2 PUSH2 0x1D6C JUMP JUMPDEST DUP2 EQ PUSH2 0x1F6D JUMPI PUSH1 0x0 DUP1 REVERT JUMPDEST POP JUMP JUMPDEST PUSH2 0x1F79 DUP2 PUSH2 0x1D76 JUMP JUMPDEST DUP2 EQ PUSH2 0x1F84 JUMPI PUSH1 0x0 DUP1 REVERT JUMPDEST POP JUMP INVALID LOG2 PUSH5 0x6970667358 0x22 SLT KECCAK256 EXTCODEHASH 0xDC STATICCALL PUSH16 0x8498020243B42CBDA634BAEB6BB190D8 0xFC DUP3 0xAE 0xEB 0xBB 0xCE 0xD6 SMOD 0xEC 0x29 0xBD AND PUSH5 0x736F6C6343 STOP ADDMOD SMOD STOP CALLER "
		},
		"gasEstimates": {
			"creation": {
				"codeDepositCost": "1625000",
				"executionCost": "1701",
				"totalCost": "1626701"
			},
			"external": {
				"clients(uint256)": "infinite",
				"comics(uint256)": "infinite",
				"createClient(string)": "infinite",
				"createComic(int256,string,string,uint256,int256,(uint256,string))": "infinite",
				"createPurchase(uint256,(uint256,int256,string,string,uint256,int256,(uint256,string)),(uint256,string),(uint256,string))": "infinite",
				"getClient(uint256)": "infinite",
				"getComic(uint256)": "infinite",
				"getPurchase(uint256)": "infinite",
				"nextIdClients()": "2518",
				"nextIdPurchase()": "2452",
				"nextidComic()": "2540",
				"purchases(uint256)": "infinite"
			}
		},
		"methodIdentifiers": {
			"clients(uint256)": "f88af21d",
			"comics(uint256)": "7a80dc1d",
			"createClient(string)": "e88e9f0f",
			"createComic(int256,string,string,uint256,int256,(uint256,string))": "1d78c52c",
			"createPurchase(uint256,(uint256,int256,string,string,uint256,int256,(uint256,string)),(uint256,string),(uint256,string))": "fccd0046",
			"getClient(uint256)": "d0068f80",
			"getComic(uint256)": "47ac33ee",
			"getPurchase(uint256)": "3742a9f7",
			"nextIdClients()": "5b02c922",
			"nextIdPurchase()": "2cb9d0e8",
			"nextidComic()": "6f3ffbb9",
			"purchases(uint256)": "8392fe31"
		}
	},
	"abi": [
		{
			"inputs": [
				{
					"internalType": "uint256",
					"name": "",
					"type": "uint256"
				}
			],
			"name": "clients",
			"outputs": [
				{
					"internalType": "uint256",
					"name": "idclient",
					"type": "uint256"
				},
				{
					"internalType": "string",
					"name": "name",
					"type": "string"
				}
			],
			"stateMutability": "view",
			"type": "function"
		},
		{
			"inputs": [
				{
					"internalType": "uint256",
					"name": "",
					"type": "uint256"
				}
			],
			"name": "comics",
			"outputs": [
				{
					"internalType": "uint256",
					"name": "idcomic",
					"type": "uint256"
				},
				{
					"internalType": "int256",
					"name": "price",
					"type": "int256"
				},
				{
					"internalType": "string",
					"name": "name_comic",
					"type": "string"
				},
				{
					"internalType": "string",
					"name": "author",
					"type": "string"
				},
				{
					"internalType": "uint256",
					"name": "publish_date",
					"type": "uint256"
				},
				{
					"internalType": "int256",
					"name": "ISBN",
					"type": "int256"
				},
				{
					"components": [
						{
							"internalType": "uint256",
							"name": "idclient",
							"type": "uint256"
						},
						{
							"internalType": "string",
							"name": "name",
							"type": "string"
						}
					],
					"internalType": "struct purchaseContract.Client",
					"name": "owner",
					"type": "tuple"
				}
			],
			"stateMutability": "view",
			"type": "function"
		},
		{
			"inputs": [
				{
					"internalType": "string",
					"name": "_name",
					"type": "string"
				}
			],
			"name": "createClient",
			"outputs": [],
			"stateMutability": "nonpayable",
			"type": "function"
		},
		{
			"inputs": [
				{
					"internalType": "int256",
					"name": "_price",
					"type": "int256"
				},
				{
					"internalType": "string",
					"name": "_name_comic",
					"type": "string"
				},
				{
					"internalType": "string",
					"name": "_author",
					"type": "string"
				},
				{
					"internalType": "uint256",
					"name": "_publish_date",
					"type": "uint256"
				},
				{
					"internalType": "int256",
					"name": "_isbn",
					"type": "int256"
				},
				{
					"components": [
						{
							"internalType": "uint256",
							"name": "idclient",
							"type": "uint256"
						},
						{
							"internalType": "string",
							"name": "name",
							"type": "string"
						}
					],
					"internalType": "struct purchaseContract.Client",
					"name": "_owner",
					"type": "tuple"
				}
			],
			"name": "createComic",
			"outputs": [],
			"stateMutability": "nonpayable",
			"type": "function"
		},
		{
			"inputs": [
				{
					"internalType": "uint256",
					"name": "_purchase_date",
					"type": "uint256"
				},
				{
					"components": [
						{
							"internalType": "uint256",
							"name": "idcomic",
							"type": "uint256"
						},
						{
							"internalType": "int256",
							"name": "price",
							"type": "int256"
						},
						{
							"internalType": "string",
							"name": "name_comic",
							"type": "string"
						},
						{
							"internalType": "string",
							"name": "author",
							"type": "string"
						},
						{
							"internalType": "uint256",
							"name": "publish_date",
							"type": "uint256"
						},
						{
							"internalType": "int256",
							"name": "ISBN",
							"type": "int256"
						},
						{
							"components": [
								{
									"internalType": "uint256",
									"name": "idclient",
									"type": "uint256"
								},
								{
									"internalType": "string",
									"name": "name",
									"type": "string"
								}
							],
							"internalType": "struct purchaseContract.Client",
							"name": "owner",
							"type": "tuple"
						}
					],
					"internalType": "struct purchaseContract.Comic",
					"name": "_item",
					"type": "tuple"
				},
				{
					"components": [
						{
							"internalType": "uint256",
							"name": "idclient",
							"type": "uint256"
						},
						{
							"internalType": "string",
							"name": "name",
							"type": "string"
						}
					],
					"internalType": "struct purchaseContract.Client",
					"name": "_owner",
					"type": "tuple"
				},
				{
					"components": [
						{
							"internalType": "uint256",
							"name": "idclient",
							"type": "uint256"
						},
						{
							"internalType": "string",
							"name": "name",
							"type": "string"
						}
					],
					"internalType": "struct purchaseContract.Client",
					"name": "_buyer",
					"type": "tuple"
				}
			],
			"name": "createPurchase",
			"outputs": [],
			"stateMutability": "nonpayable",
			"type": "function"
		},
		{
			"inputs": [
				{
					"internalType": "uint256",
					"name": "id",
					"type": "uint256"
				}
			],
			"name": "getClient",
			"outputs": [
				{
					"components": [
						{
							"internalType": "uint256",
							"name": "idclient",
							"type": "uint256"
						},
						{
							"internalType": "string",
							"name": "name",
							"type": "string"
						}
					],
					"internalType": "struct purchaseContract.Client",
					"name": "",
					"type": "tuple"
				}
			],
			"stateMutability": "view",
			"type": "function"
		},
		{
			"inputs": [
				{
					"internalType": "uint256",
					"name": "id",
					"type": "uint256"
				}
			],
			"name": "getComic",
			"outputs": [
				{
					"components": [
						{
							"internalType": "uint256",
							"name": "idcomic",
							"type": "uint256"
						},
						{
							"internalType": "int256",
							"name": "price",
							"type": "int256"
						},
						{
							"internalType": "string",
							"name": "name_comic",
							"type": "string"
						},
						{
							"internalType": "string",
							"name": "author",
							"type": "string"
						},
						{
							"internalType": "uint256",
							"name": "publish_date",
							"type": "uint256"
						},
						{
							"internalType": "int256",
							"name": "ISBN",
							"type": "int256"
						},
						{
							"components": [
								{
									"internalType": "uint256",
									"name": "idclient",
									"type": "uint256"
								},
								{
									"internalType": "string",
									"name": "name",
									"type": "string"
								}
							],
							"internalType": "struct purchaseContract.Client",
							"name": "owner",
							"type": "tuple"
						}
					],
					"internalType": "struct purchaseContract.Comic",
					"name": "",
					"type": "tuple"
				}
			],
			"stateMutability": "view",
			"type": "function"
		},
		{
			"inputs": [
				{
					"internalType": "uint256",
					"name": "id",
					"type": "uint256"
				}
			],
			"name": "getPurchase",
			"outputs": [
				{
					"components": [
						{
							"internalType": "uint256",
							"name": "idpurchase",
							"type": "uint256"
						},
						{
							"internalType": "uint256",
							"name": "purchase_date",
							"type": "uint256"
						},
						{
							"components": [
								{
									"internalType": "uint256",
									"name": "idcomic",
									"type": "uint256"
								},
								{
									"internalType": "int256",
									"name": "price",
									"type": "int256"
								},
								{
									"internalType": "string",
									"name": "name_comic",
									"type": "string"
								},
								{
									"internalType": "string",
									"name": "author",
									"type": "string"
								},
								{
									"internalType": "uint256",
									"name": "publish_date",
									"type": "uint256"
								},
								{
									"internalType": "int256",
									"name": "ISBN",
									"type": "int256"
								},
								{
									"components": [
										{
											"internalType": "uint256",
											"name": "idclient",
											"type": "uint256"
										},
										{
											"internalType": "string",
											"name": "name",
											"type": "string"
										}
									],
									"internalType": "struct purchaseContract.Client",
									"name": "owner",
									"type": "tuple"
								}
							],
							"internalType": "struct purchaseContract.Comic",
							"name": "item",
							"type": "tuple"
						},
						{
							"components": [
								{
									"internalType": "uint256",
									"name": "idclient",
									"type": "uint256"
								},
								{
									"internalType": "string",
									"name": "name",
									"type": "string"
								}
							],
							"internalType": "struct purchaseContract.Client",
							"name": "owner",
							"type": "tuple"
						},
						{
							"components": [
								{
									"internalType": "uint256",
									"name": "idclient",
									"type": "uint256"
								},
								{
									"internalType": "string",
									"name": "name",
									"type": "string"
								}
							],
							"internalType": "struct purchaseContract.Client",
							"name": "buyer",
							"type": "tuple"
						}
					],
					"internalType": "struct purchaseContract.Purchase",
					"name": "",
					"type": "tuple"
				}
			],
			"stateMutability": "view",
			"type": "function"
		},
		{
			"inputs": [],
			"name": "nextIdClients",
			"outputs": [
				{
					"internalType": "uint256",
					"name": "",
					"type": "uint256"
				}
			],
			"stateMutability": "view",
			"type": "function"
		},
		{
			"inputs": [],
			"name": "nextIdPurchase",
			"outputs": [
				{
					"internalType": "uint256",
					"name": "",
					"type": "uint256"
				}
			],
			"stateMutability": "view",
			"type": "function"
		},
		{
			"inputs": [],
			"name": "nextidComic",
			"outputs": [
				{
					"internalType": "uint256",
					"name": "",
					"type": "uint256"
				}
			],
			"stateMutability": "view",
			"type": "function"
		},
		{
			"inputs": [
				{
					"internalType": "uint256",
					"name": "",
					"type": "uint256"
				}
			],
			"name": "purchases",
			"outputs": [
				{
					"internalType": "uint256",
					"name": "idpurchase",
					"type": "uint256"
				},
				{
					"internalType": "uint256",
					"name": "purchase_date",
					"type": "uint256"
				},
				{
					"components": [
						{
							"internalType": "uint256",
							"name": "idcomic",
							"type": "uint256"
						},
						{
							"internalType": "int256",
							"name": "price",
							"type": "int256"
						},
						{
							"internalType": "string",
							"name": "name_comic",
							"type": "string"
						},
						{
							"internalType": "string",
							"name": "author",
							"type": "string"
						},
						{
							"internalType": "uint256",
							"name": "publish_date",
							"type": "uint256"
						},
						{
							"internalType": "int256",
							"name": "ISBN",
							"type": "int256"
						},
						{
							"components": [
								{
									"internalType": "uint256",
									"name": "idclient",
									"type": "uint256"
								},
								{
									"internalType": "string",
									"name": "name",
									"type": "string"
								}
							],
							"internalType": "struct purchaseContract.Client",
							"name": "owner",
							"type": "tuple"
						}
					],
					"internalType": "struct purchaseContract.Comic",
					"name": "item",
					"type": "tuple"
				},
				{
					"components": [
						{
							"internalType": "uint256",
							"name": "idclient",
							"type": "uint256"
						},
						{
							"internalType": "string",
							"name": "name",
							"type": "string"
						}
					],
					"internalType": "struct purchaseContract.Client",
					"name": "owner",
					"type": "tuple"
				},
				{
					"components": [
						{
							"internalType": "uint256",
							"name": "idclient",
							"type": "uint256"
						},
						{
							"internalType": "string",
							"name": "name",
							"type": "string"
						}
					],
					"internalType": "struct purchaseContract.Client",
					"name": "buyer",
					"type": "tuple"
				}
			],
			"stateMutability": "view",
			"type": "function"
		}
	]
}